:020000040800F2
:10000000706D0020090300081F2F00082924000834
:100010000D2F0008E9060008113600080000000056
:10002000000000000000000000000000490200087D
:100030002107000800000000A50200081531000893
:1000400023030008230300082303000823030008F8
:1000500023030008230300082303000823030008E8
:1000600023030008230300082303000823030008D8
:1000700023030008230300082303000823030008C8
:1000800023030008230300082303000823030008B8
:1000900023030008230300082303000823030008A8
:1000A0002303000823030008230300082303000898
:1000B0002303000823030008230300082303000888
:1000C0002303000823030008230300082303000878
:1000D0002303000823030008230300082303000868
:1000E000230300082303000823030008E931000864
:1000F00023030008F5310008230300082303000848
:100100002303000823030008230300082303000837
:100110002303000823030008230300082303000827
:100120002303000823030008230300082303000817
:100130002303000823030008230300082303000807
:1001400023030008230300082303000823030008F7
:1001500023030008230300082303000823030008E7
:1001600023030008230300082303000823030008D7
:1001700023030008230300082303000800000000F5
:10018000230300082303000800F002F800F04CF8F5
:100190000AA090E8000C82448344AAF10107DA45E2
:1001A00001D100F041F8AFF2090EBAE80F0013F0E8
:1001B000010F18BFFB1A43F001031847A07D000090
:1001C000C07D00000A4410F8014B14F00F0508BF71
:1001D00010F8015B240908BF10F8014B6D1E05D013
:1001E00010F8013B6D1E01F8013BF9D1641E03D0EC
:1001F000641E01F8015BFBD19142E4D3704700001B
:100200000023002400250026103A28BF78C1FBD81F
:10021000520728BF30C148BF0B6070471FB507F0B9
:1002200094FD1FBD10B510BD00F096F91146FFF703
:10023000F5FF05F0FCF900F0B4F903B4FFF7F2FFA5
:1002400003BC00F0B5F900002C4B19680868B0E851
:10025000F04F80F30988BFF36F8F4FF0000080F3F9
:10026000118870470000000008480068006880F3AB
:1002700008884FF0000080F3148862B661B6BFF3BF
:100280004F8FBFF36F8F00DF00BF00BF08ED00E0AE
:10029000DFF80C00016841F470010160704700BF95
:1002A00088ED00E0EFF30980BFF36F8F134B1A68FE
:1002B0001EF0100F08BF20ED108A20E9F04F1060EB
:1002C00009B44FF0500080F31188BFF34F8FBFF394
:1002D0006F8F06F063FB4FF0000080F3118809BCBC
:1002E00019680868B0E8F04F1EF0100F08BFB0ECB6
:1002F000108A80F30988BFF36F8F7047DC000020FD
:10030000EFF305807047000009488047094800471F
:10031000FEE7FEE7FEE7FEE7FEE7FEE7FEE7FEE7B5
:10032000FEE7FEE704480549054A064B7047000012
:10033000D93100088901000870670020706D002025
:10034000706900207069002053EA020C00F0698097
:100350002DE9F04B4FF00006002B1FBFB3FA83F5D9
:1003600003FA05F424FA05F65E4012BF1643B2FA0A
:1003700082F502FA05F4C5F120051EBF22FA05FC3C
:1003800044EA0C04203556EA044C4FEA144418BFE2
:10039000641C4FF000084FF00009904271EB030C11
:1003A00039D3002919BFB1FA81F701FA07F6B0FA7B
:1003B00080F700FA07F6C7F120071EBF20FA07FCF6
:1003C00046EA0C062037B6FBF4FCA7EB0507103F06
:1003D00007F01F0BCBF120060CFA0BFB2CFA06F6EC
:1003E00044BFB3460026202FA4BF5E464FF0000B4B
:1003F0005BEA060C08BF4FF0010B19EB0B09ABFBD6
:10040000027C48EB0608C01B06FB02CC0BFB03CCAE
:1004100071EB0C01C1E70B46024641464846BDE878
:10042000F08B13B54FF000004FF00001AFF30080E8
:10043000BDE81C40704710B5203AC0F00B80B1E811
:100440001850203AA0E81850B1E81850A0E8185009
:10045000BFF4F5AF5FEA027C24BFB1E81850A0E812
:10046000185044BF18C918C0BDE810405FEA827C2C
:1004700024BF51F8043B40F8043B08BF7047D20743
:1004800028BF31F8023B48BF11F8012B28BF20F8E4
:10049000023B48BF00F8012B70474FF000020429CF
:1004A000C0F0128010F0030C00F01B80CCF1040CA3
:1004B000BCF1020F18BF00F8012BA8BF20F8022BD7
:1004C000A1EB0C0100F00DB85FEAC17C24BF00F87D
:1004D000012B00F8012B48BF00F8012B70474FF0AB
:1004E000000200B5134694469646203922BFA0E884
:1004F0000C50A0E80C50B1F12001BFF4F7AF090790
:1005000028BFA0E80C5048BF0CC05DF804EB890080
:1005100028BF40F8042B08BF704748BF20F8022BC3
:1005200011F0804F18BF00F8012B704770477047DB
:10053000704710B500F008F8006810BD10B504460B
:1005400000F002F8046010BD004870470C670020FE
:10055000004870470C6700207546FFF7F9FFAE466C
:1005600005006946534620F00700854618B020B5BF
:10057000FFF7D8FEBDE820404FF000064FF000071F
:100580004FF000084FF0000B21F00701AC46ACE83B
:10059000C009ACE8C009ACE8C009ACE8C0098D46A8
:1005A00070470446AFF300802046FFF746FE000088
:1005B00001491820ABBEFEE726000200704700008C
:1005C000464910B54A6822F440324A604A68436896
:1005D0001A434A6001684A6822F480724A600168DE
:1005E0004A68036942EA03224A6001684A6822F0C5
:1005F00040724A6001684A6883681A434A60016829
:100600008A6822F400628A6001688A68C3681A43B3
:100610008A60816A6FF07062D14201688A6822F054
:1006200070628A6001688A680CD0836A1A438A60A3
:1006300001688A6822F040528A6001688A68C36A49
:100640001A4301E022F040528A6001688A6822F071
:1006500002028A6001688A68037E42EA43028A6075
:1006600090F82010002901684A680FD042F4006217
:100670004A6001684A6822F460424A6001684A6838
:10068000174C436A04EB43331A4301E022F400623F
:100690004A600168CA6A22F47002CA620168CA6AC2
:1006A000838B104C04EB03531A43CA6201688A68B7
:1006B00022F400728A6001688A6890F8303042EA59
:1006C00043228A6001688A6822F480628A60016835
:1006D0008A68406942EA8020886010BD002301409A
:1006E00000E0FFFF0000F0FFFEE7000010B50A4C3D
:1006F0000A484FF480712269521C22610F2A01DAE4
:10070000012200E0002200F05EFB20691E2801DDCE
:100710000020206110BD0000000000200000024009
:100720007047000070B50D4D0024012202212846BB
:1007300000F049FB322005F031F800220221284662
:1007400000F041FB322005F029F8641C052CECDB9D
:10075000BDE870404FF4967005F020B800080240E4
:10076000194D1A4C1A4F01264FF47A7842F210793B
:10077000287908B1072823D103F0E6FFD4E90A015C
:1007800003F032FDE0B13E70002004F005F80022D5
:100790001146104604F038F80021084604F0EEF93E
:1007A0000021084603F0C8FE05F01EFE404604F096
:1007B000A7FAC4E90A01484604F0A2FAC4E90C0108
:1007C000012004F0EBFFD3E7D002002088000020D6
:1007D00041000020012004F0E1FFFBE772B6FEE7D4
:1007E00078B50024009490F83C20012A19D0012209
:1007F00080F83C200A6807230568092A13D9EE68A7
:100800000A3A02EB420293409E43EE600B788A68FC
:100810000A3B03EB43039A400368DD682A43DA602E
:1008200010E0022078BD2E6902EB420293409E4305
:100830002E610B788A6803EB43039A4003681D69B5
:100840002A431A614A681F23072A13D205686E6B70
:10085000521E02EB820293409E436E630B790A881C
:100860005B1E92B203EB83039A4003685D6B2A43DD
:100870005A6327E005680D2A12D22E6BD21F02EBB5
:10088000820293409E432E630B790A88DB1F92B24B
:1008900003EB83039A4003681D6B2A431A6311E03C
:1008A000EE6A0D3A02EB820293409E43EE620B79B0
:1008B0000A880D3B92B203EB83039A400368DD6A1A
:1008C0002A43DA62164B0568144A9D4206D10D6828
:1008D000122D03D1556845F48005556005689D4289
:1008E00018D10B68102B01D0112B13D1536843F48E
:1008F00000035360096810290CD10A490A4A0968A3
:10090000B1FBF2F101EB8101490000E0491E0091C9
:100910000029FBD180F83C40002078BD0023014035
:10092000002001406C00002040420F000068C06CB5
:10093000704770B504004FF0000503D0206C00260E
:1009400010B107E0012070BD204600F01DF866647C
:1009500084F83C60206CC00610D4206C20F48850D1
:1009600040F0020020642046FFF72AFE6664206CF7
:1009700020F0020040F00100206400E0012584F82E
:100980003C60284670BD000010B586B004461421B6
:100990006846FFF7A4FD1149206888421BD1104822
:1009A0000021026842F480720260006800F48070E6
:1009B00005900B481438026842F002020260006899
:1009C00000F00200059003200090CDE90101694686
:1009D000044800F0FBF806B010BD00000020014004
:1009E00044380240000402402DE9F041044600680A
:1009F0000D4681684FF0000749050BD58068C0059A
:100A000008D5206C40F02000206484F83C70012060
:100A1000BDE8F08100F0DCF9064613E0681C11D057
:100A200025B100F0D5F9801BA8420BD920680068D9
:100A3000800707D4206C40F00400206484F83C70E8
:100A40000320E5E7206800688007E7D521686FF09C
:100A500012000860206C40F40070206420688168F7
:100A600011F0405F13D1217E89B9C16A11F4700F72
:100A700002D0806840050AD4206C20F48070206485
:100A8000206CC00403D4206C40F0010020640020DE
:100A9000BEE7000018B50021009190F83C20012A23
:100AA00007D0012280F83C2002689368DB0702D05F
:100AB00011E0022018BD936843F0010393602E4AB1
:100AC0002E4B1268B2FBF3F202EB420200E0521E20
:100AD0000092002AFBD102689368DB0742D0036CC6
:100AE00040F20164A34343F48073036453685B05DD
:100AF00005D5036C23F4005343F480530364036C63
:100B0000DB0404D5436C23F00603436400E0416436
:100B100080F83C101A496FF022031360496800689E
:100B2000CA06184906D0884224D1816811F0405F76
:100B300013D01FE08842F8D0134A904203D1D1F875
:100B40000423D206F1D0114A904213D1D1F80413F4
:100B500001F01F011029E8D30CE0816841F08041C9
:100B6000816007E0016C41F010010164416C41F0CB
:100B700001014164002018BD6C00002040420F00BC
:100B800000230140002001400021014000220140DB
:100B900090F83C1001290CD0012180F83C1001682C
:100BA0008A6822F001028A6001688968C90702D058
:100BB00007E002207047016C21F4885141F00101E7
:100BC0000164002180F83C10084670472DE9F84F79
:100BD000DFF8BCA10022012503264FF00F090AF11E
:100BE000040BAAF1040E00BF0B6805FA02F42340BF
:100BF000A34270D10F7907F00307012F01D0022F14
:100C000016D187684FEA420806FA08FC27EA0C0763
:100C1000D1F80CC00CFA08FC4CEA070CC0F808C06C
:100C20004768A7430C79C4F3001494403C434460E4
:100C30000C79E443A4070AD0C4684FEA420C06FAD0
:100C40000CF7BC438F6807FA0CF72743C7600C7991
:100C500004F00304022C12D1D40800EB840CDCF85D
:100C600020405707FF0E09FA07F824EA0804D1F8D4
:100C7000108008FA07F848EA0408CCF820800468D5
:100C80004FEA420C06FA0CF7BC430F7907F0030752
:100C900007FA0CF7274307604C6814F4403F70D004
:100CA0003C4C276847F480472760246822F00307FC
:100CB00004F480440094384C07EB040CDCF808483A
:100CC00097074FEA177809FA08F7BC43334FB84241
:100CD00002D1002724E054E0314FB84201D101276E
:100CE0001EE0304FB84201D1022719E02E4FB84222
:100CF00001D1032714E02D4FB84201D104270FE0A2
:100D00002B4FB84201D105270AE02A4FB84201D142
:100D1000062705E0284FB84201D1072700E0082741
:100D200007FA08F72743CCF80878DAF80040574666
:100D3000D1F804C09C435FEACC2C00D51C433C6036
:100D4000DBF800405F46D1F804C09C435FEA8C2C7E
:100D500000D51C433C60DEF800407746D1F804C063
:100D60009C435FEA8C3C00D51C433C60084F083F25
:100D70003C68D1F804C09C435FEACC3C00D51C43DE
:100D80003C60521C102AFFF42FAFBDE8F88F000022
:100D9000083C01404438024000300140000002405D
:100DA0000004024000080240000C02400010024013
:100DB0000014024000180240001C02400069084074
:100DC00000D0012070470AB1816170470904FBE738
:100DD0000148806870470000D00000200248816808
:100DE0000278114481607047D00000200B4810B594
:100DF000016841F400710160016841F480610160A3
:100E0000016841F480710160032000F09FF8052023
:100E100000F006F800F050F8002010BD003C024041
:100E200030B505461F4887B00024016841F4807141
:100E30000160006806A900F48070009001A800F02D
:100E400031F90498A8B100F04DF940001649174A4D
:100E5000B0FBF1F11648491E026040F2E732C0E9EA
:100E60000324C0E90114846100F044FD040003D0B0
:100E700015E000F037F9E9E70D4800F0BFFD040088
:100E80000DD12D2000F034F8102D07D20022294674
:100E90002D2000F03BF80748056000E0012407B072
:100EA000204630BD4038024040420F000020004044
:100EB000D4290020D40000200C4882B0016841F4FD
:100EC00080410160006800F4804000900748001FE6
:100ED000016841F0805101600068002200F08050FC
:100EE00000900F21901E02B000F010B8443802406C
:100EF000002809DB00F01F02012191404009800019
:100F000000F1E020C0F8001170470000F0B40E4B73
:100F10001B680C46C3F30223C3F10705042D00D957
:100F20000425191D072901D2002300E0DB1E01263C
:100F300006FA05F1491E214099409E40761E164052
:100F40003143F0BC02F08ABB0CED00E0064900F032
:100F5000070208684FF6FF03184040EA0220034AE0
:100F600010430860704700000CED00E00000FA0537
:100F70002DE9F0470E46050065D0DFF81481D8F85A
:100F80000000F7B200F00700B04207D288F8007006
:100F9000D8F8000000F00700B04254D128683D4C5A
:100FA000810712D5400703D5206840F4E050206047
:100FB0002878000703D5206840F46040206020684E
:100FC000A96820F0F000084320602878C0072DD0E1
:100FD000304968680839012812D0022813D0032844
:100FE00011D00968890700292DDA216821F0030151
:100FF00001432160FFF7ECFE814641F2883A0EE0A2
:1010000009688903EFE709688901ECE7FFF7E0FE6B
:10101000A0EB0901514502D90320BDE8F087206803
:10102000696800F00C00B0EB810FEFD1D8F8001028
:10103000404601F00701B14207D90770006800F08F
:101040000700B04201D00120E7E72878400705D526
:101050002068E96820F4E050084320602878000701
:1010600006D52068296920F4604040EAC10020606C
:1010700000F058F82168084AC1F30311515CC840D8
:101080000649086006480068FFF7CAFE0020C4E76A
:10109000003C024008380240807D00086C000020BF
:1010A000D40000200F2202600C4A136803F00303EF
:1010B0004360136803F0F0038360136803F4E053A4
:1010C000C36012684FF4E05303EAD202026104489D
:1010D000006800F007000860704700000838024010
:1010E000003C02400448054900680968044AC1F30D
:1010F0008221515CC84070476C00002008380240D3
:10110000907D00080448054900680968044AC1F355
:101110004231515CC84070476C00002008380240E2
:10112000907D0008154810B5006810F00C021448B6
:1011300013D01449042A0FD0082A0ED10F4C241FB3
:101140002268236802F03F025B0207D52068C0F3E3
:101150008810A0FB010106E0084610BD2168C1F31C
:101160008811A1FB00010023FFF7EEF82168C1F30D
:101170000141491C4900B0FBF1F010BD08380240A4
:101180000024F40040787D012DE9F84F04006ED072
:101190002078DFF84C93C007A9F104054AD009F183
:1011A00004000168C1F38101012908D00068C0F37F
:1011B000810002280AD1D9F80000400206D528682B
:1011C000800337D560680028E1D033E06068B0F56F
:1011D000803F10D0B0F5A02F286810D020F48030C8
:1011E0002860286820F4802028606068A8B1FFF794
:1011F000EFFD06460DE0286840F48030F4E740F447
:1012000080202860F7E700BFFFF7E2FD801B64281D
:1012100073D828688003F7D50CE0FFF7D9FD0646A0
:1012200005E000BFFFF7D4FD801B6428F0D82868D4
:101230008003F7D42078DFF8AC8280074FF0000AF3
:101240003ED5A748001D016811F00C0F08D00068BA
:10125000C0F3810002280BD1D9F80000400207D466
:101260002868800716D5E068012800D112E033E134
:10127000E068B8B10120C8F80000FFF7A9FD0646F4
:1012800005E000BFFFF7A4FD801B0228C0D8286836
:101290008007F7D52868216920F0F80040EAC100EE
:1012A00028600DE0C8F800A0FFF792FD064604E0B4
:1012B000FFF78EFD801B02281FD828688007F7D40F
:1012C0002078000722D5864F87486169703771B151
:1012D00001210160FFF77CFD064604E0FFF778FD81
:1012E000801B022809D838688007F7D50EE0C0F8BF
:1012F00000A0FFF76DFD064605E082E0FFF768FD00
:10130000801B02287DD838688007F7D420784007F2
:1013100068D5DFF8CCB100270BF13C0BDBF80000FF
:10132000C0000BD4DBF8001041F08051CBF8001066
:10133000DBF80000012700F0805000906B4E306811
:10134000C00510D4306840F480703060FFF740FD75
:10135000009005E0FFF73CFD0099401A022850D8A4
:101360003068C005F6D55E4EA0686C3601280FD0F7
:101370000528306810D020F001003060306820F07F
:1013800004003060A068B8B1FFF722FD00900FE0C4
:10139000306840F00100F4E740F004003060F7E707
:1013A000FFF716FD0099411A41F28830814266D854
:1013B00030688007F4D50EE0FFF70AFD009007E0E3
:1013C000FFF706FD0099411A41F28830814256D854
:1013D00030688007F4D42FB1DBF8001021F0805181
:1013E000CBF80010A069C8B33D49091D0968C1F3D5
:1013F000810102294AD00228504607D0C8F860006F
:1014000000E03CE0FFF7E4FC04463BE04746C8F858
:101410006000FFF7DDFC064605E000BFFFF7D8FCE3
:10142000801B02282BD828688001F7D4D4E9070153
:101430000843A16A2E4A490802EB0141626A41EA67
:101440008211084394F82C1040EA0161C9F8001099
:1014500001203866FFF7BCFC044606E03EE000BF12
:10146000FFF7B6FC001B022809D828688001F7D5D1
:1014700034E000BFFFF7ACFC001B022802D90320B8
:10148000BDE8F88F28688001F4D427E00128F7D060
:10149000D9F80000E26900F4800191421CD1226A6F
:1014A00000F03F01914217D147F6C071626A0140D6
:1014B000B1EB821F10D1A26A4FF0FF3300F440312C
:1014C00003EB5202B1EB024F06D194F82C1000F05E
:1014D0007060B0EB016F01D00120D1E70020CFE7B1
:1014E0000438024000004742800E4742007000402E
:1014F0000000FFFF70B5040009D0606A002540B10C
:1015000025616561A56294F8510040B10CE00120AD
:1015100070BD6068B0F5827FF4D0E561F2E784F8D1
:101520005050204600F044F8022084F85100206812
:10153000016821F040010160A088218900F48270D7
:1015400001F404410843A18901F400610843217CAE
:1015500001F002010843217D01F001010843218BC4
:1015600001F400710843217F01F03801084394F829
:10157000201001F080010843218D01F4005108433F
:1015800021680860A069042101EA104094F8241041
:1015900001F010010843216848602068C16921F406
:1015A0000061C1616565012084F85100002070BDB3
:1015B00010B586B0044614216846FEF790FF144922
:1015C0002068884221D113480021026842F4004279
:1015D0000260006800F4004005900E481038026870
:1015E00042F004020260006800F0040005904FF42D
:1015F000E05000900220CDE9010103200390062075
:10160000049069460448FFF7E1FA06B010BD0000F7
:10161000003C004040380240000802402DE9FF4FE6
:1016200081B01D46934604464FF001090E9EFFF718
:10163000CFFB074694F851006168012806D0B1F548
:10164000827F3CD1A168C9BB042838D10298002808
:1016500071D0BBF1000FFBD0002DF9D094F85000F1
:1016600001282CD04FF0010A84F850A094F85100C2
:10167000042802D0052084F851004FF00008C4F877
:101680005480C4F838B0E587A58702992163E586C0
:10169000A586C4F84080C4F84480206801684906E3
:1016A00003D4016841F040010160E068B0F5006FCB
:1016B000606808D0F0B3012D49D081E0FFE7022037
:1016C00005B0BDE8F08F08B1012D39D1206B21683C
:1016D0000088C860206B801C2063E08E401EE0867E
:1016E0002EE02068816889070FD5E18E69B1B9F1D4
:1016F000010F0AD1216B0988C160206B801C206317
:10170000E08E401EE0864FF0000920688168C9071E
:101710000CD0E18F51B1C068A16B0880A06B801C18
:10172000A063E08F401EE0874FF00109FFF750FBF8
:10173000C01B01E00BE067E0B04201D3701C50D148
:10174000E08E0028CDD1E08F0028CAD13EE0206B8A
:10175000216800780873206B401C2063E08E401ED7
:10176000E0862DE02068816889070FD5E18E69B198
:10177000B9F1010F0AD1216B09780173206B401C6C
:101780002063E08E401EE0864FF0000920688168EB
:10179000C9070CD0E18F51B1C068A16B0870A06B74
:1017A000401CA063E08F401EE0874FF00109FFF767
:1017B0000FFBC01BB04202D3701C01D011E086B1F8
:1017C000E08E0028CED1E08F0028CBD13A463146BA
:1017D000204601F0F1FB50B12020606584F8508074
:1017E00012E084F851A084F85080032068E7A068D4
:1017F00018B92068C1688068009084F851A084F806
:101800005080606D0028F1D0012059E77047704783
:1018100010B590F83C20012A22D0012280F83C200B
:10182000CA688C6822F4407222434C6822F48062B9
:1018300022430C6822F4006222430C6922F4805295
:1018400022434C6922F400522243C969002322F446
:1018500080420A4301684A6480F83C30002010BD91
:10186000022010BD70B590F83C20012A32D001242E
:1018700080F83C40022280F83D2003685A689D6849
:1018800022F070060A6832435A60134B02689A428B
:1018900014D0B2F1804F11D0104B9A420ED0104BA1
:1018A0009A420BD00F4B9A4208D00F4B9A4205D068
:1018B0000E4B9A4202D00E4B9A4204D1496825F051
:1018C00080031943916080F83D40002180F83C106E
:1018D000084670BD022070BD0000014000040040B9
:1018E00000080040000C004000040140004001409E
:1018F0000018004010B5040003D094F83D0010B16A
:1019000007E0012010BD002084F83C00204600F0D4
:101910001FF8022084F83D00211D206801F070FCB2
:10192000012084F8460084F83E0084F83F0084F8E3
:10193000400084F8410084F8420084F8430084F8B1
:10194000440084F8450084F83D00002010BD0000EC
:1019500008B5026822482349824207D1086840F04E
:1019600010000860086800F0100009E01E4882427C
:1019700008D1086840F020000860086800F02000E6
:10198000009008BD1748194B001D9A4207D1016805
:1019900041F480310160006800F48030F0E7144BBE
:1019A0009A4207D1016841F400310160006800F4F7
:1019B0000030E5E70F4B9A4207D1016841F48021DE
:1019C0000160006800F48020DAE70B488242D8D139
:1019D000086840F040000860086800F04000CFE769
:1019E0000010004040380240001400400040014018
:1019F00000440140004801400018004090F83D10AC
:101A0000012901D001207047022180F83D100168B2
:101A1000CA6842F00102CA6000681149884214D0C5
:101A2000B0F1804F11D00F4988420ED00E49884244
:101A30000BD00E49884208D00D49884205D00D4987
:101A4000884202D00C49884204D1816801F0070124
:101A5000062903D0016841F00101016000207047B0
:101A6000000001400004004000080040000C00405D
:101A700000040140004001400018004070B50446D9
:101A800090F83C000025012817D0012684F83C601E
:101A9000022084F83D002068826822F0770222F458
:101AA0007F4282600868502838D00DDC20284FD053
:101AB00005DC90B3102811D14AE0022070BD302817
:101AC00046D040280AD13BE060282FD070280DD0A6
:101AD000B0F5805F03D0B0F5005F12D0012584F827
:101AE0003D60002084F83C00284670BDCB68D1E9F9
:101AF0000121206801F0F9FB2068816841F077013D
:101B000009E0CB68D1E90121206801F0EEFB2068F3
:101B1000816841F480418160E1E719E0CA68496861
:101B2000206801F0B7FC5021206806E0CA684968C7
:101B3000206801F0C0FC6021206801F0E0FBCEE7E6
:101B4000CA684968206801F0A5FC40212068F4E7D4
:101B5000226801461046F0E72DE9F0410D460400E9
:101B600003D094F83D0018B108E00120BDE8F081F1
:101B7000002084F83C00204600F040F8022084F861
:101B80003D002068816844F2070291438160211D75
:101B9000206801F035FB226890689169166A2B680D
:101BA000AF69034340F20330814341EA0721A8684B
:101BB000EF6908434FF6FC418843E96840EA072093
:101BC000014328692F6A000140EA07300843696829
:101BD0006D6926F0AA0646EA051529439360226836
:101BE000906154F8460B0162012004F81F09E0756A
:101BF0002076E0762077A0750020B7E7F0B587B0B3
:101C0000044614216846FEF76AFC4849236800240C
:101C1000464810390225464A464EB3F1804F1FD040
:101C2000DFF814C1C027634547D1036843F00203BE
:101C30000360006800F002000590086840F00100B1
:101C4000086008680097CDE9015400F00100CDE973
:101C50000450694603941046FEF7B8FF07B0F0BD84
:101C6000036843F001030360006800F00100059081
:101C7000086840F001000860086800F00100059065
:101C8000086840F0020008600868012700F00200C0
:101C900005904FF400400090CDE90154CDE9034791
:101CA00069461046FEF792FF08200090CDE90154E6
:101CB000CDE9034769463046CEE7DFF880C063458B
:101CC00017D1026842F004020260006800F00400CC
:101CD0000590086840F00200086008680097CDE9A8
:101CE000015400F00200CDE90450694603943046E7
:101CF000B2E7134EB342B1D1036843F00803036067
:101D0000006800F008000590086840F001000860D5
:101D10000868694600F00100059003200090CDE9B5
:101D200001541046CDE9034596E7000040380240D3
:101D3000000002400004024000040040000800408F
:101D4000000C004070B590F83E60044690F83F509B
:101D500090F8423090F84320022021B104290ED09F
:101D6000012E1BD114E0012E18D1012B16D184F8BD
:101D70003E0084F8420001220021206820E0012D6D
:101D80000CD1012A0AD184F83F0084F8430014E002
:101D9000012D03D1012B01D1012A01D0012070BDF9
:101DA00084F83E0084F83F0084F8420084F8430041
:101DB00001220021206801F08BFA01220421206811
:101DC00001F086FA2068016841F0010101600020FD
:101DD00070BD70472DE9F04104460068C66805698A
:101DE0004FF00007A90713D5B10711D5F91E0161FE
:101DF00001202077206880698007204602D0FFF705
:101E0000E8FF04E000F0E8F8204600F0B9F9277791
:101E1000680716D5700714D521686FF004000861B3
:101E2000022020772068806910F4407F204602D08D
:101E3000FFF7CFFF04E000F0CFF8204600F0A0F954
:101E40002777280715D5300713D521686FF00800CC
:101E50000861042020772068C0698007204602D0EE
:101E6000FFF7B7FF04E000F0B7F8204600F088F96C
:101E70002777E80616D5F00614D521686FF0100014
:101E80000861082020772068C06910F4407F204650
:101E900002D0FFF79EFF04E000F09EF8204600F01D
:101EA0006FF92777E80708D0F00706D021686FF0B0
:101EB00001000861204600F007FA280608D5300620
:101EC00006D521686FF0800008612046FFF79EFC70
:101ED000680608D5700606D521686FF040000861D5
:101EE000204600F037FAA8060AD5B00608D52168C2
:101EF0006FF0200008612046BDE8F041FFF787BC85
:101F0000BDE8F08170B586B0044614216846FEF73E
:101F1000E6FA24682848002228490223844212D184
:101F2000086840F0100008600868694600F010007A
:101F300005904FF4D4400090CDE901320120CDE965
:101F400003201F4812E01F480325844212D108686D
:101F500040F0010008600868694600F00100059043
:101F60000C200090CDE90132174821E0FEF72EFE4B
:101F700006B070BD154E1648B44209D10C6844F045
:101F800002040C60096801F00201059181150BE063
:101F9000104EB442ECD10C6844F002040C600968A5
:101FA00001F00201059171150091CDE901326946F8
:101FB000CDE90325DAE70000000001403038024097
:101FC0000010024000400140000002400044014077
:101FD0000004024000480140704770B50D460400FF
:101FE00003D094F83D0010B107E0012070BD00203F
:101FF00084F83C00204600F01BF8022084F83D00E5
:10200000211D206801F0FCF82068016821F008011A
:10201000016054F8460B016829430160012004F86F
:102020001F09E0752076E0762077A075002070BD4E
:10203000704770B5044690F83C0000260D46012814
:102040000FD0012084F83C006AB1042A1DD0082A70
:102050002FD00C2A3FD00126002084F83C003046C7
:1020600070BD022070BD206801F052F920688169BE
:1020700041F0080181612068816921F004018161DA
:10208000206881692A69114311E0206801F070F924
:102090002068816941F4006181612068816921F4CF
:1020A00080618161206881692A6941EA0221816138
:1020B000D2E7206801F092F92068C16941F0080177
:1020C000C1612068C16921F00401C1612068C16952
:1020D0002A69114311E0206801F0B4F92068C16950
:1020E00041F40061C1612068C16921F48061C1616E
:1020F0002068C1692A6941EA0221C161ACE710B5D3
:10210000040003D094F83D0010B107E0012010BD99
:10211000002084F83C00204600F01EF8022084F8DD
:102120003D00211D206801F06BF8012084F8460075
:1021300084F83E0084F83F0084F8400084F84100B1
:1021400084F8420084F8430084F8440084F8450091
:1021500084F83D00002010BD08B50068064988429B
:1021600008D10648016841F001010160006800F0F3
:102170000100009008BD000000000140443802400A
:102180007047000010B50446022249B104290ED060
:10219000082913D094F84100012816D0012010BD61
:1021A00094F83E000128F9D184F83E200FE094F81D
:1021B0003F000128F2D184F83F2008E094F8400065
:1021C0000128EBD184F8402001E084F8412001226D
:1021D000206801F07DF816492068164A884201D02F
:1021E000904203D1436C43F4004343642068884227
:1021F00013D0B0F1804F10D00F4988420DD00F4955
:1022000088420AD00E49884207D0904205D00D4935
:10221000884202D00C49884204D1816801F007014C
:10222000062903D0016841F001010160002010BDC2
:10223000000001400004014000040040000800408C
:10224000000C0040004001400018004030B504463A
:102250000D460068002201F03BF8194B41F21111C4
:1022600020688A10984202D0164B984209D1036A1E
:102270000B4206D1036A134203D1436C23F400439B
:1022800043642068036A0B4206D1016A114203D1FC
:10229000016821F00101016001203DB1042D08D049
:1022A000082D09D084F84100002030BD84F83E009C
:1022B000FAE784F83F00F7E784F84000F4E700000D
:1022C000000001400004014070B5044600681A494E
:1022D000884201D1FEF782FD18492068884229D141
:1022E00001211748FEF76AFD1649002501281DD077
:1022F00081F81851144C2068401C206002280FD32C
:102300001248211D006804F085FC606838B110494E
:102310004FF080500860BFF34F8FBFF36F8F256081
:1023200002F0E4FEBDE8704004F060B9012081F8DD
:102330001801DFE770BD00000020004000180040D9
:1023400000080240D00200207C000020880000200D
:1023500004ED00E0704770B5040004D094F841002B
:10236000002510B106E0012070BD84F840502046E1
:1023700000F024F8242084F841002068C16821F48A
:102380000051C160204601F0A9F82068016921F4DC
:10239000904101612068416921F02A014161206872
:1023A000C16841F40051C1606564202084F8410097
:1023B00084F842006563002070BD000010B586B04F
:1023C000044614216846FEF78AF8144920688842BA
:1023D00021D113480021026842F010020260006817
:1023E00000F0100005900E481438026842F0010217
:1023F0000260006800F0010005904FF4C06000909A
:102400000220CDE9010103200390072004906946D2
:102410000448FEF7DBFB06B010BD000000100140D1
:102420004438024000000240FEE7000070B500F0B2
:10243000700400F087F80B4D064600220221284662
:10244000FEF7C1FC272003F081F944EA060003F0FF
:102450007DF9012202212846FEF7B5FCBDE8704057
:1024600000F070B8000C024010B5084C00220221A8
:102470002046FEF7A8FCE22003F068F9204601227E
:10248000BDE810400221FEF79EBC0000000C024097
:1024900010B5084C002202212046FEF794FCE120F2
:1024A00003F054F920460122BDE810400221FEF756
:1024B0008ABC0000000C02402DE9F041064600F005
:1024C00055F80546202804D9FFF7CEFF2120BDE8A6
:1024D000F08155B10E4F002202213846FEF773FC01
:1024E000612003F033F9002407E00020EFE7FF202C
:1024F00003F02CF93055641CE4B2AC42F7D301224E
:1025000002213846FEF75FFCFFF7AEFF2846DEE704
:10251000000C024070B50A4D0446002202212846F4
:10252000FEF751FC204603F011F9FF2003F00EF9ED
:102530000446012202212846FEF745FC204670BDD4
:10254000000C024070B5084D002202212846FEF71B
:102550003AFC072003F0FAF804460122022128463B
:10256000FEF731FC204670BD000C024070B50A4DEC
:10257000002202212846FEF726FC602003F0E6F840
:10258000FF2003F0E3F80446012202212846FEF76B
:102590001AFC204670BD0000000C0240052A00D93C
:1025A0000522052800D905200A30C0B200F01CB869
:1025B00010B504460020FFF7ADFF014614B1012C11
:1025C00003D004E020F0010101E040F00101BDE88A
:1025D0001040002000F02AB8052900D905210A463C
:1025E00001461020AFF300802DE9F0410E4F154653
:1025F0000E460446002202213846FEF7E4FB44F072
:10260000200003F0A3F8002404E0305D03F09EF8FE
:10261000641CE4B2AC42F8D33846BDE8F041012274
:102620000221FEF7D0BB0000000C024070B50B4D3C
:102630000E460446002202212846FEF7C4FB44F061
:10264000200003F083F8304603F080F82846BDE808
:10265000704001220221FEF7B6BB0000000C0240D0
:1026600070B50C460546202918D8002C16D00C4E03
:10267000002202213046FEF7A6FBB02002E000BF98
:1026800015F8010B03F062F8641EE4B2F8D230468C
:10269000BDE8704001220221FEF795BB70BD00002D
:1026A000000C02401FB51748FEF772FA00211548CA
:1026B000009101910291144A039102604FF480321B
:1026C000C0E901210161017680F820100F4AC0E9BC
:1026D0000A210124C461C16080F830104161FEF715
:1026E00028F908B1FEF77AF80820CDE900040220A5
:1026F000029069460348FEF773F8002801D0FEF700
:102700006DF81FBDD4250020002001400100000FFE
:1027100010B59CB01C2216496846FDF78CFE0021BE
:10272000684603F047F8134C11491C2260601C31C5
:1027300007A8FDF780FE002107A803F03BF80C492D
:10274000A0601C2238310EA8FDF775FE00210EA8EE
:1027500003F030F80649E0601C22543115A8FDF75B
:102760006AFE002115A803F025F820611CB010BDF9
:10277000987D0008880000202DE9F04F87B01421D3
:102780006846FDF7ACFE56480024016841F0100190
:102790000160016801F010010591016841F0040138
:1027A0000160016801F004010591016841F08001B8
:1027B0000160016801F080010591016841F00101AB
:1027C0000160016801F001010591016841F0020119
:1027D0000160016801F002010591016841F0080102
:1027E00001600068DFF8FCA000F0080040F2FF552F
:1027F0000590002229465046FEF7E5FADFF8E8B0DA
:102800004FF4C977002239465846FEF7DCFA4FF4F8
:102810009078002241463548FEF7D5FA00224FF461
:1028200042613348FEF7CFFA40F20649002249469A
:102830003048FEF7C8FA0095022601250396CDE937
:10284000015469465046FEF7C1F94FF46240CDE9A4
:102850000004694658460294FEF7B8F94FF4441054
:102860000095CDE9010469465846FEF7AFF9009797
:102870000396CDE9015469465846FEF7A7F9CDF80D
:1028800000800396CDE9015469461848FEF79EF989
:102890004FF44060009001AA112082E8510069467F
:1028A0001348FEF793F9CDF800900396CDE9015453
:1028B00069461048FEF78AF9CDE9005469460D488B
:1028C0000294FEF783F92020CDE90005CDE9024608
:1028D00069460748FEF77AF907B0BDE8F08F0000B7
:1028E0003038024000100240000802400000024060
:1028F00000040240000C0240104810B50E4901606F
:102900004FF48271416000218160C1604FF4007218
:102910000161C0E905121022C0E90721416281620C
:102920000A21C162FEF7E6FD002803D0BDE8104091
:10293000FDF754BF10BD0000003C00401C260020E5
:1029400030B587B01C216846FDF7C9FD1D4C1C48F9
:102950000025C4E9000541F24410C4E90250256194
:102960002046A561FEF7C6FF08B1FDF737FF154801
:10297000FFF7C5FB08B1FDF731FF602000904FF471
:102980005D70CDE90105002269460E480495FFF708
:1029900050FB08B1FDF722FF2068016A41F21112D5
:1029A000114207D1016A9210114203D1016821F04E
:1029B000010101600348FFF7A5FA07B030BD000030
:1029C00000440140B428002030B587B01C2168467F
:1029D000FDF785FD1B4D1A480024C5E9000441F6AA
:1029E0003F20C5E902402C612846AC61FEF782FF1A
:1029F00008B1FDF7F3FE1348FFF781FB08B1FDF7BF
:102A0000EDFE6020CDE9000402200290002269461C
:102A100004940C48FFF70DFB08B1FDF7DFFE2868B2
:102A2000816921F0080181610648FEF7E7FF002176
:102A30000448FFF7A7FB0348FFF764FA07B030BD6F
:102A400000480140FC2800201FB5002111480091DA
:102A5000019102910E4A039102605322C0E90121C3
:102A60004FF47A72C0E9032180218161FEF742FFB1
:102A700008B1FDF7B3FE4FF4805000906946054859
:102A8000FEF7FCFF002801D0FDF7A8FE1FBD0000E7
:102A9000001800404429002010B592B000240F9483
:102AA0001C2168461094FDF71AFD202107A8FDF7A8
:102AB00016FD2D482B49C0E9001441F63F21C0E91D
:102AC000024180210461C0E90541FFF718FB08B10C
:102AD000FDF784FE0F940FA923481094FEF7C2FE61
:102AE00008B1FDF77BFE6020CDE900040220CDE9AE
:102AF000020404940594002269461B480694FFF7DB
:102B000098FA08B1FDF76AFE042269461648FFF7F5
:102B100090FA08B1FDF762FE082269461248FFF7F5
:102B200088FA08B1FDF75AFE0C2269460E48FFF7F5
:102B300080FA08B1FDF752FE0794089409944FF407
:102B400000500A94CDE90B4007A907480E94FEF700
:102B50005FFE08B1FDF742FE0348FFF7D3F912B05C
:102B600010BD0000000001407426002010B58CB09C
:102B700024216846FDF7B3FC00241A4809944FF05D
:102B800080410A94C0E900144FF6FF71C0E9024188
:102B900080210461816103200090022001900120C6
:102BA000CDE902040494CDE90540079469460D4837
:102BB0000894FEF7D1FF08B1FDF710FE099409A9AA
:102BC00008480A94FEF74EFE08B1FDF707FE002103
:102BD0000448FFF7B7F804210248FFF7B3F80CB038
:102BE00010BD0000BC26002010B58CB02421684622
:102BF000FDF775FC00241A48099418490A94C0E9A5
:102C000000144FF6FF71C0E9024180210461816127
:102C100003200090022001900120CDE902040494D9
:102C2000CDE90540079469460D480894FEF794FFE6
:102C300008B1FDF7D3FD099409A909480A94FEF7E4
:102C400011FE08B1FDF7CAFD00210548FFF77AF82B
:102C500004210348FFF776F80CB010BD00040040D3
:102C60000427002010B58CB024216846FDF737FCFE
:102C700000241A48099418490A94C0E900144FF630
:102C8000FF71C0E90241802104618161032000904D
:102C9000022001900120CDE902040494CDE9054011
:102CA000079469460D480894FEF756FF08B1FDF7F2
:102CB00095FD099409A909480A94FEF7D3FD08B1C6
:102CC000FDF78CFD00210548FFF73CF8042103487F
:102CD000FFF738F80CB010BD000800404C2700206A
:102CE00010B58CB024216846FDF7F9FB00241A4882
:102CF000099418490A94C0E900144FF6FF71C0E91D
:102D00000241802104618161032000900220019032
:102D10000120CDE902040494CDE9054007946946F9
:102D20000D480894FEF718FF08B1FDF757FD099408
:102D300009A909480A94FEF795FD08B1FDF74EFD73
:102D400000210548FEF7FEFF04210348FEF7FAFFC5
:102D50000CB010BD000C0040942700207CB500246E
:102D600013480094114D0194C0E900544FF6FF71CF
:102D7000C0E902418461FEF7BDFD08B1FDF72EFDFB
:102D800008210B48FFF729F908B1FDF727FD00944A
:102D9000694607480194FEF765FD08B1FDF71EFD81
:102DA000012068616C622C617CBD00000010004055
:102DB000DC2700201CB50024174800941549019415
:102DC00001601421C0E901144FF6FF718461C160F4
:102DD000FEF790FD08B1FDF701FD08210E48FFF751
:102DE000FCF808B1FDF7FAFC009469460A48019422
:102DF000FEF738FD08B1FDF7F1FC06480C30046021
:102E00000449012014310860024824300460081F7E
:102E100004601CBD001400402428002010B58CB0B4
:102E200000240794089409941C2168460A94FDF72D
:102E300056FB27482549016040F61F51C0E901149F
:102E400040F27B21C0E903148461FEF753FD08B111
:102E5000FDF7C4FC4FF48050079007A91C48FEF70B
:102E60000DFE08B1FDF7BAFC1948FFF748F908B1A3
:102E7000FDF7B4FC08211648FFF7AFF808B1FDF7DD
:102E8000ADFC7020009001200190022002900022F1
:102E9000694604940E48FFF7CCF808B1FDF79EFC94
:102EA000042269460A480294FFF7C3F808B1FDF707
:102EB00095FC00210648FFF7C9F904210448FFF7F3
:102EC000C5F90348FFF71EF80CB010BD00400140E3
:102ED0006C2800200C4810B50A4901604FF4E1311C
:102EE0004160002181600C22C160C0E9041281614F
:102EF000C161FFF730FA002803D0BDE81040FDF7AC
:102F00006DBC10BD001001408C290020FEE7C0EB15
:102F100000108000C11700EB115000137047FEE74E
:102F20002048214D0479641C10E00122022128462A
:102F3000FDF749FF642002F031FC002202212846FF
:102F4000FDF741FF642002F029FC641E002CECD147
:102F50004FF47A75284601F0D3FE144CC4E90601FB
:102F6000284601F0CDFEC4E90801284601F0C8FE5C
:102F7000C4E90A01012001F0C3FEC4E90E0142F2D6
:102F8000107001F0BDFEC4E90C0103F0FDF9084822
:102F9000FEF734FD1C210748FDF7A1FA01F0EEFC15
:102FA000FCE70000D002002000080240880000205A
:102FB0004429002098010020F8B515460E460B461E
:102FC000009204460122022100F02CF8A0B9134817
:102FD00013490068B0FBF1F04FF47A714843009058
:102FE0006068B0F5827F0DD13346002280212046F3
:102FF000009500F017F870B1606D40F0200060653A
:103000000320F8BD009830B1401E00902068806811
:10301000C0430006F6D50020F8BD00006C0000207B
:1030200000366E012DE9F8431E4691468846044657
:10303000089DFDF7CDFE401B351AFDF7C9FE07467A
:1030400026480068C0F3CB3068430AE0701C09D002
:10305000FDF7BEFEC01BA8420FD275B10098B8B3F1
:10306000401E00902068816838EA010033D00021BA
:103070004945EBD10020BDE8F8832068416821F084
:10308000E00141606068B0F5827F0BD1A068B0F5C7
:10309000004F02D0B0F5806F04D12068016821F0A4
:1030A00040010160A06AB0F5005F09D120680168A5
:1030B00021F4005101602068016841F40051016071
:1030C000012084F85100002084F850000320D2E74A
:1030D000FFE70025C6E70121CAE700006C000020D9
:1030E00010B502F067F802F0A5F802F04BF802F014
:1030F0009FF802F0B9F806490020401C8842FCDB2A
:1031000061B602F0C9F8BDE8104001F0F9BF000057
:1031100080F0FA0210B5502080F31188BFF34F8F72
:10312000BFF36F8F03F020FF18B104494FF08050B8
:103130000860002080F3118810BD000004ED00E05D
:1031400030B593B030216846FDF7C9F914210CA8B9
:10315000FDF7C5F91E480025016841F08051016066
:10316000006800F0805011901A48016841F48041D5
:1031700001600068022400F480401190012000905A
:10318000000401908001CDE90640192008904FF419
:10319000A870CDE9090404200B906846FDF7F4FF00
:1031A00008B172B6FEE70CA90F2081E831004FF498
:1031B000A0500F904FF48050109005210CA8FDF7FF
:1031C000D7FE002801D072B6FEE713B030BD000074
:1031D00040380240007000400248016841F470012C
:1031E0000160704788ED00E00148FEF7F3BD000084
:1031F000442900200148FEF7EDBD0000D42900203D
:10320000F0B50268274B284D284E294F294C4FF026
:10321000804C984209D0604507D0A84205D0B04202
:1032200003D0B84201D0A04204D122F0700E4A6807
:1032300042EA0E0298421BD0604519D0A84217D02E
:10324000B04215D0B84213D0A04211D01A4DA842B6
:103250000ED01A4DA8420BD0194DA84208D0194DD6
:10326000A84205D0184DA84202D0184DA84203D15B
:1032700022F44075CA682A434D6922F080022A432D
:103280008D68C5620D688562984201D0A04201D167
:1032900009690163016841F0040101600121416194
:1032A0000260F0BD00000140000400400008004042
:1032B000000C004000040140004001400044014077
:1032C0000048014000180040001C00400020004061
:1032D00010B501F01F030121046A99408C43046278
:1032E000016A9A401143016210BD10B5846842EA38
:1032F000032224F47F440A432243826010BD826883
:1033000022F070020A4342F007018160704700001A
:10331000F0B5036A026A22F001020262426884691F
:10332000124E24F073050C682C4323F002058B68C1
:103330002B430D4DA84201D0B04205D123F0080720
:10334000CB683B4323F00403A84201D0B04205D12F
:103350004D6922F4407215438A692A4342608461B0
:10336000496841630362F0BD000001400004014070
:10337000F0B5026A036A23F01003036243688469AC
:103380000D6824F4E64444EA05248D6822F0200206
:1033900042EA05120F4D104EA84201D0B04206D1AC
:1033A000CF6822F0800242EA071222F04002A842CF
:1033B00001D0B04207D14D6923F4406343EA85034D
:1033C0008D6943EA850343608461496881630262D1
:1033D000F0BD00000000014000040140F0B5026AA9
:1033E000036A23F4807303624368C46922F40072A1
:1033F00024F073050C68124E2C438D6842EA0522B6
:103400000E4DA84201D0B04206D1CF6822F400622E
:1034100042EA072222F48062A84201D0B04207D1DA
:103420004D6923F4405343EA05138D6943EA0513BC
:103430004360C4614968C1630262F0BD000001409D
:103440000004014030B5046A026A22F4805202622C
:103450004268C3690D6823F4E64343EA05238D6897
:1034600024F4005444EA0534084DA84202D0084D23
:10347000A84204D14D6922F4804242EA851242609A
:10348000C36149680164046230BD0000000001406E
:103490000004014010B5036A046A24F001040462C8
:1034A000846924F0F00444EA021423F00A020A4377
:1034B0008461026210BD10B5036A046A24F010042E
:1034C0000462846923F0A00324F4704444EA0232C5
:1034D00043EA01118261016210BD000070B504462B
:1034E00000680169E26821F44051114301612169DA
:1034F000A068E26908436169114308432168CA680A
:1035000049F20C639A430243CA6020684169A26988
:1035100021F440711143416131492068884202D051
:103520003049884202D1FDF7EDFD01E0FDF7DAFDFB
:10353000E2690023192164253226B2F5004F626842
:1035400028D0A0FB0101930F9200FCF7FDFE01467D
:10355000B0FBF5F06FF01802504301EB800006EB72
:103560000010B0FBF5F000F0F002B1FBF5F002EB5B
:103570000012B1FBF5F06FF01803584301EB800027
:1035800006EB0010B0FBF5F000F00F0021681044CE
:10359000886070BDA0FB010192185B41FCF7D4FE6E
:1035A0000146B0FBF5F00201B1FBF5F06FF0180336
:1035B000584301EB800006EBC000B0FBF5F000F0D3
:1035C000F80002EB4002B1FBF5F0584301EB80003C
:1035D00006EBC000B0FBF5F000F00700D6E70000F6
:1035E000001001400014014003220021012003F0DB
:1035F000ABFA064C4FF4FA6520602946206803F0C8
:1036000057FB0128F9D101F0C9FAF6E7880000203C
:10361000FEE700000448D0ED430A20EE800ABDEE2C
:10362000C00A10EE100A7047D002002003B40198BF
:103630004100009850EAC12018BF04204A0D18BF6D
:1036400040F0010040F2FF72B2EB515F08BF40F062
:103650000200012808BF052002B070470907090EC3
:10366000002804DB00F1E02080F80014704700F02F
:103670000F0000F1E02080F8141D704700000000EA
:103680002DE9F0412DED020B9FED3D0B2DED028B51
:103690009FED3D8BDDE90254C4F30A50A0F2FF36E2
:1036A000142E37DA002E18DA53EC102B9DED020B96
:1036B00051EC100B03F0DEFD53EC182B04F0A8F9CD
:1036C00057D2002CBCBF4FF00044002551DB54EA18
:1036D000050018BF2E4C1BD14BE02E4820FA06F7F0
:1036E00004EA070028431FD053EC102B9DED020B7A
:1036F00051EC100B03F0BEFD53EC182B04F088F9CD
:1037000037D2002C03DD4FF48010F0400444BC435A
:1037100000252EE0332E07DCA6F114004FF0FF3118
:1037200021FA00F73D4206D19DED020BBDEC028B64
:1037300002B0BDE8F08153EC102B9DED020B51EC73
:10374000100B04F09BF953EC182B04F061F910D224
:10375000002C0DDD142E08BF641C09D0C6F1340006
:10376000012101FA00F02844A84238BF641C054634
:10377000BD43CDE902549DED020BD7E700000000E8
:103780009C7500883CE4377E0000000000000000CB
:103790000000F03FFFFF0F0010B52F499FED2C1BDD
:1037A0002DED020B84B0059820F000408842D8BF70
:1037B0009DED040B2DDD2949884209D1049840B9BB
:1037C0004FF00100FCF7BAFE00F0C2FC06B010BDDD
:1037D00005DB9DED040B00F0AFFC06B010BD6846A4
:1037E0009DED040B00F0C0F810F0030004BF9DED48
:1037F000021B9DED000B0CD001280ED09DED021B8D
:103800009DED000B022817D0012000F0FDFB06B053
:1038100010BD00F0C5FA06B010BD9DED021B9DED78
:10382000000B012000F0F0FB51EC100B03F0E4FC66
:1038300006B041EC100B10BD00F0B2FA51EC100BC9
:1038400003F0DAFC06B041EC100B10BD00000000E4
:103850000000000000000000FB21E93F0000F07FB5
:1038600010B52F499FED2C1B2DED020B84B0059850
:1038700020F000408842DCBF00209DED040B32DDCB
:103880002849884209D1049840B94FF00100FCF75B
:1038900055FE00F05DFC06B010BD05DB9DED040B90
:1038A00000F04AFC06B010BD68469DED040B00F028
:1038B0005BF810F0030011D0012818D09DED021B19
:1038C0009DED000B02281AD000F06AFA51EC100BA3
:1038D00003F092FC06B041EC100B10BD9DED021BF5
:1038E0009DED000B012000F08FFB06B010BD9DED9B
:1038F000021B9DED000B00F053FA06B010BD012035
:1039000000F082FB51EC100B03F076FC06B041ECAA
:10391000100B10BD000000000000000000000000BF
:10392000FB21E93F0000F07F10B52DED028BB1EED9
:10393000C08A18EE100A20F00040C0F1FF40C00F0E
:103940000AD010EE100A20F00040C0F1FF40C00F76
:1039500004BF0120FCF7F2FDB0EE480ABDEC028B7B
:1039600010BD0000000000002DE9F14F04462DEDD0
:10397000020B2DED088B8AB09FEDE70B80ED020B5B
:10398000139EE74826F0004585420ADC9DED120BA8
:10399000002084ED000B0AB0BDEC088B03B0BDE83D
:1039A000F08FE0489FEDE0AB9FEDE1BBA84247DD23
:1039B000E14F9FEDE39B9FEDE48B9DED120B53ECEC
:1039C0001A2B51EC100B002E1CDD04F063F841ECB7
:1039D000100BBD4208D053EC1B2B51EC100B04F024
:1039E00059F8C4E900010BE053EC192B51EC100B12
:1039F00004F050F853EC182B04F04CF8C4E9000123
:103A00000120C8E703F036FC41EC100BBD4208D0A2
:103A100053EC1B2B51EC100B03F02CFCC4E9000100
:103A20000BE053EC192B51EC100B03F023FC53EC7F
:103A3000182B03F01FFCC4E900014FF0FF30AAE788
:103A4000C348A84279DB9DED120B51EC100B01F03D
:103A5000E9F841EC180B9FEDC00B53EC102B03F071
:103A6000D9FE9FEDBF1B53EC112B03F003FC03F0B9
:103A70000DFE074603F067FE41EC190B53EC1A2BC1
:103A800003F0C8FE53EC182B03F0F8FF41EC180BC1
:103A900053EC1B2B51EC190B03F0BCFEDFF8C8A252
:103AA00041EC100B4FEA15580125FA4453EC102B4A
:103AB00051EC180B03F0EEFF032DC4E900013DD0DB
:103AC000C1F30A5005EB4511A8EB00001139814202
:103AD00034DA0AEB051BB0EE48AA9BED000BF0EEC2
:103AE00068AA53EC102B51EC190B03F093FE41EC38
:103AF0001B0B51EC1A0B53EC1B2B03F0CBFF41ECCF
:103B0000180B51EC1A0B53EC182B03F0C3FF53ECBA
:103B10001B2B03F0BFFF9BED020B41EC1A0B53EC88
:103B2000102B51EC190B03F075FE53EC1A2B03F01C
:103B3000B1FF41EC100B6D1CB8E70EE0002EA8BFE2
:103B40003846BFF628AF94ED000B51EC100B03F094
:103B500053FBC4E9000178421DE7C6F3130040F4AB
:103B6000801EC6F30A50A0F2F530471100F01F0581
:103B7000C5F12000DDF848B00890002006900790BD
:103B80000520EC467949002D07EB0002794408BF77
:103B900051F8221009D051F8223001EB8201AB40DC
:103BA0004A68089922FA01F11943A1FB0E26A1FBEC
:103BB0000B131A449A4234BF0123002303EB060877
:103BC0000CEB8003D3E901A60E448E4234BF0121E1
:103BD000002192448A4411B1924502D903E09245F2
:103BE00001D2012100E00021C3E901A641444CF8C3
:103BF0002010011EA0F10100C4DC029800F1005069
:103C0000850F0298DDE903678000DDF8148003F07A
:103C10009AFD41EC1A0B304603F0ACFD9FED541BAE
:103C200053EC112B03F0F6FD41EC1B0B384603F06F
:103C3000A1FD9FED511B53EC112B03F0EBFD41EC6B
:103C4000180B404603F096FD9FED4D1B53EC112BD6
:103C500003F0E0FD41EC190B51EC180B53EC192B60
:103C600003F008FB53EC1B2B03F004FB53EC1A2B63
:103C700003F000FBCDE90801002008909DED080B42
:103C800053EC1A2B51EC100B03F004FF53EC1B2BDD
:103C900003F000FF53EC182B03F0FCFE53EC192B40
:103CA00003F0ECFE9FED381B53EC112B03F0B2FD3B
:103CB0009FED370B41EC180B53EC102B9DED080BCF
:103CC00051EC100B03F0A6FD53EC182B03F0D2FAC5
:103CD0009FED310B41EC180B53EC102B9DED080BB5
:103CE00051EC100B03F096FD53EC182B03F0C2FAC5
:103CF00041EC100B139810F0004F06D06D4251ECC0
:103D0000100B03F079FA41EC100B284684ED000B00
:103D100041E600000000000000000000000000007C
:103D2000FB21E93F7CD9024000004054FB21F93FD0
:103D30003163621A61B4D03DFB21F93F00000000FD
:103D40000000601A61B4D03D7370032E8A19A33B42
:103D5000FB2139410000000083C8C96D305FE43F9A
:103D6000000000000000E03F8A430000D84200004D
:103D7000000000000000103E000000000000103CA9
:103D8000000000000000103A182D4454FB21F93DBA
:103D90003326A611460B113C00000054FB21F93DCF
:103DA00010B52DED040B2DED088B82B0B0EE419ACD
:103DB000F0EE619A0B9820F000449FED4BABB4F10C
:103DC000795F11DA9DED0A0B51EC100B03F05EFCEC
:103DD000002801BFB0EE4A0AF0EE6A0A02B0BDEC5C
:103DE000088B04BF04B010BD9DED0A0B53EC102BE3
:103DF00051EC100B03F00EFD41EC180B3C48062172
:103E0000B0EE480AF0EE680A784400F081F853EC0E
:103E1000182B51EC100B03F0FDFC9DED0A0B41EC4F
:103E20001B0B53EC192B51EC100B03F0F3FC41EC82
:103E3000190B53EC1B2B51EC180B03F0EBFC53EC60
:103E4000192B03F027FE9FED2C0B41EC190B53ECC3
:103E5000102B51EC180B03F0DDFC41EC100B284843
:103E6000844210DA53EC192B51EC100B03F012FEC4
:103E700053EC1A2B03F002FE41EC100B02B0BDEC28
:103E8000088B04B010BD1F48A042BCBF9FED1E1B95
:103E90008DED001B06DBA4F50010019000200090C2
:103EA0009DED001B51EC100B53EC112B03F0F2FDB8
:103EB0009DED000B41EC180B53EC102B51EC1A0B41
:103EC00003F0E8FD41EC1A0B53EC192B51EC180BE5
:103ED00003F0E0FD53EC1A2B03F0D0FD41EC100B86
:103EE000CCE7000000000000000000000000F03FF0
:103EF000FC3F000000000000000000000000E03F68
:103F00003333D33F0000E93F000000000000D23F00
:103F100070B504462DED028B4D1E00EBC500B0EED2
:103F2000408AF0EE608A90ED000B35F0060017D065
:103F300053EC182B51EC100B03F06CFC41EC100B04
:103F40006D1E04EBC50090ED001B51EC100B53EC03
:103F5000112B03F08FF941EC100B35F00600E7D17F
:103F6000022D36D0042D1CD0062D1CBFBDEC028BBB
:103F700070BD53EC182B51EC100B03F04BFC94ED7F
:103F80000A1B53EC112B03F075F953EC182B03F0BB
:103F900041FC94ED081B53EC112B03F06BF941EC41
:103FA000100B53EC182B51EC100B03F033FC94ED79
:103FB000061B53EC112B03F05DF953EC182B03F0A7
:103FC00029FC94ED040B53EC102B03F053F941EC56
:103FD000100B53EC182B51EC100B03F01BFC94ED61
:103FE000021B53EC112B03F045F953EC182B03F093
:103FF00011FC94ED001B53EC112B03F03BF9BDECCD
:10400000028B41EC100B70BD31B504462DED040B55
:104010002DED0A8BB0EE41BAF0EE61BA0B989DED32
:104020000A0B20F00040B0F1795F0DDA51EC100B73
:10403000FFF7FCFA042808BF00F09AF89DED0A0B80
:10404000BDEC0A8B05B030BD53EC102B51EC100BBE
:1040500003F0E0FB41EC180B9DED0A0B53EC182B21
:1040600051EC100B03F0D6FB41EC190B2C48B0EED1
:10407000480AF0EE680A05217844FFF749FF9FEDF2
:104080002ACBB0EE40AAF0EE60AA9CB353EC1C2BF6
:1040900051EC190B03F0BEFB41EC1C0B53EC1A2B3B
:1040A00051EC190B03F0B6FB9FED210B41EC190B02
:1040B00053EC102B51EC1B0B03F0ACFB53EC192B06
:1040C00003F0E8FC53EC182B03F0A4FB53EC1B2B80
:1040D00003F0E0FC53EC1C2B03F0DCFC9DED0A1B11
:1040E00053EC112B03F0CAFCBDEC0A8B05B041EC7C
:1040F000100B30BDFFE753EC1A2B51EC180B03F0FB
:1041000089FB53EC1C2B03F0B5F853EC192B03F08F
:1041100081FB9DED0A1B53EC112B03F0ABF8E3E799
:10412000843E000000000000495555555555C5BF57
:10413000000000000000E03F10B553EC102B51ECE4
:10414000100B03F097F841EC100B10BD00000000BD
:104150009FED050B10B553EC102B51EC100B03F039
:104160003DF941EC100B10BD000000000000000004
:104170009FED050B10B553EC102B51EC100B03F019
:1041800049FB41EC100B10BD0000000000000010C6
:1041900001EE100A9FED102A1248F8EEC11A46F2FD
:1041A000A811006881EE821A9FED0C2AB0FBF1F095
:1041B000C0EE021A9FED0A0A01EE801A00EE100A04
:1041C000B8EE400A20EE010A80EE201ABDEEC10AC8
:1041D00010EE100A704700000000BB430000CC4105
:1041E0009A99993F6C00002000B502460B4600F0FA
:1041F000BBFD801A994101D3012000BD002000BD04
:1042000010B504210948FEF721F808480068016A42
:1042100041F21112114207D1016A9210114203D1E9
:10422000016821F00101016010BD00006C28002030
:1042300010B57F2802D8D0F17F0000D101200949B4
:104240000A6890630868016841F001010160042177
:104250000448FDF797FFBDE8104000210148FDF735
:10426000F5BF00006C28002001490020086070475D
:10427000780000202DE9F0470C4605004FF00006BD
:104280004FF0FF3248D0ACB3724FDFF8CC913946D3
:104290003B7909684FF47A7A4FF0010813B1072B84
:1042A00075D128E0607800F00F00814207D0A07837
:1042B000B1EB101F03D000F00F0081422CD150460B
:1042C00000F01EFDC9E9000161783E6801F00F03AE
:1042D000A17800200A0901F00F019E4201DD03B11F
:1042E0000120964201DD02B1401C8E424FDD71B3C8
:1042F000401C4CE010E0082911DD6378A1F1090CA5
:1043000008FA0CFC03EA0C031B0705D0A378491E2E
:1043100008FA01F0034202D11046BDE8F08750468A
:1043200000F0EEFCC9E900013968002009290FDA24
:104330004246491E09E0A37802FA06FC13EA0C0F74
:1043400001D0401CC0B2761CF6B2B142F3DC1EE0D4
:1043500094F802C04FEA080202FA06F31CEA030FBF
:1043600001D0401CC0B2761CF6B2082EF4D3002354
:1043700009390AE0667802FA03FC06EA0C063607F9
:1043800001D0401CC0B25B1CDBB29942F2DC0321BD
:1043900001EB8001C9B23A682A60635CC3F3011281
:1043A0006A601B0600D552426A60635C22189B0952
:1043B000127DDE074FF07F0305D07F2A01D3EB602B
:1043C00006E0EA6004E07F2A01D3AB6000E0AA6067
:1043D0006218537803F07F062E61635C03F00C03D0
:1043E00006EB43132B615678360600D55B422B61F2
:1043F000937803F07F036B61615C890703EBD15114
:10440000696193781B0600D549426961D17801F052
:104410007F03AB61E17C30B1012808D002280AD0CB
:1044200003280ED10BE001F0C000410009E001F0CB
:104430003000C10005E001F00C00410101E08807F7
:10444000C10D5818A861D178090600D54042A8616D
:10445000002062E7D0020020B00000202DE9F041EA
:10446000064600EE106A314C0D462DED028BB8EE7B
:10447000C00AD4ED010A174670EE608A00EE105AA9
:10448000D4ED020AB8EEC00A30EE608A28EEA80A1F
:1044900008EE080AFFF748FADFED250A254930EE55
:1044A000200A10EE100AC8EE800A884288EE001A30
:1044B00027DDB3EE040A60EE200A20EE018A94EDB7
:1044C000010A30EE200A10EE100A03F0CDFB41EC99
:1044D000100BFFF7D5F851EC100B03F0D7F894ED63
:1044E000020A064630EE080A10EE100A03F0BCFB82
:1044F00041EC100BFFF7C4F851EC100B03F0C6F8B9
:1045000005463A462946304600F07EF900EE106A2C
:10451000B8EEC00A84ED010A00EE105AB8EEC00AE7
:1045200084ED020ABDEC028BBDE8F081340000206E
:104530006F12833A0000A04105480029C0F8141109
:1045400005D090F81801012801D101F047BE70474D
:10455000D00200202DE9F05F754C19200125206163
:104560007448407800287DD1DFF8CC81734EA8F1E3
:10457000100998F803004FF00007000707D498F8D7
:104580000700000703D498F80B0000076BD53770BD
:104590006B49694A00200B79577809689278B246CE
:1045A0004FF0FF3B13B1072B56D11AE0624B07F0D7
:1045B0000F06B1429B7803F00F0304D0B1EB121F3A
:1045C00001D0994224D11209B14201DD06B1012086
:1045D000914201DD02B1401C99423BDD1BB3401CFE
:1045E00038E0574B1B685E1E093B08290BDD05FAB6
:1045F00003FC07EA0C0C5FEA0C7C09D005FA06FC08
:1046000012EA0C0F2ED009294FF0000109DB0BE054
:1046100058461FE005FA01F31A4201D0401C00B2CF
:10462000491C8E42F6DC15E005FA01F6324201D053
:10463000401C00B2491C0829F6DB002108E000BF3D
:1046400005FA01F23A40120701D0401C00B2491CA1
:104650008B42F5DC411C67D008EB8000C078000776
:1046600062D501E024E024E03348103801F0DEFE9A
:104670009AF80000012857D199F80010217599F88F
:104680000110617599F80210A17599F80310E17590
:1046900099F80410217699F80500607624481321D2
:1046A0001A30FBF7FAFEA1682148884725480570B3
:1046B0003AE02148103801F0A7F83078012833D1CA
:1046C000FF2020750220607599F80210A17599F8F5
:1046D0000310E17599F80410217699F805106176B8
:1046E00099F80610A17699F80710E17699F8081064
:1046F0002177484699F809106177817AA177C17AC4
:10470000E177017B84F82010417B84F8211099F82F
:104710000E0084F82200C4F82370C4F82770A4F8AF
:104720002B70A1680248884706480570BDE8F09FD5
:10473000B401002070000020780100201400002047
:10474000D00200204100002010B500F007FB002837
:104750001AD00E4C204661688847002814DDFFF708
:1047600083FD04F114010A482269FBF764FE08483E
:10477000217C417600F096F806490878FE2801D998
:10478000002000E0401C087010BD0000B4010020B3
:10479000780100207000002070B500252DED028BFF
:1047A000002801DA40420125134C002358B1134977
:1047B0009FED138B46F2A812096801280FD002283A
:1047C0000DD003280BD0A4F8083100BFB4F80801BD
:1047D0002946BDEC028BBDE8704001F059BCB1FB2D
:1047E000F2F002F0C7FF53EC182B03F013F802F0BD
:1047F0007DFFA4F80801E9E7D00200206C0000204A
:10480000000000000000E03F00EE100A70B5F8EE76
:10481000C00A9FED200A224C00252DED048B80EE6E
:10482000809A00EE901AF8EEE00AC0EE808A00EE60
:10483000102ADFED190AB8EEC00A20EE200ADFEDDB
:10484000170A20EE208A00BF04EB850004EB8516D2
:1048500090ED4E0AD0ED520A20EE090A00EEA80AA9
:1048600030EE080A86ED0F0A96ED0F0AFEF7D2FE2B
:1048700030646D1C042DE7DB71B6002004EB801161
:104880000A6C4A63401C0428F8DB61B6BDEC048B5B
:1048900070BD00000000C842CDCCCC3C0AD7A33D7F
:1048A000D002002070B5174C06460D46606830B93E
:1048B000304600F02DFA607008B901206060FFF703
:1048C00049FE6178104809B9017911B100790728CA
:1048D00016D11C210D48FBF702FE2A4631460B4833
:1048E000FFF7C8FC002807DA08482038C169491CCE
:1048F000C1614FF0FF3070BDFBF7F8FE00F038FFEC
:10490000002070BD70000020D0020020980100201F
:1049100010B500F0B5F971B600EE100ADFED130A1C
:104920001349B8EE400A20EE200A81ED4C0A81F8C6
:104930002C0161B600F0E6FD0E4910F0FF040BD02B
:104940000A78052A02D2521C0A700CE00520087071
:10495000FBF7E8FE204610BD002008700246022149
:104960000548FCF730FA002010BD00003353154015
:10497000D002002040000020000802402DE9F04154
:10498000774ED6E90001FFF72FFC764C4FF47A758D
:1049900068B1284600F0B4F9C6E90001FFF7B8FF96
:1049A000022816D06068002801DD401E60606E4E4F
:1049B000D6E90001FFF718FC30B100F0DDF9284618
:1049C00000F09EF9C6E90001684E3079032846D010
:1049D000B5E0616841F28830491C61608142E6DBE4
:1049E0000020FFF7D9FE002211461046FFF70CFF0A
:1049F0000021084600F0C2F800210846FFF79CFDA0
:104A00005B4C002202212046FCF7DDF90122022145
:104A10002046FCF7D8F900221F231146642001F03C
:104A20004BFB00221F231146642001F045FB64204C
:104A300000F0B4FE002202212046FCF7C4F9002356
:104A40001A461946184601F037FB00231A46194644
:104A5000184601F031FB284600F0A0FED6E7A0681A
:104A60000122401CDFF80C811702A0603946404645
:104A7000FCF7A9F94FF4FA65284600F08FFE0022F2
:104A800039464046FCF79FF901F0D8FB0120FFF7BB
:104A900083FE284600F082FE0020FFF77DFE002105
:104AA000142000F06BF8284600F078FE1421002056
:104AB000FFF742FD284600F071FEA0686FF0630723
:104AC000012802D002281BD036E0002164220846CB
:104AD000FFF7C4FC284600F061FE00221146104694
:104AE000FFF7BCFC00213A460846FFF7B7FC284612
:104AF00000F054FE002211461046FFF7AFFC1BE009
:104B000000213A460846FFF7A9FC284600F046FE79
:104B1000002211461046FFF7A1FC0021642208463E
:104B2000FFF79CFC284600F039FE00221146104693
:104B3000FFF794FC0020A060307903280DD00E4CC4
:104B4000D4E90001FFF750FB002806D001F03AFD40
:104B5000012000F0D5F8C4E90001BDE8F0810000B3
:104B6000A000002040000020A8000020D00200206B
:104B70000008024000000240C00000200649002852
:104B8000C1F8100107D091F81811012903D101468D
:104B9000002001F023BB7047D00200202DE9F04136
:104BA0001E4888B00078002834D003A801F090FC9B
:104BB000DFF86C80002403AD6E4601AF08EB841073
:104BC00055F824104164B3EE000A083000F0F0FEFE
:104BD000002803DA01213155404201E0002131551E
:104BE00027F81400641CE4B2042CE7D39DF80330CA
:104BF0009DF802209DF801109DF8000001F0B2FA26
:104C0000BDF80A30BDF80820BDF80610BDF8040054
:104C100001F0D0FA08B0BDE8F08100005800002093
:104C2000D002002082B0CDE9000121F000400190C7
:104C30009DED000B02B051EC100B70471FB500202A
:104C40000390092000900120019002200290694603
:104C50000A48FBF7C5FD0948FBF71CFF0A21074876
:104C6000FBF7C2FE0548FBF761FE04460348FBF76D
:104C70008FFF04B0C4F3071010BD0000D42500203E
:104C80001FB5002003900820009001200190022011
:104C9000029069460A48FBF7A3FD0948FBF7FAFEB4
:104CA0000A210748FBF7A0FE0548FBF73FFE044634
:104CB0000348FBF76DFF04B0C4F3071010BD0000FC
:104CC000D425002010B504460020206101210B48A6
:104CD000FCF774F801280DD004F11400FDF7ECFB8B
:104CE000202809D9D4F81401401CC4F814014FF04D
:104CF000FF3010BD002010BD206110BD000C02402F
:104D000000B5024600F030F8801841F1000100BD06
:104D100008B540788DF800009DF8000000F0F00024
:104D20008DF800009DF8000000098DF800009DF846
:104D30000000002803D0072801D04FF0FF3008BD45
:104D400000210A46435C491C1A44C9B2D2B2202948
:104D5000F8D390F820001044C0B2704701480078A2
:104D6000704700007800002071B602490868496861
:104D700061B67047C800002070B50122124D940240
:104D800021462846FCF71FF81048007950B1032847
:104D900011D007280BD021462846BDE870400022DC
:104DA000FCF711B81F2364221146104607E01F23A9
:104DB0000022642102E01F23642200210020BDE8BC
:104DC000704001F079B90000000C0240D0020020D0
:104DD0002DE9F041144F154E0546002400222021F4
:104DE0003046FBF7F0FF280601D5012200E0002243
:104DF00020213846FBF7E7FF012001F013FE0122D6
:104E000020213046FBF7DFFF012001F00BFE680692
:104E1000641C050EE4B2082CE0D33046BDE8F04136
:104E200001222021FBF7CFBF000402400000024016
:104E30002DE9F04116460F460446002571B600F0F4
:104E40000DF9A02000F0D6F8380A00F0D3F8F8B237
:104E500000F0D0F800F002F9A12000F0CBF8761EA7
:104E600008E000BF00F084F82070002000F05CF83B
:104E7000641C6D1CB542F5D300F07AF82070012057
:104E800000F052F800F012F961B6BDE8F0812DE9AA
:104E9000F04716000D46074643D071B605F01F00D7
:104EA000C0F12004B44200D9F4B24FF000092AE066
:104EB000387800F09FF87F1C641EE4B2F8D200F04E
:104EC000F5F800240A2001F0A2FD641CE4B200F011
:104ED000C5F8A02000F08EF8804600F0E7F8B8F1A1
:104EE000000F01D10A2CEDD30A2C19D0D14405EBC7
:104EF0000A0085B2B14513D2A6EB0900202801D9DA
:104F0000202400E0C4B2A24600F0A8F8A02000F0DF
:104F100071F8280A00F06EF8E8B200F06BF8CBE701
:104F200061B6BDE8F087000070B5104C4FF4006129
:104F3000C8B101222046FBF746FF0A2001F072FDAE
:104F40000122950229462046FBF73DFF0A2001F089
:104F500069FD002229462046FBF735FFBDE8704079
:104F60000A2001F05FBD0022E4E7000000040240D7
:104F70002DE9F0410825002471B601221C4ED10212
:104F80003046FBF720FFDFF86880371508F110087E
:104F90001EE00A2001F046FD002239463046FBF7AC
:104FA00012FF0A2001F03EFD012239463046FBF790
:104FB0000AFF0A2001F036FD6006040ED8F8000052
:104FC00010F4006F01D044F001040A2001F02AFD22
:104FD0006D1EEDB2DDD2002239463046FBF7F3FEFE
:104FE0000A2001F01FFD61B62046BDE8F0810000F7
:104FF000000402402DE9F041054671B60024164F29
:105000004FF400685FEA275605FA04F0000601D560
:10501000012200E0002241463846FBF7D4FE0A2078
:1050200001F000FD012231463846FBF7CCFE0A2094
:1050300001F0F8FC002231463846FBF7C4FE641C40
:10504000E4B2082CE0D30A2001F0ECFC00F030FAC6
:1050500061B6BDE8F08100000004024070B5012295
:10506000114DD40221462846FBF7ADFE0A2001F07F
:10507000D9FC0122960231462846FBF7A4FE0A20FD
:1050800001F0D0FC002221462846FBF79CFE0A20B6
:1050900001F0C8FC002231462846FBF794FEBDE82B
:1050A00070400A2001F0BEBC0004024070B50E4DF5
:1050B0004FF40064002221462846FBF784FE0A20B4
:1050C00001F0B0FC012291022846FBF77CFE0A2089
:1050D00001F0A8FC012221462846FBF774FEBDE83A
:1050E00070400A2001F09EBC000402400348417851
:1050F000002902D08178491C81707047400000204F
:105100000B4810B54FF48071C1600A4A426000211B
:105110000161094A8260094A0260C0F8141100F076
:10512000BFFA01F061F9BDE8104001F051B800008C
:10513000B4010020C54C000841600008A1560008D9
:1051400010B504462221FBF7A8F9002020706070FA
:10515000A070E07020716071A071E07120726072C7
:10516000A072E07203212173122161737F21A17368
:10517000E0735A2084F820002046FFF7E1FD84F810
:10518000210010BD10B5094C012211022046FBF789
:105190001AFE002221152046FBF715FE0448006880
:1051A000016841F00101016010BD000000100240E3
:1051B000FC28002070B51A4E4FF48074002221465E
:1051C0003046FBF700FE174D0022A1002846FBF7F2
:1051D000FAFD012220213046FBF7F5FD00222021B7
:1051E0001148FBF7F0FD114E002202213046FBF77B
:1051F000EAFD002221463046FBF7E5FD0022802132
:105200003046FBF7E0FD002204212846FBF7DBFDDA
:105210002846BDE8704001220421FBF7D4BD000000
:1052200000000240000C024000040240000802405E
:10523000FFF73CBF012310B51A461946184600F087
:1052400069FF00231A461946184600F08BFF002319
:105250001A461946184600F0ADFF024900200870B2
:1052600010BD00005800002010B5094C0022042198
:105270002046FBF7A8FD012202212046FBF7A3FDF3
:1052800004480068016841F04001016010BD000061
:10529000000C02401C260020F0B578482DED048B50
:1052A00097B01EC88DE81E000FC805AC84E80F003B
:1052B0000CA800F09DF972489DF83C10C1609DF863
:1052C0003D1001619DF83E107F2900D97F21416189
:1052D00004AA0BA90AA800F03BFE42F2B0016948FB
:1052E000FBF7FDF8674C9DF82C0020609DF8280026
:1052F00060719DF8100000F0070020718DF810001B
:105300009FED618AB0EE481ADFED608AF0EE680A20
:105310009FED5F9A04F10800B0EE490A00F016FB19
:10532000B0EE481AF0EE680AB0EE490A04F14800FF
:1053300000F00CFBB0EE481AF0EE680AB0EE490A35
:1053400004F1880000F002FBB0EE481AF0EE680AA3
:10535000B0EE490A04F1C80000F0F8FA0020A4F801
:1053600008019FED4C0A054684ED430A6E469FED09
:105370004A8ADFED4A8A00BF06EB8500D0ED000ABD
:1053800080EE880A20EE289A19EE100A02F06CFCD2
:1053900041EC100BFEF764FA51EC100B01F038FFF2
:1053A00004EB8507C7F8380119EE100A02F05CFC1F
:1053B00041EC100BFEF7F0F951EC100B01F028FF57
:1053C0006D1CEDB2C7F84801022DD5D35FF0020580
:1053D00006EB8500D0ED000A80EE880A20EE289AC0
:1053E00019EE100A02F040FC41EC100BFEF738FAFF
:1053F00051EC100B01F00CFF04EB8507C7F83801E6
:1054000019EE100A02F030FC41EC100BFEF7C4F963
:1054100051EC100B01F0FCFE6D1CEDB2C7F8480119
:10542000042DD5D3002505AE06EB8500D0ED000A8E
:1054300080EE880A20EE280A10EE100A02F014FC12
:1054400041EC100BFEF7A8F951EC100B01F0E0FE57
:1054500004EB85016D1CEDB2C1F85801042DE3D3B6
:105460000F484FF40071A0F8A81000F01BF800F0EE
:1054700081FF17B0BDEC048BF0BD0000607D00081B
:1054800040000020D0020020000000005C8F423D60
:1054900048E13A3E809A904700003443DB0F494090
:1054A000D022002010B500F00DFF002010BD00003C
:1054B00070B5134C0122D1022046FBF784FC0A2070
:1054C00001F0B0FA0122950229462046FBF77BFC49
:1054D0000A2001F0A7FA0A481030006810F4006FA3
:1054E00003D0FFF7E3FD002070BD002229462046CF
:1054F000FBF769FC0A2001F095FA012070BD00005D
:10550000000402402DE9F0410024FFF797FB354BE2
:10551000334A596842F82100491C5960052903D1D2
:105520000021596001211970002619783546B9B358
:105530005FF0010152F8267052F82100B84200DDF8
:105540000E4652F82570B84200DA0D46491C05296E
:10555000F0DB52F82670D3E9020100EB010C67453D
:1055600001DD42F8260052F82560411A8E4201DA28
:1055700042F8250010680121C3F8080052F82150B4
:10558000491C28440529F9DB052190FBF1F1C8B23B
:1055900099608B2911DA012485290EDC02240CE0A4
:1055A000FFE7D2E900152944D2E902522A44114406
:1055B000CA1701EB92718910996071B60A4981F896
:1055C0002D0100EE100ADFED090AB8EE400A20EEC8
:1055D000200A81ED4D0A61B62046BDE8F081000049
:1055E0004401002000000020D00200206666CA3D71
:1055F00010B504462221FAF750FF2222002120464E
:10560000FFF716FC2046FFF79BFB94F820105A2961
:1056100003D194F82110814207D02046FFF790FD76
:10562000222200212046FFF732FC002010BDFBF7AC
:10563000DDFBFDF785FD71B6FDF79EF8FDF732F84D
:10564000FDF75AF9FDF728FAFDF790FAFDF7CCFAC5
:10565000FDF708FBFDF744FBFDF7ACFBFDF7DEFBB8
:10566000FDF76EF9FDF7B0F9FDF734FCFDF776FBB9
:10567000FDF7EAF9002205212B20FBF747FC2B2040
:10568000FBF736FCFDF72CFDFDF742F800F08DF836
:10569000FEE701460020842900D0C81C70470000A6
:1056A0001CB525A10022D1E90001CDE90001244962
:1056B0004FF0FF30086004212248FBF784FB702084
:1056C000FCF7B4FE3F210020FCF7B0FF322001F0D0
:1056D00093F919211120FCF7A9FF00210120FCF703
:1056E000A5FF01210220FCF7A1FF03210846FCF7DA
:1056F0009DFF00210420FCF799FF1348407900F03A
:105700007F010520FCF792FF26210620FCF78EFF83
:10571000052269460020FCF741FF002069460A5C2B
:1057200011320A54401CC0B20528F8D3052168463E
:10573000FCF752FF1CBD00000098457110000000EE
:1057400078000020000C0240D00200200EB501239A
:105750008DF804004FF0FF30009002AA01A9034821
:10576000FBF75CFF9DF808000EBD00001C26002022
:1057700010B5094C6068FFF70FF8D4E90201FFF794
:10578000FDF9D4E90201FEF7D7FE103494E80700D2
:10579000BDE81040FEF762BE9801002010B500B9C8
:1057A000012001F021F8002010BD10B501F0B8F87B
:1057B000002010BD7FB50D4604464169B0F90800D0
:1057C00081B1A16971B1FFF764FFD4E905128DE8D9
:1057D0000700D4E900102B46226901F08CFB0390EE
:1057E00004B070BDFFF755FF03A9CDE90001208A81
:1057F0002B4682B2D4E9001001F050FB012801D001
:105800000020EDE70398EBE7F0B54E4E4C4B01243A
:10581000377893F8185100224B49022F02D0012FFC
:1058200002D003E08C6000E0CC60327065B98E6815
:10583000012E06D18A600C61CA618E69761C8E6168
:105840000C70CE68012E06D0CE69052E0ADB0E69DB
:10585000012E0BD00BE0CA604C61CA618E69761CC8
:105860008E610C70CE69761CCE610CE00A614E69C7
:10587000012E00D14A61012D01D00A7004E0CC61F3
:105880008E69761C8E610C708C697F2C00D18A61C8
:10589000FF220270022444701C79002C1C7800D175
:1058A000641E04F00F048470AC010D7C04EB4514FD
:1058B0000D7D04EB0514C4700C7E0471097F4171E9
:1058C000F02181715C6C002C00DA64420A2194FBA7
:1058D000F1F494FBF2F502FB154594FBF2F4C5716B
:1058E0000472D3F88440002C00DA644294FBF1F493
:1058F00094FBF2F502FB154594FBF2F445728472B9
:10590000D3F8C440002C00DA644294FBF1F494FB19
:10591000F2F502FB154594FBF2F4C5720473D3F85B
:105920000431002B00DA5B4293FBF1F191FBF2F3BF
:1059300002FB131391FBF2F143738173F0BD00007E
:10594000D0020020340000201400002080EC030A64
:1059500070EE200A002170EE810AC0ED030AF0EE1D
:10596000000A01EE200A80ED040A80ED051AC162EA
:10597000064946F2A8129FED060A0968B1FBF2F14A
:10598000816180ED070A00F005B800006C0000207E
:1059900000002F439FED050A002180ED080A80EDED
:1059A000090A80ED0A0AC162704700000000000089
:1059B00010B504462DED028BB0EE408A90ED090A39
:1059C00080ED0A0A90ED081A80ED091AC06A401AA3
:1059D00001EE900AF8EEE11AC4ED081AD4ED030ABC
:1059E000226B60EEA11AD4ED040A40EEC11AD4ED88
:1059F000050A40EE801ABDEEE10A10EE100A1044CE
:105A00002063226BA069824203DC226B4042824207
:105A100000DA20630846FDF77AFA002800DA4042EF
:105A200094ED070AF0EE480AFEF7B2FB216B8142C3
:105A300003DC216B4042814200DA2063206BBDEC25
:105A4000028B10BD2DE9F041184C0F460546E66863
:105A50002068001D00F0D6FD38B9206890F82C10A1
:105A600001208840216981432161681C07D137B139
:105A70002168BDE8F0410E48091D00F007BE20680E
:105A80003544B5424560216805D2A06BBDE8F041C0
:105A9000091D00F0E3BD606B091D00F0DFFDA06A89
:105AA000854200D2A562BDE8F0810000DC00002044
:105AB000F82A00202DE9F041054600F0F3FD2E4CB8
:105AC000A068401CA06020682C4F10B1606940B3F2
:105AD0002DE02560A068012829D1002606EB86006C
