:020000040800F2
:10000000786C0020E9020008472D00086D220008E6
:10001000452D0008C9060008D13300080000000083
:10002000000000000000000000000000290200089D
:10003000CB0600080000000085020008D52E00084D
:100040000303000803030008030300080303000878
:100050000303000803030008110700080303000856
:100060000303000803030008030300080303000858
:100070000303000803030008030300080303000848
:100080000303000803030008030300080303000838
:100090000303000803030008030300080303000828
:1000A0000303000803030008030300080303000818
:1000B0000303000803030008030300080303000808
:1000C00003030008030300080303000803030008F8
:1000D00003030008030300080303000803030008E8
:1000E000030300080303000803030008A92F000806
:1000F00003030008B52F00080303000803030008EA
:100100000303000803030008030300085D2D000833
:1001100003030008030300080303000803030008A7
:100120000303000803030008030300080303000897
:100130000303000803030008030300080303000887
:100140000303000803030008030300080303000877
:100150000303000803030008030300080303000867
:100160000303000803030008030300080303000857
:100170000303000803030008030300080000000055
:10018000030300080303000800F002F800F03CF845
:100190000AA090E8000C82448344AAF10107DA45E2
:1001A00001D100F031F8AFF2090EBAE80F0013F0F8
:1001B000010F18BFFB1A43F00103184798650000B0
:1001C000B8650000103A24BF78C878C1FAD8520741
:1001D00024BF30C830C144BF04680C6070470000C1
:1001E0000023002400250026103A28BF78C1FBD840
:1001F000520728BF30C148BF0B6070471FB506F0DB
:100200009EF91FBD10B510BD00F096F91146FFF71D
:10021000F5FF04F0B2F900F0B4F903B4FFF7F2FF10
:1002200003BC00F0B5F900002C4B19680868B0E871
:10023000F04F80F30988BFF36F8F4FF0000080F319
:10024000118870470000000008480068006880F3CB
:1002500008884FF0000080F3148862B661B6BFF3DF
:100260004F8FBFF36F8F00DF00BF00BF08ED00E0CE
:10027000DFF80C00016841F470010160704700BFB5
:1002800088ED00E0EFF30980BFF36F8F134B1A681E
:100290001EF0100F08BF20ED108A20E9F04F10600B
:1002A00009B44FF0500080F31188BFF34F8FBFF3B4
:1002B0006F8F05F019F84FF0000080F3118809BC2A
:1002C00019680868B0E8F04F1EF0100F08BFB0ECD6
:1002D000108A80F30988BFF36F8F704744000020B5
:1002E000EFF3058070470000094880470948004740
:1002F000FEE7FEE7FEE7FEE7FEE7FEE7FEE7FEE7D6
:10030000FEE7FEE704480549054A064B7047000032
:10031000992F00088901000878660020786C002079
:10032000786800207868002053EA020C00F06980A9
:100330002DE9F04B4FF00006002B1FBFB3FA83F5F9
:1003400003FA05F424FA05F65E4012BF1643B2FA2A
:1003500082F502FA05F4C5F120051EBF22FA05FC5C
:1003600044EA0C04203556EA044C4FEA144418BF02
:10037000641C4FF000084FF00009904271EB030C31
:1003800039D3002919BFB1FA81F701FA07F6B0FA9B
:1003900080F700FA07F6C7F120071EBF20FA07FC16
:1003A00046EA0C062037B6FBF4FCA7EB0507103F26
:1003B00007F01F0BCBF120060CFA0BFB2CFA06F60C
:1003C00044BFB3460026202FA4BF5E464FF0000B6B
:1003D0005BEA060C08BF4FF0010B19EB0B09ABFBF6
:1003E000027C48EB0608C01B06FB02CC0BFB03CCCF
:1003F00071EB0C01C1E70B46024641464846BDE899
:10040000F08B13B54FF000004FF00001AFF3008008
:10041000BDE81C40704710B5203AC0F00B80B1E831
:100420001850203AA0E81850B1E81850A0E8185029
:10043000BFF4F5AF5FEA027C24BFB1E81850A0E832
:10044000185044BF18C918C0BDE810405FEA827C4C
:1004500024BF51F8043B40F8043B08BF7047D20763
:1004600028BF31F8023B48BF11F8012B28BF20F804
:10047000023B48BF00F8012B70474FF000020429EF
:10048000C0F0128010F0030C00F01B80CCF1040CC3
:10049000BCF1020F18BF00F8012BA8BF20F8022BF7
:1004A000A1EB0C0100F00DB85FEAC17C24BF00F89D
:1004B000012B00F8012B48BF00F8012B70474FF0CB
:1004C000000200B5134694469646203922BFA0E8A4
:1004D0000C50A0E80C50B1F12001BFF4F7AF0907B0
:1004E00028BFA0E80C5048BF0CC05DF804EB8900A1
:1004F00028BF40F8042B08BF704748BF20F8022BE4
:1005000011F0804F18BF00F8012B704770477047FB
:10051000704710B500F008F8006810BD10B504462B
:1005200000F002F8046010BD004870471466002017
:1005300000487047146600207546FFF7F9FFAE4685
:1005400005006946534620F00700854618B020B5DF
:10055000FFF7D8FEBDE820404FF000064FF000073F
:100560004FF000084FF0000B21F00701AC46ACE85B
:10057000C009ACE8C009ACE8C009ACE8C0098D46C8
:1005800070470446AFF300802046FFF746FE0000A8
:1005900001491820ABBEFEE72600020070470000AC
:1005A000464910B54A6822F440324A604A684368B6
:1005B0001A434A6001684A6822F480724A600168FE
:1005C0004A68036942EA03224A6001684A6822F0E5
:1005D00040724A6001684A6883681A434A60016849
:1005E0008A6822F400628A6001688A68C3681A43D4
:1005F0008A60816A6FF07062D14201688A6822F075
:1006000070628A6001688A680CD0836A1A438A60C3
:1006100001688A6822F040528A6001688A68C36A69
:100620001A4301E022F040528A6001688A6822F091
:1006300002028A6001688A68037E42EA43028A6095
:1006400090F82010002901684A680FD042F4006237
:100650004A6001684A6822F460424A6001684A6858
:10066000174C436A04EB43331A4301E022F400625F
:100670004A600168CA6A22F47002CA620168CA6AE2
:10068000838B104C04EB03531A43CA6201688A68D7
:1006900022F400728A6001688A6890F8303042EA79
:1006A00043228A6001688A6822F480628A60016855
:1006B0008A68406942EA8020886010BD00230140BA
:1006C00000E0FFFF0000F0FFFEE7704770B50B4D44
:1006D000002401220221284600F07BFA642004F065
:1006E0003CFE00220221284600F073FA642004F048
:1006F00034FE641C052CECDB70BD000000080240D9
:10070000012003F0DBFFFBE7012003F0D7FFFBE74D
:10071000012000F055B972B6FEE7000078B500245C
:10072000009490F83C20012A19D0012280F83C2046
:100730000A6807230568092A13D9EE680A3A02EB0A
:10074000420293409E43EE600B788A680A3B03EBBB
:1007500043039A400368DD682A43DA6010E0022010
:1007600078BD2E6902EB420293409E432E610B78C6
:100770008A6803EB43039A4003681D692A431A61A0
:100780004A681F23072A13D205686E6B521E02EBBC
:10079000820293409E436E630B790A885B1E92B27D
:1007A00003EB83039A4003685D6B2A435A6327E097
:1007B00005680D2A12D22E6BD21F02EB82029340E3
:1007C0009E432E630B790A88DB1F92B203EB8303EF
:1007D0009A4003681D6B2A431A6311E0EE6A0D3AD2
:1007E00002EB820293409E43EE620B790A880D3B36
:1007F00092B203EB83039A400368DD6A2A43DA620C
:10080000164B0568144A9D4206D10D68122D03D17E
:10081000556845F48005556005689D4218D10B6800
:10082000102B01D0112B13D1536843F400035360F4
:10083000096810290CD10A490A4A0968B1FBF2F18A
:1008400001EB8101490000E0491E00910029FBD124
:1008500080F83C40002078BD00230140002001408A
:100860001000002040420F0070B504004FF000055A
:1008700003D0206C002610B107E0012070BD204697
:1008800000F01CF8666484F83C60206CC00610D44C
:10089000206C20F4885040F0020020642046FFF7CE
:1008A0007FFE6664206C20F0020040F001002064AE
:1008B00000E0012584F83C60284670BD10B586B084
:1008C000044614216846FFF7FAFD11492068884262
:1008D0001BD110480021026842F480720260006857
:1008E00000F4807005900B481438026842F0020250
:1008F0000260006800F00200059003200090CDE93E
:1009000001016946044800F067F806B010BD000018
:1009100000200140443802400004024090F83C109E
:1009200001290CD0012180F83C1001688A6822F06E
:1009300001028A6001688968C90702D007E00220C5
:100940007047016C21F4885141F0010101640021DC
:1009500080F83C100846704790F83510022903D003
:100960008021416501207047052180F8351000681D
:10097000016821F0010101600020704770B5054653
:1009800000F02CF90B4E04463068201A14280ED9BA
:10099000012D0BD10121084800F016F90146074846
:1009A000012905D05FF0010180F81811346070BD95
:1009B0000021F9E71800002000080240D8010020BB
:1009C000044910B50A68024202D00860FFF7D6FF5A
:1009D00010BD0000143C01402DE9F84FDFF8BCA128
:1009E0000022012503264FF00F090AF1040BAAF19A
:1009F000040E00BF0B6805FA02F42340A34270D135
:100A00000F7907F00307012F01D0022F16D1876855
:100A10004FEA420806FA08FC27EA0C07D1F80CC096
:100A20000CFA08FC4CEA070CC0F808C04768A7435A
:100A30000C79C4F3001494403C4344600C79E443C3
:100A4000A4070AD0C4684FEA420C06FA0CF7BC436C
:100A50008F6807FA0CF72743C7600C7904F003048A
:100A6000022C12D1D40800EB840CDCF8204057078C
:100A7000FF0E09FA07F824EA0804D1F8108008FAF2
:100A800007F848EA0408CCF8208004684FEA420CD2
:100A900006FA0CF7BC430F7907F0030707FA0CF7C7
:100AA000274307604C6814F4403F70D03C4C2768E3
:100AB00047F480472760246822F0030704F4804449
:100AC0000094384C07EB040CDCF8084897074FEA11
:100AD000177809FA08F7BC43334FB84202D1002710
:100AE00024E054E0314FB84201D101271EE0304FDD
:100AF000B84201D1022719E02E4FB84201D1032795
:100B000014E02D4FB84201D104270FE02B4FB8421B
:100B100001D105270AE02A4FB84201D1062705E096
:100B2000284FB84201D1072700E0082707FA08F745
:100B30002743CCF80878DAF800405746D1F804C0CB
:100B40009C435FEACC2C00D51C433C60DBF80040A2
:100B50005F46D1F804C09C435FEA8C2C00D51C434F
:100B60003C60DEF800407746D1F804C09C435FEA61
:100B70008C3C00D51C433C60084F083F3C68D1F8D2
:100B800004C09C435FEACC3C00D51C433C60521C33
:100B9000102AFFF42FAFBDE8F88F0000083C014099
:100BA000443802400030014000000240000402408E
:100BB00000080240000C02400010024000140240F5
:100BC00000180240001C02400069084000D00120CB
:100BD00070470AB1816170470904FBE701488068EA
:100BE00070470000380000200B4810B5016841F440
:100BF00000710160016841F480610160016841F4A5
:100C000080710160032000F09FF8052000F006F8D5
:100C100000F050F8002010BD003C024030B5054601
:100C20001F4887B00024016841F4807101600068AA
:100C300006A900F48070009001A800F031F9049832
:100C4000A8B100F04DF940001649174AB0FBF1F188
:100C50001648491E026040F2E732C0E90324C0E9A9
:100C60000114846100F030FE040003D015E000F0B0
:100C700037F9E9E70D4800F0ABFE04000DD12D2057
:100C800000F034F8102D07D2002229462D2000F064
:100C90003BF80748056000E0012407B0204630BD5E
:100CA0004038024040420F0000200040DC28002075
:100CB0003C0000200C4882B0016841F48041016092
:100CC000006800F4804000900748001F016841F070
:100CD000805101600068002200F0805000900F21D8
:100CE000901E02B000F010B844380240002809DB22
:100CF00000F01F02012191404009800000F1E02036
:100D0000C0F8001170470000F0B40E4B1B680C4691
:100D1000C3F30223C3F10705042D00D90425191DCF
:100D2000072901D2002300E0DB1E012606FA05F1A7
:100D3000491E214099409E40761E16403143F0BC2A
:100D400002F05FBB0CED00E0064900F00702086806
:100D50004FF6FF03184040EA0220034A10430860A0
:100D6000704700000CED00E00000FA052DE9F047A7
:100D70000E46050065D0DFF81481D8F80000F7B200
:100D800000F00700B04207D288F80070D8F80000E1
:100D900000F00700B04254D128683D4C810712D5BD
:100DA000400703D5206840F4E05020602878000711
:100DB00003D5206840F4604020602068A96820F0D6
:100DC000F000084320602878C0072DD030496868BB
:100DD0000839012812D0022813D0032811D009683D
:100DE000890700292DDA216821F0030101432160E0
:100DF000FFF7F4FE814641F2883A0EE00968890364
:100E0000EFE709688901ECE7FFF7E8FEA0EB0901CD
:100E1000514502D90320BDE8F0872068696800F0D9
:100E20000C00B0EB810FEFD1D8F80010404601F074
:100E30000701B14207D90770006800F00700B0420F
:100E400001D00120E7E72878400705D52068E96848
:100E500020F4E050084320602878000706D5206879
:100E6000296920F4604040EAC100206000F058F891
:100E70002168084AC1F30311515CC8400649086063
:100E800006480068FFF7CAFE0020C4E7003C0240A5
:100E90000838024074650008100000203C00002063
:100EA0000F2202600C4A136803F0030343601368C7
:100EB00003F0F0038360136803F4E053C360126827
:100EC0004FF4E05303EAD20202610448006800F0E4
:100ED000070008607047000008380240003C0240EC
:100EE0000448054900680968044AC1F38221515C3D
:100EF000C840704710000020083802408465000890
:100F00000448054900680968044AC1F34231515C4C
:100F1000C84070471000002008380240846500086F
:100F2000154810B5006810F00C02144813D014498D
:100F3000042A0FD0082A0ED10F4C241F22682368E0
:100F400002F03F025B0207D52068C0F38810A0FBC7
:100F5000010106E0084610BD2168C1F38811A1FB1C
:100F600000010023FFF7E0F92168C1F30141491CAA
:100F70004900B0FBF1F010BD083802400024F40035
:100F800040787D012DE9F84F04006ED02078DFF81D
:100F90004C93C007A9F104054AD009F10400016887
:100FA000C1F38101012908D00068C0F38100022843
:100FB0000AD1D9F80000400206D52868800337D549
:100FC00060680028E1D033E06068B0F5803F10D061
:100FD000B0F5A02F286810D020F480302860286851
:100FE00020F4802028606068A8B1FFF7F7FD06466E
:100FF0000DE0286840F48030F4E740F48020286059
:10100000F7E700BFFFF7EAFD801B642873D8286864
:101010008003F7D50CE0FFF7E1FD064605E000BFD1
:10102000FFF7DCFD801B6428F0D828688003F7D424
:101030002078DFF8AC8280074FF0000A3ED5A74841
:10104000001D016811F00C0F08D00068C0F381008A
:1010500002280BD1D9F80000400207D42868800785
:1010600016D5E068012800D112E033E1E068B8B19C
:101070000120C8F80000FFF7B1FD064605E000BFFB
:10108000FFF7ACFD801B0228C0D828688007F7D581
:101090002868216920F0F80040EAC10028600DE0CE
:1010A000C8F800A0FFF79AFD064604E0FFF796FD9A
:1010B000801B02281FD828688007F7D420780007F3
:1010C00022D5864F87486169703771B1012101606F
:1010D000FFF784FD064604E0FFF780FD801B022831
:1010E00009D838688007F7D50EE0C0F800A0FFF7F0
:1010F00075FD064605E082E0FFF770FD801B0228C3
:101100007DD838688007F7D42078400768D5DFF8A5
:10111000CCB100270BF13C0BDBF80000C0000BD476
:10112000DBF8001041F08051CBF80010DBF8000034
:10113000012700F0805000906B4E3068C00510D43D
:10114000306840F480703060FFF748FD009005E0A3
:10115000FFF744FD0099401A022850D83068C005B6
:10116000F6D55E4EA0686C3601280FD00528306891
:1011700010D020F001003060306820F004003060B2
:10118000A068B8B1FFF72AFD00900FE0306840F08A
:101190000100F4E740F004003060F7E7FFF71EFDC0
:1011A0000099411A41F28830814266D83068800740
:1011B000F4D50EE0FFF712FD009007E0FFF70EFDFB
:1011C0000099411A41F28830814256D83068800730
:1011D000F4D42FB1DBF8001021F08051CBF80010CF
:1011E000A069C8B33D49091D0968C1F381010229FD
:1011F0004AD00228504607D0C8F8600000E03CE022
:10120000FFF7ECFC04463BE04746C8F86000FFF7F8
:10121000E5FC064605E000BFFFF7E0FC801B022866
:101220002BD828688001F7D4D4E907010843A16AC4
:101230002E4A490802EB0141626A41EA82110843E1
:1012400094F82C1040EA0161C9F8001001203866BA
:10125000FFF7C4FC044606E03EE000BFFFF7BEFC1B
:10126000001B022809D828688001F7D534E000BFA8
:10127000FFF7B4FC001B022802D90320BDE8F88F59
:1012800028688001F4D427E00128F7D0D9F80000BD
:10129000E26900F4800191421CD1226A00F03F0112
:1012A000914217D147F6C071626A0140B1EB821FCB
:1012B00010D1A26A4FF0FF3300F4403103EB520229
:1012C000B1EB024F06D194F82C1000F07060B0EB37
:1012D000016F01D00120D1E70020CFE704380240A0
:1012E00000004742800E4742007000400000FFFFB0
:1012F0007047000038B5016804464A688868C043F2
:10130000430606D5C30704D1D3435B0601D4216C41
:1013100005E0830708D4D3431B0605D4616C01B0F4
:101320002046BDE830400847830603D5430601D573
:10133000C30551D4D3439B064ED443060AD494F834
:101340005130032B49D0636D43F004036365CB68D0
:101350008B680093830609D4636D43F001036365D2
:101360008B6800930B6823F040030B60C00506D424
:10137000606D40F008006065206880680090606DD6
:10138000002829D02068416821F0E0014160012057
:1013900084F85100900701D4D00722D0206841681A
:1013A00021F003014160114DE06C40B10565E06C36
:1013B000FFF7D2FA18B1606D40F040006065A06C94
:1013C000002809D00565A06CFFF7C6FA002803D0F5
:1013D000606D40F04000606538BDC8688868009066
:1013E00038BD2046FFF784FF38BD0000692D000896
:1013F00070B5040008D0606A002538B125616561C8
:1014000094F8510040B10CE0012070BD6068B0F567
:10141000827FF5D0E561F3E784F85050204600F074
:101420004DF8022084F851002068016821F0400145
:101430000160A088218900F4827001F4044108430E
:10144000A18901F400610843217C01F002010843F5
:10145000217D01F001010843218B01F40071084353
:10146000217F01F03801084394F8201001F0800139
:101470000843218D01F40051084321680860A069E8
:10148000042101EA104094F8241001F010010843EF
:1014900021684860A06AB0F5005F03D1A08D216883
:1014A00080B208612068C16921F40061C16165658D
:1014B000012084F85100002070BD000010B586B0F6
:1014C000044614216846FEF7FAFF1849206888424E
:1014D00029D117480021026842F4004202600068E6
:1014E00000F40040059012481038026842F00402EF
:1014F0000260006800F0040005904FF4E050009096
:101500000220CDE9010103200390062004906946E2
:101510000848FFF761FA002205213320FFF7F4FBAA
:101520003320FFF7E3FB06B010BD0000003C004095
:1015300040380240000802402DE9FF4F81B04FF0D3
:1015400000091D46904604460E9E4FF0010BCDF853
:101550000090FFF743FB074694F8510061680128AB
:1015600006D0B1F5827F4AD1A168E9BB042846D1F3
:10157000029800287ED0B8F1000FFBD0002DF9D0E2
:1015800094F8500001283AD04FF0010A84F850A096
:1015900094F85100042802D0052084F85100C4F8C2
:1015A0005490C4F83880E587A58702992163E586C1
:1015B000A586C4F84090C4F84490A06A4FF400583F
:1015C000404509D12068016821F40051016020687C
:1015D000016841F40051016020680168490605D4A2
:1015E000016841F0400100E009E00160E068B0F509
:1015F000006F606807D0F0B3012D5DD0ABE0022032
:1016000005B0BDE8F08F08B1012D4ED1206B2168E7
:101610000088C860206B801C2063E08E401EE0863E
:10162000E08E48BBA06A40453FD12068016841F484
:101630008051016039E020688168890719D5E18E01
:10164000B9B1BBF1010F14D1216B0988C160206BC6
:10165000801C2063E08E401EE086E08E4FF0000B81
:1016600038B9A06A404504D12068016841F480512E
:10167000016002E0B1E01FE017E020688168C9075F
:101680000CD0E18F51B1C068A16B0880A06B801CA9
:10169000A063E08F401EE0874FF0010BFFF79EFA3A
:1016A000C01BB04201D3701C6AD1E08E0028C2D1A9
:1016B000E08F0028BFD154E0206B216800780873C8
:1016C000206B401C2063E08E401EE086E08EE8BB6D
:1016D000A06A40453FD12068016841F48051016013
:1016E00039E020688168890719D5E18EB9B1BBF16D
:1016F000010F14D1216B09780173206B401C20630A
:10170000E08E401EE086E08E4FF0000B38B9A06AF4
:10171000404504D12068016841F48051016020688F
:101720008168C9070CD0E18F51B1C068A16B087006
:10173000A06B401CA063E08F401EE0874FF0010BC0
:10174000FFF74CFAC01BB04204D300E003E0701C6A
:1017500001D015E0A6B1E08E0028C2D1E08F0028AC
:10176000BFD1A06A404514D101223346114620461C
:10177000009701F037FB48B1606D40F002006065F2
:1017800084F851A084F85090032039E72068C0689D
:10179000009020688168C90607D5616D41F002019B
:1017A00061654FF6EF71816007E03A4631462046A9
:1017B00001F0E2FA20B12020606584F850900CE03E
:1017C000A06818B92068C1688068009084F851A0AA
:1017D00084F85090606D0028D7D0012010E7704742
:1017E000704710B590F83C20012A22D0012280F8E1
:1017F0003C20CA688C6822F4407222434C6822F470
:10180000806222430C6822F4006222430C6922F4B5
:10181000805222434C6922F400522243C9690023BA
:1018200022F480420A4301684A6480F83C30002078
:1018300010BD022010BD000070B590F83C20012AB8
:1018400032D0012480F83C40022280F83D20036819
:101850005A689D6822F070060A6832435A60134B3A
:1018600002689A4214D0B2F1804F11D0104B9A42C4
:101870000ED0104B9A420BD00F4B9A4208D00F4B10
:101880009A4205D00E4B9A4202D00E4B9A4204D196
:10189000496825F080031943916080F83D4000219C
:1018A00080F83C10084670BD022070BD0000014069
:1018B0000004004000080040000C0040000401400B
:1018C000004001400018004010B5040003D094F817
:1018D0003D0010B107E0012010BD002084F83C005D
:1018E000204600F01FF8022084F83D00211D2068EA
:1018F00001F066FB012084F8460084F83E0084F87D
:101900003F0084F8400084F8410084F8420084F8E5
:10191000430084F8440084F8450084F83D0000202A
:1019200010BD000008B5026822482349824207D151
:10193000086840F010000860086800F0100009E036
:101940001E48824208D1086840F0200008600868FC
:1019500000F02000009008BD1748194B001D9A4266
:1019600007D1016841F480310160006800F48030E3
:10197000F0E7144B9A4207D1016841F4003101604D
:10198000006800F40030E5E70F4B9A4207D1016888
:1019900041F480210160006800F48020DAE70B4800
:1019A0008242D8D1086840F040000860086800F022
:1019B0004000CFE7001000404038024000140040D3
:1019C0000040014000440140004801400018004030
:1019D00090F83D10012901D001207047022180F8C4
:1019E0003D100168CA6842F00102CA6000681149EE
:1019F000884214D0B0F1804F11D00F4988420ED0E8
:101A00000E4988420BD00E49884208D00D498842C1
:101A100005D00D49884202D00C49884204D1816822
:101A200001F00701062903D0016841F001010160BE
:101A30000020704700000140000400400008004002
:101A4000000C00400004014000400140001800402C
:101A500070B5044690F83C000025012817D00126F7
:101A600084F83C60022084F83D002068826822F0FF
:101A7000770222F47F4282600868502838D00DDC5B
:101A800020284FD005DC90B3102811D14AE0022065
:101A900070BD302846D040280AD13BE060282FD0C6
:101AA00070280DD0B0F5805F03D0B0F5005F12D084
:101AB000012584F83D60002084F83C00284670BD74
:101AC000CB68D1E90121206801F0EFFA2068816834
:101AD00041F0770109E0CB68D1E90121206801F0EC
:101AE000E4FA2068816841F480418160E1E719E00F
:101AF000CA684968206801F0ADFB5021206806E003
:101B0000CA684968206801F0B6FB6021206801F0CE
:101B1000D6FACEE7CA684968206801F09BFB4021ED
:101B20002068F4E7226801461046F0E72DE9F0410D
:101B30000D46040003D094F83D0018B108E00120E0
:101B4000BDE8F081002084F83C00204600F040F819
:101B5000022084F83D002068816844F20702914326
:101B60008160211D206801F02BFA2268906891693C
:101B7000166A2B68AF69034340F20330814341EAA0
:101B80000721A868EF6908434FF6FC418843E968DC
:101B900040EA0720014328692F6A000140EA073024
:101BA000084369686D6926F0AA0646EA05152943C7
:101BB00093602268906154F8460B0162012004F89A
:101BC0001F09E0752076E0762077A0750020B7E742
:101BD000F0B587B0044614216846FEF770FC48490A
:101BE00023680024464810390225464A464EB3F180
:101BF000804F1FD0DFF814C1C027634547D1036869
:101C000043F002030360006800F0020005900868DA
:101C100040F00100086008680097CDE9015400F029
:101C20000100CDE90450694603941046FEF7D4FE46
:101C300007B0F0BD036843F001030360006800F0E3
:101C400001000590086840F001000860086800F095
:101C500001000590086840F002000860086801274C
:101C600000F0020005904FF400400090CDE90154CF
:101C7000CDE9034769461046FEF7AEFE0820009006
:101C8000CDE90154CDE9034769463046CEE7DFF898
:101C900080C0634517D1026842F004020260006808
:101CA00000F004000590086840F002000860086831
:101CB0000097CDE9015400F00200CDE904506946D7
:101CC00003943046B2E7134EB342B1D1036843F0F8
:101CD00008030360006800F008000590086840F001
:101CE000010008600868694600F0010005900320C3
:101CF0000090CDE901541046CDE9034596E7000078
:101D0000403802400000024000040240000400404D
:101D100000080040000C004070472DE9F0410446E7
:101D20000068C66805694FF00007A90713D5B10719
:101D300011D5F91E01610120207720688069800794
:101D4000204602D0FFF7E8FF04E000F0E9F8204663
:101D500000F0BAF92777680716D5700714D52168FF
:101D60006FF004000861022020772068806910F479
:101D7000407F204602D0FFF7CFFF04E000F0D0F80C
:101D8000204600F0A1F92777280715D5300713D58D
:101D900021686FF008000861042020772068C0697E
:101DA0008007204602D0FFF7B7FF04E000F0B8F844
:101DB000204600F089F92777E80616D5F00614D5F5
:101DC00021686FF010000861082020772068C06942
:101DD00010F4407F204602D0FFF79EFF04E000F0A1
:101DE0009FF8204600F070F92777E80708D0F00741
:101DF00006D021686FF001000861204600F0A4F9C8
:101E0000280608D5300606D521686FF080000861E5
:101E10002046FFF7E4FC680608D5700606D5216861
:101E20006FF040000861204600F0B6F9A8060AD518
:101E3000B00608D521686FF0200008612046BDE893
:101E4000F041FFF7CDBCBDE8F081000070B586B071
:101E5000044614216846FEF732FB24682848002215
:101E600028490223844212D1086840F0100008601B
:101E70000868694600F0100005904FF4D4400090C7
:101E8000CDE901320120CDE903201F4812E01F48AF
:101E90000325844212D1086840F0010008600868F8
:101EA000694600F0010005900C200090CDE9013258
:101EB000174821E0FEF790FD06B070BD154E16489C
:101EC000B44209D10C6844F002040C60096801F0C6
:101ED0000201059181150BE0104EB442ECD10C6863
:101EE00044F002040C60096801F0020105917115CB
:101EF0000091CDE901326946CDE90325DAE700001A
:101F00000000014030380240001002400040014013
:101F1000000002400044014000040240004801402B
:101F2000704770B50D46040003D094F83D0010B121
:101F300007E0012070BD002084F83C00204600F03E
:101F40001BF8022084F83D00211D206801F038F8BC
:101F50002068016821F00801016054F8460B01680F
:101F600029430160012004F81F09E0752076E0761E
:101F70002077A075002070BD704770B5044690F8BA
:101F80003C0000260D4601280FD0012084F83C00BB
:101F90006AB1042A1DD0082A2FD00C2A3FD001266E
:101FA000002084F83C00304670BD022070BD2068DF
:101FB00001F08EF82068816941F008018161206894
:101FC000816921F004018161206881692A691143D6
:101FD00011E0206801F0ACF82068816941F40061EB
:101FE00081612068816921F4806181612068816953
:101FF0002A6941EA02218161D2E7206801F0CEF826
:102000002068C16941F00801C1612068C16921F0FF
:102010000401C1612068C1692A69114311E0206887
:1020200001F0F0F82068C16941F40061C1612068E5
:10203000C16921F48061C1612068C1692A6941EAEE
:102040000221C161ACE710B5040003D094F83D0053
:1020500010B107E0012010BD002084F83C002046AC
:1020600000F01EF8022084F83D00211D206800F0D9
:10207000A7FF012084F8460084F83E0084F83F0062
:1020800084F8400084F8410084F8420084F843005A
:1020900084F8440084F8450084F83D00002010BD19
:1020A00008B500680649884208D10648016841F031
:1020B00001010160006800F00100009008BD00000F
:1020C00000000140443802407047000030B504462B
:1020D0000D460068002200F0DBFF194B41F21111A0
:1020E00020688A10984202D0164B984209D1036AA0
:1020F0000B4206D1036A134203D1436C23F400431D
:1021000043642068036A0B4206D1016A114203D17D
:10211000016821F00101016001203DB1042D08D0CA
:10212000082D09D084F84100002030BD84F83E001D
:10213000FAE784F83F00F7E784F84000F4E700008E
:10214000000001400004014010B500680E498842BB
:1021500018D10E4C6068401C6060B0F57A7F11D3D6
:102160000B4804F10801006803F0FAF9A06838B1DF
:1021700008494FF080500860BFF34F8FBFF36F8F57
:102180000020606010BD0000001800401800002012
:102190002400002004ED00E0704770B5040004D076
:1021A00094F84100002510B106E0012070BD84F8CC
:1021B0004050204600F024F8242084F84100206894
:1021C000C16821F40051C160204601F067F8206821
:1021D000016921F4904101612068416921F02A01DF
:1021E00041612068C16841F40051C16065642020EC
:1021F00084F8410084F842006563002070BD00004F
:1022000010B586B0044614216846FEF758F9144903
:102210002068884221D113480021026842F0100250
:102220000260006800F0100005900E481438026843
:1022300042F001020260006800F0010005904FF4D6
:10224000C06000900220CDE9010103200390072027
:10225000049069460448FEF7BFFB06B010BD0000BD
:10226000001001404438024000000240FEE7000038
:1022700070B500F0700400F087F80B4D06460022A0
:1022800002212846FEF7A5FC272002F005FA44EAC1
:10229000060002F001FA012202212846FEF799FC0D
:1022A000BDE8704000F070B8000C024010B5084C5A
:1022B000002202212046FEF78CFCE22002F0ECF91D
:1022C00020460122BDE810400221FEF782BC00003A
:1022D000000C024010B5084C002202212046FEF7F7
:1022E00078FCE12002F0D8F920460122BDE8104038
:1022F0000221FEF76EBC0000000C02402DE9F04107
:10230000064600F055F80546202804D9FFF7CEFF11
:102310002120BDE8F08155B10E4F00220221384640
:10232000FEF757FC612002F0B7F9002407E0002017
:10233000EFE7FF2002F0B0F93055641CE4B2AC4284
:10234000F7D3012202213846FEF743FCFFF7AEFF28
:102350002846DEE7000C024070B50A4D0446002214
:1023600002212846FEF735FC204602F095F9FF20B1
:1023700002F092F90446012202212846FEF729FCC8
:10238000204670BD000C024070B5084D00220221AD
:102390002846FEF71EFC072002F07EF904460122C3
:1023A00002212846FEF715FC204670BD000C0240B5
:1023B00070B50A4D002202212846FEF70AFC602073
:1023C00002F06AF9FF2002F067F9044601220221B7
:1023D0002846FEF7FEFB204670BD0000000C0240C0
:1023E000052A00D90522052800D905200A30C0B2E7
:1023F00000F01CB810B504460020FFF7ADFF014601
:1024000014B1012C03D004E020F0010101E040F000
:102410000101BDE81040002000F02AB8052900D9CC
:1024200005210A4601461020AFF300802DE9F04156
:102430000E4F15460E460446002202213846FEF78E
:10244000C8FB44F0200002F027F9002404E0305DCE
:1024500002F022F9641CE4B2AC42F8D33846BDE87D
:10246000F04101220221FEF7B4BB0000000C024043
:1024700070B50B4D0E460446002202212846FEF799
:10248000A8FB44F0200002F007F9304602F004F9FE
:102490002846BDE8704001220221FEF79ABB0000E9
:1024A000000C024070B50C460546202918D8002CB7
:1024B00016D00C4E002202213046FEF78AFBB020D7
:1024C00002E000BF15F8010B02F0E6F8641EE4B26A
:1024D000F8D23046BDE8704001220221FEF779BBF8
:1024E00070BD0000000C02401FB51748FEF716FA39
:1024F00000211548009101910291144A0391026054
:102500004FF48032C0E901210161017680F820108A
:102510000F4AC0E90A210124C461C16080F830106B
:102520004161FEF7A1F908B1FEF7F5F80820CDE901
:1025300000040220029069460348FEF7EFF80028E5
:1025400001D0FEF7E8F81FBDDC2400200020014088
:102550000100000F10B59CB01C2216496846FDF71B
:102560005AFF0021684602F0B5F8134C11491C22AD
:1025700060601C3107A8FDF74EFF002107A802F09C
:10258000A9F80C49A0601C2238310EA8FDF743FFC2
:1025900000210EA802F09EF80649E0601C2254318A
:1025A00015A8FDF738FF002115A802F093F8206167
:1025B0001CB010BD8C650008240000202DE9F04FF0
:1025C00087B014216846FDF77AFF5A480024016855
:1025D00041F010010160016801F0100105910168EE
:1025E00041F004010160016801F0040105910168F6
:1025F00041F080010160016801F0800105910168EE
:1026000041F001010160016801F0010105910168DB
:1026100041F002010160016801F0020105910168C9
:1026200041F0080101600068DFF80CA100F008002B
:1026300040F2FF550590002229465046FEF7C9FAA0
:10264000DFF8F8B04FF4C977002239465846FEF754
:10265000C0FA4FF49078002241463948FEF7B9FAA3
:1026600000224FF442613748FEF7B3FA40F20649C0
:10267000002249463448FEF7ACFA009502260125AF
:102680000396CDE9015469465046FEF7A5F94FF48B
:102690006240CDE90004694658460294FEF79CF971
:1026A0004FF444100095CDE9010469465846FEF701
:1026B00093F900970396CDE9015469465846FEF711
:1026C0008BF9CDF800800396CDE9015469461C488A
:1026D000FEF782F94FF44060009001AA112082E8D1
:1026E000510069461748FEF777F9CDF80090039638
:1026F000CDE9015469461448FEF76EF9CDE900545E
:10270000694611480295FEF767F92020CDE90005DA
:10271000CDE9024669460B48FEF75EF90022052125
:102720000620FEF7F1FA0620FEF7E0FA07B0BDE852
:10273000F08F0000303802400010024000080240D4
:102740000000024000040240000C0240104810B596
:102750000E4901604FF48271416000218160C160C7
:102760004FF400720161C0E905121022C0E907218F
:102770004162510281620721C162FEF739FE0028E1
:1027800003D0BDE81040FDF7C6BF10BD003C0040BF
:102790002425002030B587B01C216846FDF78FFE48
:1027A0001D4C1C480025C4E9000541F24410C4E951
:1027B000025025612046A561FFF786F808B1FDF7B4
:1027C000AAFF1548FFF73FFC08B1FDF7A4FF602002
:1027D00000904FF45D70CDE90105002269460E4876
:1027E0000495FFF7CAFB08B1FDF795FF2068016A61
:1027F00041F21112114207D1016A9210114203D124
:10280000016821F0010101600348FFF71FFB07B0D9
:1028100030BD000000440140BC27002030B587B027
:102820001C216846FDF74BFE184D17480024C5E9EA
:10283000000441F63F20C5E902402C612846AC6106
:10284000FFF742F808B1FDF766FF1048FFF7FBFB02
:1028500008B1FDF760FF6020CDE90004022002907E
:102860000022694604940948FFF787FB08B1FDF789
:1028700052FF2868816921F0080181610348FFF750
:10288000E5FA07B030BD00000048014004280020F0
:102890001FB5002111480091019102910E4A039148
:1028A00002605322C0E901214FF47A72C0E903218A
:1028B00080218161FFF708F808B1FDF72CFF4FF484
:1028C0008050009069460548FFF7C2F8002801D003
:1028D000FDF721FF1FBD0000001800404C2800201C
:1028E00030B591B000240F941C2168461094FDF778
:1028F000E6FD202107A8FDF7E2FD374D3548C5E983
:10290000000441F63F20C5E9024080202C61C5E962
:1029100005402846FFF797FB08B1FDF7FCFE0F9432
:102920000FA92D481094FEF787FF08B1FDF7F3FEBD
:102930006020CDE900040220CDE90204049405944E
:102940000022694624480694FFF717FB08B1FDF7FB
:10295000E2FE042269462048FFF70FFB08B1FDF7AD
:10296000DAFE082269461C48FFF707FB08B1FDF7AD
:10297000D2FE0C2269461848FFF7FFFA08B1FDF7AE
:10298000CAFE0794089409944FF400500A94CDE9C4
:102990000B4007A910480E94FEF723FF08B1FDF77E
:1029A000BAFE2868016A41F21112114207D1016A88
:1029B0009210114203D1016821F0010101602868E1
:1029C000416C41F4004141640348FFF73FFA11B004
:1029D00030BD0000000001407C25002010B58CB007
:1029E00024216846FDF76BFD0024164809944FF03A
:1029F00080410A94C0E900144FF6FF71C0E902411A
:102A00008021046181610320009002200190012057
:102A1000CDE902040494CDE90540079469460948CC
:102A20000894FFF783F808B1FDF775FE099409A92A
:102A300004480A94FEF700FF002801D0FDF76BFE62
:102A40000CB010BDC425002010B58CB02421684600
:102A5000FDF735FD00241748099415490A94C0E98B
:102A600000144FF6FF71C0E90241802104618161C9
:102A700003200090022001900120CDE9020404947B
:102A8000CDE90540079469460A480894FFF74EF8D7
:102A900008B1FDF740FE099409A906480A94FEF71B
:102AA000CBFE002801D0FDF736FE0CB010BD0000B3
:102AB000000400400C26002010B58CB0242168468C
:102AC000FDF7FDFC00241748099415490A94C0E954
:102AD00000144FF6FF71C0E9024180210461816159
:102AE00003200090022001900120CDE9020404940B
:102AF000CDE90540079469460A480894FFF716F89F
:102B000008B1FDF708FE099409A906480A94FEF7E2
:102B100093FE002801D0FDF7FEFD0CB010BD0000B3
:102B2000000800405426002010B58CB024216846CF
:102B3000FDF7C5FC00241748099415490A94C0E91B
:102B400000144FF6FF71C0E90241802104618161E8
:102B500003200090022001900120CDE9020404949A
:102B6000CDE90540079469460A480894FEF7DEFF60
:102B700008B1FDF7D0FD099409A906480A94FEF7AB
:102B80005BFE002801D0FDF7C6FD0CB010BD0000B3
:102B9000000C00409C2600207CB5002413480094C3
:102BA000114D0194C0E900544FF6FF71C0E9024194
:102BB0008461FEF789FE08B1FDF7ADFD08210B48E1
:102BC000FFF7AFF908B1FDF7A6FD00946946074885
:102BD0000194FEF731FE08B1FDF79DFD012068610B
:102BE0006C622C617CBD000000100040E4260020D7
:102BF0001CB5002416480094144901940160142166
:102C0000C0E901144FF6FF718461C160FEF75CFEFC
:102C100008B1FDF780FD08210D48FFF782F908B1E2
:102C2000FDF779FD0094694609480194FEF704FE1A
:102C300008B1FDF770FD0549012014310860034813
:102C400024300460081F04601CBD00000014004014
:102C50002C27002010B58CB0002407940894099408
:102C60001C2168460A94FDF72AFC27482549016083
:102C700040F61F51C0E9011440F27B21C0E9031462
:102C80008461FEF721FE08B1FDF745FD4FF4805049
:102C9000079007A91C48FEF7DBFE08B1FDF73BFDD6
:102CA0001948FFF7D0F908B1FDF735FD082116489E
:102CB000FFF737F908B1FDF72EFD702000900120D5
:102CC0000190022002900022694604940E48FFF70A
:102CD00054F908B1FDF71FFD042269460A48029421
:102CE000FFF74BF908B1FDF716FD00210648FFF785
:102CF000EDF904210448FFF7E9F90348FFF7A6F8C6
:102D00000CB010BD00400140742700200C4810B5E5
:102D10000A4901604FF4E1314160002181600C22D9
:102D2000C160C0E904128161C161FFF736FA002871
:102D300003D0BDE81040FDF7EEBC10BD001001400F
:102D400094280020FEE7FEE70348FEF741FE01203D
:102D500001F0B4FCFBE700004C2800200148FEF71E
:102D6000C9BA00002425002010B5806B0021C1875E
:102D7000C186FEF7BDFA10BDF8B515460E460B46E6
:102D8000009204460122022100F02CF8A0B9134859
:102D900013490068B0FBF1F04FF47A71484300909A
:102DA0006068B0F5827F0DD1334600228021204635
:102DB000009500F017F870B1606D40F0200060657C
:102DC0000320F8BD009830B1401E00902068806854
:102DD000C0430006F6D50020F8BD0000100000201A
:102DE00000366E012DE9F8431E469146884604469A
:102DF000089DFDF7F3FE401B351AFDF7EFFE074671
:102E000026480068C0F3CB3068430AE0701C09D044
:102E1000FDF7E4FEC01BA8420FD275B10098B8B30D
:102E2000401E00902068816838EA010033D00021FC
:102E30004945EBD10020BDE8F8832068416821F0C6
:102E4000E00141606068B0F5827F0BD1A068B0F509
:102E5000004F02D0B0F5806F04D12068016821F0E6
:102E600040010160A06AB0F5005F09D120680168E7
:102E700021F4005101602068016841F400510160B3
:102E8000012084F85100002084F850000320D2E78C
:102E9000FFE70025C6E70121CAE700001000002077
:102EA00010B501F0A3F901F0E1F901F087F901F0A3
:102EB000DBF901F0F5F906490020401C8842FCDBF3
:102EC00061B601F005FABDE8104001F035B9000027
:102ED00080F0FA0210B5502080F31188BFF34F8FB5
:102EE000BFF36F8F02F0E6FC18B104494FF0805039
:102EF0000860002080F3118810BD000004ED00E0A0
:102F000030B593B030216846FDF7D9FA14210CA8EA
:102F1000FDF7D5FA1E480025016841F08051016097
:102F2000006800F0805011901A48016841F4804117
:102F300001600068022400F480401190012000909C
:102F4000000401908001CDE90640192008904FF45B
:102F5000A870CDE9090404200B906846FEF712F82A
:102F600008B172B6FEE70CA90F2081E831004FF4DA
:102F7000A0500F904FF48050109005210CA8FDF741
:102F8000F5FE002801D072B6FEE713B030BD000098
:102F900040380240007000400248016841F470016E
:102FA0000160704788ED00E00148FEF7B6BE000002
:102FB0004C2800200148FEF7B0BE0000DC280020AD
:102FC000F0B50268274B284D284E294F294C4FF069
:102FD000804C984209D0604507D0A84205D0B04245
:102FE00003D0B84201D0A04204D122F0700E4A684A
:102FF00042EA0E0298421BD0604519D0A84217D071
:10300000B04215D0B84213D0A04211D01A4DA842F8
:103010000ED01A4DA8420BD0194DA84208D0194D18
:10302000A84205D0184DA84202D0184DA84203D19D
:1030300022F44075CA682A434D6922F080022A436F
:103040008D68C5620D688562984201D0A04201D1A9
:1030500009690163016841F00401016001214161D6
:103060000260F0BD00000140000400400008004084
:10307000000C0040000401400040014000440140B9
:103080000048014000180040001C004000200040A3
:1030900010B501F01F030121046A99408C430462BA
:1030A000016A9A401143016210BD10B5846842EA7A
:1030B000032224F47F440A432243826010BD8268C5
:1030C00022F070020A4342F007018160704700005D
:1030D000F0B5036A026A22F0010202624268846962
:1030E000124E24F073050C682C4323F002058B6804
:1030F0002B430D4DA84201D0B04205D123F0080763
:10310000CB683B4323F00403A84201D0B04205D171
:103110004D6922F4407215438A692A4342608461F2
:10312000496841630362F0BD0000014000040140B2
:10313000F0B5026A036A23F01003036243688469EE
:103140000D6824F4E64444EA05248D6822F0200248
:1031500042EA05120F4D104EA84201D0B04206D1EE
:10316000CF6822F0800242EA071222F04002A84211
:1031700001D0B04207D14D6923F4406343EA85038F
:103180008D6943EA85034360846149688163026213
:10319000F0BD00000000014000040140F0B5026AEB
:1031A000036A23F4807303624368C46922F40072E3
:1031B00024F073050C68124E2C438D6842EA0522F8
:1031C0000E4DA84201D0B04206D1CF6822F4006271
:1031D00042EA072222F48062A84201D0B04207D11D
:1031E0004D6923F4405343EA05138D6943EA0513FF
:1031F0004360C4614968C1630262F0BD00000140E0
:103200000004014030B5046A026A22F4805202626E
:103210004268C3690D6823F4E64343EA05238D68D9
:1032200024F4005444EA0534084DA84202D0084D65
:10323000A84204D14D6922F4804242EA85124260DC
:10324000C36149680164046230BD000000000140B0
:103250000004014010B5036A046A24F0010404620A
:10326000846924F0F00444EA021423F00A020A43B9
:103270008461026210BD10B5036A046A24F0100470
:103280000462846923F0A00324F4704444EA023207
:1032900043EA01118261016210BD000070B504466D
:1032A00000680169E26821F440511143016121691C
:1032B000A068E26908436169114308432168CA684C
:1032C00049F20C639A430243CA6020684169A269CB
:1032D00021F440711143416131492068884202D094
:1032E0003049884202D1FDF70BFE01E0FDF7F8FD01
:1032F000E2690023192164253226B2F5004F626885
:1033000028D0A0FB0101930F9200FDF70DF80146B4
:10331000B0FBF5F06FF01802504301EB800006EBB4
:103320000010B0FBF5F000F0F002B1FBF5F002EB9D
:103330000012B1FBF5F06FF01803584301EB800069
:1033400006EB0010B0FBF5F000F00F002168104410
:10335000886070BDA0FB010192185B41FCF7E4FF9F
:103360000146B0FBF5F00201B1FBF5F06FF0180378
:10337000584301EB800006EBC000B0FBF5F000F015
:10338000F80002EB4002B1FBF5F0584301EB80007E
:1033900006EBC000B0FBF5F000F00700D6E7000038
:1033A000001001400014014003220021012002F01E
:1033B00071F8064C4FF4FA6520602946206802F047
:1033C0001DF90128F9D1FDF781F9F6E72400002065
:1033D000FEE703B401984100009850EAC12018BFED
:1033E00004204A0D18BF40F0010040F2FF72B2EB1A
:1033F000515F08BF40F00200012808BF052002B05D
:1034000070470907090E002804DB00F1E02080F86E
:103410000014704700F00F0000F1E02080F8141D48
:10342000704700000000000010B52F499FED2C1BD5
:103430002DED020B84B0059820F000408842D8BFE3
:103440009DED040B2DDD2949884209D1049840B92E
:103450004FF00100FDF762F800F0A2FC06B010BDCD
:1034600005DB9DED040B00F08FFC06B010BD684637
:103470009DED040B00F0A0F810F0030004BF9DEDDB
:10348000021B9DED000B0CD001280ED09DED021B00
:103490009DED000B022817D0012000F0DDFB06B0E7
:1034A00010BD00F0A5FA06B010BD9DED021B9DED0C
:1034B000000B012000F0D0FB51EC100B02F042FB9E
:1034C00006B041EC100B10BD00F092FA51EC100B5D
:1034D00002F038FB06B041EC100B10BD00000000FC
:1034E0000000000000000000FB21E93F0000F07F29
:1034F00010B52F499FED2C1B2DED020B84B00598C4
:1035000020F000408842DCBF00209DED040B32DD3E
:103510002849884209D1049840B94FF00100FCF7CE
:10352000FDFF00F03DFC06B010BD05DB9DED040B7A
:1035300000F02AFC06B010BD68469DED040B00F0BB
:103540003BF810F0030011D0012818D09DED021BAC
:103550009DED000B02281AD000F04AFA51EC100B36
:1035600002F0F0FA06B041EC100B10BD9DED021B0D
:103570009DED000B012000F06FFB06B010BD9DED2E
:10358000021B9DED000B00F033FA06B010BD0120C8
:1035900000F062FB51EC100B02F0D4FA06B041ECE3
:1035A000100B10BD00000000000000000000000033
:1035B000FB21E93F0000F07F2DE9F14F04462DED9E
:1035C000020B2DED088B8AB09FEDE70B80ED020B0F
:1035D000139EE74826F0004585420ADC9DED120B5C
:1035E000002084ED000B0AB0BDEC088B03B0BDE8F1
:1035F000F08FE0489FEDE0AB9FEDE1BBA84247DDD7
:10360000E14F9FEDE39B9FEDE48B9DED120B53EC9F
:103610001A2B51EC100B002E1CDD02F035FE41EC94
:10362000100BBD4208D053EC1B2B51EC100B02F0D9
:103630002BFEC4E900010BE053EC192B51EC100BED
:1036400002F022FE53EC182B02F01EFEC4E900012A
:103650000120C8E702F0B4FA41EC100BBD4208D0DB
:1036600053EC1B2B51EC100B02F0AAFAC4E9000139
:103670000BE053EC192B51EC100B02F0A1FA53ECB8
:10368000182B02F09DFAC4E900014FF0FF30AAE7C1
:10369000C348A84279DB9DED120B51EC100B00F0F2
:1036A000B7FB41EC180B9FEDC00B53EC102B02F055
:1036B000E1FC9FEDBF1B53EC112B02F081FA02F0ED
:1036C0007FFC074602F0ABFC41EC190B53EC1A2BC4
:1036D00002F0D0FC53EC182B02F0CAFD41EC180BA1
:1036E00053EC1B2B51EC190B02F0C4FCDFF8C8A201
:1036F00041EC100B4FEA15580125FA4453EC102BFE
:1037000051EC180B02F0C0FD032DC4E900013DD0BF
:10371000C1F30A5005EB4511A8EB000011398142B5
:1037200034DA0AEB051BB0EE48AA9BED000BF0EE75
:1037300068AA53EC102B51EC190B02F09BFC41ECE6
:103740001B0B51EC1A0B53EC1B2B02F09DFD41ECB3
:10375000180B51EC1A0B53EC182B02F095FD53EC9F
:103760001B2B02F091FD9BED020B41EC1A0B53EC6D
:10377000102B51EC190B02F07DFC53EC1A2B02F0CC
:1037800083FD41EC100B6D1CB8E70EE0002EA8BFC6
:103790003846BFF628AF94ED000B51EC100B02F049
:1037A000D1F9C4E9000178421DE7C6F3130040F4E3
:1037B000801EC6F30A50A0F2F530471100F01F0535
:1037C000C5F12000DDF848B0089000200690079071
:1037D0000520EC467949002D07EB0002794408BF2B
:1037E00051F8221009D051F8223001EB8201AB4090
:1037F0004A68089922FA01F11943A1FB0E26A1FBA0
:103800000B131A449A4234BF0123002303EB06082A
:103810000CEB8003D3E901A60E448E4234BF012194
:10382000002192448A4411B1924502D903E09245A5
:1038300001D2012100E00021C3E901A641444CF876
:103840002010011EA0F10100C4DC029800F100501C
:10385000850F0298DDE903678000DDF8148002F02F
:10386000DEFB41EC1A0B304602F0F0FB9FED541BDF
:1038700053EC112B02F0FEFB41EC1B0B384602F01F
:10388000E5FB9FED511B53EC112B02F0F3FB41ECD8
:10389000180B404602F0DAFB9FED4D1B53EC112B49
:1038A00002F0E8FB41EC190B51EC180B53EC192B0F
:1038B00002F086F953EC1B2B02F082F953EC1A2B21
:1038C00002F07EF9CDE90801002008909DED080B7B
:1038D00053EC1A2B51EC100B02F0D6FC53EC1B2BC3
:1038E00002F0D2FC53EC182B02F0CEFC53EC192B57
:1038F00002F0BEFC9FED381B53EC112B02F0BAFB1B
:103900009FED370B41EC180B53EC102B9DED080B82
:1039100051EC100B02F0AEFB53EC182B02F050F9F7
:103920009FED310B41EC180B53EC102B9DED080B68
:1039300051EC100B02F09EFB53EC182B02F040F9F7
:1039400041EC100B139810F0004F06D06D4251EC73
:10395000100B02F0F7F841EC100B284684ED000B39
:1039600041E6000000000000000000000000000030
:10397000FB21E93F7CD9024000004054FB21F93F84
:103980003163621A61B4D03DFB21F93F00000000B1
:103990000000601A61B4D03D7370032E8A19A33BF6
:1039A000FB2139410000000083C8C96D305FE43F4E
:1039B000000000000000E03F322F0000802E0000D9
:1039C000000000000000103E000000000000103C5D
:1039D000000000000000103A182D4454FB21F93D6E
:1039E0003326A611460B113C00000054FB21F93D83
:1039F00010B52DED040B2DED088B82B0B0EE419A81
:103A0000F0EE619A0B9820F000449FED4BABB4F1BF
:103A1000795F11DA9DED0A0B51EC100B02F0D0FA30
:103A2000002801BFB0EE4A0AF0EE6A0A02B0BDEC0F
:103A3000088B04BF04B010BD9DED0A0B53EC102B96
:103A400051EC100B02F016FB41EC180B3C48062120
:103A5000B0EE480AF0EE680A784400F081F853ECC2
:103A6000182B51EC100B02F005FB9DED0A0B41ECFD
:103A70001B0B53EC192B51EC100B02F0FBFA41EC31
:103A8000190B53EC1B2B51EC180B02F0F3FA53EC0F
:103A9000192B02F0F9FB9FED2C0B41EC190B53ECA9
:103AA000102B51EC180B02F0E5FA41EC100B2848F2
:103AB000844210DA53EC192B51EC100B02F0E4FBAA
:103AC00053EC1A2B02F0D4FB41EC100B02B0BDEC0E
:103AD000088B04B010BD1F48A042BCBF9FED1E1B49
:103AE0008DED001B06DBA4F5001001900020009076
:103AF0009DED001B51EC100B53EC112B02F0C4FB9D
:103B00009DED000B41EC180B53EC102B51EC1A0BF4
:103B100002F0BAFB41EC1A0B53EC192B51EC180BC9
:103B200002F0B2FB53EC1A2B02F0A2FB41EC100B9B
:103B3000CCE7000000000000000000000000F03FA3
:103B4000A42B000000000000000000000000E03F87
:103B50003333D33F0000E93F000000000000D23FB4
:103B600070B504462DED028B4D1E00EBC500B0EE86
:103B7000408AF0EE608A90ED000B35F0060017D019
:103B800053EC182B51EC100B02F074FA41EC100BB3
:103B90006D1E04EBC50090ED001B51EC100B53ECB7
:103BA000112B02F00DF841EC100B35F00600E7D1B7
:103BB000022D36D0042D1CD0062D1CBFBDEC028B6F
:103BC00070BD53EC182B51EC100B02F053FA94ED2E
:103BD0000A1B53EC112B01F0F3FF53EC182B02F0EE
:103BE00049FA94ED081B53EC112B01F0E9FF41EC6D
:103BF000100B53EC182B51EC100B02F03BFA94ED28
:103C0000061B53EC112B01F0DBFF53EC182B02F0D9
:103C100031FA94ED040B53EC102B01F0D1FF41EC81
:103C2000100B53EC182B51EC100B02F023FA94ED0F
:103C3000021B53EC112B01F0C3FF53EC182B02F0C5
:103C400019FA94ED001B53EC112B01F0B9FFBDECF8
:103C5000028B41EC100B70BD31B504462DED040B09
:103C60002DED0A8BB0EE41BAF0EE61BA0B989DEDE6
:103C70000A0B20F00040B0F1795F0DDA51EC100B27
:103C8000FFF7A7FB042808BF00F09AF89DED0A0B88
:103C9000BDEC0A8B05B030BD53EC102B51EC100B72
:103CA00002F0E8F941EC180B9DED0A0B53EC182BD0
:103CB00051EC100B02F0DEF941EC190B2C48B0EE80
:103CC000480AF0EE680A05217844FFF749FF9FEDA6
:103CD0002ACBB0EE40AAF0EE60AA9CB353EC1C2BAA
:103CE00051EC190B02F0C6F941EC1C0B53EC1A2BEA
:103CF00051EC190B02F0BEF99FED210B41EC190BB1
:103D000053EC102B51EC1B0B02F0B4F953EC192BB4
:103D100002F0BAFA53EC182B02F0ACF953EC1B2B5F
:103D200002F0B2FA53EC1C2B02F0AEFA9DED0A1B26
:103D300053EC112B02F09CFABDEC0A8B05B041EC60
:103D4000100B30BDFFE753EC1A2B51EC180B02F0AF
:103D500091F953EC1C2B01F033FF53EC192B02F0BB
:103D600089F99DED0A1B53EC112B01F029FFE3E7C4
:103D70002C2A000000000000495555555555C5BF77
:103D8000000000000000E03F10B553EC102B51EC98
:103D9000100B01F015FF41EC100B10BD00000000EE
:103DA0009FED050B10B553EC102B51EC100B01F0EF
:103DB000AFFF41EC100B10BD000000000000000040
:103DC0009FED050B10B553EC102B51EC100B02F0CE
:103DD00051F941EC100B10BD000000000000001074
:103DE00010B504210948FEF771F908480068016A16
:103DF00041F21112114207D1016A9210114203D10E
:103E0000016821F00101016010BD0000742700204D
:103E100082B0CDE9000121F0004001909DED000B42
:103E200002B051EC100B704710B504460020206121
:103E30000A480068C00701D0002010BD04F114003A
:103E4000FEF75CFA202807D9D4F81401401CC4F806
:103E500014014FF0FF3010BD206110BD100C024066
:103E600000210A46435C491C1A44C9B2D2B2202937
:103E7000F8D390F820001044C0B270472DE9F0410B
:103E800016460F460446002571B600F00DF9A02035
:103E900000F0D6F8380A00F0D3F8F8B200F0D0F805
:103EA00000F002F9A12000F0CBF8761E08E000BF78
:103EB00000F084F82070002000F05CF8641C6D1C99
:103EC000B542F5D300F07AF82070012000F052F8E6
:103ED00000F012F961B6BDE8F0812DE9F047160057
:103EE0000D46074643D071B605F01F00C0F120040F
:103EF000B44200D9F4B24FF000092AE0387800F05B
:103F00009FF87F1C641EE4B2F8D200F0F5F800249C
:103F10000A2001F022FA641CE4B200F0C5F8A020E7
:103F200000F08EF8804600F0E7F8B8F1000F01D1FC
:103F30000A2CEDD30A2C19D0D14405EB0A0085B226
:103F4000B14513D2A6EB0900202801D9202400E0B6
:103F5000C4B2A24600F0A8F8A02000F071F8280A28
:103F600000F06EF8E8B200F06BF8CBE761B6BDE8A0
:103F7000F087000070B5104C4FF40061C8B1012209
:103F80002046FCF726FE0A2001F0F2F901229502F4
:103F900029462046FCF71DFE0A2001F0E9F900221F
:103FA00029462046FCF715FEBDE870400A2001F0C6
:103FB000DFB90022E4E70000000402402DE9F041EF
:103FC0000825002471B601221C4ED1023046FCF7B0
:103FD00000FEDFF86880371508F110081EE00A209F
:103FE00001F0C6F9002239463046FCF7F2FD0A20FE
:103FF00001F0BEF9012239463046FCF7EAFD0A20FD
:1040000001F0B6F96006040ED8F8000010F4006F55
:1040100001D044F001040A2001F0AAF96D1EEDB2AE
:10402000DDD2002239463046FCF7D3FD0A2001F0EC
:104030009FF961B62046BDE8F0810000000402400F
:104040002DE9F041054671B60024164F4FF4006883
:104050005FEA275605FA04F0000601D5012200E0C8
:10406000002241463846FCF7B4FD0A2001F080F9F1
:10407000012231463846FCF7ACFD0A2001F078F900
:10408000002231463846FCF7A4FD641CE4B2082C3B
:10409000E0D30A2001F06CF900F026FA61B6BDE821
:1040A000F08100000004024070B50122114DD402DD
:1040B00021462846FCF78DFD0A2001F059F901221E
:1040C000960231462846FCF784FD0A2001F050F99B
:1040D000002221462846FCF77CFD0A2001F048F921
:1040E000002231462846FCF774FDBDE870400A20E6
:1040F00001F03EB90004024070B50E4D4FF400646B
:10410000002221462846FCF764FD0A2001F030F920
:10411000012291022846FCF75CFD0A2001F028F9F3
:10412000012221462846FCF754FDBDE870400A20D4
:1041300001F01EB9000402400B4810B54FF4807125
:10414000C1600A4A426000210161094A8260094A4D
:104150000260C0F8141100F049FA00F0D7FE00F038
:1041600099FE002010BD0000BC000020293E000880
:10417000894D0008ED45000810B504462221FCF7E2
:104180007CF9002020706070A070E0702071607178
:10419000A071E07120726072A072E072032121733D
:1041A000122161737F21A173E0735A2084F82000EB
:1041B0002046FFF755FE84F8210010BD10B5094CCC
:1041C000012211022046FCF704FD002221152046A1
:1041D000FCF7FFFC04480068016841F00101016040
:1041E00010BD0000001002400428002070B51A4ED7
:1041F0004FF48074002221463046FCF7EAFC174D4C
:104200000022A1002846FCF7E4FC012220213046D0
:10421000FCF7DFFC002220211148FCF7DAFC114EEC
:10422000002202213046FCF7D4FC00222146304611
:10423000FCF7CFFC002280213046FCF7CAFC0022AC
:1042400004212846FCF7C5FC2846BDE87040012241
:104250000421FCF7BEBC000000000240000C02403C
:104260000004024000080240FFF746BF012310B5DA
:104270001A461946184600F0AFFD00231A461946A3
:10428000184600F0D1FD00231A461946184600F0E2
:10429000F3FD02490020087010BD00000C00002052
:1042A00010B5094C002204212046FCF792FC0122A3
:1042B00002212046FCF78DFC04480068016841F0AB
:1042C0004001016010BD0000000C024024250020C8
:1042D000F0B578482DED048B97B01EC88DE81E0010
:1042E0000FC805AC84E80F000CA800F027F972484D
:1042F0009DF83C1001609DF83D1041609DF83E1016
:104300007F2900D97F21816004AA0BA90AA800F0A7
:10431000C3FC42F2B0016948FCF7D1F8674C9DF844
:104320002C0020609DF8280060719DF8100000F0BE
:10433000070020718DF810009FED618AB0EE481AD9
:10434000DFED608AF0EE680A9FED5F9A04F10800E5
:10435000B0EE490A00F0E8F9B0EE481AF0EE680A4B
:10436000B0EE490A04F1480000F0DEF9B0EE481A58
:10437000F0EE680AB0EE490A04F1880000F0D4F9C2
:10438000B0EE481AF0EE680AB0EE490A04F1C8002F
:1043900000F0CAF90020A4F808019FED4C0A054678
:1043A00084ED430A6E469FED4A8ADFED4A8A00BFDC
:1043B00006EB8500D0ED000A80EE880A20EE289AF0
:1043C00019EE100A02F04AF841EC100BFFF790F8D2
:1043D00051EC100B01F0C2FB04EB8507C7F8380164
:1043E00019EE100A02F03AF841EC100BFFF71CF836
:1043F00051EC100B01F0B2FB6D1CEDB2C7F8480197
:10440000022DD5D35FF0020506EB8500D0ED000A42
:1044100080EE880A20EE289A19EE100A02F01EF8A3
:1044200041EC100BFFF764F851EC100B01F096FB18
:1044300004EB8507C7F8380119EE100A02F00EF8F0
:1044400041EC100BFEF7F0FF51EC100B01F086FB76
:104450006D1CEDB2C7F84801042DD5D3002505AE7B
:1044600006EB8500D0ED000A80EE880A20EE280ACF
:1044700010EE100A01F0F2FF41EC100BFEF7D4FF32
:1044800051EC100B01F06AFB04EB85016D1CEDB2E1
:10449000C1F85801042DE3D30F484FF40071A0F880
:1044A000A81000F01BF800F027FD17B0BDEC048B3E
:1044B000F0BD00005465000800000020D801002075
:1044C000000000006F12033AEC51B83D809A90470B
:1044D00000003443DB0F4940D821002010B500F024
:1044E000F7FC002010BD000070B5134C0122D10272
:1044F0002046FCF76EFB0A2000F03AFF01229502ED
:1045000029462046FCF765FB0A2000F031FF0A48E7
:104510001030006810F4006F03D0FFF7EDFD0020AD
:1045200070BD002229462046FCF753FB0A2000F00C
:104530001FFF012070BD00000004024010B50446BA
:104540002221FBF79AFF222200212046FFF796FC4A
:104550002046FFF785FC94F820105A2903D194F8DF
:104560002110814207D02046FFF706FE22220021BB
:104570002046FFF7B2FC002010BDFCF735FBFEF72C
:10458000BFFC71B6FEF71AF8FDF7AEFFFEF7DEF8D6
:10459000FEF7A6F9FEF722FAFEF756FAFEF78CFAB6
:1045A000FEF7C2FAFEF724FBFEF754FBFEF7F2F823
:1045B000FEF734F9FEF7AAFBFEF7EEFAFEF768F90C
:1045C000002205212B20FCF79FFB2B20FCF78EFB04
:1045D000FEF766FCFDF7BEFF00F077F8FEE7014648
:1045E0000020842900D0C81C704700001CB525A1FC
:1045F0000022D1E90001CDE9000124494FF0FF304C
:10460000086004212248FCF7E4FA7020FDF730FE30
:104610003F210020FDF72CFF322000F093FE1921EE
:104620001120FDF725FF00210120FDF721FF0121C9
:104630000220FDF71DFF03210846FDF719FF0021A9
:104640000420FDF715FF1348407900F07F01052095
:10465000FDF70EFF26210620FDF70AFF0522694619
:104660000020FDF7BDFE002069460A5C11320A54A5
:10467000401CC0B20528F8D305216846FDF7CEFEE0
:104680001CBD0000009845711000000014000020BF
:10469000000C0240D80100200EB501238DF8040063
:1046A0004FF0FF30009002AA01A90348FCF744FF35
:1046B0009DF808000EBD00002425002010B500B9AB
:1046C000012000F037FD002010BD10B500F0CEFD38
:1046D000002010BD7FB50D4604464169B0F90800C1
:1046E00081B1A16971B1FFF77AFFD4E905128DE8B4
:1046F0000700D4E900102B46226901F0A2F80390CC
:1047000004B070BDFFF76BFF03A9CDE90001208A5B
:104710002B4682B2D4E9001001F066F8012801D0DE
:104720000020EDE70398EBE780EC030A70EE200A27
:10473000002170EE810AC0ED030AF0EE000A01EEDE
:10474000200A80ED040A80ED051AC162064946F28E
:10475000A8129FED060A0968B1FBF2F1816180EDB4
:10476000070A00F005B800001000002000002F43E9
:104770009FED050A002180ED080A80ED090A80ED11
:104780000A0AC16270470000000000002DE9F041F4
:10479000184C0F460546E6682068001D00F0D8FB5F
:1047A00038B9206890F82C10012088402169814395
:1047B0002161681C07D137B12168BDE8F0410E487E
:1047C000091D00F009BC20683544B54245602168E8
:1047D00005D2A06BBDE8F041091D00F0E5BB606BA0
:1047E000091D00F0E1FBA06A854200D2A562BDE888
:1047F000F081000044000020002A00202DE9F04153
:10480000054600F0F5FB2E4CA068401CA060206817
:104810002C4F10B1606940B32DE02560A0680128DD
:1048200029D1002606EB860007EB800000F0AEFBE6
:10483000761C072EF6D323488C3000F0A7FB2148C6
:10484000A03000F0A3FB1F48B43000F09FFB1D48D0
:10485000C83000F09BFB1B48DC3000F097FB194888
:104860008C3060631430A06305E02068E96AC06A98
:10487000884200D82560606A401C6062E96A0120B5
:10488000226988401043206101EB810007EB800022
:10489000291D00F0A1FB00F0CBFB606900280CD0C3
:1048A0002068E96AC06A884207D207494FF0805001
:1048B0000860BFF34F8FBFF36F8FBDE8F08100003A
:1048C000440000202429002004ED00E010B5044637
:1048D00090F8510058B101280CD002280FD0502078
:1048E00080F31188BFF34F8FBFF36F8FFEE7206B0C
:1048F00000F0B2FB2046BDE8104000F0ADBB10BD9B
:1049000010484FF47051420706D0C01D0D4920F0E9
:104910000700411AC1F570510B4A00230144C2E956
:1049200000030839183A21F0070111604B600B6051
:104930000B1AC0E9001393604FF0004053605061C0
:1049400070470000142A002098000020144E154CD7
:10495000A6F1C8074FF08058DFF84C9012E000BF76
:1049600000F046FBF068C568281D00F0F1FAA06869
:10497000401EA0606068401E606000F059FB284641
:10498000FFF7A4FF60680028EAD138680128F9D948
:10499000C9F80080BFF34F8FBFF36F8FF2E70000BD
:1049A000EC2900204400002004ED00E003460098BC
:1049B00029B10260C0E90F31012100F08DBD006016
:1049C000F8E72DE9F0479A46DDE9098481466FF062
:1049D0000303206B03EB82021044089E20F00707BC
:1049E000780707D0502080F31188BFF34F8FBFF3B3
:1049F0006F8FFEE7002561B1002023180A5C83F861
:104A000034200A5C12B1401C1028F6D384F84350BD
:104A100001E084F83450072E00D30626E662C4E98C
:104A20001165201D00F0BDFA04F1180000F0B9FA7C
:104A30002461C6F107006462A061E56484F8505007
:104A400052464946384600F011F92060B8F1000F8F
:104A500001D0C8F80040BDE8F087000030B511492A
:104A600000E011460A688242FBD34B685C1884421E
:104A700003D1406818444860084643681C189442B3
:104A800009D1084C183C2468A24209D052681A4443
:104A900042600A6812680260814200D0086030BD3E
:104AA0000460F9E79800002010B5044600F0A0FA71
:104AB000A06B28B15FF0000400F0BAFA204610BDE8
:104AC0000124F9E70648416B096829B1416BC968BF
:104AD000C9684968816270474FF0FF31FAE700000A
:104AE0004400002008484068401C4FF0500080F30C
:104AF000118804D0BFF34F8FBFF36F8FFEE7BFF372
:104B00004F8FBFF36F8FFEE7A00000202DE9F0412B
:104B1000044600F06DFA94F9455004F1240609E0CA
:104B2000606A48B1304600F071FF08B100F030FB18
:104B30006D1E6DB2002DF3DC4FF0FF3684F845603A
:104B400000F076FA00F054FA94F9445004F110079A
:104B500009E0206948B1384600F058FF08B100F07C
:104B600017FB6D1E6DB2002DF3DC84F84460BDE8C8
:104B7000F04100F05DBA00002DE9F0410546002744
:104B800000F0AAFB324E306808B9FFF7B9FE706931
:104B900005424ED1C5B3083568070ED005F00700B1
:104BA000C0F108000544680707D0502080F3118841
:104BB000BFF34F8FBFF36F8FFEE72DB37068854251
:104BC00037D82348183001460C6801E020460C46CF
:104BD0006168A94202D221680029F7D131688C426C
:104BE00027D007682168016060680837411B1029D9
:104BF0000FD96019420708D0502080F31188BFF305
:104C00004F8FBFF36F8FFEE713E041606560FFF7E2
:104C100025FF61687068401A7060B268904200D2E7
:104C2000B060706901430020C4E90001F068401CD5
:104C3000F06000F025FF780707D0502080F311883E
:104C4000BFF34F8FBFF36F8FFEE73846BDE8F081AB
:104C5000800000200449086818B10868826C521C62
:104C600082640868704700004400002010B5031FEC
:104C70004FF080741C601B1F21F001011960191F87
:104C8000044B0B6014390A60091F6FF002024438AC
:104C90000A6010BDE54A00082DE9F05F92468B4698
:104CA0000446002571B62A46364F80213846FBF768
:104CB00090FF052000F05CFB4FF480780022414615
:104CC0003846FBF786FF012280213846FBF781FF3B
:104CD000DFF8B090002609F110096D08D9F800003E
:104CE000800501D545F40045012241463846FBF7D1
:104CF00070FF012000F03CFB002241463846FBF7E4
:104D000068FF012000F034FB761CF6B2102EE4D3CD
:104D100061B6690B8AF80010C5F30310207005F026
:104D20000F00401C8BF8000021785D20102926D24E
:104D3000DFE801F0080A0C0E10121416181A251CD0
:104D40001E2022245F201AE0492018E04B2016E0A4
:104D50004D2014E04F2012E0512010E055200EE0CD
:104D600059200CE065200AE0672008E0692006E091
:104D70006D2004E0712002E0752000E079202070B1
:104D8000BDE8F09F0008024070B5114D04460022B6
:104D900004212846FBF71DFF0020FDF72BFBFDF744
:104DA00099FA217C04F11400FDF77CFB0122042117
:104DB0002846FBF70EFF142000F0DAFA0022042147
:104DC0002846FBF706FF034900200860206970BDF4
:104DD000000C02401400002070B50D4600210C4666
:104DE00008B1102400E0102115B144F0200401E0C6
:104DF00041F0200112B144F0400401E041F04001D3
:104E000013B144F0800401E041F08001054D00221F
:104E10002846FBF7DEFE21462846BDE87040012209
:104E2000FBF7D7BE0010024070B50D4600210C46BE
:104E300008B1012400E0012115B144F0020401E0B1
:104E400041F0020112B144F0040401E041F0040118
:104E500013B144F0080401E041F00801054D0022BF
:104E60002846FBF7B6FE21462846BDE870400122E1
:104E7000FBF7AFBE0010024030B5054C25686863F3
:104E8000206881632068C2632068036430BD00002D
:104E90007C25002001490120086070471400002093
:104EA00010B500210948FDF711F908480068016AAA
:104EB00041F21112114207D1016A9210114203D13D
:104EC000016821F00101016010BD0000742700207D
:104ED00010B5FFF7E5FFFEF783FF00200549024606
:104EE00001EBC003401CC0B25A600228F8D3002076
:104EF00010BD0000AC00002003480068016841F0CC
:104F00000101016070470000BC27002070B50E4C05
:104F10002068012816D00D4D002204212846FBF7F9
:104F200058FE0120FDF766FAFDF7C0F9FDF7D2F94A
:104F30007020FDF79DF9012204212846FBF749FE68
:104F40000120206070BD000014000020000C024011
:104F5000D0E9013201699A60D0E901235A604A68B8
:104F6000824201D182684A60002202610868401EC4
:104F70000860086870470000034B036003F15400A9
:104F800008608020106070478822002000F108012E
:104F90004FF0FF32C0E90112C160016100210160E0
:104FA000704700210161704730B50B685A1C02D070
:104FB00000F1080202E0026904E022465468256814
:104FC0009D42FAD953684B6099608A6051600861CC
:104FD0000168491C016030BD42684A6093688B607B
:104FE00093685960916008610168491C01607047CD
:104FF000502080F31188BFF34F8FBFF36F8F0A49A2
:105000004868401C486001280CD10848006810F02E
:10501000FF0F07D0502080F31188BFF34F8FBFF3ED
:105020006F8FFEE770470000A000002004ED00E055
:105030000849486828B1401E486001D180F31188B2
:105040007047502080F31188BFF34F8FBFF36F8FED
:10505000FEE70000A000002070B500282AD0164D01
:10506000A0F1080460686969084207D1502080F304
:105070001188BFF34F8FBFF36F8FFEE722683AB1FD
:10508000502080F31188BFF34F8FBFF36F8FFEE77F
:105090008843606000F020F96068696808446860CF
:1050A0002046FFF7DBFC2869401C2861BDE8704002
:1050B00000F0E6BC70BD0000800000204FF0E02052
:1050C00000210161816105494FF47A720968B1FBE1
:1050D000F2F1491E41610721016170471000002073
:1050E00010B5FBF7FDF8114910280ED300F1E020B0
:1050F00090F8F0030A78904207D2502080F311888C
:10510000BFF34F8FBFF36F8FFEE7094800688968D0
:1051100000F4E060884207D9502080F31188BFF383
:105120004F8FBFF36F8FFEE710BD0000A00000207F
:105130000CED00E010B5020014D00F48006B38B140
:10514000502080F31188BFF34F8FBFF36F8FFEE7BE
:1051500000F0C2F800211046FFF718FB00F090FCA9
:10516000002807D105494FF080500860BFF34F8FEA
:10517000BFF36F8F10BD00004400002004ED00E07D
:1051800002490A6A0260C968416070474400002011
:1051900001490120C86170474400002010B50C4649
:1051A00050B1094909681831FFF7FEFE2046BDE8F5
:1051B00010400121FFF7EABA502080F31188BFF3B5
:1051C0004F8FBFF36F8FFEE74400002070B50400DF
:1051D00047D0A26CA2B1606C884200D30146E06A5D
:1051E00088423ED0012A3CD11E4D2A6894420FD1FC
:1051F000502080F31188BFF34F8FBFF36F8FFEE70E
:10520000502080F31188BFF34F8FBFF36F8FFEE7FD
:10521000E162A269002A02DBC1F10701A161124E1D
:1052200000EB8000616906EB8000814219D1201DEE
:10523000FFF78EFE012130B994F82C002A6901FA9B
:1052400000F082432A61E06A2A69814011432961A2
:1052500000EB800006EB8000211DBDE87040FFF7E9
:10526000BBBE70BD440000202429002010B586B0CC
:105270000024039405AA04A903A80494FFF77CFE64
:10528000DDE903010094CDE9011000230EA11048CF
:10529000059A00F0D6FA0F490028C86211D05020B4
:1052A00080F31188BFF34F8FBFF36F8F4FF0FF3044
:1052B000886201204861CC6006B0BDE8104000F073
:1052C0006FB806B010BD000049444C450000000016
:1052D0004D490008440000200248016B491C01634D
:1052E00070470000440000201448016B11B10121F7
:1052F000C16170470021C1610169B1FA81F1C1F159
:105300001F0101EB81020E4951F822306BB101EB14
:10531000820101F108034A6852684A609A4201D149
:1053200052684A60D16801607047502080F311884C
:10533000BFF34F8FBFF36F8FFEE7000044000020E4
:105340002429002000B5024604E0642000F010F893
:10535000521ED2B2002AF8D100BD00B5820002E090
:10536000FA2000F005F8521E92B2F9D200BD0000FA
:10537000C0EBC00000EB40006FF0130101EB4001F7
:105380000648C162002141620161016841F00101EA
:1053900001600168C907FCD170470000001000409F
:1053A0001CB537480168374A914207D1502080F335
:1053B0001188BFF34F8FBFF36F8FFEE7006831494D
:1053C000491E884207D1502080F31188BFF34F8FC8
:1053D000BFF36F8FFEE72C4908780190FF2008701B
:1053E00008788DF800009DF800009DF8002000F07E
:1053F000F000904207D0502080F31188BFF34F8F08
:10540000BFF36F8FFEE79DF80000204C00F05000C6
:1054100020700720A06005E09DF8002052008DF864
:105420000020401E9DF800201206F5D4A06003283D
:1054300007D0502080F31188BFF34F8FBFF36F8FD9
:10544000FEE74FF44070A060019808700C482030CF
:10545000016841F470010160016841F07041016030
:10546000FFF72CFE00206060FAF702FF0848016891
:1054700041F040410160FAF7E7FE00201CBD00004A
:1054800000ED00E071C20F4100E400E0A000002048
:1054900034EF00E0F8B517460E46050013D005FBC3
:1054A00006F04830FFF768FB04000AD0002084F8BB
:1054B000460004F148023B46314628460094FFF777
:1054C00075FA2046F8BD502080F31188BFF34F8F46
:1054D000BFF36F8FFEE7000070B50D46040025D0C6
:1054E000FFF786FDD4E90F20216802FB0011A160BF
:1054F0000021A163216861600A46D4E90F01401EC2
:1055000000FB0121E16021464FF0FF3001F8440F1C
:10551000487004F110008DB1FFF738FD04F124004C
:10552000FFF734FDFFF784FD012070BD502080F3AC
:105530001188BFF34F8FBFF36F8FFEE721690029FA
:10554000F0D000F063FA0028ECD004494FF080500E
:105550000860BFF34F8FBFF36F8FE3E704ED00E008
:1055600070B50E46040009D0206C78B1502080F34D
:105570001188BFF34F8FBFF36F8FFEE7502080F38A
:105580001188BFF34F8FBFF36F8FFEE7206848B9D4
:10559000A06838B1502080F31188BFF34F8FBFF35C
:1055A0006F8FFEE7FFF79CFD5020EFF3118580F32E
:1055B0001188BFF34F8FBFF36F8FA16BE06B8842F1
:1055C00018D994F94500491CA163411C04D0401C22
:1055D00084F8450001200EE0606A0028FAD004F14A
:1055E000240000F013FA0028F4D0002EF2D001209D
:1055F0003060EFE7002085F3118870BD2DE9F3439B
:10560000002683B00400354609D0206C78B15020C4
:1056100080F31188BFF34F8FBFF36F8FFEE75020E9
:1056200080F31188BFF34F8FBFF36F8FFEE700F059
:1056300033F9DFF83C814FF000094FF0805748B94B
:10564000049838B1502080F31188BFF34F8FBFF317
:105650006F8FFEE7FFF7CCFCA06BC8B1401EA063C4
:10566000206810B9FFF7F6FAA060206950B104F184
:10567000100000F0CBF928B1C8F80070BFF34F8FCD
:10568000BFF36F8FFFF7D4FC012005B0BDE8F083B6
:10569000049808B166B10FE03DB1502080F3118845
:1056A000BFF34F8FBFF36F8FFEE7FFF7C1FC5DE0E5
:1056B0006846FFF765FD0126FFF7BAFCFFF70CFE11
:1056C000FFF796FC94F94400401C01D184F8449003
:1056D00094F94500401C01D184F84590FFF7A8FCDF
:1056E00004A9684600F046F80028204612D0FFF7CB
:1056F0000DFA00F0C5F92046FFF7D6F90028A9D029
:105700009DB3FFF775FC606A50B3206B0068C0F171
:10571000070126E0FFF7C8F9E0B1206838B9FFF7C4
:1057200067FCA06800F02CF90546FFF781FC04F146
:1057300024000499FFF732FD2046FFF7E7F900F057
:105740009FF9002886D1C8F80070BFF34F8FBFF3D0
:105750006F8F7FE72046FFF7D9F900F091F979E7DD
:105760000021A068FFF732FD9FE7FFE700208CE7EC
:1057700004ED00E02DE9F0410C46050011D0C4B164
:10578000FFF736FC174BDA686E682068911B471CE0
:1057900017D02F681B6A9F4219D0964217D8012450
:1057A00010E0502080F31188BFF34F8FBFF36F8F4D
:1057B000FEE7502080F31188BFF34F8FBFF36F8F48
:1057C000FEE70024FFF734FC2046BDE8F081884264
:1057D00005D9401A20602846FFF7D2FCF1E70020E7
:1057E0002060DCE7440000202DE9FF5F8346DDE90F
:1057F0000E87994616468A469000FFF7BDF90500C8
:105800001CD05420FFF7B8F9040014D00020256301
:1058100084F85100CDE90240CDE900874B4632467D
:1058200051465846FFF7CDF82046FEF7E7FF012026
:1058300004B0BDE8F09F2846FFF70EFC4FF0FF30A4
:10584000F6E7F0B585B0DDE90B640A9DA6B1DCB1E1
:10585000542700972663022684F85160002604AF7F
:10586000CDE90246CDE90057FFF7ABF82046FEF739
:10587000C5FF049805B0F0BD502080F31188BFF338
:105880004F8FBFF36F8FFEE7502080F31188BFF377
:105890004F8FBFF36F8FFEE70548416919B1006B69
:1058A00018B10020704701207047022070470000A7
:1058B000440000202DE9F0412F4C0026206B28B138
:1058C000A069401CA0613046BDE8F081E5686D1C10
:1058D000E56013D1606B006838B1502080F3118807
:1058E000BFF34F8FBFF36F8FFEE7606BA16B6163F8
:1058F000A063206A401C2062FFF7E4F8A06ADFF88A
:105900007C80854209D3606B0068A0B1606BC06881
:10591000C7687868854211D2A0622068C06A00EB2F
:10592000800158F82100012800D90126E0690028EB
:10593000C9D00126C7E74FF0FF30EDE7381DFFF76C
:1059400007FBB86A18B107F11800FFF701FBF96A05
:105950000120226988401043206101EB810108EB9E
:105960008100391DFFF738FBF86A2168C96A88424F
:10597000C9D30126C7E700004400002024290020E5
:1059800070B504004FF0000034D01E4DE16A2A6863
:10599000D26A91422FD2A069002804DB2868C06A2D
:1059A000C0F10700A061184E01EB8101606906EBB0
:1059B000810188421AD1201DFFF7CAFA012130B9AE
:1059C00094F82C002A6901FA00F082432A612868C1
:1059D000C06AE0622A6981401143296100EB8000BE
:1059E00006EB8000211DFFF7F7FA02E02868C06A85
:1059F000E062012070BD616C2A68D26A9142F8D3DE
:105A000070BD000044000020242900202DE9F04151
:105A1000C068C468ACB104F118000746FFF798FAF3
:105A2000154D286B0126A0B139461448FFF7D4FA6A
:105A3000E06A2968C96A88421CD90120EE61BDE884
:105A4000F081502080F31188BFF34F8FBFF36F8F29
:105A5000FEE7201DFFF77CFAE16A2A6906FA01F0E9
:105A60001043286101EB81000449B43901EB800047
:105A7000211DDBE70020E2E744000020D8290020B8
:105A80002DE9F0472C4D00242746286B38B1FFF74D
:105A9000AFFA286B401E2863286B40B146E05020C7
:105AA00080F31188BFF34F8FBFF36F8FFEE7A968B4
:105AB000224E0120D1B3A6F1B40980463068E8B186
:105AC000F068C46804F11800FFF742FA201DFFF7E0
:105AD0003FFAE06A2A6908FA00F11143296100EBF4
