:020000040800F2
:10000000C071002011030008A3370008AD290008C3
:10001000913700081D090008D943000800000000BE
:100020000000000000000000000000005102000875
:100030005509000800000000AD020008DD3E000880
:100040002B0300082B0300082B0300082B030008D8
:100050002B0300082B0300082B0300082B030008C8
:100060002B0300082B0300082B0300082B030008B8
:100070002B0300082B0300082B0300082B030008A8
:100080002B0300082B0300082B0300082B03000898
:100090002B0300082B0300082B0300082B03000888
:1000A0002B0300082B0300082B0300082B03000878
:1000B0002B0300082B0300082B0300082B03000868
:1000C0002B0300082B0300082B0300082B03000858
:1000D0002B0300082B0300082B0300082B03000848
:1000E0002B0300082B0300082B030008B13F000876
:1000F0002B030008BD3F00082B0300082B0300085A
:100100002B0300082B0300082B0300082B03000817
:100110002B0300082B0300082B0300082B03000807
:100120002B0300082B0300082B0300082B030008F7
:100130002B0300082B0300082B0300082B030008E7
:100140002B0300082B0300082B0300082B030008D7
:100150002B0300082B0300082B0300082B030008C7
:100160002B0300082B0300082B0300082B030008B7
:100170002B0300082B0300082B03000800000000DD
:100180002B0300082B03000800F002F800F050F8E1
:100190000AA090E8000C82448344AAF10107DA45E2
:1001A00001D100F045F8AFF2090EBAE80F0013F0E4
:1001B000010F18BFFB1A43F001031847F096000027
:1001C000109700000A4410F8014B14F00F0508BF07
:1001D00010F8015B240908BF10F8014B6D1E05D013
:1001E00010F8013B6D1E01F8013BF9D1641E03D0EC
:1001F000641E01F8015BFBD19142E4D3704700001B
:100200000023002400250026103A28BF78C1FBD81F
:10021000520728BF30C148BF0B6070471FB508F0B8
:1002200090FC9DE8030000F0FBF91FBD10B510BD68
:1002300000F062FA1146FFF7F1FF06F0E8F800F06F
:1002400080FA03B4FFF7F2FF03BC00F0ADFA000040
:100250002C4B19680868B0E8F04F80F30988BFF3A9
:100260006F8F4FF0000080F311887047000000008E
:1002700008480068006880F308884FF0000080F3A9
:10028000148862B661B6BFF34F8FBFF36F8F00DF84
:1002900000BF00BF08ED00E0DFF80C00016841F48A
:1002A00070010160704700BF88ED00E0EFF3098046
:1002B000BFF36F8F134B1A681EF0100F08BF20EDAD
:1002C000108A20E9F04F106009B44FF0500080F31D
:1002D0001188BFF34F8FBFF36F8F07F05BFA4FF0BA
:1002E000000080F3118809BC19680868B0E8F04F75
:1002F0001EF0100F08BFB0EC108A80F30988BFF31E
:100300006F8F7047DC000020EFF30580704700001E
:100310000948804709480047FEE7FEE7FEE7FEE799
:10032000FEE7FEE7FEE7FEE7FEE7FEE704480549D5
:10033000054A064B70470000A13F000889010008EC
:10034000C06B0020C0710020C06D0020C06D002077
:1003500070B5064600F048F9056806F10B0020F07C
:100360000704B4429CBF002070BD2B466A68BAB136
:100370001068A04210D304F1080188423CBF5068C5
:10038000586007D35168101941601168091B01605A
:1003900058601460101D70BD13465268002AE7D1E2
:1003A0002146284600F028F90028DED170BD70B53E
:1003B0000446051F00F018F90068002C14BF4468BB
:1003C00070BD002C18BFAC423CBF20466468F8D317
:1003D00001680A18AA4218BF456003D12A68054679
:1003E0001144016028684119A1421CBF6C6070BDB6
:1003F0006168696021680844286070BD53EA020C96
:1004000000F069802DE9F04B4FF00006002B1FBF74
:10041000B3FA83F503FA05F424FA05F65E4012BF39
:100420001643B2FA82F502FA05F4C5F120051EBFA3
:1004300022FA05FC44EA0C04203556EA044C4FEA43
:10044000144418BF641C4FF000084FF0000990429C
:1004500071EB030C39D3002919BFB1FA81F701FA06
:1004600007F6B0FA80F700FA07F6C7F120071EBFBB
:1004700020FA07FC46EA0C062037B6FBF4FCA7EB93
:100480000507103F07F01F0BCBF120060CFA0BFB02
:100490002CFA06F644BFB3460026202FA4BF5E46C2
:1004A0004FF0000B5BEA060C08BF4FF0010B19EB95
:1004B0000B09ABFB027C48EB0608C01B06FB02CC19
:1004C0000BFB03CC71EB0C01C1E70B460246414626
:1004D0004846BDE8F08B13B54FF000004FF0000127
:1004E000AFF30080BDE81C40704710B5203AC0F063
:1004F0000B80B1E81850203AA0E81850B1E8185025
:10050000A0E81850BFF4F5AF5FEA027C24BFB1E861
:100510001850A0E8185044BF18C918C0BDE81040D2
:100520005FEA827C24BF51F8043B40F8043B08BFDB
:100530007047D20728BF31F8023B48BF11F8012BA2
:1005400028BF20F8023B48BF00F8012B70474FF04E
:1005500000020429C0F0128010F0030C00F01B8090
:10056000CCF1040CBCF1020F18BF00F8012BA8BF9E
:1005700020F8022BA1EB0C0100F00DB85FEAC17C62
:1005800024BF00F8012B00F8012B48BF00F8012B15
:1005900070474FF0000200B5134694469646203946
:1005A00022BFA0E80C50A0E80C50B1F12001BFF42C
:1005B000F7AF090728BFA0E80C5048BF0CC05DF892
:1005C00004EB890028BF40F8042B08BF704748BFE0
:1005D00020F8022B11F0804F18BF00F8012B704754
:1005E000704770477047000000487047686B0020F4
:1005F000704770477047704738B504460A46002078
:100600006946AFF30080002808BF38BD0246009954
:10061000204600F04FF8012038BD012000F064B8FA
:10062000F8B5AFF30080054600200C46102000BF4F
:100630000646A819A0420DD9324669460020AFF3FC
:100640000080070008BF00F04FF80098A04218BFD4
:100650000546C419FFF7C8FF05600746F01D20F0E6
:1006600007004619284600F00AF8B44208BFF8BD52
:10067000A21B31463868BDE8F84000F01BB80021E5
:100680000160C0E9011070471020704710B500F0FC
:100690000DF8006810BD10B5044600F007F80460BE
:1006A00010BD000000487047606B00200048704794
:1006B000606B0020034640688C46002818BF8842C3
:1006C0003CBF03464068F8D318681844884207D0F6
:1006D0000CF1030020F00700001D411A521A0146D8
:1006E000081D0A60FFF763BE10B500F035F8BDE8DD
:1006F000104000F02CB870477546FFF7D3FFAE46A8
:1007000005006946534620F00700854618B020B51D
:10071000FFF70CFEBDE820404FF000064FF0000749
:100720004FF000084FF0000B21F00701AC46ACE899
:10073000C009ACE8C009ACE8C009ACE8C0098D4606
:1007400070470446AFF300802046FFF77AFD00288B
:1007500001D000F029B8704710B5012805D000215C
:1007600003A000F027F8012010BD09A1F8E7000060
:1007700053494752544D454D3A204F7574206F668A
:100780002068656170206D656D6F727900000000F2
:100790003A2048656170206D656D6F727920636FD6
:1007A000727275707465640001491820ABBEFEE773
:1007B0002600020070B505460C460A2000E06D1CBC
:1007C00000F011F835B128780028F8D102E0641C57
:1007D00000F009F814B120780028F8D1BDE8704085
:1007E0000A20AFF3008008B569468DF800000320A9
:1007F000ABBE08BD464910B54A6822F440324A6093
:100800004A6843681A434A6001684A6822F4807261
:100810004A6001684A68036942EA03224A60016843
:100820004A6822F040724A6001684A6883681A4345
:100830004A6001688A6822F400628A6001688A68F6
:10084000C3681A438A60816A6FF07062D14201689E
:100850008A6822F070628A6001688A680CD0836AB4
:100860001A438A6001688A6822F040528A600168EF
:100870008A68C36A1A4301E022F040528A60016824
:100880008A6822F002028A6001688A68037E42EA6E
:1008900043028A6090F82010002901684A680FD04E
:1008A00042F400624A6001684A6822F460424A6089
:1008B00001684A68174C436A04EB43331A4301E06A
:1008C00022F400624A600168CA6A22F47002CA62B5
:1008D0000168CA6A838B104C04EB03531A43CA6243
:1008E00001688A6822F400728A6001688A6890F858
:1008F000303042EA43228A6001688A6822F48062CA
:100900008A6001688A68406942EA8020886010BD78
:100910000023014000E0FFFF0000F0FFFEE70000C1
:1009200010B50A4C0A484FF480712269521C2261AA
:100930000F2A01DA012200E0002200F06CFB20699E
:100940001E2801DD0020206110BD000000000020F5
:10095000000002407047000070B50D4D00240122D8
:100960000221284600F057FB322005F00FFE00223E
:100970000221284600F04FFB322005F007FE641CE0
:10098000052CECDBBDE870404FF4967005F0FEBD21
:10099000000802401E4F1F4C1F4D204E387908B1F1
:1009A000072830D104F0B4FDD4E90A0104F000FBBB
:1009B000F8B101202870002004F0D2FD0022114679
:1009C000104604F005FE0021084604F0C5FF002192
:1009D000084604F095FC06F003FC4FF47A7005F02D
:1009E0007DF8C4E90A0142F2107005F077F8C4E915
:1009F0000C01287838B13078032804D306F0F0FBD6
:100A0000002030702870052005F0C0FDC6E700000A
:100A1000D006002088000020410000204200002075
:100A2000012005F0B3FDFBE7FEE772B6FEE700002C
:100A300078B50024009490F83C20012A19D00122B6
:100A400080F83C200A6807230568092A13D9EE6854
:100A50000A3A02EB420293409E43EE600B788A68AA
:100A60000A3B03EB43039A400368DD682A43DA60DC
:100A700010E0022078BD2E6902EB420293409E43B3
:100A80002E610B788A6803EB43039A4003681D6963
:100A90002A431A614A681F23072A13D205686E6B1E
:100AA000521E02EB820293409E436E630B790A88CA
:100AB0005B1E92B203EB83039A4003685D6B2A438B
:100AC0005A6327E005680D2A12D22E6BD21F02EB63
:100AD000820293409E432E630B790A88DB1F92B2F9
:100AE00003EB83039A4003681D6B2A431A6311E0EA
:100AF000EE6A0D3A02EB820293409E43EE620B795E
:100B00000A880D3B92B203EB83039A400368DD6AC7
:100B10002A43DA62164B0568144A9D4206D10D68D5
:100B2000122D03D1556845F48005556005689D4236
:100B300018D10B68102B01D0112B13D1536843F43B
:100B400000035360096810290CD10A490A4A096850
:100B5000B1FBF2F101EB8101490000E0491E009177
:100B60000029FBD180F83C40002078BD00230140E3
:100B7000002001406C00002040420F000068C06C63
:100B8000704770B504004FF0000503D0206C0026BC
:100B900010B107E0012070BD204600F01DF866642A
:100BA00084F83C60206CC00610D4206C20F488507F
:100BB00040F0020020642046FFF71CFE6664206CB3
:100BC00020F0020040F00100206400E0012584F8DC
:100BD0003C60284670BD000010B586B00446142164
:100BE0006846FFF7D6FC1149206888421BD110489F
:100BF0000021026842F480720260006800F4807094
:100C000005900B481438026842F002020260006846
:100C100000F00200059003200090CDE90101694633
:100C2000044800F0FBF806B010BD000000200140B1
:100C300044380240000402402DE9F04104460068B7
:100C40000D4681684FF0000749050BD58068C00547
:100C500008D5206C40F02000206484F83C7001200E
:100C6000BDE8F08100F0DCF9064613E0681C11D005
:100C700025B100F0D5F9801BA8420BD92068006887
:100C8000800707D4206C40F00400206484F83C7096
:100C90000320E5E7206800688007E7D521686FF04A
:100CA00012000860206C40F40070206420688168A5
:100CB00011F0405F13D1217E89B9C16A11F4700F20
:100CC00002D0806840050AD4206C20F48070206433
:100CD000206CC00403D4206C40F00100206400208C
:100CE000BEE7000018B50021009190F83C20012AD1
:100CF00007D0012280F83C2002689368DB0702D00D
:100D000011E0022018BD936843F0010393602E4A5E
:100D10002E4B1268B2FBF3F202EB420200E0521ECD
:100D20000092002AFBD102689368DB0742D0036C73
:100D300040F20164A34343F48073036453685B058A
:100D400005D5036C23F4005343F480530364036C10
:100D5000DB0404D5436C23F00603436400E04164E4
:100D600080F83C101A496FF022031360496800684C
:100D7000CA06184906D0884224D1816811F0405F24
:100D800013D01FE08842F8D0134A904203D1D1F823
:100D90000423D206F1D0114A904213D1D1F80413A2
:100DA00001F01F011029E8D30CE0816841F0804177
:100DB000816007E0016C41F010010164416C41F079
:100DC00001014164002018BD6C00002040420F006A
:100DD0000023014000200140002101400022014089
:100DE00090F83C1001290CD0012180F83C100168DA
:100DF0008A6822F001028A6001688968C90702D006
:100E000007E002207047016C21F4885141F0010194
:100E10000164002180F83C10084670472DE9F84F26
:100E2000DFF8BCA10022012503264FF00F090AF1CB
:100E3000040BAAF1040E00BF0B6805FA02F423406C
:100E4000A34270D10F7907F00307012F01D0022FC1
:100E500016D187684FEA420806FA08FC27EA0C0711
:100E6000D1F80CC00CFA08FC4CEA070CC0F808C01A
:100E70004768A7430C79C4F3001494403C43446092
:100E80000C79E443A4070AD0C4684FEA420C06FA7E
:100E90000CF7BC438F6807FA0CF72743C7600C793F
:100EA00004F00304022C12D1D40800EB840CDCF80B
:100EB00020405707FF0E09FA07F824EA0804D1F882
:100EC000108008FA07F848EA0408CCF82080046883
:100ED0004FEA420C06FA0CF7BC430F7907F0030700
:100EE00007FA0CF7274307604C6814F4403F70D0B2
:100EF0003C4C276847F480472760246822F00307AA
:100F000004F480440094384C07EB040CDCF80848E7
:100F100097074FEA177809FA08F7BC43334FB842EE
:100F200002D1002724E054E0314FB84201D101271B
:100F30001EE0304FB84201D1022719E02E4FB842CF
:100F400001D1032714E02D4FB84201D104270FE04F
:100F50002B4FB84201D105270AE02A4FB84201D1F0
:100F6000062705E0284FB84201D1072700E00827EF
:100F700007FA08F72743CCF80878DAF80040574614
:100F8000D1F804C09C435FEACC2C00D51C433C60E4
:100F9000DBF800405F46D1F804C09C435FEA8C2C2C
:100FA00000D51C433C60DEF800407746D1F804C011
:100FB0009C435FEA8C3C00D51C433C60084F083FD3
:100FC0003C68D1F804C09C435FEACC3C00D51C438C
:100FD0003C60521C102AFFF42FAFBDE8F88F0000D0
:100FE000083C01404438024000300140000002400B
:100FF0000004024000080240000C024000100240C1
:101000000014024000180240001C02400069084021
:1010100000D0012070470AB1816170470904FBE7E5
:101020000148806870470000D000002070B50400BF
:1010300025D094F83D00002520B984F83C50204686
:1010400000F04EF9242084F83D002068016821F06A
:10105000010101602068016841F4004101602068DD
:10106000016821F40041016000F0FEFA4D4A616818
:10107000914201D84C4900E04C49884201D20120FC
:1010800070BD4B492368B0FBF1F15E6826F03F0666
:101090000E435E606368934206D94FF496735943DA
:1010A0004FF47A73B1FBF3F12368491C1E6A26F0F2
:1010B0003F06314319626168914210D84900401ED1
:1010C000B0FBF1F2521CC2F30B02042A01D204203D
:1010D00022E0B0FBF1F0401CC0F30B001CE0A26862
:1010E000F2B301EBC10303EB0116431EB3FBF6F3AE
:1010F0005B1C43F480431B0549D092B301EBC10252
:1011000002EB0111401EB0FBF1F0401CC0F30B00DC
:1011100040F4804040F400402168CA694CF6FF73F7
:101120009A431043C861D4E907100143206802685C
:1011300022F0C00211430160D4E903010143206899
:10114000826848F2FF339A4311438160D4E9050174
:1011500008432168CA6822F0FF021043C86001E01A
:101160000EE016E02068016841F00101016025648D
:10117000202084F83D00256384F83E50002070BD97
:1011800001EB4106431EB3FBF6F35B1CB3E7012002
:10119000C2E701EB4101401EB0FBF1F0401CC0F37F
:1011A0000B00B7E7A086010080841E0000093D0007
:1011B00040420F002DE9F84F1F4690468A460446EC
:1011C000DDF82890FFF72CFF054694F83D00202815
:1011D0007FD11923012240492046009501F078FC77
:1011E000002876D194F83C00012872D0012084F8C0
:1011F0003C0020680168C90703D1016841F0010182
:1012000001602068016821F400610160212084F8F8
:101210003D00102084F83E0000262664C4F8248097
:101220006785608D20852D48E0622B464A465146F1
:10123000204601F0D3FB90B9206841698069009095
:1012400036E02A464946204601F0E8FC50B1206CC1
:10125000042804D12068016841F400710160012074
:10126000BDE8F88F606A216800780861606A401CF8
:101270006062618D491E6185218D491E89B221857B
:1012800022685369DB435B070BD451B100781061CE
:10129000606A401C6062608D401E6085208D401E2B
:1012A00020852A464946204601F0E6FB0028CED19B
:1012B000208D0028C5D154F83D0B016841F4007120
:1012C0000160202004F81E09E67766770020C7E752
:1012D000FFE70220C4E70000020010000000FFFF4B
:1012E00010B586B0044614216846FFF752F9194933
:1012F000206888422CD118480021026842F002027E
:1013000002600068154C00F0020005904FF4406048
:1013100000901220CDE901010320039004200490E5
:1013200069462046FFF77AFD0B491031086840F402
:10133000800008600868012200F48000059009150B
:101340002046FFF768FE0122D1022046FFF763FE28
:1013500006B010BD00580040303802400004024082
:10136000024881680278114481607047D0000020F3
:101370000B4810B5016841F400710160016841F447
:1013800080610160016841F480710160032000F018
:101390009FF8052000F006F800F050F8002010BD7E
:1013A000003C024030B505461F4887B00024016864
:1013B00041F480710160006806A900F4807000901B
:1013C00001A800F031F90498A8B100F04DF94000EF
:1013D0001649174AB0FBF1F11648491E026040F267
:1013E000E732C0E90324C0E90114846100F044FD40
:1013F000040003D015E000F037F9E9E70D4800F0EC
:10140000BFFD04000DD12D2000F034F8102D07D2BF
:10141000002229462D2000F03BF80748056000E037
:10142000012407B0204630BD4038024040420F0042
:1014300000200040282E0020D40000200C4882B05C
:10144000016841F480410160006800F48040009030
:101450000748001F016841F08051016000680022C8
:1014600000F0805000900F21901E02B000F010B8E4
:1014700044380240002809DB00F01F02012191409E
:101480004009800000F1E020C0F800117047000022
:10149000F0B40E4B1B680C46C3F30223C3F10705DF
:1014A000042D00D90425191D072901D2002300E0CD
:1014B000DB1E012606FA05F1491E214099409E4097
:1014C000761E16403143F0BC02F0ACBF0CED00E0DC
:1014D000064900F0070208684FF6FF03184040EA8B
:1014E0000220034A10430860704700000CED00E042
:1014F0000000FA052DE9F0470E46050065D0DFF83B
:101500001481D8F80000F7B200F00700B04207D20B
:1015100088F80070D8F8000000F00700B04254D1FD
:1015200028683D4C810712D5400703D5206840F458
:10153000E05020602878000703D5206840F4604020
:1015400020602068A96820F0F00008432060287817
:10155000C0072DD0304968680839012812D0022808
:1015600013D0032811D00968890700292DDA2168D2
:1015700021F0030101432160FFF752FD814641F252
:10158000883A0EE009688903EFE709688901ECE70A
:10159000FFF746FDA0EB0901514502D90320BDE844
:1015A000F0872068696800F00C00B0EB810FEFD184
:1015B000D8F80010404601F00701B14207D9077082
:1015C000006800F00700B04201D00120E7E728786A
:1015D000400705D52068E96820F4E0500843206002
:1015E0002878000706D52068296920F4604040EA81
:1015F000C100206000F058F82168084AC1F30311C7
:10160000515CC8400649086006480068FFF7CAFEFA
:101610000020C4E7003C024008380240788B0008F4
:101620006C000020D40000200F2202600C4A1368D6
:1016300003F003034360136803F0F003836013684F
:1016400003F4E053C36012684FF4E05303EAD2029C
:1016500002610448006800F007000860704700005D
:1016600008380240003C0240044805490068096807
:10167000044AC1F38221515CC84070476C000020CD
:1016800008380240888B000804480549006809684A
:10169000044AC1F34231515CC84070476C000020DD
:1016A00008380240888B0008154810B5006810F013
:1016B0000C02144813D01449042A0FD0082A0ED162
:1016C0000F4C241F2268236802F03F025B0207D5FB
:1016D0002068C0F38810A0FB010106E0084610BD99
:1016E0002168C1F38811A1FB00010023FEF786FEEB
:1016F0002168C1F30141491C4900B0FBF1F010BD64
:10170000083802400024F40040787D012DE9F84FAC
:1017100004006ED02078DFF84C93C007A9F10405CF
:101720004AD009F104000168C1F38101012908D000
:101730000068C0F3810002280AD1D9F800004002F5
:1017400006D52868800337D560680028E1D033E0EB
:101750006068B0F5803F10D0B0F5A02F286810D099
:1017600020F480302860286820F480202860606899
:10177000A8B1FFF755FC06460DE0286840F480301C
:10178000F4E740F480202860F7E700BFFFF748FC4B
:10179000801B642873D828688003F7D50CE0FFF716
:1017A0003FFC064605E000BFFFF73AFC801B6428BB
:1017B000F0D828688003F7D42078DFF8AC8280075F
:1017C0004FF0000A3ED5A748001D016811F00C0F2C
:1017D00008D00068C0F3810002280BD1D9F80000BE
:1017E000400207D42868800716D5E068012800D198
:1017F00012E033E1E068B8B10120C8F80000FFF75B
:101800000FFC064605E000BFFFF70AFC801B02281C
:10181000C0D828688007F7D52868216920F0F8002B
:1018200040EAC10028600DE0C8F800A0FFF7F8FB0F
:10183000064604E0FFF7F4FB801B02281FD8286847
:101840008007F7D42078000722D5864F8748616942
:10185000703771B101210160FFF7E2FB064604E039
:10186000FFF7DEFB801B022809D838688007F7D510
:101870000EE0C0F800A0FFF7D3FB064605E082E0CB
:10188000FFF7CEFB801B02287DD838688007F7D48D
:101890002078400768D5DFF8CCB100270BF13C0B6E
:1018A000DBF80000C0000BD4DBF8001041F08051E1
:1018B000CBF80010DBF80000012700F0805000900A
:1018C0006B4E3068C00510D4306840F480703060D2
:1018D000FFF7A6FB009005E0FFF7A2FB0099401A76
:1018E000022850D83068C005F6D55E4EA0686C3628
:1018F00001280FD00528306810D020F0010030609A
:10190000306820F004003060A068B8B1FFF788FBB1
:1019100000900FE0306840F00100F4E740F0040070
:101920003060F7E7FFF77CFB0099411A41F28830FD
:10193000814266D830688007F4D50EE0FFF770FB6F
:10194000009007E0FFF76CFB0099411A41F28830E4
:10195000814256D830688007F4D42FB1DBF80010EC
:1019600021F08051CBF80010A069C8B33D49091D92
:101970000968C1F3810102294AD00228504607D0E4
:10198000C8F8600000E03CE0FFF74AFB04463BE09B
:101990004746C8F86000FFF743FB064605E000BF76
:1019A000FFF73EFB801B02282BD828688001F7D464
:1019B000D4E907010843A16A2E4A490802EB014114
:1019C000626A41EA8211084394F82C1040EA0161EE
:1019D000C9F8001001203866FFF722FB044606E034
:1019E0003EE000BFFFF71CFB001B022809D8286857
:1019F0008001F7D534E000BFFFF712FB001B02287F
:101A000002D90320BDE8F88F28688001F4D427E0CC
:101A10000128F7D0D9F80000E26900F48001914272
:101A20001CD1226A00F03F01914217D147F6C071E4
:101A3000626A0140B1EB821F10D1A26A4FF0FF33FE
:101A400000F4403103EB5202B1EB024F06D194F89F
:101A50002C1000F07060B0EB016F01D00120D1E7D5
:101A60000020CFE70438024000004742800E474282
:101A7000007000400000FFFF70B5040009D0606AEC
:101A8000002540B125616561A56294F8510040B11F
:101A90000CE0012070BD6068B0F5827FF4D0E56194
:101AA000F2E784F85050204600F044F8022084F811
:101AB00051002068016821F040010160A08821895F
:101AC00000F4827001F404410843A18901F400612B
:101AD0000843217C01F002010843217D01F001014E
:101AE0000843218B01F400710843217F01F0380184
:101AF000084394F8201001F080010843218D01F47F
:101B00000051084321680860A069042101EA1040DF
:101B100094F8241001F010010843216848602068FF
:101B2000C16921F40061C1616565012084F851003B
:101B3000002070BD10B586B0044614216846FEF73B
:101B400028FD14492068884221D1134800210268E9
:101B500042F400420260006800F4004005900E4824
:101B60001038026842F004020260006800F00400CD
:101B700005904FF4E05000900220CDE901010320D0
:101B800003900620049069460448FFF747F906B021
:101B900010BD0000003C00404038024000080240F8
:101BA0002DE9FF4F81B01D46934604464FF00109D1
:101BB0000E9EFFF735FA074694F851006168012838
:101BC00006D0B1F5827F3CD1A168C9BB042838D1C9
:101BD0000298002871D0BBF1000FFBD0002DF9D086
:101BE00094F8500001282CD04FF0010A84F850A03E
:101BF00094F85100042802D0052084F851004FF0D9
:101C00000008C4F85480C4F838B0E587A587029965
:101C10002163E586A586C4F84080C4F84480206826
:101C20000168490603D4016841F040010160E068A1
:101C3000B0F5006F606808D0F0B3012D49D081E0A5
:101C4000FFE7022005B0BDE8F08F08B1012D39D1C2
:101C5000206B21680088C860206B801C2063E08EA8
:101C6000401EE0862EE02068816889070FD5E18E4E
:101C700069B1B9F1010F0AD1216B0988C160206BEC
:101C8000801C2063E08E401EE0864FF00009206833
:101C90008168C9070CD0E18F51B1C068A16B088081
:101CA000A06B801CA063E08F401EE0874FF001090D
:101CB000FFF7B6F9C01B01E00BE067E0B04201D3CB
:101CC000701C50D1E08E0028CDD1E08F0028CAD101
:101CD0003EE0206B216800780873206B401C206375
:101CE000E08E401EE0862DE02068816889070FD5D0
:101CF000E18E69B1B9F1010F0AD1216B0978017345
:101D0000206B401C2063E08E401EE0864FF00009EF
:101D100020688168C9070CD0E18F51B1C068A16B00
:101D20000870A06B401CA063E08F401EE0874FF05E
:101D30000109FFF775F9C01BB04202D3701C01D036
:101D400011E086B1E08E0028CED1E08F0028CBD103
:101D50003A463146204602F013F850B12020606523
:101D600084F8508012E084F851A084F85080032059
:101D700068E7A06818B92068C1688068009084F896
:101D800051A084F85080606D0028F1D0012059E7FF
:101D90007047704710B590F83C20012A22D00122EC
:101DA00080F83C20CA688C6822F4407222434C6858
:101DB00022F4806222430C6822F4006222430C6900
:101DC00022F4805222434C6922F400522243C96912
:101DD000002322F480420A4301684A6480F83C30C0
:101DE000002010BD022010BD70B590F83C20012AE3
:101DF00032D0012480F83C40022280F83D20036864
:101E00005A689D6822F070060A6832435A60134B84
:101E100002689A4214D0B2F1804F11D0104B9A420E
:101E20000ED0104B9A420BD00F4B9A4208D00F4B5A
:101E30009A4205D00E4B9A4202D00E4B9A4204D1E0
:101E4000496825F080031943916080F83D400021E6
:101E500080F83C10084670BD022070BD00000140B3
:101E60000004004000080040000C00400004014055
:101E7000004001400018004010B5040003D094F861
:101E80003D0010B107E0012010BD002084F83C00A7
:101E9000204600F01FF8022084F83D00211D206834
:101EA00002F092F8012084F8460084F83E0084F89D
:101EB0003F0084F8400084F8410084F8420084F830
:101EC000430084F8440084F8450084F83D00002075
:101ED00010BD000008B5026822482349824207D19C
:101EE000086840F010000860086800F0100009E081
:101EF0001E48824208D1086840F020000860086847
:101F000000F02000009008BD1748194B001D9A42B0
:101F100007D1016841F480310160006800F480302D
:101F2000F0E7144B9A4207D1016841F40031016097
:101F3000006800F40030E5E70F4B9A4207D10168D2
:101F400041F480210160006800F48020DAE70B484A
:101F50008242D8D1086840F040000860086800F06C
:101F60004000CFE70010004040380240001400401D
:101F7000004001400044014000480140001800407A
:101F800090F83D10012901D001207047022180F80E
:101F90003D100168CA6842F00102CA600068114938
:101FA000884214D0B0F1804F11D00F4988420ED032
:101FB0000E4988420BD00E49884208D00D4988420C
:101FC00005D00D49884202D00C49884204D181686D
:101FD00001F00701062903D0016841F00101016009
:101FE000002070470000014000040040000800404D
:101FF000000C004000040140004001400018004077
:1020000070B5044690F83C000025012817D0012641
:1020100084F83C60022084F83D002068826822F049
:10202000770222F47F4282600868502838D00DDCA5
:1020300020284FD005DC90B3102811D14AE00220AF
:1020400070BD302846D040280AD13BE060282FD010
:1020500070280DD0B0F5805F03D0B0F5005F12D0CE
:10206000012584F83D60002084F83C00284670BDBE
:10207000CB68D1E90121206802F01BF82068816853
:1020800041F0770109E0CB68D1E90121206802F035
:1020900010F82068816841F480418160E1E719E02F
:1020A000CA684968206802F0D9F85021206806E023
:1020B000CA684968206802F0E2F86021206802F0EE
:1020C00002F8CEE7CA684968206802F0C7F84021E4
:1020D0002068F4E7226801461046F0E72DE9F04158
:1020E0000D46040003D094F83D0018B108E001202B
:1020F000BDE8F081002084F83C00204600F040F864
:10210000022084F83D002068816844F20702914370
:102110008160211D206801F057FF22689068916955
:10212000166A2B68AF69034340F20330814341EAEA
:102130000721A868EF6908434FF6FC418843E96826
:1021400040EA0720014328692F6A000140EA07306E
:10215000084369686D6926F0AA0646EA0515294311
:1021600093602268906154F8460B0162012004F8E4
:102170001F09E0752076E0762077A0750020B7E78C
:10218000F0B587B0044614216846FEF702FA4849C4
:1021900023680024464810390225464A464EB3F1CA
:1021A000804F1FD0DFF814C1C027634547D10368B3
:1021B00043F002030360006800F002000590086825
:1021C00040F00100086008680097CDE9015400F074
:1021D0000100CDE90450694603941046FEF71EFE47
:1021E00007B0F0BD036843F001030360006800F02E
:1021F00001000590086840F001000860086800F0E0
:1022000001000590086840F0020008600868012796
:1022100000F0020005904FF400400090CDE9015419
:10222000CDE9034769461046FEF7F8FD0820009007
:10223000CDE90154CDE9034769463046CEE7DFF8E2
:1022400080C0634517D1026842F004020260006852
:1022500000F004000590086840F00200086008687B
:102260000097CDE9015400F00200CDE90450694621
:1022700003943046B2E7134EB342B1D1036843F042
:1022800008030360006800F008000590086840F04B
:10229000010008600868694600F00100059003200D
:1022A0000090CDE901541046CDE9034596E70000C2
:1022B0004038024000000240000402400004004098
:1022C00000080040000C004070B590F83E600446E5
:1022D00090F83F5090F8423090F84320022021B10E
:1022E00004290ED0012E1BD114E0012E18D1012B90
:1022F00016D184F83E0084F84200012200212068B3
:1023000020E0012D0CD1012A0AD184F83F0084F885
:10231000430014E0012D03D1012B01D1012A01D08A
:10232000012070BD84F83E0084F83F0084F842002C
:1023300084F8430001220021206801F0ADFE012253
:102340000421206801F0A8FE2068016841F0010125
:102350000160002070BD70472DE9F041044600681F
:10236000C66805694FF00007A90713D5B10711D555
:10237000F91E0161012020772068806980072046CE
:1023800002D0FFF7E8FF04E000F0E8F8204600F094
:10239000B9F92777680716D5700714D521686FF04B
:1023A00004000861022020772068806910F4407FD3
:1023B000204602D0FFF7CFFF04E000F0CFF8204620
:1023C00000F0A0F92777280715D5300713D5216825
:1023D0006FF008000861042020772068C06980073A
:1023E000204602D0FFF7B7FF04E000F0B7F8204620
:1023F00000F088F92777E80616D5F00614D521688D
:102400006FF010000861082020772068C06910F480
:10241000407F204602D0FFF79EFF04E000F09EF8C8
:10242000204600F06FF92777E80708D0F00706D0BC
:1024300021686FF001000861204600F007FA2806C5
:1024400008D5300606D521686FF080000861204667
:10245000FFF79EFC680608D5700606D521686FF068
:1024600040000861204600F037FAA8060AD5B006F9
:1024700008D521686FF0200008612046BDE8F041D2
:10248000FFF787BCBDE8F08170B586B00446142123
:102490006846FEF77EF8246828480022284902236F
:1024A000844212D1086840F010000860086869464C
:1024B00000F0100005904FF4D4400090CDE90132B7
:1024C0000120CDE903201F4812E01F480325844264
:1024D00012D1086840F0010008600868694600F001
:1024E000010005900C200090CDE90132174821E051
:1024F000FEF794FC06B070BD154E1648B44209D1E3
:102500000C6844F002040C60096801F002010591B6
:1025100081150BE0104EB442ECD10C6844F002047B
:102520000C60096801F00201059171150091CDE977
:1025300001326946CDE90325DAE7000000000140D9
:1025400030380240001002400040014000000240CC
:10255000004401400004024000480140704770B54B
:102560000D46040003D094F83D0010B107E00120AF
:1025700070BD002084F83C00204600F01BF80220CB
:1025800084F83D00211D206801F01EFD20680168CF
:1025900021F00801016054F8460B016829430160ED
:1025A000012004F81F09E0752076E0762077A075F9
:1025B000002070BD704770B5044690F83C000026BE
:1025C0000D4601280FD0012084F83C006AB1042A8E
:1025D0001DD0082A2FD00C2A3FD00126002084F8D5
:1025E0003C00304670BD022070BD206801F074FDD3
:1025F0002068816941F0080181612068816921F0CA
:1026000004018161206881692A69114311E0206811
:1026100001F092FD2068816941F4006181612068C8
:10262000816921F480618161206881692A6941EAB8
:1026300002218161D2E7206801F0B4FD2068C16900
:1026400041F00801C1612068C16921F00401C16144
:102650002068C1692A69114311E0206801F0D6FDA4
:102660002068C16941F40061C1612068C16921F439
:102670008061C1612068C1692A6941EA0221C161A2
:10268000ACE710B5040003D094F83D0010B107E0AA
:10269000012010BD002084F83C00204600F01EF808
:1026A000022084F83D00211D206801F08DFC0120EE
:1026B00084F8460084F83E0084F83F0084F8400027
:1026C00084F8410084F8420084F8430084F8440010
:1026D00084F8450084F83D00002010BD08B500686E
:1026E0000649884208D10648016841F001010160AD
:1026F000006800F00100009008BD000000000140EB
:10270000443802407047000010B50446022249B127
:1027100004290ED0082913D094F84100012816D0BE
:10272000012010BD94F83E000128F9D184F83E2024
:102730000FE094F83F000128F2D184F83F2008E030
:1027400094F840000128EBD184F8402001E084F89F
:1027500041200122206801F09FFC16492068164A9A
:10276000884201D0904203D1436C43F40043436458
:102770002068884213D0B0F1804F10D00F498842B2
:102780000DD00F4988420AD00E49884207D09042A6
:1027900005D00D49884202D00C49884204D1816895
:1027A00001F00701062903D0016841F00101016031
:1027B000002010BD00000140000401400004004062
:1027C00000080040000C004000400140001800409C
:1027D00030B504460D460068002201F05DFC194B3F
:1027E00041F2111120688A10984202D0164B98428B
:1027F00009D1036A0B4206D1036A134203D1436C29
:1028000023F4004343642068036A0B4206D1016A43
:10281000114203D1016821F00101016001203DB1A5
:10282000042D08D0082D09D084F84100002030BDC7
:1028300084F83E00FAE784F83F00F7E784F84000A8
:10284000F4E70000000001400004014070B50446B8
:1028500000681A49884201D1FEF782FD18492068B4
:10286000884229D101211748FEF7D0FB16490025DF
:1028700001281DD081F81851144C2068401C20609C
:1028800002280FD31248211D006805F0BFF86068C8
:1028900038B110494FF080500860BFF34F8FBFF33D
:1028A0006F8F256003F010FBBDE8704004F09ABD07
:1028B000012081F81801DFE770BD00000020004012
:1028C0000018004000080240D00600207C000020D4
:1028D0008800002004ED00E0704770B5040004D0CB
:1028E00094F84100002510B106E0012070BD84F885
:1028F0004050204600F024F8242084F8410020684D
:10290000C16821F40051C160204601F0CBFC206871
:10291000016921F4904101612068416921F02A0197
:1029200041612068C16841F40051C16065642020A4
:1029300084F8410084F842006563002070BD000007
:1029400010B586B0044614216846FDF722FE1449EE
:102950002068884221D113480021026842F0100209
:102960000260006800F0100005900E4814380268FC
:1029700042F001020260006800F0010005904FF48F
:10298000C06000900220CDE90101032003900720E0
:10299000049069460448FEF741FA06B010BD0000F5
:1029A000001001404438024000000240FEE7016888
:1029B0004A69D24352050FD46FF480624A61002104
:1029C00040F8301F202242738173026942F00402F2
:1029D000026101730120704700207047F8B504467A
:1029E000C06A1E460D461746082807D0012805D0A4
:1029F00010F5803F02D0206B122804D120680168B6
:102A000041F480710160134600224FF0011120460D
:102A1000009600F05DF840B120680068C00502D55E
:102A20004FF4007020640320F8BD2069B0F5804F9A
:102A30000ED00620216800EAD51040F0F0000861B1
:102A400033463A460B49204600F08AF878B902E04E
:102A500005F0FE0000E0E8B2216808610549334650
:102A60003A46891F204600F07BF80028DCD0012080
:102A7000F8BD00000800010070B516460D4604467A
:102A80001EE02046FFF793FF08B1012070BD681CCF
:102A900016D0FEF7C5FA801BA84200D885B9206879
:102AA0004069C04340070BD5002044F8300F202177
:102AB0006173A073216941F0200121612073E4E773
:102AC00020684069C0434007DBD4002070BD00008F
:102AD0002DE9F047984617460D460446C1F30746D0
:102AE000DDF820902AE000BFB8F1FF3F26D0FEF7C6
:102AF00097FAA0EB0901414502D8B8F1000F1DD1AA
:102B00002068012E16D0806925EA00000004000C20
:102B100012D00020B84211D1002044F8300F2021FB
:102B20006173A073216941F02001216120730120AC
:102B3000BDE8F0874069E7E70120EBE72068012E58
:102B40000AD0806925EA00000004000C06D00020AD
:102B5000B842C9D00020EBE74069F3E70120F7E76E
:102B60002DE9F047984616460D4604464FF00009F9
:102B70004FF0200AC1F3074723E020684069C043B3
:102B8000400515D42068016841F400710160216896
:102B90006FF480604861C4F8309084F83DA084F8F8
:102BA0003E90216C41F00401216484F83C9021E0C6
:102BB000701C06D0FEF734FAA0EB0800B04203D830
:102BC00016B1012F1FD021E02068012F15D0806998
:102BD00025EA00000004000C18D000BF44F8309F24
:102BE00084F80DA084F80E90216941F02001216144
:102BF00084F80C900120BDE8F087406925EA0000C8
:102C00000004000CEAD12068406901E02068806976
:102C100025EA00000004000CAFD1ECE770B51646C1
:102C20000D4604461EE02046FFF7C1FE08B1012014
:102C300070BD681C16D0FEF7F3F9801BA84200D8BF
:102C400085B920684069C04300060BD5002044F8D0
:102C5000300F20216173A073216941F020012161AF
:102C60002073E4E720684069C0430006DBD40020FD
:102C700070BD000070B500F0700400F087F80B4DD7
:102C80000646002202212846FEF7C5F9272003F058
:102C90004FFC44EA060003F04BFC012202212846C7
:102CA000FEF7B9F9BDE8704000F070B8000C0240C2
:102CB00010B5084C002202212046FEF7ACF9E220B4
:102CC00003F036FC20460122BDE810400221FEF749
:102CD000A2B90000000C024010B5084C00220221ED
:102CE0002046FEF798F9E12003F022FC204601225D
:102CF000BDE810400221FEF78EB90000000C024032
:102D00002DE9F041064600F055F80546202804D983
:102D1000FFF7CEFF2120BDE8F08155B10E4F002214
:102D200002213846FEF777F9612003F001FC002408
:102D300007E00020EFE7FF2003F0FAFB3055641CAA
:102D4000E4B2AC42F7D3012202213846FEF763F920
:102D5000FFF7AEFF2846DEE7000C024070B50A4DD3
:102D60000446002202212846FEF755F9204603F0CA
:102D7000DFFBFF2003F0DCFB044601220221284692
:102D8000FEF749F9204670BD000C024070B5084DB1
:102D9000002202212846FEF73EF9072003F0C8FB77
:102DA0000446012202212846FEF735F9204670BD6F
:102DB000000C024070B50A4D002202212846FEF7A1
:102DC0002AF9602003F0B4FBFF2003F0B1FB0446B6
:102DD000012202212846FEF71EF9204670BD0000A0
:102DE000000C0240052A00D90522052800D905203B
:102DF0000A30C0B200F01CB810B504460020FFF73E
:102E0000ADFF014614B1012C03D004E020F0010114
:102E100001E040F00101BDE81040002000F02AB8B8
:102E2000052900D905210A4601461020AFF300808C
:102E30002DE9F0410E4F15460E46044600220221B0
:102E40003846FEF7E8F844F0200003F071FB002458
:102E500004E0305D03F06CFB641CE4B2AC42F8D3D8
:102E60003846BDE8F04101220221FEF7D4B8000047
:102E7000000C024070B50B4D0E46044600220221A4
:102E80002846FEF7C8F844F0200003F051FB304616
:102E900003F04EFB2846BDE8704001220221FEF7F8
:102EA000BAB80000000C024070B50C460546202957
:102EB00018D8002C16D00C4E002202213046FEF706
:102EC000AAF8B02002E000BF15F8010B03F030FBB8
:102ED000641EE4B2F8D23046BDE8704001220221FF
:102EE000FEF799B870BD0000000C02401FB51748EE
:102EF000FDF776FF00211548009101910291144AD7
:102F0000039102604FF48032C0E901210161017632
:102F100080F820100F4AC0E90A210124C461C16071
:102F200080F830104161FDF72CFE08B1FDF77DFD02
:102F30000820CDE900040220029069460348FDF70D
:102F400077FD002801D0FDF770FD1FBDD4290020BA
:102F5000002001400100000F10B5A4B01C221C4944
:102F60006846FDF7C2FA0021684603F01BFB194CC6
:102F700017491C2260601C3107A8FDF7B6FA002132
:102F800007A803F00FFB1249A0601C2238310EA8DD
:102F9000FDF7ABFA00210EA803F004FB0C49E0603A
:102FA0001C22543115A8FDF7A0FA002115A803F042
:102FB000F9FA074920611C2270311CA8FDF795FA27
:102FC00000211CA803F0EEFA606124B010BD0000DF
:102FD000BC960008880000202DE9F04F87B014212E
:102FE0006846FDF7D6FA50480024016841F0100108
:102FF0000160016801F010010591016841F00401D0
:103000000160016801F004010591016841F080014F
:103010000160016801F080010591016841F0010142
:103020000160016801F001010591016841F00201B0
:103030000160016801F002010591016841F0080199
:1030400001600068DFF8E4A000F0080040F2FF55DE
:103050000590002229465046FDF7DDFFDFF8D0B08D
:103060004FF4C977002239465846FDF7D4FF4FF494
:103070009078002241462F48FDF7CDFF40F20649E7
:10308000002249462C48FDF7C6FF002220212B488C
:10309000FDF7C1FF0095022601250396CDE90154F5
:1030A00069465046FDF7BAFE4FF46240CDE9000490
:1030B000694658460294FDF7B1FE4FF4441000955E
:1030C000CDE9010469465846FDF7A8FE009703962E
:1030D000CDE9015469465846FDF7A0FECDF80080C1
:1030E0000396CDE9015469461248FDF797FECDF8E5
:1030F00000900396CDE9015469460F48FDF78EFE16
:10310000CDE9005469460C480294FDF787FE202063
:10311000CDE90005CDE9024669460848FDF77EFE87
:1031200007B0BDE8F08F00003038024000100240C8
:103130000008024000000240000C0240000402406F
:103140000D4810B50B4901604FF47A7141600021C0
:103150004FF480428160C0E9031241618161C16125
:103160000162FDF763FF002803D0BDE81040FDF7C2
:103170005CBC10BD005800401C2A0020104810B54F
:103180000E4901604FF48271416000218160C1608D
:103190004FF400720161C0E905121022C0E9072155
:1031A000416281620A21C162FEF766FC002803D0F9
:1031B000BDE81040FDF739BC10BD0000003C0040E8
:1031C000702A002030B587B01C216846FDF7E1F970
:1031D0001D4C1C480025C4E9000541F24410C4E917
:1031E000025025612046A561FEF746FE08B1FDF7B5
:1031F0001CFC1548FFF745FA08B1FDF716FC6020E6
:1032000000904FF45D70CDE90105002269460E483B
:103210000495FFF7D0F908B1FDF707FC2068016AB3
:1032200041F21112114207D1016A9210114203D1E9
:10323000016821F0010101600348FFF725F907B09B
:1032400030BD000000440140082D002030B587B09B
:103250001C216846FDF79DF91B4D1A480024C5E95D
:10326000000441F63F20C5E902402C612846AC61CC
:10327000FEF702FE08B1FDF7D8FB1348FFF701FA8D
:1032800008B1FDF7D2FB6020CDE9000402200290D6
:103290000022694604940C48FFF78DF908B1FDF748
:1032A000C4FB2868816921F0080181610648FEF7A6
:1032B00067FE00210448FFF727FA0348FFF7E4F808
:1032C00007B030BD00480140502D00201FB500213F
:1032D00011480091019102910E4A0391026053221C
:1032E000C0E901214FF47A72C0E903218021816194
:1032F000FEF7C2FD08B1FDF798FB4FF48050009037
:1033000069460548FEF77CFE002801D0FDF78DFBDD
:103310001FBD000000180040982D002010B592B08D
:1033200000240F941C2168461094FDF732F92021E7
:1033300007A8FDF72EF92D482B49C0E9001441F6E6
:103340003F21C0E9024180210461C0E90541FFF746
:1033500098F908B1FDF769FB0F940FA92348109461
:10336000FEF742FD08B1FDF760FB6020CDE90004E7
:103370000220CDE9020404940594002269461B480A
:103380000694FFF718F908B1FDF74FFB04226946D0
:103390001648FFF710F908B1FDF747FB0822694608
:1033A0001248FFF708F908B1FDF73FFB0C22694608
:1033B0000E48FFF700F908B1FDF737FB07940894B2
:1033C00009944FF400500A94CDE90B4007A907482F
:1033D0000E94FEF7DFFC08B1FDF727FB0348FFF76B
:1033E00053F812B010BD000000000140C82A0020B0
:1033F00010B58CB024216846FDF7CBF800241A489C
:1034000009944FF080410A94C0E900144FF6FF710F
:10341000C0E9024180210461816103200090022003
:1034200001900120CDE902040494CDE90540079400
:1034300069460D480894FEF751FE08B1FDF7F5FA0C
:10344000099409A908480A94FEF7CEFC08B1FDF7D3
:10345000ECFA00210448FEF737FF04210248FEF78A
:1034600033FF0CB010BD0000102B002010B58CB045
:1034700024216846FDF78DF800241A48099418495C
:103480000A94C0E900144FF6FF71C0E9024180219F
:103490000461816103200090022001900120CDE9A8
:1034A00002040494CDE90540079469460D48089448
:1034B000FEF714FE08B1FDF7B8FA099409A9094806
:1034C0000A94FEF791FC08B1FDF7AFFA0021054818
:1034D000FEF7FAFE04210348FEF7F6FE0CB010BD1D
:1034E00000040040582B002010B58CB02421684601
:1034F000FDF74FF800241A48099418490A94C0E9C6
:1035000000144FF6FF71C0E902418021046181611E
:1035100003200090022001900120CDE902040494D0
:10352000CDE90540079469460D480894FEF7D6FD9D
:1035300008B1FDF77AFA099409A909480A94FEF737
:1035400053FC08B1FDF771FA00210548FEF7BCFEF7
:1035500004210348FEF7B8FE0CB010BD000800407F
:10356000A02B002010B58CB024216846FDF711F87F
:1035700000241A48099418490A94C0E900144FF627
:10358000FF71C0E902418021046181610320009044
:10359000022001900120CDE902040494CDE9054008
:1035A000079469460D480894FEF798FD08B1FDF7A9
:1035B0003CFA099409A909480A94FEF715FC08B1D8
:1035C000FDF733FA00210548FEF77EFE042103488B
:1035D000FEF77AFE0CB010BD000C0040E82B002076
:1035E0007CB5002413480094114D0194C0E90054A7
:1035F0004FF6FF71C0E902418461FEF73DFC08B15E
:10360000FDF713FA08210B48FEF7A9FF08B1FDF7F3
:103610000CFA0094694607480194FEF7E5FB08B1EF
:10362000FDF703FA012068616C622C617CBD00002B
:1036300000100040302C00201CB5002417480094D6
:103640001549019401601421C0E901144FF6FF717E
:103650008461C160FEF710FC08B1FDF7E6F90821AE
:103660000E48FEF77CFF08B1FDF7DFF900946946CC
:103670000A480194FEF7B8FB08B1FDF7D6F90648F1
:103680000C300460044901201431086002482430E1
:103690000460081F04601CBD00140040782C00204A
:1036A00010B58CB000240794089409941C21684636
:1036B0000A94FCF76EFF27482549016040F61F5128
:1036C000C0E9011440F27B21C0E903148461FEF7D4
:1036D000D3FB08B1FDF7A9F94FF48050079007A973
:1036E0001C48FEF78DFC08B1FDF79FF91948FEF75D
:1036F000C8FF08B1FDF799F908211648FEF72FFF1A
:1037000008B1FDF792F9702000900120019002208D
:1037100002900022694604940E48FEF74CFF08B15F
:10372000FDF783F9042269460A480294FEF743FF35
:1037300008B1FDF77AF900210648FFF749F804219E
:103740000448FFF745F80348FEF79EFE0CB010BD95
:1037500000400140C02C00200C4810B50A4901600F
:103760004FF4E1314160002181600C22C160C0E969
:1037700004128161C161FFF7B0F8002803D0BDE8F1
:103780001040FDF752B910BD00100140E02D00209F
:10379000FEE7C0EB00108000C11700EB11500013D2
:1037A0007047FEE710B50021074C0A46002004EBE5
:1037B000C1131A54401CC0B28028FAD3491CC9B2A4
:1037C0000829F3D310BD0000CC020020F0B57F28FB
:1037D0002AD83F2928D88418802C02D9C0F1800229
:1037E000D2B2CC18402C02D9C1F14003DBB2012681
:1037F000DFF838E087180B4414E001F0070206FAFE
:1038000002F5CA0804460EEBC21207E012F804C023
:103810002CEA050C02F804C0641CE4B2A742F5D8F7
:10382000491CC9B28B42E8D8F0BD0000CC02002090
:1038300038B500F000F92448002100902B238022A5
:10384000084600F07DF931237F221946002000F060
:103850005DF806231DA23721002000F0ECF91D4C75
:1038600006250095A27901233721182000F0C0F920
:10387000062319A23721242000F0DDF900952268E3
:10388000022337213620521E00F0B2F9207940B1D0
:10389000022813D0032807D007282B4611D00FA2E7
:1038A00004E006230FA201E0062310A237214820DE
:1038B00000F0C1F9BDE8384000F0D4B906230EA2EB
:1038C000F4E710A2F2E70000BA9300084672712EE6
:1038D00000000000D00600204E6F2E00496E766179
:1038E0006C6964004E6F726D616C000053656C66AC
:1038F0005465737400000000546573744472696207
:103900000000000043726179000000002DE9F04FD3
:103910001E464FF0000904460D461746C846B14200
:103920000ED1BC4208DD2746144605E02946E0B228
:1039300000F05EF8641C24B2BC42F7DDBDE8F08FF5
:10394000BC420DD1B54208DD1D460E4605E0E9B288
:10395000204600F04DF86D1C2DB2B542F7DDEDE7C5
:1039600003DD274614461D460E46B54203DD6D4273
:1039700076424FF00109701B391B884207DD204653
:103980002C4605463846374606464FF00108701B60
:10399000391B421A4FEA400B4FEA420AC1EB40067C
:1039A0001AE06042C1B203E06842C1B203E0E1B292
:1039B000E8B201E0E9B2E0B200F01AF8BC42BDDAC8
:1039C000641C24B2002E02DA06EB0B0003E06D1C2F
:1039D0002DB206EB0A0006B2B9F1000F03D0B8F120
:1039E000000FE1D0DDE7B8F1000FE3D0DFE7000022
:1039F00010B57F280CD83F290AD8064ACB0802EB1D
:103A0000C31301F007041A5C0121A1400A431A54B0
:103A100010BD0000CC02002070B500244FF47A766F
:103A20000025012003F0FAFE6D1C642DF9D3641CFF
:103A3000B442F5D370BD10B5FFF7EEFFAE2000F035
:103A400025F9D52000F022F9802000F01FF9A820E8
:103A500000F01CF93F2000F019F9D32000F016F90E
:103A6000002000F013F9402000F010F9A02000F031
:103A70000DF9C02000F00AF9DA2000F007F9122051
:103A800000F004F9812000F001F9CF2000F0FEF8E9
:103A9000D92000F0FBF8F12000F0F8F8DB2000F06E
:103AA000F5F8302000F0F2F8A42000F0EFF8A6209E
:103AB00000F0ECF88D2000F0E9F8142000F0E6F8B2
:103AC000AF2000F0E3F8FFF76DFEBDE8104000F016
:103AD000C9B80246012000E05043491EFCD270479D
:103AE00010B50C4640F0B00000F0D0F8102040EACD
:103AF000141000F0CBF804F00F00BDE8104000F007
:103B0000C5B8000008B5082B0DD0062B0AD10A4B0A
:103B100002EB420203EB4202C03A00920823062263
:103B200000F00EF808BD054B03EB0212A2F500727F
:103B3000102300920822F3E780910008908B000880
:103B40002DE9FC4F1F4615460C4606467F284BD8EC
:103B50003F2C49D8FFF73AFE791ECA17002001EB27
:103B600052710122DFF884B004F0070902EBE10290
:103B700038E0002332E0F1187F2931D800EBD40A75
:103B8000BAF1070F30D80BEBCA1E1EF8017010FBFC
:103B900005FCCDF804C0DDF82C809844CDF80080F9
:103BA0001CF808C00CFA09FC47EA0C070EF8017073
:103BB0000AF10107072F0FD80EEB0108DDE900C15C
:103BC00098F8807011F80CC0C9F108012CFA01FCBA
:103BD00047EA0C0788F880705B1CDBB2AB42CAD3A3
:103BE000401CC0B28242C4DCBDE8FC8FCC02002085
:103BF0002DE9F04700241D4690468A4681460A2753
:103C0000089E14E0291B0A20491EFFF762FFB8FB3B
:103C1000F0F0B0FBF7F107FB110204FB0690C0B215
:103C2000334651463032FFF76DFF641CE4B2AC42BC
:103C3000E8D3BDE8F0872DE9F0411E4615468846D9
:103C40000746002408E014FB0670C0B23346414624
:103C5000FFF758FF641CE4B22A5D002AF3D1BDE8E7
:103C6000F081000070B5084D002400212046FFF7C8
:103C700037FF05EBC410802100F018F8641CE4B293
:103C8000082CF2D370BD0000CC0200201CB500212E
:103C900001918DF8050064200090022301AA78218B
:103CA0000148FDF787FA1CBD1C2A0020F8B506461E
:103CB0000C46481CFCF74CFB0546402028700020B1
:103CC00004E0315C2A18401C5170C0B2A042F8D305
:103CD00064200090631C2A4678210448FDF76AFAA4
:103CE0002846BDE8F840FCF762BB00001C2A002013
:103CF0001F48204D0479641C10E00122022128464F
:103D0000FDF789F9642002F041FC002202212846D7
:103D1000FDF781F9642002F039FC641E002CECD11F
:103D20004FF47A75284601F0D9FE134CC4E9060118
:103D3000284601F0D3FEC4E90801284601F0CEFE72
:103D4000C4E90A01012001F0C9FEC4E90E0142F2F2
:103D5000107001F0C3FEC4E90C0103F011FA07482A
:103D6000FEF70EF901F0ECFC012002F00FFCF9E780
:103D7000D00600200008024088000020982D002076
:103D8000F8B515460E460B46009204460122022164
:103D900000F02CF8A0B9134813490068B0FBF1F00B
:103DA0004FF47A71484300906068B0F5827F0DD17E
:103DB0003346002280212046009500F017F870B1AC
:103DC000606D40F0200060650320F8BD009830B1C0
:103DD000401E009020688068C0430006F6D5002091
:103DE000F8BD00006C00002000366E012DE9F8439C
:103DF0001E46914688460446089DFDF711F9401B72
:103E0000351AFDF70DF9074626480068C0F3CB3098
:103E100068430AE0701C09D0FDF702F9C01BA842F4
:103E20000FD275B10098B8B3401E00902068816829
:103E300038EA010033D000214945EBD10020BDE82C
:103E4000F8832068416821F0E00141606068B0F5C6
:103E5000827F0BD1A068B0F5004F02D0B0F5806F23
:103E600004D12068016821F040010160A06AB0F52A
:103E7000005F09D12068016821F4005101602068C9
:103E8000016841F400510160012084F851000020D4
:103E900084F850000320D2E7FFE70025C6E70121A0
:103EA000CAE700006C00002010B502F071F802F0C3
:103EB000ADF802F055F802F0C3F807490020401CA5
:103EC0008842FCDB61B602F0D3F8FFF7B1FCBDE835
:103ED000104002F003B8000080F0FA0210B5502044
:103EE00080F31188BFF34F8FBFF36F8F03F038FF5C
:103EF00018B104494FF080500860002080F3118809
:103F000010BD000004ED00E030B593B030216846EC
:103F1000FCF73FFB14210CA8FCF73BFB1E480025D7
:103F2000016841F080510160006800F080501190FC
:103F30001A48016841F4804101600068022400F4DD
:103F40008040119001200090000401908001CDE993
:103F50000640192008904FF4A870CDE90904042008
:103F60000B906846FDF7D2FB08B172B6FEE70CA9CC
:103F70000F2081E831004FF4A0500F904FF4805093
:103F8000109005210CA8FDF7B5FA002801D072B6F3
:103F9000FEE713B030BD0000403802400070004022
:103FA0000248016841F470010160704788ED00E04B
:103FB0000148FEF7D1B90000982D00200148FEF716
:103FC000CBB90000282E0020F0B50268274B284D01
:103FD000284E294F294C4FF0804C984209D060451B
:103FE00007D0A84205D0B04203D0B84201D0A042C9
:103FF00004D122F0700E4A6842EA0E0298421BD0A9
:10400000604519D0A84217D0B04215D0B84213D09D
:10401000A04211D01A4DA8420ED01A4DA8420BD082
:10402000194DA84208D0194DA84205D0184DA842F4
:1040300002D0184DA84203D122F44075CA682A4321
:104040004D6922F080022A438D68C5620D68856241
:10405000984201D0A04201D109690163016841F091
:1040600004010160012141610260F0BD00000140D6
:104070000004004000080040000C00400004014023
:104080000040014000440140004801400018004049
:10409000001C00400020004010B501F01F0301216A
:1040A000046A99408C430462016A9A401143016298
:1040B00010BD10B5846842EA032224F47F440A4309
:1040C0002243826010BD826822F070020A4342F0EF
:1040D0000701816070470000F0B5036A026A22F0B0
:1040E0000102026242688469124E24F073050C6872
:1040F0002C4323F002058B682B430D4DA84201D0C1
:10410000B04205D123F00807CB683B4323F00403FA
:10411000A84201D0B04205D14D6922F44072154346
:104120008A692A4342608461496841630362F0BD41
:104130000000014000040140F0B5026A036A23F068
:1041400010030362436884690D6824F4E64444EA7A
:1041500005248D6822F0200242EA05120F4D104E10
:10416000A84201D0B04206D1CF6822F0800242EAD4
:10417000071222F04002A84201D0B04207D14D6997
:1041800023F4406343EA85038D6943EA8503436072
:104190008461496881630262F0BD00000000014053
:1041A00000040140F0B5026A036A23F480730362DD
:1041B0004368C46922F4007224F073050C68124E3F
:1041C0002C438D6842EA05220E4DA84201D0B04230
:1041D00006D1CF6822F4006242EA072222F480620C
:1041E000A84201D0B04207D14D6923F4405343EABD
:1041F00005138D6943EA05134360C4614968C163CF
:104200000262F0BD000001400004014030B5046AC4
:10421000026A22F4805202624268C3690D6823F484
:10422000E64343EA05238D6824F4005444EA053448
:10423000084DA84202D0084DA84204D14D6922F48D
:10424000804242EA85124260C361496801640462A7
:1042500030BD0000000001400004014010B5036AB9
:10426000046A24F001040462846924F0F00444EA3E
:10427000021423F00A020A438461026210BD10B5E1
:10428000036A046A24F010040462846923F0A00322
:1042900024F4704444EA023243EA0111826101626B
:1042A00010BD000070B5044600680169E26821F4A1
:1042B0004051114301612169A068E26908436169C5
:1042C000114308432168CA6849F20C639A430243C8
:1042D000CA6020684169A26921F4407111434161BB
:1042E00031492068884202D03049884202D1FDF726
:1042F000CBF901E0FDF7B8F9E26900231921642543
:104300003226B2F5004F626828D0A0FB0101930F5E
:104310009200FCF773F80146B0FBF5F06FF018025D
:10432000504301EB800006EB0010B0FBF5F000F00D
:10433000F002B1FBF5F002EB0012B1FBF5F06FF00B
:104340001803584301EB800006EB0010B0FBF5F0BA
:1043500000F00F0021681044886070BDA0FB0101CF
:1043600092185B41FCF74AF80146B0FBF5F00201F8
:10437000B1FBF5F06FF01803584301EB800006EB3A
:10438000C000B0FBF5F000F0F80002EB4002B1FB1A
:10439000F5F0584301EB800006EBC000B0FBF5F0F0
:1043A00000F00700D6E700000010014000140140B3
:1043B00003220021012003F0C3FA064C4FF4FA65F2
:1043C00020602946206803F06FFB0128F9D101F035
:1043D000D3FAF6E788000020FEE700000448D0ED9D
:1043E000430A20EE800ABDEEC00A10EE100A7047A4
:1043F000D006002003B401984100009850EAC12083
:1044000018BF04204A0D18BF40F0010040F2FF72AF
:10441000B2EB515F08BF40F00200012808BF052041
:1044200002B070470907090E002804DB00F1E02004
:1044300080F80014704700F00F0000F1E02080F8D1
:10444000141D7047000000002DE9F0412DED020B16
:104450009FED3D0B2DED028B9FED3D8BDDE9025471
:10446000C4F30A50A0F2FF36142E37DA002E18DA01
:1044700053EC102B9DED020B51EC100B03F0F6FDED
:1044800053EC182B04F0C0F957D2002CBCBF4FF0EE
:104490000044002551DB54EA050018BF2E4C1BD107
:1044A0004BE02E4820FA06F704EA070028431FD005
:1044B00053EC102B9DED020B51EC100B03F0D6FDCD
:1044C00053EC182B04F0A0F937D2002C03DD4FF485
:1044D0008010F0400444BC4300252EE0332E07DC5E
:1044E000A6F114004FF0FF3121FA00F73D4206D14A
:1044F0009DED020BBDEC028B02B0BDE8F08153ECE8
:10450000102B9DED020B51EC100B04F0B3F953ECA2
:10451000182B04F079F910D2002C0DDD142E08BFF1
:10452000641C09D0C6F13400012101FA00F02844CE
:10453000A84238BF641C0546BD43CDE902549DED39
:10454000020BD7E7000000009C7500883CE4377E32
:1045500000000000000000000000F03FFFFF0F001F
:1045600010B52F499FED2C1B2DED020B84B0059843
:1045700020F000408842D8BF9DED040B2DDD294975
:10458000884209D1049840B94FF00100FCF783F844
:1045900000F0C2FC06B010BD05DB9DED040B00F081
:1045A000AFFC06B010BD68469DED040B00F0C0F8EE
:1045B00010F0030004BF9DED021B9DED000B0CD01D
:1045C00001280ED09DED021B9DED000B022817D097
:1045D000012000F0FDFB06B010BD00F0C5FA06B0EA
:1045E00010BD9DED021B9DED000B012000F0F0FBC6
:1045F00051EC100B03F0FCFC06B041EC100B10BDAD
:1046000000F0B2FA51EC100B03F0F2FC06B041ECF2
:10461000100B10BD000000000000000000000000B2
:10462000FB21E93F0000F07F10B52F499FED2C1BC7
:104630002DED020B84B0059820F000408842DCBFCD
:1046400000209DED040B32DD2849884209D10498F1
:1046500040B94FF00100FCF71EF800F05DFC06B019
:1046600010BD05DB9DED040B00F04AFC06B010BD4B
:1046700068469DED040B00F05BF810F0030011D0CC
:10468000012818D09DED021B9DED000B02281AD0C9
:1046900000F06AFA51EC100B03F0AAFC06B041ECF2
:1046A000100B10BD9DED021B9DED000B012000F0D5
:1046B0008FFB06B010BD9DED021B9DED000B00F0C1
:1046C00053FA06B010BD012000F082FB51EC100B34
:1046D00003F08EFC06B041EC100B10BD0000000092
:1046E0000000000000000000FB21E93F0000F07F17
:1046F00010B52DED028BB1EEC08A18EE100A20F035
:104700000040C0F1FF40C00F0AD010EE100A20F0A8
:104710000040C0F1FF40C00F04BF0120FBF7BBFF0A
:10472000B0EE480ABDEC028B10BD00000000000096
:104730002DE9F14F04462DED020B2DED088B8AB0CB
:104740009FEDE70B80ED020B139EE74826F0004536
:1047500085420ADC9DED120B002084ED000B0AB0AF
:10476000BDEC088B03B0BDE8F08FE0489FEDE0ABF7
:104770009FEDE1BBA84247DDE14F9FEDE39B9FED3D
:10478000E48B9DED120B53EC1A2B51EC100B002E09
:104790001CDD04F07BF841EC100BBD4208D053EC5B
:1047A0001B2B51EC100B04F071F8C4E900010BE075
:1047B00053EC192B51EC100B04F068F853EC182B48
:1047C00004F064F8C4E900010120C8E703F04EFCDE
:1047D00041EC100BBD4208D053EC1B2B51EC100BDD
:1047E00003F044FCC4E900010BE053EC192B51EC3D
:1047F000100B03F03BFC53EC182B03F037FCC4E91F
:1048000000014FF0FF30AAE7C348A84279DB9DEDD5
:10481000120B51EC100B01F0F3F841EC180B9FED6B
:10482000C00B53EC102B03F0F1FE9FEDBF1B53ECBC
:10483000112B03F01BFC03F025FE074603F07FFE5F
:1048400041EC190B53EC1A2B03F0E0FE53EC182B40
:1048500004F010F841EC180B53EC1B2B51EC190B26
:1048600003F0D4FEDFF8C8A241EC100B4FEA155854
:104870000125FA4453EC102B51EC180B04F006F808
:10488000032DC4E900013DD0C1F30A5005EB4511E9
:10489000A8EB00001139814234DA0AEB051BB0EEB7
:1048A00048AA9BED000BF0EE68AA53EC102B51ECDC
:1048B000190B03F0ABFE41EC1B0B51EC1A0B53EC44
:1048C0001B2B03F0E3FF41EC180B51EC1A0B53ECDC
:1048D000182B03F0DBFF53EC1B2B03F0D7FF9BEDF2
:1048E000020B41EC1A0B53EC102B51EC190B03F09B
:1048F0008DFE53EC1A2B03F0C9FF41EC100B6D1C1D
:10490000B8E70EE0002EA8BF3846BFF628AF94EDFA
:10491000000B51EC100B03F06BFBC4E90001784273
:104920001DE7C6F3130040F4801EC6F30A50A0F240
:10493000F530471100F01F05C5F12000DDF848B043
:1049400008900020069007900520EC467949002D3C
:1049500007EB0002794408BF51F8221009D051F842
:10496000223001EB8201AB404A68089922FA01F13A
:104970001943A1FB0E26A1FB0B131A449A4234BF24
:104980000123002303EB06080CEB8003D3E901A607
:104990000E448E4234BF0121002192448A4411B159
:1049A000924502D903E0924501D2012100E00021A5
:1049B000C3E901A641444CF82010011EA0F10100FA
:1049C000C4DC029800F10050850F0298DDE903670E
:1049D0008000DDF8148003F0B2FD41EC1A0B304684
:1049E00003F0C4FD9FED541B53EC112B03F00EFE9E
:1049F00041EC1B0B384603F0B9FD9FED511B53EC06
:104A0000112B03F003FE41EC180B404603F0AEFD02
:104A10009FED4D1B53EC112B03F0F8FD41EC190BEE
:104A200051EC180B53EC192B03F020FB53EC1B2B10
:104A300003F01CFB53EC1A2B03F018FBCDE9080123
:104A4000002008909DED080B53EC1A2B51EC100B35
:104A500003F01CFF53EC1B2B03F018FF53EC182B37
:104A600003F014FF53EC192B03F004FF9FED381BE8
:104A700053EC112B03F0CAFD9FED370B41EC180BE3
:104A800053EC102B9DED080B51EC100B03F0BEFD09
:104A900053EC182B03F0EAFA9FED310B41EC180BA5
:104AA00053EC102B9DED080B51EC100B03F0AEFDF9
:104AB00053EC182B03F0DAFA41EC100B139810F0BA
:104AC000004F06D06D4251EC100B03F091FA41EC0F
:104AD000100B284684ED000B41E6000000000000AA
:104AE0000000000000000000FB21E93F7CD90240EB
:104AF00000004054FB21F93F3163621A61B4D03D9C
:104B0000FB21F93F000000000000601A61B4D03DB5
:104B10007370032E8A19A33BFB213941000000006A
:104B200083C8C96D305FE43F000000000000E03F33
:104B3000024F0000504E0000000000000000103E38
:104B4000000000000000103C000000000000103ACF
:104B5000182D4454FB21F93D3326A611460B113C78
:104B600000000054FB21F93D10B52DED040B2DED97
:104B7000088B82B0B0EE419AF0EE619A0B9820F06B
:104B800000449FED4BABB4F1795F11DA9DED0A0B58
:104B900051EC100B03F076FC002801BFB0EE4A0A7E
:104BA000F0EE6A0A02B0BDEC088B04BF04B010BD81
:104BB0009DED0A0B53EC102B51EC100B03F026FD6E
:104BC00041EC180B3C480621B0EE480AF0EE680AAA
:104BD000784400F081F853EC182B51EC100B03F0E3
:104BE00015FD9DED0A0B41EC1B0B53EC192B51EC01
:104BF000100B03F00BFD41EC190B53EC1B2B51EC8C
:104C0000180B03F003FD53EC192B03F03FFE9FED4F
:104C10002C0B41EC190B53EC102B51EC180B03F03F
:104C2000F5FC41EC100B2848844210DA53EC192BA8
:104C300051EC100B03F02AFE53EC1A2B03F01AFE72
:104C400041EC100B02B0BDEC088B04B010BD1F4846
:104C5000A042BCBF9FED1E1B8DED001B06DBA4F523
:104C600000100190002000909DED001B51EC100BF6
:104C700053EC112B03F00AFE9DED000B41EC180BD9
:104C800053EC102B51EC1A0B03F000FE41EC1A0B05
:104C900053EC192B51EC180B03F0F8FD53EC1A2BC5
:104CA00003F0E8FD41EC100BCCE700000000000031
:104CB000000000000000F03F744B00000000000006
:104CC000000000000000E03F3333D33F0000E93F25
:104CD000000000000000D23F70B504462DED028BAD
:104CE0004D1E00EBC500B0EE408AF0EE608A90EDFC
:104CF000000B35F0060017D053EC182B51EC100BBD
:104D000003F084FC41EC100B6D1E04EBC50090ED2C
:104D1000001B51EC100B53EC112B03F0A7F941ECE5
:104D2000100B35F00600E7D1022D36D0042D1CD033
:104D3000062D1CBFBDEC028B70BD53EC182B51EC43
:104D4000100B03F063FC94ED0A1B53EC112B03F0E2
:104D50008DF953EC182B03F059FC94ED081B53EC20
:104D6000112B03F083F941EC100B53EC182B51EC91
:104D7000100B03F04BFC94ED061B53EC112B03F0CE
:104D800075F953EC182B03F041FC94ED040B53EC34
:104D9000102B03F06BF941EC100B53EC182B51EC7A
:104DA000100B03F033FC94ED021B53EC112B03F0BA
:104DB0005DF953EC182B03F029FC94ED001B53EC28
:104DC000112B03F053F9BDEC028B41EC100B70BDBD
:104DD00031B504462DED040B2DED0A8BB0EE41BA32
:104DE000F0EE61BA0B989DED0A0B20F00040B0F197
:104DF000795F0DDA51EC100BFFF7FCFA042808BFBD
:104E000000F09AF89DED0A0BBDEC0A8B05B030BDA1
:104E100053EC102B51EC100B03F0F8FB41EC180B8A
:104E20009DED0A0B53EC182B51EC100B03F0EEFB2D
:104E300041EC190B2C48B0EE480AF0EE680A052147
:104E40007844FFF749FF9FED2ACBB0EE40AAF0EE81
:104E500060AA9CB353EC1C2B51EC190B03F0D6FB4E
:104E600041EC1C0B53EC1A2B51EC190B03F0CEFB4D
:104E70009FED210B41EC190B53EC102B51EC1B0B4C
:104E800003F0C4FB53EC192B03F000FD53EC182B7B
:104E900003F0BCFB53EC1B2B03F0F8FC53EC1C2B76
:104EA00003F0F4FC9DED0A1B53EC112B03F0E2FC24
:104EB000BDEC0A8B05B041EC100B30BDFFE753ECA5
:104EC0001A2B51EC180B03F0A1FB53EC1C2B03F035
:104ED000CDF853EC192B03F099FB9DED0A1B53EC15
:104EE000112B03F0C3F8E3E7FC49000000000000C9
:104EF000495555555555C5BF000000000000E03F1D
:104F000010B553EC102B51EC100B03F0AFF841EC43
:104F1000100B10BD000000009FED050B10B553EC09
:104F2000102B51EC100B03F055F941EC100B10BD98
:104F300000000000000000009FED050B10B553ECD1
:104F4000102B51EC100B03F061FB41EC100B10BD6A
:104F5000000000000000001001EE100A9FED102A72
:104F60001248F8EEC11A46F2A811006881EE821AC2
:104F70009FED0C2AB0FBF1F0C0EE021A9FED0A0A79
:104F800001EE801A00EE100AB8EE400A20EE010A87
:104F900080EE201ABDEEC10A10EE100A7047000024
:104FA0000000BB430000CC419A99993F6C0000205F
:104FB00000B502460B4600F0C5FD801A994101D3A9
:104FC000012000BD002000BD10B504210948FDF7F7
:104FD000FFFB08480068016A41F21112114207D133
:104FE000016A9210114203D1016821F001010160B0
:104FF00010BD0000C02C002010B57F2802D8D0F1D1
:105000007F0000D1012009490A689063086801689F
:1050100041F00101016004210448FDF775FBBDE882
:10502000104000210148FDF7D3BB0000C02C002038
:105030000149002008607047780000202DE9F04702
:105040000C4605004FF000064FF0FF3248D0ACB3DD
:10505000724FDFF8CC9139463B7909684FF47A7A80
:105060004FF0010813B1072B75D128E0607800F0EC
:105070000F00814207D0A078B1EB101F03D000F0E1
:105080000F0081422CD1504600F028FDC9E90001F3
:1050900061783E6801F00F03A17800200A0901F051
:1050A0000F019E4201DD03B10120964201DD02B1F4
:1050B000401C8E424FDD71B3401C4CE010E00829CB
:1050C00011DD6378A1F1090C08FA0CFC03EA0C036A
:1050D0001B0705D0A378491E08FA01F0034202D14C
:1050E0001046BDE8F087504600F0F8FCC9E9000121
:1050F0003968002009290FDA4246491E09E0A378E1
:1051000002FA06FC13EA0C0F01D0401CC0B2761C58
:10511000F6B2B142F3DC1EE094F802C04FEA080296
:1051200002FA06F31CEA030F01D0401CC0B2761C41
:10513000F6B2082EF4D3002309390AE0667802FAA1
:1051400003FC06EA0C06360701D0401CC0B25B1C0B
:10515000DBB29942F2DC032101EB8001C9B23A686B
:105160002A60635CC3F301126A601B0600D55242D9
:105170006A60635C22189B09127DDE074FF07F0393
:1051800005D07F2A01D3EB6006E0EA6004E07F2AC5
:1051900001D3AB6000E0AA606218537803F07F0689
:1051A0002E61635C03F00C0306EB43132B6156780E
:1051B000360600D55B422B61937803F07F036B6169
:1051C000615C890703EBD151696193781B0600D5B7
:1051D00049426961D17801F07F03AB61E17C30B174
:1051E000012808D002280AD003280ED10BE001F0D4
:1051F000C000410009E001F03000C10005E001F00D
:105200000C00410101E08807C10D5818A861D17850
:10521000090600D54042A861002062E7D0060020C0
:10522000B00000202DE9F041064600EE106A314C36
:105230000D462DED028BB8EEC00AD4ED010A1746DB
:1052400070EE608A00EE105AD4ED020AB8EEC00A81
:1052500030EE608A28EEA80A08EE080AFFF748FA3E
:10526000DFED250A254930EE200A10EE100AC8EEBF
:10527000800A884288EE001A27DDB3EE040A60EE49
:10528000200A20EE018A94ED010A30EE200A10EE89
:10529000100A03F0E5FB41EC100BFFF7D5F851ECD9
:1052A000100B03F0EFF894ED020A064630EE080A00
:1052B00010EE100A03F0D4FB41EC100BFFF7C4F81A
:1052C00051EC100B03F0DEF805463A46294630460D
:1052D00000F07EF900EE106AB8EEC00A84ED010A13
:1052E00000EE105AB8EEC00A84ED020ABDEC028B43
:1052F000BDE8F081340000206F12833A0000A04125
:1053000005480029C0F8141105D090F818010128AB
:1053100001D101F05FBE7047D00600202DE9F05F9B
:10532000754C1920012520617448407800287DD1F2
:10533000DFF8CC81734EA8F1100998F803004FF004
:105340000007000707D498F80700000703D498F86F
:105350000B0000076BD537706B49694A00200B7949
:10536000577809689278B2464FF0FF3B13B1072B8C
:1053700056D11AE0624B07F00F06B1429B7803F05A
:105380000F0304D0B1EB121F01D0994224D11209AE
:10539000B14201DD06B10120914201DD02B1401CA4
:1053A00099423BDD1BB3401C38E0574B1B685E1E27
:1053B000093B08290BDD05FA03FC07EA0C0C5FEA40
:1053C0000C7C09D005FA06FC12EA0C0F2ED0092934
:1053D0004FF0000109DB0BE058461FE005FA01F32E
:1053E0001A4201D0401C00B2491C8E42F6DC15E086
:1053F00005FA01F6324201D0401C00B2491C0829CE
:10540000F6DB002108E000BF05FA01F23A4012077E
:1054100001D0401C00B2491C8B42F5DC411C67D016
:1054200008EB8000C078000762D501E024E024E0AA
:105430003348103801F0F6FE9AF80000012857D1E1
:1054400099F80010217599F80110617599F802100A
:10545000A17599F80310E17599F80410217699F86F
:1054600005006076244813211A30FBF770F8A16814
:1054700021488847254805703AE02148103801F056
:10548000BBF83078012833D1FF20207502206075E9
:1054900099F80210A17599F80310E17599F80410B4
:1054A000217699F80510617699F80610A17699F899
:1054B0000710E17699F808102177484699F8091005
:1054C0006177817AA177C17AE177017B84F8201036
:1054D000417B84F8211099F80E0084F82200C4F86A
:1054E0002370C4F82770A4F82B70A168024888477D
:1054F00006480570BDE8F09FB40100207000002050
:105500007801002014000020D00600204100002077
:1055100010B500F011FB00281AD00E4C204661682F
:105520008847002814DDFFF783FD04F114010A48C1
:105530002269FAF7DAFF0848217C417600F096F8F4
:1055400006490878FE2801D9002000E0401C0870B8
:1055500010BD0000B4010020780100207000002080
:1055600070B500252DED028B002801DA404201259F
:10557000134C002358B113499FED138B46F2A81228
:10558000096801280FD002280DD003280BD0A4F8F9
:10559000083100BFB4F808012946BDEC028BBDE814
:1055A000704001F071BCB1FBF2F002F0DFFF53EC90
:1055B000182B03F02BF802F095FFA4F80801E9E797
:1055C000D00600206C000020000000000000E03F3A
:1055D00000EE100A70B5F8EEC00A9FED200A224CCA
:1055E00000252DED048B80EE809A00EE901AF8EEE7
:1055F000E00AC0EE808A00EE102ADFED190AB8EE4C
:10560000C00A20EE200ADFED170A20EE208A00BF34
:1056100004EB850004EB851690ED4E0AD0ED520A9E
:1056200020EE090A00EEA80A30EE080A86ED0F0AFD
:1056300096ED0F0AFEF7D2FE30646D1C042DE7DBF9
:1056400071B6002004EB80110A6C4A63401C0428E8
:10565000F8DB61B6BDEC048B70BD00000000C842F1
:10566000CDCCCC3C0AD7A33DD006002070B5164C5B
:1056700006460D46606830B9304600F037FA607073
:1056800008B901206060FFF749FE61780F4809B949
:10569000017911B10079072814D11C210C48FAF7BF
:1056A00078FF2A4631460A48FFF7C8FC002807DA87
:1056B00007482038C169491CC1614FF0FF3070BDF7
:1056C000FBF72EF9002070BD70000020D0060020EE
:1056D0009801002010B500F0C1F971B600EE100A73
:1056E000DFED130A1349B8EE400A20EE200A81EDDF
:1056F0004C0A81F82C0161B600F0F4FD0E4910F05F
:10570000FF040BD00A78052A02D2521C0A700CE062
:1057100005200870FBF720F9204610BD0020087016
:10572000024602210548FBF776FC002010BD000070
:1057300033531540D00600204000002000080240EE
:105740002DE9F0417C4ED6E90001FFF731FC7B4C9E
:105750004FF47A7568B1284600F0C0F9C6E9000137
:10576000FFF7B8FF02281AD06068002801DD401E4C
:105770006060734ED6E90001FFF71AFC30B100F00B
:10578000E9F9284600F0AAF9C6E900016D4E307922
:1057900000284AD003284CD007287DD145E0616815
:1057A00041F28830491C61608142E2DB0020FFF752
:1057B000D7FE002211461046FFF70AFF00210846D7
:1057C00000F0CAF800210846FFF79AFD5E4C00225F
:1057D00002212046FBF71FFC012202212046FBF795
:1057E0001AFC00221F231146642001F061FB0022F5
:1057F0001F231146642001F05BFB642000F0C6FE0D
:10580000002202212046FBF706FC00231A46194617
:10581000184601F04DFB00231A461946184601F0C0
:1058200047FB284600F0B2FED6E7484800F092FE5B
:105830006EE0A0680122401CDFF814811702A0600E
:1058400039464046FBF7E7FB4FF4FA65284600F07F
:105850009DFE002239464046FBF7DDFB01F0EAFBE6
:105860000120FFF77DFE284600F090FE0020FFF7A4
:1058700077FE0021142000F06FF8284600F086FE25
:1058800014210020FFF73CFD284600F07FFEA068B1
:105890006FF06307012800E03DE002D002281BD032
:1058A00036E0002164220846FFF7BCFC284600F0E1
:1058B0006DFE002211461046FFF7B4FC00213A4667
:1058C0000846FFF7AFFC284600F060FE00221146B4
:1058D0001046FFF7A7FC1BE000213A460846FFF7F9
:1058E000A1FC284600F052FE002211461046FFF7A8
:1058F00099FC002164220846FFF794FC284600F03A
:1059000045FE002211461046FFF78CFC0020A060E7
:10591000307903280DD00F4CD4E90001FFF748FB84
:10592000002806D001F04AFD012000F0D7F8C4E9B4
:105930000001BDE8F0810000A00000204000002030
:10594000A8000020D0060020000802409801002096
:1059500000000240C000002006490028C1F81001E4
:1059600007D091F81811012903D10146002001F058
:1059700031BB7047D00600202DE9F0411E4888B0A9
:105980000078002834D003A801F09EFCDFF86C807A
:10599000002403AD6E4601AF08EB841055F82410C7
:1059A0004164B3EE000A083000F0FAFE002803DA82
:1059B00001213155404201E00021315527F8140002
:1059C000641CE4B2042CE7D39DF803309DF8022058
:1059D0009DF801109DF8000001F0C0FABDF80A30F2
:1059E000BDF80820BDF80610BDF8040001F0DEFA8D
:1059F00008B0BDE8F081000058000020D00600206B
:105A000082B0CDE9000121F0004001909DED000B36
:105A100002B051EC100B70471FB500200390092015
:105A20000090012001900220029069460A48FAF78E
:105A3000FFFF0948FBF756F90A210748FBF7FCF876
:105A40000548FBF79BF804460348FBF7C9F904B087
:105A5000C4F3071010BD0000D42900201FB500209A
:105A600003900820009001200190022002906946D6
:105A70000A48FAF7DDFF0948FBF734F90A2107481D
:105A8000FBF7DAF80548FBF779F804460348FBF71B
:105A9000A7F904B0C4F3071010BD0000D4290020FA
:105AA00010B504460020206101210B48FBF7AEFA37
:105AB00001280DD004F11400FDF722F9202809D99E
:105AC000D4F81401401CC4F814014FF0FF3010BD8D
:105AD000002010BD206110BD000C024000B5024640
