:020000040800F2
:10000000886C0020E90200085B2D000871220008BE
:10001000492D0008C9060008E93300080000000067
:10002000000000000000000000000000290200089D
:10003000CB0600080000000085020008E92E000839
:100040000303000803030008030300080303000878
:100050000303000803030008110700080303000856
:100060000303000803030008030300080303000858
:100070000303000803030008030300080303000848
:100080000303000803030008030300080303000838
:100090000303000803030008030300080303000828
:1000A0000303000803030008030300080303000818
:1000B0000303000803030008030300080303000808
:1000C00003030008030300080303000803030008F8
:1000D00003030008030300080303000803030008E8
:1000E000030300080303000803030008BD2F0008F2
:1000F00003030008C92F00080303000803030008D6
:10010000030300080303000803030008712D00081F
:1001100003030008030300080303000803030008A7
:100120000303000803030008030300080303000897
:100130000303000803030008030300080303000887
:100140000303000803030008030300080303000877
:100150000303000803030008030300080303000867
:100160000303000803030008030300080303000857
:100170000303000803030008030300080000000055
:10018000030300080303000800F002F800F03CF845
:100190000AA090E8000C82448344AAF10107DA45E2
:1001A00001D100F031F8AFF2090EBAE80F0013F0F8
:1001B000010F18BFFB1A43F001031847B068000095
:1001C000D0680000103A24BF78C878C1FAD8520726
:1001D00024BF30C830C144BF04680C6070470000C1
:1001E0000023002400250026103A28BF78C1FBD840
:1001F000520728BF30C148BF0B6070471FB506F0DB
:100200002CFB1FBD10B510BD00F096F91146FFF78D
:10021000F5FF04F038FA00F0B4F903B4FFF7F2FF89
:1002200003BC00F0B5F900002C4B19680868B0E871
:10023000F04F80F30988BFF36F8F4FF0000080F319
:10024000118870470000000008480068006880F3CB
:1002500008884FF0000080F3148862B661B6BFF3DF
:100260004F8FBFF36F8F00DF00BF00BF08ED00E0CE
:10027000DFF80C00016841F470010160704700BFB5
:1002800088ED00E0EFF30980BFF36F8F134B1A681E
:100290001EF0100F08BF20ED108A20E9F04F10600B
:1002A00009B44FF0500080F31188BFF34F8FBFF3B4
:1002B0006F8F05F0A7F94FF0000080F3118809BC9B
:1002C00019680868B0E8F04F1EF0100F08BFB0ECD6
:1002D000108A80F30988BFF36F8F704758000020A1
:1002E000EFF3058070470000094880470948004740
:1002F000FEE7FEE7FEE7FEE7FEE7FEE7FEE7FEE7D6
:10030000FEE7FEE704480549054A064B7047000032
:10031000AD2F00088901000888660020886C002045
:10032000886800208868002053EA020C00F0698089
:100330002DE9F04B4FF00006002B1FBFB3FA83F5F9
:1003400003FA05F424FA05F65E4012BF1643B2FA2A
:1003500082F502FA05F4C5F120051EBF22FA05FC5C
:1003600044EA0C04203556EA044C4FEA144418BF02
:10037000641C4FF000084FF00009904271EB030C31
:1003800039D3002919BFB1FA81F701FA07F6B0FA9B
:1003900080F700FA07F6C7F120071EBF20FA07FC16
:1003A00046EA0C062037B6FBF4FCA7EB0507103F26
:1003B00007F01F0BCBF120060CFA0BFB2CFA06F60C
:1003C00044BFB3460026202FA4BF5E464FF0000B6B
:1003D0005BEA060C08BF4FF0010B19EB0B09ABFBF6
:1003E000027C48EB0608C01B06FB02CC0BFB03CCCF
:1003F00071EB0C01C1E70B46024641464846BDE899
:10040000F08B13B54FF000004FF00001AFF3008008
:10041000BDE81C40704710B5203AC0F00B80B1E831
:100420001850203AA0E81850B1E81850A0E8185029
:10043000BFF4F5AF5FEA027C24BFB1E81850A0E832
:10044000185044BF18C918C0BDE810405FEA827C4C
:1004500024BF51F8043B40F8043B08BF7047D20763
:1004600028BF31F8023B48BF11F8012B28BF20F804
:10047000023B48BF00F8012B70474FF000020429EF
:10048000C0F0128010F0030C00F01B80CCF1040CC3
:10049000BCF1020F18BF00F8012BA8BF20F8022BF7
:1004A000A1EB0C0100F00DB85FEAC17C24BF00F89D
:1004B000012B00F8012B48BF00F8012B70474FF0CB
:1004C000000200B5134694469646203922BFA0E8A4
:1004D0000C50A0E80C50B1F12001BFF4F7AF0907B0
:1004E00028BFA0E80C5048BF0CC05DF804EB8900A1
:1004F00028BF40F8042B08BF704748BF20F8022BE4
:1005000011F0804F18BF00F8012B704770477047FB
:10051000704710B500F008F8006810BD10B504462B
:1005200000F002F8046010BD004870472466002007
:1005300000487047246600207546FFF7F9FFAE4675
:1005400005006946534620F00700854618B020B5DF
:10055000FFF7D8FEBDE820404FF000064FF000073F
:100560004FF000084FF0000B21F00701AC46ACE85B
:10057000C009ACE8C009ACE8C009ACE8C0098D46C8
:1005800070470446AFF300802046FFF746FE0000A8
:1005900001491820ABBEFEE72600020070470000AC
:1005A000464910B54A6822F440324A604A684368B6
:1005B0001A434A6001684A6822F480724A600168FE
:1005C0004A68036942EA03224A6001684A6822F0E5
:1005D00040724A6001684A6883681A434A60016849
:1005E0008A6822F400628A6001688A68C3681A43D4
:1005F0008A60816A6FF07062D14201688A6822F075
:1006000070628A6001688A680CD0836A1A438A60C3
:1006100001688A6822F040528A6001688A68C36A69
:100620001A4301E022F040528A6001688A6822F091
:1006300002028A6001688A68037E42EA43028A6095
:1006400090F82010002901684A680FD042F4006237
:100650004A6001684A6822F460424A6001684A6858
:10066000174C436A04EB43331A4301E022F400625F
:100670004A600168CA6A22F47002CA620168CA6AE2
:10068000838B104C04EB03531A43CA6201688A68D7
:1006900022F400728A6001688A6890F8303042EA79
:1006A00043228A6001688A6822F480628A60016855
:1006B0008A68406942EA8020886010BD00230140BA
:1006C00000E0FFFF0000F0FFFEE7704770B50B4D44
:1006D000002401220221284600F07BFA642004F065
:1006E000CAFF00220221284600F073FA642004F0B9
:1006F000C2FF641C052CECDB70BD0000000802404A
:10070000012004F061F8FBE7012004F05DF8FBE74D
:10071000012000F055B972B6FEE7000078B500245C
:10072000009490F83C20012A19D0012280F83C2046
:100730000A6807230568092A13D9EE680A3A02EB0A
:10074000420293409E43EE600B788A680A3B03EBBB
:1007500043039A400368DD682A43DA6010E0022010
:1007600078BD2E6902EB420293409E432E610B78C6
:100770008A6803EB43039A4003681D692A431A61A0
:100780004A681F23072A13D205686E6B521E02EBBC
:10079000820293409E436E630B790A885B1E92B27D
:1007A00003EB83039A4003685D6B2A435A6327E097
:1007B00005680D2A12D22E6BD21F02EB82029340E3
:1007C0009E432E630B790A88DB1F92B203EB8303EF
:1007D0009A4003681D6B2A431A6311E0EE6A0D3AD2
:1007E00002EB820293409E43EE620B790A880D3B36
:1007F00092B203EB83039A400368DD6A2A43DA620C
:10080000164B0568144A9D4206D10D68122D03D17E
:10081000556845F48005556005689D4218D10B6800
:10082000102B01D0112B13D1536843F400035360F4
:10083000096810290CD10A490A4A0968B1FBF2F18A
:1008400001EB8101490000E0491E00910029FBD124
:1008500080F83C40002078BD00230140002001408A
:100860002400002040420F0070B504004FF0000546
:1008700003D0206C002610B107E0012070BD204697
:1008800000F01CF8666484F83C60206CC00610D44C
:10089000206C20F4885040F0020020642046FFF7CE
:1008A0007FFE6664206C20F0020040F001002064AE
:1008B00000E0012584F83C60284670BD10B586B084
:1008C000044614216846FFF7FAFD11492068884262
:1008D0001BD110480021026842F480720260006857
:1008E00000F4807005900B481438026842F0020250
:1008F0000260006800F00200059003200090CDE93E
:1009000001016946044800F067F806B010BD000018
:1009100000200140443802400004024090F83C109E
:1009200001290CD0012180F83C1001688A6822F06E
:1009300001028A6001688968C90702D007E00220C5
:100940007047016C21F4885141F0010101640021DC
:1009500080F83C100846704790F83510022903D003
:100960008021416501207047052180F8351000681D
:10097000016821F0010101600020704770B5054653
:1009800000F02CF90B4E04463068201A14280ED9BA
:10099000012D0BD10121084800F016F90146074846
:1009A000012905D05FF0010180F81811346070BD95
:1009B0000021F9E72C00002000080240E801002097
:1009C000044910B50A68024202D00860FFF7D6FF5A
:1009D00010BD0000143C01402DE9F84FDFF8BCA128
:1009E0000022012503264FF00F090AF1040BAAF19A
:1009F000040E00BF0B6805FA02F42340A34270D135
:100A00000F7907F00307012F01D0022F16D1876855
:100A10004FEA420806FA08FC27EA0C07D1F80CC096
:100A20000CFA08FC4CEA070CC0F808C04768A7435A
:100A30000C79C4F3001494403C4344600C79E443C3
:100A4000A4070AD0C4684FEA420C06FA0CF7BC436C
:100A50008F6807FA0CF72743C7600C7904F003048A
:100A6000022C12D1D40800EB840CDCF8204057078C
:100A7000FF0E09FA07F824EA0804D1F8108008FAF2
:100A800007F848EA0408CCF8208004684FEA420CD2
:100A900006FA0CF7BC430F7907F0030707FA0CF7C7
:100AA000274307604C6814F4403F70D03C4C2768E3
:100AB00047F480472760246822F0030704F4804449
:100AC0000094384C07EB040CDCF8084897074FEA11
:100AD000177809FA08F7BC43334FB84202D1002710
:100AE00024E054E0314FB84201D101271EE0304FDD
:100AF000B84201D1022719E02E4FB84201D1032795
:100B000014E02D4FB84201D104270FE02B4FB8421B
:100B100001D105270AE02A4FB84201D1062705E096
:100B2000284FB84201D1072700E0082707FA08F745
:100B30002743CCF80878DAF800405746D1F804C0CB
:100B40009C435FEACC2C00D51C433C60DBF80040A2
:100B50005F46D1F804C09C435FEA8C2C00D51C434F
:100B60003C60DEF800407746D1F804C09C435FEA61
:100B70008C3C00D51C433C60084F083F3C68D1F8D2
:100B800004C09C435FEACC3C00D51C433C60521C33
:100B9000102AFFF42FAFBDE8F88F0000083C014099
:100BA000443802400030014000000240000402408E
:100BB00000080240000C02400010024000140240F5
:100BC00000180240001C02400069084000D00120CB
:100BD00070470AB1816170470904FBE701488068EA
:100BE000704700004C0000200B4810B5016841F42C
:100BF00000710160016841F480610160016841F4A5
:100C000080710160032000F09FF8052000F006F8D5
:100C100000F050F8002010BD003C024030B5054601
:100C20001F4887B00024016841F4807101600068AA
:100C300006A900F48070009001A800F031F9049832
:100C4000A8B100F04DF940001649174AB0FBF1F188
:100C50001648491E026040F2E732C0E90324C0E9A9
:100C60000114846100F030FE040003D015E000F0B0
:100C700037F9E9E70D4800F0ABFE04000DD12D2057
:100C800000F034F8102D07D2002229462D2000F064
:100C90003BF80748056000E0012407B0204630BD5E
:100CA0004038024040420F0000200040EC28002065
:100CB000500000200C4882B0016841F4804101607E
:100CC000006800F4804000900748001F016841F070
:100CD000805101600068002200F0805000900F21D8
:100CE000901E02B000F010B844380240002809DB22
:100CF00000F01F02012191404009800000F1E02036
:100D0000C0F8001170470000F0B40E4B1B680C4691
:100D1000C3F30223C3F10705042D00D90425191DCF
:100D2000072901D2002300E0DB1E012606FA05F1A7
:100D3000491E214099409E40761E16403143F0BC2A
:100D400002F06BBB0CED00E0064900F007020868FA
:100D50004FF6FF03184040EA0220034A10430860A0
:100D6000704700000CED00E00000FA052DE9F047A7
:100D70000E46050065D0DFF81481D8F80000F7B200
:100D800000F00700B04207D288F80070D8F80000E1
:100D900000F00700B04254D128683D4C810712D5BD
:100DA000400703D5206840F4E05020602878000711
:100DB00003D5206840F4604020602068A96820F0D6
:100DC000F000084320602878C0072DD030496868BB
:100DD0000839012812D0022813D0032811D009683D
:100DE000890700292DDA216821F0030101432160E0
:100DF000FFF7F4FE814641F2883A0EE00968890364
:100E0000EFE709688901ECE7FFF7E8FEA0EB0901CD
:100E1000514502D90320BDE8F0872068696800F0D9
:100E20000C00B0EB810FEFD1D8F80010404601F074
:100E30000701B14207D90770006800F00700B0420F
:100E400001D00120E7E72878400705D52068E96848
:100E500020F4E050084320602878000706D5206879
:100E6000296920F4604040EAC100206000F058F891
:100E70002168084AC1F30311515CC8400649086063
:100E800006480068FFF7CAFE0020C4E7003C0240A5
:100E9000083802409068000824000020500000201C
:100EA0000F2202600C4A136803F0030343601368C7
:100EB00003F0F0038360136803F4E053C360126827
:100EC0004FF4E05303EAD20202610448006800F0E4
:100ED000070008607047000008380240003C0240EC
:100EE0000448054900680968044AC1F38221515C3D
:100EF000C84070472400002008380240A06800085D
:100F00000448054900680968044AC1F34231515C4C
:100F1000C84070472400002008380240A06800083C
:100F2000154810B5006810F00C02144813D014498D
:100F3000042A0FD0082A0ED10F4C241F22682368E0
:100F400002F03F025B0207D52068C0F38810A0FBC7
:100F5000010106E0084610BD2168C1F38811A1FB1C
:100F600000010023FFF7E0F92168C1F30141491CAA
:100F70004900B0FBF1F010BD083802400024F40035
:100F800040787D012DE9F84F04006ED02078DFF81D
:100F90004C93C007A9F104054AD009F10400016887
:100FA000C1F38101012908D00068C0F38100022843
:100FB0000AD1D9F80000400206D52868800337D549
:100FC00060680028E1D033E06068B0F5803F10D061
:100FD000B0F5A02F286810D020F480302860286851
:100FE00020F4802028606068A8B1FFF7F7FD06466E
:100FF0000DE0286840F48030F4E740F48020286059
:10100000F7E700BFFFF7EAFD801B642873D8286864
:101010008003F7D50CE0FFF7E1FD064605E000BFD1
:10102000FFF7DCFD801B6428F0D828688003F7D424
:101030002078DFF8AC8280074FF0000A3ED5A74841
:10104000001D016811F00C0F08D00068C0F381008A
:1010500002280BD1D9F80000400207D42868800785
:1010600016D5E068012800D112E033E1E068B8B19C
:101070000120C8F80000FFF7B1FD064605E000BFFB
:10108000FFF7ACFD801B0228C0D828688007F7D581
:101090002868216920F0F80040EAC10028600DE0CE
:1010A000C8F800A0FFF79AFD064604E0FFF796FD9A
:1010B000801B02281FD828688007F7D420780007F3
:1010C00022D5864F87486169703771B1012101606F
:1010D000FFF784FD064604E0FFF780FD801B022831
:1010E00009D838688007F7D50EE0C0F800A0FFF7F0
:1010F00075FD064605E082E0FFF770FD801B0228C3
:101100007DD838688007F7D42078400768D5DFF8A5
:10111000CCB100270BF13C0BDBF80000C0000BD476
:10112000DBF8001041F08051CBF80010DBF8000034
:10113000012700F0805000906B4E3068C00510D43D
:10114000306840F480703060FFF748FD009005E0A3
:10115000FFF744FD0099401A022850D83068C005B6
:10116000F6D55E4EA0686C3601280FD00528306891
:1011700010D020F001003060306820F004003060B2
:10118000A068B8B1FFF72AFD00900FE0306840F08A
:101190000100F4E740F004003060F7E7FFF71EFDC0
:1011A0000099411A41F28830814266D83068800740
:1011B000F4D50EE0FFF712FD009007E0FFF70EFDFB
:1011C0000099411A41F28830814256D83068800730
:1011D000F4D42FB1DBF8001021F08051CBF80010CF
:1011E000A069C8B33D49091D0968C1F381010229FD
:1011F0004AD00228504607D0C8F8600000E03CE022
:10120000FFF7ECFC04463BE04746C8F86000FFF7F8
:10121000E5FC064605E000BFFFF7E0FC801B022866
:101220002BD828688001F7D4D4E907010843A16AC4
:101230002E4A490802EB0141626A41EA82110843E1
:1012400094F82C1040EA0161C9F8001001203866BA
:10125000FFF7C4FC044606E03EE000BFFFF7BEFC1B
:10126000001B022809D828688001F7D534E000BFA8
:10127000FFF7B4FC001B022802D90320BDE8F88F59
:1012800028688001F4D427E00128F7D0D9F80000BD
:10129000E26900F4800191421CD1226A00F03F0112
:1012A000914217D147F6C071626A0140B1EB821FCB
:1012B00010D1A26A4FF0FF3300F4403103EB520229
:1012C000B1EB024F06D194F82C1000F07060B0EB37
:1012D000016F01D00120D1E70020CFE704380240A0
:1012E00000004742800E4742007000400000FFFFB0
:1012F0007047000038B5016804464A688868C043F2
:10130000430606D5C30704D1D3435B0601D4216C41
:1013100005E0830708D4D3431B0605D4616C01B0F4
:101320002046BDE830400847830603D5430601D573
:10133000C30551D4D3439B064ED443060AD494F834
:101340005130032B49D0636D43F004036365CB68D0
:101350008B680093830609D4636D43F001036365D2
:101360008B6800930B6823F040030B60C00506D424
:10137000606D40F008006065206880680090606DD6
:10138000002829D02068416821F0E0014160012057
:1013900084F85100900701D4D00722D0206841681A
:1013A00021F003014160114DE06C40B10565E06C36
:1013B000FFF7D2FA18B1606D40F040006065A06C94
:1013C000002809D00565A06CFFF7C6FA002803D0F5
:1013D000606D40F04000606538BDC8688868009066
:1013E00038BD2046FFF784FF38BD00007D2D000882
:1013F00070B5040008D0606A002538B125616561C8
:1014000094F8510040B10CE0012070BD6068B0F567
:10141000827FF5D0E561F3E784F85050204600F074
:101420004DF8022084F851002068016821F0400145
:101430000160A088218900F4827001F4044108430E
:10144000A18901F400610843217C01F002010843F5
:10145000217D01F001010843218B01F40071084353
:10146000217F01F03801084394F8201001F0800139
:101470000843218D01F40051084321680860A069E8
:10148000042101EA104094F8241001F010010843EF
:1014900021684860A06AB0F5005F03D1A08D216883
:1014A00080B208612068C16921F40061C16165658D
:1014B000012084F85100002070BD000010B586B0F6
:1014C000044614216846FEF7FAFF1849206888424E
:1014D00029D117480021026842F4004202600068E6
:1014E00000F40040059012481038026842F00402EF
:1014F0000260006800F0040005904FF4E050009096
:101500000220CDE9010103200390062004906946E2
:101510000848FFF761FA002205213320FFF7F4FBAA
:101520003320FFF7E3FB06B010BD0000003C004095
:1015300040380240000802402DE9FF4F81B04FF0D3
:1015400000091D46904604460E9E4FF0010BCDF853
:101550000090FFF743FB074694F8510061680128AB
:1015600006D0B1F5827F4AD1A168E9BB042846D1F3
:10157000029800287ED0B8F1000FFBD0002DF9D0E2
:1015800094F8500001283AD04FF0010A84F850A096
:1015900094F85100042802D0052084F85100C4F8C2
:1015A0005490C4F83880E587A58702992163E586C1
:1015B000A586C4F84090C4F84490A06A4FF400583F
:1015C000404509D12068016821F40051016020687C
:1015D000016841F40051016020680168490605D4A2
:1015E000016841F0400100E009E00160E068B0F509
:1015F000006F606807D0F0B3012D5DD0ABE0022032
:1016000005B0BDE8F08F08B1012D4ED1206B2168E7
:101610000088C860206B801C2063E08E401EE0863E
:10162000E08E48BBA06A40453FD12068016841F484
:101630008051016039E020688168890719D5E18E01
:10164000B9B1BBF1010F14D1216B0988C160206BC6
:10165000801C2063E08E401EE086E08E4FF0000B81
:1016600038B9A06A404504D12068016841F480512E
:10167000016002E0B1E01FE017E020688168C9075F
:101680000CD0E18F51B1C068A16B0880A06B801CA9
:10169000A063E08F401EE0874FF0010BFFF79EFA3A
:1016A000C01BB04201D3701C6AD1E08E0028C2D1A9
:1016B000E08F0028BFD154E0206B216800780873C8
:1016C000206B401C2063E08E401EE086E08EE8BB6D
:1016D000A06A40453FD12068016841F48051016013
:1016E00039E020688168890719D5E18EB9B1BBF16D
:1016F000010F14D1216B09780173206B401C20630A
:10170000E08E401EE086E08E4FF0000B38B9A06AF4
:10171000404504D12068016841F48051016020688F
:101720008168C9070CD0E18F51B1C068A16B087006
:10173000A06B401CA063E08F401EE0874FF0010BC0
:10174000FFF74CFAC01BB04204D300E003E0701C6A
:1017500001D015E0A6B1E08E0028C2D1E08F0028AC
:10176000BFD1A06A404514D101223346114620461C
:10177000009701F041FB48B1606D40F002006065E8
:1017800084F851A084F85090032039E72068C0689D
:10179000009020688168C90607D5616D41F002019B
:1017A00061654FF6EF71816007E03A4631462046A9
:1017B00001F0ECFA20B12020606584F850900CE034
:1017C000A06818B92068C1688068009084F851A0AA
:1017D00084F85090606D0028D7D0012010E7704742
:1017E000704710B590F83C20012A22D0012280F8E1
:1017F0003C20CA688C6822F4407222434C6822F470
:10180000806222430C6822F4006222430C6922F4B5
:10181000805222434C6922F400522243C9690023BA
:1018200022F480420A4301684A6480F83C30002078
:1018300010BD022010BD000070B590F83C20012AB8
:1018400032D0012480F83C40022280F83D20036819
:101850005A689D6822F070060A6832435A60134B3A
:1018600002689A4214D0B2F1804F11D0104B9A42C4
:101870000ED0104B9A420BD00F4B9A4208D00F4B10
:101880009A4205D00E4B9A4202D00E4B9A4204D196
:10189000496825F080031943916080F83D4000219C
:1018A00080F83C10084670BD022070BD0000014069
:1018B0000004004000080040000C0040000401400B
:1018C000004001400018004010B5040003D094F817
:1018D0003D0010B107E0012010BD002084F83C005D
:1018E000204600F01FF8022084F83D00211D2068EA
:1018F00001F070FB012084F8460084F83E0084F873
:101900003F0084F8400084F8410084F8420084F8E5
:10191000430084F8440084F8450084F83D0000202A
:1019200010BD000008B5026822482349824207D151
:10193000086840F010000860086800F0100009E036
:101940001E48824208D1086840F0200008600868FC
:1019500000F02000009008BD1748194B001D9A4266
:1019600007D1016841F480310160006800F48030E3
:10197000F0E7144B9A4207D1016841F4003101604D
:10198000006800F40030E5E70F4B9A4207D1016888
:1019900041F480210160006800F48020DAE70B4800
:1019A0008242D8D1086840F040000860086800F022
:1019B0004000CFE7001000404038024000140040D3
:1019C0000040014000440140004801400018004030
:1019D00090F83D10012901D001207047022180F8C4
:1019E0003D100168CA6842F00102CA6000681149EE
:1019F000884214D0B0F1804F11D00F4988420ED0E8
:101A00000E4988420BD00E49884208D00D498842C1
:101A100005D00D49884202D00C49884204D1816822
:101A200001F00701062903D0016841F001010160BE
:101A30000020704700000140000400400008004002
:101A4000000C00400004014000400140001800402C
:101A500070B5044690F83C000025012817D00126F7
:101A600084F83C60022084F83D002068826822F0FF
:101A7000770222F47F4282600868502838D00DDC5B
:101A800020284FD005DC90B3102811D14AE0022065
:101A900070BD302846D040280AD13BE060282FD0C6
:101AA00070280DD0B0F5805F03D0B0F5005F12D084
:101AB000012584F83D60002084F83C00284670BD74
:101AC000CB68D1E90121206801F0F9FA206881682A
:101AD00041F0770109E0CB68D1E90121206801F0EC
:101AE000EEFA2068816841F480418160E1E719E005
:101AF000CA684968206801F0B7FB5021206806E0F9
:101B0000CA684968206801F0C0FB6021206801F0C4
:101B1000E0FACEE7CA684968206801F0A5FB4021D9
:101B20002068F4E7226801461046F0E72DE9F0410D
:101B30000D46040003D094F83D0018B108E00120E0
:101B4000BDE8F081002084F83C00204600F040F819
:101B5000022084F83D002068816844F20702914326
:101B60008160211D206801F035FA22689068916932
:101B7000166A2B68AF69034340F20330814341EAA0
:101B80000721A868EF6908434FF6FC418843E968DC
:101B900040EA0720014328692F6A000140EA073024
:101BA000084369686D6926F0AA0646EA05152943C7
:101BB00093602268906154F8460B0162012004F89A
:101BC0001F09E0752076E0762077A0750020B7E742
:101BD000F0B587B0044614216846FEF770FC48490A
:101BE00023680024464810390225464A464EB3F180
:101BF000804F1FD0DFF814C1C027634547D1036869
:101C000043F002030360006800F0020005900868DA
:101C100040F00100086008680097CDE9015400F029
:101C20000100CDE90450694603941046FEF7D4FE46
:101C300007B0F0BD036843F001030360006800F0E3
:101C400001000590086840F001000860086800F095
:101C500001000590086840F002000860086801274C
:101C600000F0020005904FF400400090CDE90154CF
:101C7000CDE9034769461046FEF7AEFE0820009006
:101C8000CDE90154CDE9034769463046CEE7DFF898
:101C900080C0634517D1026842F004020260006808
:101CA00000F004000590086840F002000860086831
:101CB0000097CDE9015400F00200CDE904506946D7
:101CC00003943046B2E7134EB342B1D1036843F0F8
:101CD00008030360006800F008000590086840F001
:101CE000010008600868694600F0010005900320C3
:101CF0000090CDE901541046CDE9034596E7000078
:101D0000403802400000024000040240000400404D
:101D100000080040000C004070472DE9F0410446E7
:101D20000068C66805694FF00007A90713D5B10719
:101D300011D5F91E01610120207720688069800794
:101D4000204602D0FFF7E8FF04E000F0E9F8204663
:101D500000F0BAF92777680716D5700714D52168FF
:101D60006FF004000861022020772068806910F479
:101D7000407F204602D0FFF7CFFF04E000F0D0F80C
:101D8000204600F0A1F92777280715D5300713D58D
:101D900021686FF008000861042020772068C0697E
:101DA0008007204602D0FFF7B7FF04E000F0B8F844
:101DB000204600F089F92777E80616D5F00614D5F5
:101DC00021686FF010000861082020772068C06942
:101DD00010F4407F204602D0FFF79EFF04E000F0A1
:101DE0009FF8204600F070F92777E80708D0F00741
:101DF00006D021686FF001000861204600F0A4F9C8
:101E0000280608D5300606D521686FF080000861E5
:101E10002046FFF7E4FC680608D5700606D5216861
:101E20006FF040000861204600F0B8F9A8060AD516
:101E3000B00608D521686FF0200008612046BDE893
:101E4000F041FFF7CDBCBDE8F081000070B586B071
:101E5000044614216846FEF732FB24682848002215
:101E600028490223844212D1086840F0100008601B
:101E70000868694600F0100005904FF4D4400090C7
:101E8000CDE901320120CDE903201F4812E01F48AF
:101E90000325844212D1086840F0010008600868F8
:101EA000694600F0010005900C200090CDE9013258
:101EB000174821E0FEF790FD06B070BD154E16489C
:101EC000B44209D10C6844F002040C60096801F0C6
:101ED0000201059181150BE0104EB442ECD10C6863
:101EE00044F002040C60096801F0020105917115CB
:101EF0000091CDE901326946CDE90325DAE700001A
:101F00000000014030380240001002400040014013
:101F1000000002400044014000040240004801402B
:101F2000704770B50D46040003D094F83D0010B121
:101F300007E0012070BD002084F83C00204600F03E
:101F40001BF8022084F83D00211D206801F042F8B2
:101F50002068016821F00801016054F8460B01680F
:101F600029430160012004F81F09E0752076E0761E
:101F70002077A075002070BD704770B5044690F8BA
:101F80003C0000260D4601280FD0012084F83C00BB
:101F90006AB1042A1DD0082A2FD00C2A3FD001266E
:101FA000002084F83C00304670BD022070BD2068DF
:101FB00001F098F82068816941F00801816120688A
:101FC000816921F004018161206881692A691143D6
:101FD00011E0206801F0B6F82068816941F40061E1
:101FE00081612068816921F4806181612068816953
:101FF0002A6941EA02218161D2E7206801F0D8F81C
:102000002068C16941F00801C1612068C16921F0FF
:102010000401C1612068C1692A69114311E0206887
:1020200001F0FAF82068C16941F40061C1612068DB
:10203000C16921F48061C1612068C1692A6941EAEE
:102040000221C161ACE710B5040003D094F83D0053
:1020500010B107E0012010BD002084F83C002046AC
:1020600000F01EF8022084F83D00211D206800F0D9
:10207000B1FF012084F8460084F83E0084F83F0058
:1020800084F8400084F8410084F8420084F843005A
:1020900084F8440084F8450084F83D00002010BD19
:1020A00008B500680649884208D10648016841F031
:1020B00001010160006800F00100009008BD00000F
:1020C00000000140443802407047000030B504462B
:1020D0000D460068002200F0E5FF194B41F2111196
:1020E00020688A10984202D0164B984209D1036AA0
:1020F0000B4206D1036A134203D1436C23F400431D
:1021000043642068036A0B4206D1016A114203D17D
:10211000016821F00101016001203DB1042D08D0CA
:10212000082D09D084F84100002030BD84F83E001D
:10213000FAE784F83F00F7E784F84000F4E700008E
:10214000000001400004014010B500680F498842BA
:1021500018D10F4C6068401C6060B0F57A7F11D3D5
:102160000C4804F10801006803F088FBA06838B14E
:1021700009494FF080500860BFF34F8FBFF36F8F56
:1021800000206060BDE8104002F052B80018004026
:102190002C0000203800002004ED00E0704770B5EE
:1021A000040004D094F84100002510B106E001209D
:1021B00070BD84F84050204600F024F8242084F8B4
:1021C00041002068C16821F40051C160204601F03F
:1021D0006FF82068016921F490410161206841692C
:1021E00021F02A0141612068C16841F40051C160B9
:1021F0006564202084F8410084F842006563002073
:1022000070BD000010B586B0044614216846FEF784
:1022100056F914492068884221D1134800210268E8
:1022200042F010020260006800F0100005900E48B5
:102230001438026842F001020260006800F00100F8
:1022400005904FF4C06000900220CDE90101032009
:1022500003900720049069460448FEF7BDFB06B0D2
:1022600010BD000000100140443802400000024050
:10227000FEE7000070B500F0700400F087F80B4D29
:102280000646002202212846FEF7A3FC272002F082
:1022900089FA44EA060002F085FA01220221284662
:1022A000FEF797FCBDE8704000F070B8000C0240EB
:1022B00010B5084C002202212046FEF78AFCE220DD
:1022C00002F070FA20460122BDE810400221FEF71C
:1022D00080BC0000000C024010B5084C0022022116
:1022E0002046FEF776FCE12002F05CFA204601224F
:1022F000BDE810400221FEF76CBC0000000C02405B
:102300002DE9F041064600F055F80546202804D98D
:10231000FFF7CEFF2120BDE8F08155B10E4F00221E
:1023200002213846FEF755FC612002F03BFA0024FA
:1023300007E00020EFE7FF2002F034FA3055641C7C
:10234000E4B2AC42F7D3012202213846FEF741FC49
:10235000FFF7AEFF2846DEE7000C024070B50A4DDD
:102360000446002202212846FEF733FC204602F0F4
:1023700019FAFF2002F016FA04460122022128462B
:10238000FEF727FC204670BD000C024070B5084DDA
:10239000002202212846FEF71CFC072002F002FA68
:1023A0000446012202212846FEF713FC204670BD98
:1023B000000C024070B50A4D002202212846FEF7AB
:1023C00008FC602002F0EEF9FF2002F0EBF9044671
:1023D000012202212846FEF7FCFB204670BD0000CA
:1023E000000C0240052A00D90522052800D9052045
:1023F0000A30C0B200F01CB810B504460020FFF748
:10240000ADFF014614B1012C03D004E020F001011E
:1024100001E040F00101BDE81040002000F02AB8C2
:10242000052900D905210A4601461020AFF3008096
:102430002DE9F0410E4F15460E46044600220221BA
:102440003846FEF7C6FB44F0200002F0ABF900244A
:1024500004E0305D02F0A6F9641CE4B2AC42F8D3AB
:102460003846BDE8F04101220221FEF7B2BB000070
:10247000000C024070B50B4D0E46044600220221AE
:102480002846FEF7A6FB44F0200002F08BF9304608
:1024900002F088F92846BDE8704001220221FEF7CB
:1024A00098BB0000000C024070B50C460546202980
:1024B00018D8002C16D00C4E002202213046FEF710
:1024C00088FBB02002E000BF15F8010B02F06AF9AA
:1024D000641EE4B2F8D23046BDE870400122022109
:1024E000FEF777BB70BD0000000C02401FB5174817
:1024F000FEF714FA00211548009101910291144A47
:10250000039102604FF48032C0E90121016101763C
:1025100080F820100F4AC0E90A210124C461C1607B
:1025200080F830104161FEF79FF908B1FEF7F3F82B
:102530000820CDE900040220029069460348FEF716
:10254000EDF8002801D0FEF7E6F81FBDEC240020CE
:10255000002001400100000F10B59CB01C2216495C
:102560006846FDF758FF0021684602F039F9134C20
:1025700011491C2260601C3107A8FDF74CFF0021A7
:1025800007A802F02DF90C49A0601C2238310EA8D2
:10259000FDF741FF00210EA802F022F90649E06094
:1025A0001C22543115A8FDF736FF002115A802F0B2
:1025B00017F920611CB010BDA86800083800002081
:1025C0002DE9F04F87B014216846FDF778FF5A488F
:1025D0000024016841F010010160016801F0100160
:1025E0000591016841F004010160016801F00401F6
:1025F0000591016841F080010160016801F08001EE
:102600000591016841F001010160016801F00101DB
:102610000591016841F002010160016801F00201C9
:102620000591016841F0080101600068DFF80CA124
:1026300000F0080040F2FF55059000222946504660
:10264000FEF7C7FADFF8F8B04FF4C9770022394631
:102650005846FEF7BEFA4FF49078002241463948BA
:10266000FEF7B7FA00224FF442613748FEF7B1FA9D
:1026700040F20649002249463448FEF7AAFA00957E
:10268000022601250396CDE9015469465046FEF71E
:10269000A3F94FF46240CDE900046946584602941C
:1026A000FEF79AF94FF444100095CDE9010469460C
:1026B0005846FEF791F900970396CDE90154694613
:1026C0005846FEF789F9CDF800800396CDE901540C
:1026D00069461C48FEF780F94FF44060009001AA5B
:1026E000112082E8510069461748FEF775F9CDF8C8
:1026F00000900396CDE9015469461448FEF76CF941
:10270000CDE90054694611480295FEF765F920208D
:10271000CDE90005CDE9024669460B48FEF75CF9B4
:10272000002205210620FEF7EFFA0620FEF7DEFA6A
:1027300007B0BDE8F08F00003038024000100240C2
:10274000000802400000024000040240000C024069
:10275000104810B50E4901604FF4827141600021AC
:102760008160C1604FF400720161C0E9051210225E
:10277000C0E907214162510281620721C162FEF76F
:1027800037FE002803D0BDE81040FDF7C4BF10BDE0
:10279000003C00403425002030B587B01C2168463D
:1027A000FDF78DFE1D4C1C480025C4E9000541F2D3
:1027B0004410C4E9025025612046A561FFF784F862
:1027C00008B1FDF7A8FF1548FFF73DFC08B1FDF77C
:1027D000A2FF602000904FF45D70CDE9010500225A
:1027E00069460E480495FFF7C8FB08B1FDF793FF53
:1027F0002068016A41F21112114207D1016A921058
:10280000114203D1016821F0010101600348FFF783
:102810001DFB07B030BD000000440140CC27002064
:1028200030B587B01C216846FDF749FE184D1748A2
:102830000024C5E9000441F63F20C5E902402C61AF
:102840002846AC61FFF740F808B1FDF764FF104877
:10285000FFF7F9FB08B1FDF75EFF6020CDE900044A
:10286000022002900022694604940948FFF785FB84
:1028700008B1FDF750FF2868816921F008018161E6
:102880000348FFF7E3FA07B030BD000000480140FD
:10289000142800201FB500211148009101910291D8
:1028A0000E4A039102605322C0E901214FF47A726B
:1028B000C0E9032180218161FFF706F808B1FDF727
:1028C0002AFF4FF48050009069460548FFF7C0F892
:1028D000002801D0FDF71FFF1FBD000000180040B9
:1028E0005C28002030B591B000240F941C2168466C
:1028F0001094FDF7E4FD202107A8FDF7E0FD374D1A
:102900003548C5E9000441F63F20C5E90240802072
:102910002C61C5E905402846FFF795FB08B1FDF796
:10292000FAFE0F940FA92D481094FEF785FF08B109
:10293000FDF7F1FE6020CDE900040220CDE902049C
:10294000049405940022694624480694FFF715FB79
:1029500008B1FDF7E0FE042269462048FFF70DFBB1
:1029600008B1FDF7D8FE082269461C48FFF705FBB1
:1029700008B1FDF7D0FE0C2269461848FFF7FDFAB2
:1029800008B1FDF7C8FE0794089409944FF400506D
:102990000A94CDE90B4007A910480E94FEF721FFD9
:1029A00008B1FDF7B8FE2868016A41F21112114220
:1029B00007D1016A9210114203D1016821F001018F
:1029C00001602868416C41F4004141640348FFF70D
:1029D0003DFA11B030BD0000000001408C25002000
:1029E00010B58CB024216846FDF769FD0024164817
:1029F00009944FF080410A94C0E900144FF6FF712A
:102A0000C0E902418021046181610320009002201D
:102A100001900120CDE902040494CDE9054007941A
:102A2000694609480894FFF781F808B1FDF773FE7D
:102A3000099409A904480A94FEF7FEFE002801D073
:102A4000FDF769FE0CB010BDD425002010B58CB088
:102A500024216846FDF733FD0024174809941549E1
:102A60000A94C0E900144FF6FF71C0E902418021C9
:102A70000461816103200090022001900120CDE9D2
:102A800002040494CDE90540079469460A48089475
:102A9000FFF74CF808B1FDF73EFE099409A9064876
:102AA0000A94FEF7C9FE002801D0FDF734FE0CB0F1
:102AB00010BD0000000400401C26002010B58CB0A2
:102AC00024216846FDF7FBFC0024174809941549AA
:102AD0000A94C0E900144FF6FF71C0E90241802159
:102AE0000461816103200090022001900120CDE962
:102AF00002040494CDE90540079469460A48089405
:102B0000FFF714F808B1FDF706FE099409A9064875
:102B10000A94FEF791FE002801D0FDF7FCFD0CB0F1
:102B200010BD0000000800406426002010B58CB0E5
:102B300024216846FDF7C3FC002417480994154971
:102B40000A94C0E900144FF6FF71C0E902418021E8
:102B50000461816103200090022001900120CDE9F1
:102B600002040494CDE90540079469460A48089494
:102B7000FEF7DCFF08B1FDF7CEFD099409A9064870
:102B80000A94FEF759FE002801D0FDF7C4FD0CB0F1
:102B900010BD0000000C0040AC2600207CB50024D5
:102BA00013480094114D0194C0E900544FF6FF7191
:102BB000C0E902418461FEF787FE08B1FDF7ABFD75
:102BC00008210B48FFF7ADF908B1FDF7A4FD00940B
:102BD000694607480194FEF72FFE08B1FDF79BFDFB
:102BE000012068616C622C617CBD00000010004017
:102BF000F42600201CB500241648009414490194C2
:102C000001601421C0E901144FF6FF718461C160B5
:102C1000FEF75AFE08B1FDF77EFD08210D48FFF7CB
:102C200080F908B1FDF777FD0094694609480194E1
:102C3000FEF702FE08B1FDF76EFD054901201431D3
:102C40000860034824300460081F04601CBD0000B5
:102C5000001400403C27002010B58CB000240794DD
:102C6000089409941C2168460A94FDF728FC27481B
:102C70002549016040F61F51C0E9011440F27B2153
:102C8000C0E903148461FEF71FFE08B1FDF743FDA0
:102C90004FF48050079007A91C48FEF7D9FE08B1F1
:102CA000FDF739FD1948FFF7CEF908B1FDF733FDFF
:102CB00008211648FFF735F908B1FDF72CFD702003
:102CC00000900120019002200290002269460494A5
:102CD0000E48FFF752F908B1FDF71DFD04226946C1
:102CE0000A480294FFF749F908B1FDF714FD0021E5
:102CF0000648FFF7EBF904210448FFF7E7F903481A
:102D0000FFF7A4F80CB010BD00400140842700205C
:102D10000C4810B50A4901604FF4E13141600021CF
:102D200081600C22C160C0E904128161C161FFF7BA
:102D300036FA002803D0BDE81040FDF7ECBC10BD0A
:102D400000100140A4280020FEE7C0EB0010800026
:102D5000C11700EB115000137047FEE70348FEF760
:102D600037FE012001F030FDFBE700005C28002069
:102D70000148FEF7BFBA00003425002010B5806B73
:102D80000021C187C186FEF7B3FA10BDF8B515461C
:102D90000E460B46009204460122022100F02CF858
:102DA000A0B9134813490068B0FBF1F04FF47A71F1
:102DB000484300906068B0F5827F0DD13346002211
:102DC00080212046009500F017F870B1606D40F04A
:102DD000200060650320F8BD009830B1401E0090CF
:102DE00020688068C0430006F6D50020F8BD0000CA
:102DF0002400002000366E012DE9F8431E4691465E
:102E000088460446089DFDF7E9FE401B351AFDF78C
:102E1000E5FE074626480068C0F3CB3068430AE069
:102E2000701C09D0FDF7DAFEC01BA8420FD275B1A5
:102E30000098B8B3401E00902068816838EA01000D
:102E400033D000214945EBD10020BDE8F88320684C
:102E5000416821F0E00141606068B0F5827F0BD1EC
:102E6000A068B0F5004F02D0B0F5806F04D12068A3
:102E7000016821F040010160A06AB0F5005F09D14E
:102E80002068016821F4005101602068016841F464
:102E900000510160012084F85100002084F85000A6
:102EA0000320D2E7FFE70025C6E70121CAE70000BB
:102EB0002400002010B501F01FFA01F05DFA01F0C6
:102EC00003FA01F057FA01F071FA06490020401C9C
:102ED0008842FCDB61B601F081FABDE8104001F0E8
:102EE000B1B9000080F0FA0210B5502080F31188CB
:102EF000BFF34F8FBFF36F8F02F06AFE18B1044922
:102F00004FF080500860002080F3118810BD000051
:102F100004ED00E030B593B030216846FDF7CFFAFC
:102F200014210CA8FDF7CBFA1E480025016841F0DA
:102F300080510160006800F0805011901A480168CB
:102F400041F4804101600068022400F48040119047
:102F500001200090000401908001CDE90640192075
:102F600008904FF4A870CDE9090404200B9068463E
:102F7000FEF708F808B172B6FEE70CA90F2081E849
:102F800031004FF4A0500F904FF480501090052165
:102F90000CA8FDF7EBFE002801D072B6FEE713B0D7
:102FA00030BD000040380240007000400248016817
:102FB00041F470010160704788ED00E00148FEF7C0
:102FC000ACBE00005C2800200148FEF7A6BE000051
:102FD000EC280020F0B50268274B284D284E294FD9
:102FE000294C4FF0804C984209D0604507D0A84248
:102FF00005D0B04203D0B84201D0A04204D122F0A3
:10300000700E4A6842EA0E0298421BD0604519D001
:10301000A84217D0B04215D0B84213D0A04211D068
:103020001A4DA8420ED01A4DA8420BD0194DA842F5
:1030300008D0194DA84205D0184DA84202D0184D0D
:10304000A84203D122F44075CA682A434D6922F090
:1030500080022A438D68C5620D688562984201D05E
:10306000A04201D109690163016841F004010160D6
:10307000012141610260F0BD0000014000040040F8
:1030800000080040000C00400004014000400140E6
:10309000004401400048014000180040001C00406E
:1030A0000020004010B501F01F030121046A99407F
:1030B0008C430462016A9A401143016210BD10B54D
:1030C000846842EA032224F47F440A432243826054
:1030D00010BD826822F070020A4342F0070181604D
:1030E00070470000F0B5036A026A22F00102026232
:1030F00042688469124E24F073050C682C4323F057
:1031000002058B682B430D4DA84201D0B04205D17A
:1031100023F00807CB683B4323F00403A84201D007
:10312000B04205D14D6922F4407215438A692A43A1
:1031300042608461496841630362F0BD0000014060
:1031400000040140F0B5026A036A23F01003036231
:10315000436884690D6824F4E64444EA05248D68D4
:1031600022F0200242EA05120F4D104EA84201D073
:10317000B04206D1CF6822F0800242EA071222F064
:103180004002A84201D0B04207D14D6923F4406308
:1031900043EA85038D6943EA850343608461496896
:1031A00081630262F0BD00000000014000040140A4
:1031B000F0B5026A036A23F4807303624368C4694A
:1031C00022F4007224F073050C68124E2C438D68B3
:1031D00042EA05220E4DA84201D0B04206D1CF6886
:1031E00022F4006242EA072222F48062A84201D05F
:1031F000B04207D14D6923F4405343EA05138D696A
:1032000043EA05134360C4614968C1630262F0BDCB
:10321000000001400004014030B5046A026A22F453
:10322000805202624268C3690D6823F4E64343EAB0
:1032300005238D6824F4005444EA0534084DA8425F
:1032400002D0084DA84204D14D6922F4804242EADE
:1032500085124260C36149680164046230BD0000A8
:10326000000001400004014010B5036A046A24F024
:1032700001040462846924F0F00444EA021423F097
:103280000A020A438461026210BD10B5036A046A2F
:1032900024F010040462846923F0A00324F4704431
:1032A00044EA023243EA01118261016210BD00006A
:1032B00070B5044600680169E26821F44051114389
:1032C00001612169A068E26908436169114308430B
:1032D0002168CA6849F20C639A430243CA602068B5
:1032E0004169A26921F4407111434161314920686B
:1032F000884202D03049884202D1FDF701FE01E048
:10330000FDF7EEFDE2690023192164253226B2F5AE
:10331000004F626828D0A0FB0101930F9200FDF7D7
:1033200003F80146B0FBF5F06FF01802504301EBD3
:10333000800006EB0010B0FBF5F000F0F002B1FBEE
:10334000F5F002EB0012B1FBF5F06FF018035843F3
:1033500001EB800006EB0010B0FBF5F000F00F0071
:1033600021681044886070BDA0FB010192185B4188
:10337000FCF7DAFF0146B0FBF5F00201B1FBF5F016
:103380006FF01803584301EB800006EBC000B0FB60
:10339000F5F000F0F80002EB4002B1FBF5F0584305
:1033A00001EB800006EBC000B0FBF5F000F0070079
:1033B000D6E7000000100140001401400322002164
:1033C000012002F0F5F9074C4FF4FA652060294618
:1033D000206802F0A1FA0128F9D100F051FDFDF7B3
:1033E00075F9F4E738000020FEE703B401984100C6
:1033F000009850EAC12018BF04204A0D18BF40F0C1
:10340000010040F2FF72B2EB515F08BF40F00200D2
:10341000012808BF052002B070470907090E0028DF
:1034200004DB00F1E02080F80014704700F00F008A
:1034300000F1E02080F8141D70470000000000003B
:1034400010B52F499FED2C1B2DED020B84B0059874
:1034500020F000408842D8BF9DED040B2DDD2949A6
:10346000884209D1049840B94FF00100FDF756F8A1
:1034700000F0A2FC06B010BD05DB9DED040B00F0D2
:103480008FFC06B010BD68469DED040B00F0A0F85F
:1034900010F0030004BF9DED021B9DED000B0CD04E
:1034A00001280ED09DED021B9DED000B022817D0C8
:1034B000012000F0DDFB06B010BD00F0A5FA06B05B
:1034C00010BD9DED021B9DED000B012000F0D0FB17
:1034D00051EC100B02F0C4FC06B041EC100B10BD17
:1034E00000F092FA51EC100B02F0BAFC06B041EC7D
:1034F000100B10BD000000000000000000000000E4
:10350000FB21E93F0000F07F10B52F499FED2C1BF8
:103510002DED020B84B0059820F000408842DCBFFE
:1035200000209DED040B32DD2849884209D1049822
:1035300040B94FF00100FCF7F1FF00F03DFC06B090
:1035400010BD05DB9DED040B00F02AFC06B010BD9C
:1035500068469DED040B00F03BF810F0030011D01D
:10356000012818D09DED021B9DED000B02281AD0FA
:1035700000F04AFA51EC100B02F072FC06B041EC7C
:10358000100B10BD9DED021B9DED000B012000F006
:103590006FFB06B010BD9DED021B9DED000B00F012
:1035A00033FA06B010BD012000F062FB51EC100BA5
:1035B00002F056FC06B041EC100B10BD00000000FC
:1035C0000000000000000000FB21E93F0000F07F48
:1035D0002DE9F14F04462DED020B2DED088B8AB03D
:1035E0009FEDE70B80ED020B139EE74826F00045A8
:1035F00085420ADC9DED120B002084ED000B0AB021
:10360000BDEC088B03B0BDE8F08FE0489FEDE0AB68
:103610009FEDE1BBA84247DDE14F9FEDE39B9FEDAE
:10362000E48B9DED120B53EC1A2B51EC100B002E7A
:103630001CDD02F0B7FF41EC100BBD4208D053EC8B
:103640001B2B51EC100B02F0ADFFC4E900010BE0A5
:1036500053EC192B51EC100B02F0A4FF53EC182B78
:1036600002F0A0FFC4E900010120C8E702F036FC27
:1036700041EC100BBD4208D053EC1B2B51EC100B4E
:1036800002F02CFCC4E900010BE053EC192B51ECC7
:10369000100B02F023FC53EC182B02F01FFCC4E9C2
:1036A00000014FF0FF30AAE7C348A84279DB9DED47
:1036B000120B51EC100B00F027FC41EC180B9FEDA6
:1036C000C00B53EC102B02F063FE9FEDBF1B53ECBD
:1036D000112B02F003FC02F001FE074602F02DFE62
:1036E00041EC190B53EC1A2B02F052FE53EC182B41
:1036F00002F04CFF41EC180B53EC1B2B51EC190B57
:1037000002F046FEDFF8C8A241EC100B4FEA155854
:103710000125FA4453EC102B51EC180B02F042FF38
:10372000032DC4E900013DD0C1F30A5005EB45115A
:10373000A8EB00001139814234DA0AEB051BB0EE28
:1037400048AA9BED000BF0EE68AA53EC102B51EC4D
:10375000190B02F01DFE41EC1B0B51EC1A0B53EC44
:103760001B2B02F01FFF41EC180B51EC1A0B53EC12
:10377000182B02F017FF53EC1B2B02F013FF9BEDED
:10378000020B41EC1A0B53EC102B51EC190B02F00D
:10379000FFFD53EC1A2B02F005FF41EC100B6D1CE2
:1037A000B8E70EE0002EA8BF3846BFF628AF94ED6C
:1037B000000B51EC100B02F053FBC4E900017842FE
:1037C0001DE7C6F3130040F4801EC6F30A50A0F2B2
:1037D000F530471100F01F05C5F12000DDF848B0B5
:1037E00008900020069007900520EC467949002DAE
:1037F00007EB0002794408BF51F8221009D051F8B4
:10380000223001EB8201AB404A68089922FA01F1AB
:103810001943A1FB0E26A1FB0B131A449A4234BF95
:103820000123002303EB06080CEB8003D3E901A678
:103830000E448E4234BF0121002192448A4411B1CA
:10384000924502D903E0924501D2012100E0002116
:10385000C3E901A641444CF82010011EA0F101006B
:10386000C4DC029800F10050850F0298DDE903677F
:103870008000DDF8148002F060FD41EC1A0B304648
:1038800002F072FD9FED541B53EC112B02F080FDF2
:1038900041EC1B0B384602F067FD9FED511B53ECCA
:1038A000112B02F075FD41EC180B404602F05CFD57
:1038B0009FED4D1B53EC112B02F06AFD41EC190BEF
:1038C00051EC180B53EC192B02F008FB53EC1B2B9B
:1038D00002F004FB53EC1A2B02F000FBCDE90801C7
:1038E000002008909DED080B53EC1A2B51EC100BA7
:1038F00002F058FE53EC1B2B02F054FE53EC182B35
:1039000002F050FE53EC192B02F040FE9FED381BE5
:1039100053EC112B02F03CFD9FED370B41EC180BE3
:1039200053EC102B9DED080B51EC100B02F030FD09
:1039300053EC182B02F0D2FA9FED310B41EC180B2F
:1039400053EC102B9DED080B51EC100B02F020FDF9
:1039500053EC182B02F0C2FA41EC100B139810F044
:10396000004F06D06D4251EC100B02F079FA41EC99
:10397000100B284684ED000B41E60000000000001B
:103980000000000000000000FB21E93F7CD902405C
:1039900000004054FB21F93F3163621A61B4D03D0D
:1039A000FB21F93F000000000000601A61B4D03D27
:1039B0007370032E8A19A33BFB21394100000000DC
:1039C00083C8C96D305FE43F000000000000E03FA5
:1039D0003232000080310000000000000000103E84
:1039E000000000000000103C000000000000103A41
:1039F000182D4454FB21F93D3326A611460B113CEA
:103A000000000054FB21F93D10B52DED040B2DED08
:103A1000088B82B0B0EE419AF0EE619A0B9820F0DC
:103A200000449FED4BABB4F1795F11DA9DED0A0BC9
:103A300051EC100B02F052FC002801BFB0EE4A0A14
:103A4000F0EE6A0A02B0BDEC088B04BF04B010BDF2
:103A50009DED0A0B53EC102B51EC100B02F098FC6F
:103A600041EC180B3C480621B0EE480AF0EE680A1B
:103A7000784400F081F853EC182B51EC100B02F055
:103A800087FC9DED0A0B41EC1B0B53EC192B51EC01
:103A9000100B02F07DFC41EC190B53EC1B2B51EC8D
:103AA000180B02F075FC53EC192B02F07BFD9FED17
:103AB0002C0B41EC190B53EC102B51EC180B02F0B2
:103AC00067FC41EC100B2848844210DA53EC192BA8
:103AD00051EC100B02F066FD53EC1A2B02F056FD70
:103AE00041EC100B02B0BDEC088B04B010BD1F48B8
:103AF000A042BCBF9FED1E1B8DED001B06DBA4F595
:103B000000100190002000909DED001B51EC100B67
:103B100053EC112B02F046FD9DED000B41EC180B10
:103B200053EC102B51EC1A0B02F03CFD41EC1A0B3C
:103B300053EC192B51EC180B02F034FD53EC1A2BFB
:103B400002F024FD41EC100BCCE700000000000067
:103B5000000000000000F03FA42E00000000000064
:103B6000000000000000E03F3333D33F0000E93F96
:103B7000000000000000D23F70B504462DED028B1E
:103B80004D1E00EBC500B0EE408AF0EE608A90ED6D
:103B9000000B35F0060017D053EC182B51EC100B2E
:103BA00002F0F6FB41EC100B6D1E04EBC50090ED2E
:103BB000001B51EC100B53EC112B02F08FF941EC70
:103BC000100B35F00600E7D1022D36D0042D1CD0A5
:103BD000062D1CBFBDEC028B70BD53EC182B51ECB5
:103BE000100B02F0D5FB94ED0A1B53EC112B02F0E5
:103BF00075F953EC182B02F0CBFB94ED081B53EC3A
:103C0000112B02F06BF941EC100B53EC182B51EC1B
:103C1000100B02F0BDFB94ED061B53EC112B02F0D0
:103C20005DF953EC182B02F0B3FB94ED040B53EC4D
:103C3000102B02F053F941EC100B53EC182B51EC04
:103C4000100B02F0A5FB94ED021B53EC112B02F0BC
:103C500045F953EC182B02F09BFB94ED001B53EC41
:103C6000112B02F03BF9BDEC028B41EC100B70BD47
:103C700031B504462DED040B2DED0A8BB0EE41BAA3
:103C8000F0EE61BA0B989DED0A0B20F00040B0F108
:103C9000795F0DDA51EC100BFFF7A7FB042808BF82
:103CA00000F09AF89DED0A0BBDEC0A8B05B030BD13
:103CB00053EC102B51EC100B02F06AFB41EC180B8B
:103CC0009DED0A0B53EC182B51EC100B02F060FB2E
:103CD00041EC190B2C48B0EE480AF0EE680A0521B9
:103CE0007844FFF749FF9FED2ACBB0EE40AAF0EEF3
:103CF00060AA9CB353EC1C2B51EC190B02F048FB4F
:103D000041EC1C0B53EC1A2B51EC190B02F040FB4D
:103D10009FED210B41EC190B53EC102B51EC1B0BBD
:103D200002F036FB53EC192B02F03CFC53EC182B41
:103D300002F02EFB53EC1B2B02F034FC53EC1C2B3B
:103D400002F030FC9DED0A1B53EC112B02F01EFC1F
:103D5000BDEC0A8B05B041EC100B30BDFFE753EC16
:103D60001A2B51EC180B02F013FB53EC1C2B02F036
:103D7000B5F853EC192B02F00BFB9DED0A1B53EC2D
:103D8000112B02F0ABF8E3E72C2D0000000000003F
:103D9000495555555555C5BF000000000000E03F8E
:103DA00010B553EC102B51EC100B02F097F841ECCE
:103DB000100B10BD000000009FED050B10B553EC7B
:103DC000102B51EC100B02F031F941EC100B10BD2F
:103DD00000000000000000009FED050B10B553EC43
:103DE000102B51EC100B02F0D3FA41EC100B10BD6C
:103DF000000000000000001001EE100A9FED102AE4
:103E00001248F8EEC11A46F2A811006881EE821A33
:103E10009FED0C2AB0FBF1F0C0EE021A9FED0A0AEA
:103E200001EE801A00EE100AB8EE400A20EE010AF8
:103E300080EE201ABDEEC10A10EE100A7047000095
:103E40000000BB430000CC419A99993F2400002018
:103E500010B504210948FEF739F908480068016ADD
:103E600041F21112114207D1016A9210114203D19D
:103E7000016821F00101016010BD000084270020CD
:103E80002DE9F0411E4888B00078002834D003A8FE
:103E900001F072F9DFF86C80002403AD6E4601AFCB
:103EA00008EB841055F824104164B3EE000A083082
:103EB00000F0F2FC002803DA01213155404201E014
:103EC0000021315527F81400641CE4B2042CE7D318
:103ED0009DF803309DF802209DF801109DF8000028
:103EE00001F072F8BDF80A30BDF80820BDF80610E0
:103EF000BDF8040001F090F808B0BDE8F0810000C2
:103F000010000020E801002082B0CDE9000121F07E
:103F1000004001909DED000B02B051EC100B70477A
:103F200010B50446002020610A480068C00701D08F
:103F3000002010BD04F11400FEF7E2F9202807D993
:103F4000D4F81401401CC4F814014FF0FF3010BD28
:103F5000206110BD100C024000210A46435C491C40
:103F60001A44C9B2D2B22029F8D390F820001044E4
:103F7000C0B270472DE9F04116460F4604460025B1
:103F800071B600F00DF9A02000F0D6F8380A00F064
:103F9000D3F8F8B200F0D0F800F002F9A12000F058
:103FA000CBF8761E08E000BF00F084F820700020F7
:103FB00000F05CF8641C6D1CB542F5D300F07AF893
:103FC0002070012000F052F800F012F961B6BDE84F
:103FD000F0812DE9F04716000D46074643D071B633
:103FE00005F01F00C0F12004B44200D9F4B24FF034
:103FF00000092AE0387800F09FF87F1C641EE4B2C4
:10400000F8D200F0F5F800240A2001F034FB641C1B
:10401000E4B200F0C5F8A02000F08EF8804600F071
:10402000E7F8B8F1000F01D10A2CEDD30A2C19D012
:10403000D14405EB0A0085B2B14513D2A6EB0900C5
:10404000202801D9202400E0C4B2A24600F0A8F83C
:10405000A02000F071F8280A00F06EF8E8B200F035
:104060006BF8CBE761B6BDE8F087000070B5104C87
:104070004FF40061C8B101222046FCF7AAFD0A20D6
:1040800001F004FB0122950229462046FCF7A1FD20
:104090000A2001F0FBFA002229462046FCF799FD90
:1040A000BDE870400A2001F0F1BA0022E4E7000008
:1040B000000402402DE9F0410825002471B60122D8
:1040C0001C4ED1023046FCF784FDDFF868803715BE
:1040D00008F110081EE00A2001F0D8FA0022394643
:1040E0003046FCF776FD0A2001F0D0FA012239466D
:1040F0003046FCF76EFD0A2001F0C8FA6006040E97
:10410000D8F8000010F4006F01D044F001040A2038
:1041100001F0BCFA6D1EEDB2DDD200223946304608
:10412000FCF757FD0A2001F0B1FA61B62046BDE860
:10413000F0810000000402402DE9F041054671B60F
:104140000024164F4FF400685FEA275605FA04F082
:10415000000601D5012200E0002241463846FCF766
:1041600038FD0A2001F092FA012231463846FCF768
:1041700030FD0A2001F08AFA002231463846FCF769
:1041800028FD641CE4B2082CE0D30A2001F07EFA7A
:1041900000F030FA61B6BDE8F08100000004024092
:1041A00070B50122114DD40221462846FCF711FDBD
:1041B0000A2001F06BFA0122960231462846FCF7EC
:1041C00008FD0A2001F062FA002221462846FCF789
:1041D00000FD0A2001F05AFA002231462846FCF779
:1041E000F8FCBDE870400A2001F050BA000402401B
:1041F00070B50E4D4FF40064002221462846FCF7AE
:10420000E8FC0A2001F042FA012291022846FCF75C
:10421000E0FC0A2001F03AFA012221462846FCF788
:10422000D8FCBDE870400A2001F030BA000402401A
:1042300003480178002902D04178491C4170704739
:10424000000000200B4810B54FF48071C1600A4A8D
:10425000426000210161094A8260094A0260C0F897
:10426000141100F049FA00F065FF00F0E3FE0020B1
:1042700010BD0000D0000020213F0008294F000899
:10428000F946000810B504462221FCF7F6F8002094
:1042900020706070A070E07020716071A071E0719A
:1042A00020726072A072E072032121731221617387
:1042B0007F21A173E0735A2084F820002046FFF785
:1042C0004BFE84F8210010BD10B5094C01221102EB
:1042D0002046FCF77EFC002221152046FCF779FCE5
:1042E00004480068016841F00101016010BD000050
:1042F000001002401428002070B51A4E4FF480744C
:10430000002221463046FCF764FC174D0022A10034
:104310002846FCF75EFC012220213046FCF759FCC0
:10432000002220211148FCF754FC114E00220221EA
:104330003046FCF74EFC002221463046FCF749FC93
:10434000002280213046FCF744FC0022042128464C
:10435000FCF73FFC2846BDE8704001220421FCF731
:1043600038BC000000000240000C02400004024083
:1043700000080240FFF73CBF012310B51A4619465A
:10438000184600F0F9FD00231A461946184600F0B9
:104390001BFE00231A461946184600F03DFE02494E
:1043A0000020087010BD00001000002010B5094C5E
:1043B000002204212046FCF70CFC012202212046A9
:1043C000FCF707FC04480068016841F04001016007
:1043D00010BD0000000C024034250020F0B57848E4
:1043E0002DED048B97B01EC88DE81E000FC805ACDC
:1043F00084E80F000CA800F027F972489DF83C10E3
:1044000041609DF83D1081609DF83E107F2900D9E4
:104410007F21C16004AA0BA90AA800F00DFD42F299
:10442000B0016948FCF74BF8674C9DF82C00206000
:104430009DF8280060719DF8100000F007002071C1
:104440008DF810009FED618AB0EE481ADFED608AAA
:10445000F0EE680A9FED5F9A04F10800B0EE490A99
:1044600000F0E8F9B0EE481AF0EE680AB0EE490A3A
:1044700004F1480000F0DEF9B0EE481AF0EE680AE8
:10448000B0EE490A04F1880000F0D4F9B0EE481A01
:10449000F0EE680AB0EE490A04F1C80000F0CAF96B
:1044A0000020A4F808019FED4C0A054684ED430A5C
:1044B0006E469FED4A8ADFED4A8A00BF06EB850013
:1044C000D0ED000A80EE880A20EE289A19EE100A34
:1044D00002F052F941EC100BFFF716F851EC100BFB
:1044E00001F0CAFC04EB8507C7F8380119EE100A81
:1044F00002F042F941EC100BFEF7A2FF51EC100B59
:1045000001F0BAFC6D1CEDB2C7F84801022DD5D3FD
:104510005FF0020506EB8500D0ED000A80EE880A08
:1045200020EE289A19EE100A02F026F941EC100B41
:10453000FEF7EAFF51EC100B01F09EFC04EB85073F
:10454000C7F8380119EE100A02F016F941EC100B09
:10455000FEF776FF51EC100B01F08EFC6D1CEDB2F6
:10456000C7F84801042DD5D3002505AE06EB85001C
:10457000D0ED000A80EE880A20EE280A10EE100A1C
:1045800002F0FAF841EC100BFEF75AFF51EC100B59
:1045900001F072FC04EB85016D1CEDB2C1F858010D
:1045A000042DE3D30F484FF40071A0F8A81000F0D9
:1045B0001BF800F0B5FD17B0BDEC048BF0BD00009A
:1045C0007068000800000020E801002000000000E2
:1045D0006F12033AEC51B83D809A90470000344383
:1045E000DB0F4940E821002010B500F041FD00201C
:1045F00010BD000070B5134C0122D1022046FCF71B
:10460000E8FA0A2001F042F80122950229462046E4
:10461000FCF7DFFA0A2001F039F80A481030006888
:1046200010F4006F03D0FFF7E3FD002070BD0022FF
:1046300029462046FCF7CDFA0A2001F027F8012090
:1046400070BD00000004024010B504462221FBF7B3
:1046500014FF222200212046FFF78CFC2046FFF7A2
:104660007BFC94F820105A2903D194F82110814240
:1046700007D02046FFF706FE222200212046FFF742
:10468000A8FC002010BDFCF7AFFAFEF743FC71B6A2
:10469000FDF796FFFDF72AFFFEF75AF8FEF722F91D
:1046A000FEF79EF9FEF7D2F9FEF708FAFEF73EFA9A
:1046B000FEF7A0FAFEF7D0FAFEF76EF8FEF7B0F8B4
:1046C000FEF726FBFEF76AFAFEF7E4F80022052162
:1046D0002B20FCF719FB2B20FCF708FBFEF7EAFB6D
:1046E000FDF73AFF00F077F8FEE701460020842945
:1046F00000D0C81C704700001CB525A10022D1E9DC
:104700000001CDE9000124494FF0FF300860042189
:104710002248FCF75EFA7020FDF7ACFD3F21002037
:10472000FDF7A8FE322000F09BFF19211120FDF7B4
:10473000A1FE00210120FDF79DFE01210220FDF7D1
:1047400099FE03210846FDF795FE00210420FDF7A0
:1047500091FE1348407900F07F010520FDF78AFEA5
:1047600026210620FDF786FE052269460020FDF77A
:1047700039FE002069460A5C11320A54401CC0B25E
:104780000528F8D305216846FDF74AFE1CBD000048
:10479000009845711000000028000020000C024025
:1047A000E80100200EB501238DF804004FF0FF3022
:1047B000009002AA01A90348FCF7BEFE9DF808007C
:1047C0000EBD00003425002010B500B9012000F016
:1047D0003FFE002010BD10B500F0D6FE002010BD39
:1047E0007FB50D4604464169B0F9080081B1A16961
:1047F00071B1FFF77AFFD4E905128DE80700D4E91B
:1048000000102B46226901F0AAF9039004B070BD94
:10481000FFF76BFF03A9CDE90001208A2B4682B286
:10482000D4E9001001F06EF9012801D00020EDE775
:104830000398EBE780EC030A70EE200A002170EE8B
:10484000810AC0ED030AF0EE000A01EE200A80EDB5
:10485000040A80ED051AC162064946F2A8129FEDCE
:10486000060A0968B1FBF2F1816180ED070A00F0E8
:1048700005B800002400002000002F439FED050A2A
:10488000002180ED080A80ED090A80ED0A0AC16264
:10489000704700000000000010B504462DED028BAB
:1048A000B0EE408A90ED090A80ED0A0A90ED081AF0
:1048B00080ED091AC06A401A01EE900AF8EEE11A7A
:1048C000C4ED081AD4ED030A226B60EEA11AD4EDF0
:1048D000040A40EEC11AD4ED050A40EE801ABDEE7E
:1048E000E10A10EE100A10442063226BA069824294
:1048F00003DC226B4042824200DA20630846FEF766
:1049000024FA002800DA404294ED070AF0EE480A43
:10491000FFF772FA216B814203DC216B4042814236
:1049200000DA2063206BBDEC028B10BD2DE9F04155
:10493000184C0F460546E6682068001D00F096FCFE
:1049400038B9206890F82C100120884021698143F3
:104950002161681C07D137B12168BDE8F0410E48DC
:10496000091D00F0C7BC20683544B5424560216888
:1049700005D2A06BBDE8F041091D00F0A3BC606B3F
:10498000091D00F09FFCA06A854200D2A562BDE827
:10499000F081000058000020102A00202DE9F0418D
:1049A000054600F0B3FC2E4CA068401CA0602068B7
:1049B0002C4F10B1606940B32DE02560A06801283C
:1049C00029D1002606EB860007EB800000F06CFC86
:1049D000761C072EF6D323488C3000F065FC214866
:1049E000A03000F061FC1F48B43000F05DFC1D48B1
:1049F000C83000F059FC1B48DC3000F055FC194869
:104A00008C3060631430A06305E02068E96AC06AF6
:104A1000884200D82560606A401C6062E96A012013
:104A2000226988401043206101EB810007EB800080
:104A3000291D00F05FFC00F089FC606900280CD0A3
:104A40002068E96AC06A884207D207494FF080505F
:104A50000860BFF34F8FBFF36F8FBDE8F081000098
:104A6000580000203429002004ED00E010B5044671
:104A700090F8510058B101280CD002280FD05020D6
:104A800080F31188BFF34F8FBFF36F8FFEE7206B6A
:104A900000F070FC2046BDE8104000F06BBC10BD7B
:104AA00010484FF47051420706D0C01D0D4920F048
:104AB0000700411AC1F570510B4A00230144C2E9B5
:104AC00000030839183A21F0070111604B600B60B0
:104AD0000B1AC0E9001393604FF00040536050611F
:104AE00070470000242A0020AC000020144E154C12
:104AF000A6F1C8074FF08058DFF84C9012E000BFD5
:104B000000F004FCF068C568281D00F0AFFBA06849
:104B1000401EA0606068401E606000F017FC2846E0
:104B2000FFF7A4FF60680028EAD138680128F9D9A6
:104B3000C9F80080BFF34F8FBFF36F8FF2E700001B
:104B4000FC2900205800002004ED00E003460098F6
:104B500029B10260C0E90F31012100F04BBE0060B5
:104B6000F8E72DE9F0479A46DDE9098481466FF0C0
:104B70000303206B03EB82021044089E20F007071A
:104B8000780707D0502080F31188BFF34F8FBFF311
:104B90006F8FFEE7002561B1002023180A5C83F8BF
:104BA00034200A5C12B1401C1028F6D384F843501C
:104BB00001E084F83450072E00D30626E662C4E9EB
:104BC0001165201D00F07BFB04F1180000F077FB5D
:104BD0002461C6F107006462A061E56484F8505066
:104BE00052464946384600F011F92060B8F1000FEE
:104BF00001D0C8F80040BDE8F087000030B5114989
:104C000000E011460A688242FBD34B685C1884427C
:104C100003D1406818444860084643681C18944211
:104C200009D1084C183C2468A24209D052681A44A1
:104C300042600A6812680260814200D0086030BD9C
:104C40000460F9E7AC00002010B5044600F05EFBFC
:104C5000A06B28B15FF0000400F078FB204610BD87
:104C60000124F9E70648416B096829B1416BC9681D
:104C7000C9684968816270474FF0FF31FAE7000068
:104C80005800002008484068401C4FF0500080F356
:104C9000118804D0BFF34F8FBFF36F8FFEE7BFF3D0
:104CA0004F8FBFF36F8FFEE7B40000202DE9F04176
:104CB000044600F02BFB94F9455004F1240609E06A
:104CC000606A48B1304601F02FF808B100F0EEFB01
:104CD0006D1E6DB2002DF3DC4FF0FF3684F8456099
:104CE00000F034FB00F012FB94F9445004F110077B
:104CF00009E0206948B1384601F016F808B100F023
:104D0000D5FB6D1E6DB2002DF3DC84F84460BDE868
:104D1000F04100F01BBB00002DE9F04105460027E3
:104D200000F068FC324E306808B9FFF7B9FE7069D0
:104D300005424ED1C5B3083568070ED005F007000F
:104D4000C0F108000544680707D0502080F311889F
:104D5000BFF34F8FBFF36F8FFEE72DB370688542AF
:104D600037D82348183001460C6801E020460C462D
:104D70006168A94202D221680029F7D131688C42CA
:104D800027D007682168016060680837411B102937
:104D90000FD96019420708D0502080F31188BFF363
:104DA0004F8FBFF36F8FFEE713E041606560FFF741
:104DB00025FF61687068401A7060B268904200D246
:104DC000B060706901430020C4E90001F068401C34
:104DD000F06000F0E3FF780707D0502080F31188DF
:104DE000BFF34F8FBFF36F8FFEE73846BDE8F0810A
:104DF000940000200449086818B10868826C521CAD
:104E000082640868704700005800002010B5031F36
:104E10004FF080741C601B1F21F001011960191FE5
:104E2000044B0B6014390A60091F6FF0020244380A
:104E30000A6010BD854C00082DE9F05F92468B4654
:104E40000446002571B62A46364F80213846FBF7C6
:104E5000C0FE052000F01AFC4FF480780022414685
:104E60003846FBF7B6FE012280213846FBF7B1FE3B
:104E7000DFF8B090002609F110096D08D9F800009C
:104E8000800501D545F40045012241463846FBF72F
:104E9000A0FE012000F0FAFB002241463846FBF755
:104EA00098FE012000F0F2FB761CF6B2102EE4D33F
:104EB00061B6690B8AF80010C5F30310207005F085
:104EC0000F00401C8BF8000021785D20102926D2AD
:104ED000DFE801F0080A0C0E10121416181A251C2F
:104EE0001E2022245F201AE0492018E04B2016E003
:104EF0004D2014E04F2012E0512010E055200EE02C
:104F000059200CE065200AE0672008E0692006E0EF
:104F10006D2004E0712002E0752000E0792020700F
:104F2000BDE8F09F0008024070B5114D0446002214
:104F300004212846FBF74DFE0020FDF75DFAFDF742
:104F4000CBF9217C04F11400FDF7AEFA0122042113
:104F50002846FBF73EFE142000F098FB00220421B7
:104F60002846FBF736FE034900200860206970BD23
:104F7000000C02402800002070B50D4600210C46B0
:104F800008B1102400E0102115B144F0200401E024
:104F900041F0200112B144F0400401E041F0400131
:104FA00013B144F0800401E041F08001054D00227E
:104FB0002846FBF70EFE21462846BDE87040012238
:104FC000FBF707BE0010024070B50D4600210C46ED
:104FD00008B1012400E0012115B144F0020401E010
:104FE00041F0020112B144F0040401E041F0040177
:104FF00013B144F0080401E041F00801054D00221E
:105000002846FBF7E6FD21462846BDE87040012210
:10501000FBF7DFBD0010024030B5054C2568686322
:10502000206881632068C2632068036430BD00008B
:105030008C250020014901200860704728000020CD
:1050400010B500210948FDF741F808480068016AD9
:1050500041F21112114207D1016A9210114203D19B
:10506000016821F00101016010BD000084270020CB
:1050700010B5FFF7E5FFFEF7EBFE002005490246FD
:1050800001EBC003401CC0B25A600228F8D30020D4
:1050900010BD0000C000002030B54FF080410A680C
:1050A0004FF6FE7002400A60194A1368034013600D
:1050B000184B1C6804401C60174C2568054025608F
:1050C00000204862124D24352860124D2435286096
:1050D000114D24352860114D2860104D143D286075
:1050E0000E482438056845F001050560086840F061
:1050F00001000860106840F001001060186840F07E
:1051000001001860206840F00100206030BD000000
:105110000004004000080040000C0040241400403F
:1051200003480068016841F0010101607047000018
:10513000CC27002070B50E4C2068012816D00D4DEC
:10514000002204212846FBF744FD0120FDF754F915
:10515000FDF7AEF8FDF7C0F87020FDF78BF80122DF
:1051600004212846FBF735FD0120206070BD0000BA
:1051700028000020000C0240344910B40B681C6A5F
:1051800041F211110C4240F2444206D11C6A144211
:1051900003D11C6824F001041C602D4B1B681C6AA1
:1051A0000C4206D11C6A144203D11C6824F001048D
:1051B0001C60284B1B681C6A0C4206D11C6A1442F6
:1051C00003D11C6824F001041C60234B1B681C6A7B
:1051D0000C4206D11C6A144203D11C6824F001045D
:1051E0001C601E4B1B681C6A0C4206D1196A1142D6
:1051F00003D1196821F001011960194909680A04ED
:10520000120C01D14FF6FF72164CDFED170A002188
:1052100054F821305B6A00EE102A1BB2B8EE400A47
:1052200080EE801A00EE103AB8EEC00A21EE000AB5
:10523000BDEEC00A10EE103A40F82130491CC9B248
:105240000429E5D310BCFFF727BF00003C2700204E
:10525000D42500201C26002064260020AC26002037
:1052600024140040140000200024F449D0E9013245
:1052700001699A60D0E901235A604A68824201D1EB
:1052800082684A60002202610868401E086008685F
:1052900070470000034B036003F154000860802056
:1052A000106070479822002000F108014FF0FF3293
:1052B000C0E90112C1600161002101607047002155
:1052C0000161704730B50B685A1C02D000F108022A
:1052D00002E0026904E02246546825689D42FAD93A
:1052E00053684B6099608A60516008610168491C8D
:1052F000016030BD42684A6093688B609368596072
:10530000916008610168491C01607047502080F37A
:105310001188BFF34F8FBFF36F8F0A494868401C55
:10532000486001280CD10848006810F0FF0F07D032
:10533000502080F31188BFF34F8FBFF36F8FFEE7CC
:1053400070470000B400002004ED00E00849486800
:1053500028B1401E486001D180F311887047502069
:1053600080F31188BFF34F8FBFF36F8FFEE700000C
:10537000B400002070B500282AD0164DA0F1080412
:1053800060686969084207D1502080F31188BFF333
:105390004F8FBFF36F8FFEE722683AB1502080F342
:1053A0001188BFF34F8FBFF36F8FFEE788436060B4
:1053B00000F020F960686968084468602046FFF7DB
:1053C0001DFC2869401C2861BDE8704000F0E6BC67
:1053D00070BD0000940000204FF0E020002101612A
:1053E000816105494FF47A720968B1FBF2F1491EF7
:1053F00041610721016170472400002010B5FAF7D0
:105400006FFF114910280ED300F1E02090F8F0034F
:105410000A78904207D2502080F31188BFF34F8F53
:10542000BFF36F8FFEE709480068896800F4E06009
:10543000884207D9502080F31188BFF34F8FBFF304
:105440006F8FFEE710BD0000B40000200CED00E0FF
:1054500010B5020014D00F48006B38B1502080F313
:105460001188BFF34F8FBFF36F8FFEE700F0C2F8D4
:1054700000211046FFF75AFA00F090FC002807D1EF
:1054800005494FF080500860BFF34F8FBFF36F8F17
:1054900010BD00005800002004ED00E002490A6A37
:1054A0000260C9684160704758000020014901202E
:1054B000C86170475800002010B50C4650B109492A
:1054C00009681831FFF7FEFE2046BDE810400121B3
:1054D000FFF72CBA502080F31188BFF34F8FBFF332
:1054E0006F8FFEE75800002070B5040047D0A26C13
:1054F000A2B1606C884200D30146E06A88423ED087
:10550000012A3CD11E4D2A6894420FD1502080F3CD
:105510001188BFF34F8FBFF36F8FFEE7502080F3EA
:105520001188BFF34F8FBFF36F8FFEE7E162A2696F
:10553000002A02DBC1F10701A161124E00EB8000DD
:10554000616906EB8000814219D1201DFFF78EFEB4
:10555000012130B994F82C002A6901FA00F0824345
:105560002A61E06A2A6981401143296100EB8000C9
:1055700006EB8000211DBDE87040FFF7BBBE70BD8B
:10558000580000203429002010B586B00024039470
:1055900005AA04A903A80494FFF77CFEDDE9030132
:1055A0000094CDE9011000230EA11048059A00F0E7
:1055B000D6FA0F490028C86211D0502080F3118814
:1055C000BFF34F8FBFF36F8F4FF0FF308862012022
:1055D0004861CC6006B0BDE8104000F06FB806B07E
:1055E00010BD000049444C4500000000ED4A000891
:1055F000580000200248016B491C016370470000FD
:10560000580000201448016B11B10121C16170479D
:105610000021C1610169B1FA81F1C1F11F0101EB02
:1056200081020E4951F822306BB101EB820101F188
:1056300008034A6852684A609A4201D152684A6037
:10564000D16801607047502080F31188BFF34F8FFD
:10565000BFF36F8FFEE700005800002034290020C0
:1056600000B5024604E0642000F010F8521ED2B2E9
:10567000002AF8D100BD00B5820002E0FA2000F057
:1056800005F8521E92B2F9D200BD0000C0EBC00076
:1056900000EB40006FF0130101EB40010648C162CE
:1056A000002141620161016841F00101016001686E
:1056B000C907FCD170470000001000401CB53748F6
:1056C0000168374A914207D1502080F31188BFF317
:1056D0004F8FBFF36F8FFEE700683149491E884244
:1056E00007D1502080F31188BFF34F8FBFF36F8F26
:1056F000FEE72C4908780190FF20087008788DF8A3
:1057000000009DF800009DF8002000F0F00090429D
:1057100007D0502080F31188BFF34F8FBFF36F8FF6
:10572000FEE79DF80000204C00F05000207007209C
:10573000A06005E09DF8002052008DF80020401E7A
:105740009DF800201206F5D4A060032807D0502051
:1057500080F31188BFF34F8FBFF36F8FFEE74FF4D5
:105760004070A060019808700C482030016841F436
:1057700070010160016841F070410160FFF72CFE8B
:1057800000206060FAF774FD0848016841F040416C
:105790000160FAF759FD00201CBD000000ED00E09B
:1057A00071C20F4100E400E0B400002034EF00E0DB
:1057B000F8B517460E46050013D005FB06F0483035
:1057C000FFF7AAFA04000AD0002084F8460004F18A
:1057D00048023B46314628460094FFF7B7F9204679
:1057E000F8BD502080F31188BFF34F8FBFF36F8F48
:1057F000FEE7000070B50D46040025D0FFF786FDDA
:10580000D4E90F20216802FB0011A1600021A163EF
:10581000216861600A46D4E90F01401E00FB0121A6
:10582000E16021464FF0FF3001F8440F487004F169
:1058300010008DB1FFF738FD04F12400FFF734FDAF
:10584000FFF784FD012070BD502080F31188BFF365
:105850004F8FBFF36F8FFEE721690029F0D000F072
:1058600063FA0028ECD004494FF080500860BFF381
:105870004F8FBFF36F8FE3E704ED00E070B50E4686
:10588000040009D0206C78B1502080F31188BFF358
:105890004F8FBFF36F8FFEE7502080F31188BFF367
:1058A0004F8FBFF36F8FFEE7206848B9A06838B10B
:1058B000502080F31188BFF34F8FBFF36F8FFEE747
:1058C000FFF79CFD5020EFF3118580F31188BFF3A3
:1058D0004F8FBFF36F8FA16BE06B884218D994F99B
:1058E0004500491CA163411C04D0401C84F84500BC
:1058F00001200EE0606A0028FAD004F1240000F0D4
:1059000013FA0028F4D0002EF2D001203060EFE727
:10591000002085F3118870BD2DE9F343002683B084
:105920000400354609D0206C78B1502080F31188EE
:10593000BFF34F8FBFF36F8FFEE7502080F31188C6
:10594000BFF34F8FBFF36F8FFEE700F033F9DFF83F
:105950003C814FF000094FF0805748B9049838B1A6
:10596000502080F31188BFF34F8FBFF36F8FFEE796
:10597000FFF7CCFCA06BC8B1401EA063206810B933
:10598000FFF738FAA060206950B104F1100000F070
:10599000CBF928B1C8F80070BFF34F8FBFF36F8FFA
:1059A000FFF7D4FC012005B0BDE8F083049808B1EE
:1059B00066B10FE03DB1502080F31188BFF34F8FE7
:1059C000BFF36F8FFEE7FFF7C1FC5DE06846FFF7AE
:1059D00065FD0126FFF7BAFCFFF70CFEFFF796FC0A
:1059E00094F94400401C01D184F8449094F9450096
:1059F000401C01D184F84590FFF7A8FC04A9684633
:105A000000F046F80028204612D0FFF74FF900F0CA
:105A1000C5F92046FFF718F90028A9D09DB3FFF774
:105A200075FC606A50B3206B0068C0F1070126E086
:105A3000FFF70AF9E0B1206838B9FFF767FCA06802
:105A400000F02CF90546FFF781FC04F124000499CD
:105A5000FFF732FD2046FFF729F900F09FF90028F3
:105A600086D1C8F80070BFF34F8FBFF36F8F7FE709
:105A70002046FFF71BF900F091F979E70021A068B3
:105A8000FFF732FD9FE7FFE700208CE704ED00E021
:105A90002DE9F0410C46050011D0C4B1FFF736FCEA
:105AA000174BDA686E682068911B471C17D02F6867
:105AB0001B6A9F4219D0964217D8012410E050204B
:105AC00080F31188BFF34F8FBFF36F8FFEE7502035
:105AD00080F31188BFF34F8FBFF36F8FFEE7002471
