:020000040800F2
:1000000058730020DD030008A35000089142000847
:1000100091500008D12100081D5E0008000000007A
:100020000000000000000000000000001D030008A8
:100030000922000800000000790300082159000887
:10004000F7030008F7030008F7030008F7030008A8
:10005000F7030008F7030008F7030008F703000898
:10006000F7030008F7030008F7030008F703000888
:10007000F7030008F7030008F7030008F703000878
:10008000F7030008F7030008F7030008F703000868
:10009000F7030008F7030008F7030008F703000858
:1000A000F7030008F7030008F7030008F703000848
:1000B000F7030008F7030008F7030008F703000838
:1000C000F7030008F7030008F7030008F703000828
:1000D000F7030008F7030008F7030008F703000818
:1000E000F7030008F7030008F7030008F5590008B4
:1000F000F7030008015A0008F7030008F703000897
:10010000F7030008F7030008F7030008F7030008E7
:10011000F7030008F7030008F7030008F7030008D7
:10012000F7030008F7030008F7030008F7030008C7
:10013000F7030008F7030008F7030008F7030008B7
:10014000F7030008F7030008F7030008F7030008A7
:10015000F7030008F7030008F7030008F703000897
:10016000F7030008F7030008F7030008F703000887
:10017000F7030008F7030008F70300080000000079
:10018000F7030008F703000800F002F800F0B6F8E3
:100190000AA090E8000C82448344AAF10107DA45E2
:1001A00001D100F0ABF8AFF2090EBAE80F0013F07E
:1001B000010F18BFFB1A43F0010318476CB400008D
:1001C0008CB400000A444FF0000C10F8013B13F00F
:1001D000070408BF10F8014B1D1108BF10F8015BA0
:1001E000641E05D010F8016B641E01F8016BF9D193
:1001F00013F0080F1EBF10F8014BAD1C0C1B09D1EA
:100200006D1E58BF01F801CBFAD505E014F8016B5B
:1002100001F8016B6D1EF9D59142D6D370470000ED
:100220000023002400250026103A28BF78C1FBD8FF
:10023000520728BF30C148BF0B6070476E2900F0DD
:100240008983702900F0CB8466290AF0BC82652975
:100250000AF0B98267290AF0B68261290AF0B582EC
:1002600003681B0A28BF41F08001692900F036832A
:10027000642900F03383752900F030836F2900F082
:100280005984782900F09784E92900F0F383E42960
:1002900000F0F083F52900F0ED83EF2900F056849B
:1002A000F82900F096840368DB0928BF41F080013B
:1002B000632901F0B981732901F0BE81E32901F0BE
:1002C000C981F32901F0CE81002070471FB50AF0E3
:1002D00070FA9DE8030000F05DFA01F01DFA0400D9
:1002E0000020002109F0A6FC401C606000200021D5
:1002F00009F08AFCE0601FBD10B510BD01F0DEF909
:100300001146FFF7E3FF07F060FE01F0B7FA03B410
:10031000FFF7F2FF03BC01F0E5FA00002C4B19686F
:100320000868B0E8F04F80F30988BFF36F8F4FF093
:10033000000080F311887047000000000848006842
:10034000006880F308884FF0000080F3148862B6DC
:1003500061B6BFF34F8FBFF36F8F00DF00BF00BFE9
:1003600008ED00E0DFF80C00016841F47001016065
:10037000704700BF88ED00E0EFF30980BFF36F8F97
:10038000134B1A681EF0100F08BF20ED108A20E9E9
:10039000F04F106009B44FF0500080F31188BFF3A4
:1003A0004F8FBFF36F8F09F001F84FF0000080F31B
:1003B000118809BC19680868B0E8F04F1EF0100FEA
:1003C00008BFB0EC108A80F30988BFF36F8F7047C5
:1003D000F4000020EFF305807047000009488047D3
:1003E00009480047FEE7FEE7FEE7FEE7FEE7FEE717
:1003F000FEE7FEE7FEE7FEE704480549054A064B2F
:1004000070470000E559000889010008586D002078
:1004100058730020586F0020586F002070B50646B2
:1004200000F09CF9056806F10B0020F00704B442C7
:100430009CBF002070BD2B466A68BAB11068A0420C
:1004400010D304F1080188423CBF5068586007D3BC
:100450005168101941601168091B016058601460EF
:10046000101D70BD13465268002AE7D12146284668
:1004700000F07CF90028DED170BD70B50446051F80
:1004800000F06CF90068002C14BF446870BD002CAB
:1004900018BFAC423CBF20466468F8D301680A1814
:1004A000AA4218BF456003D12A680546114401607D
:1004B00028684119A1421CBF6C6070BD6168696009
:1004C00021680844286070BD53EA020C00F069807E
:1004D0002DE9F04B4FF00006002B1FBFB3FA83F558
:1004E00003FA05F424FA05F65E4012BF1643B2FA89
:1004F00082F502FA05F4C5F120051EBF22FA05FCBB
:1005000044EA0C04203556EA044C4FEA144418BF60
:10051000641C4FF000084FF00009904271EB030C8F
:1005200039D3002919BFB1FA81F701FA07F6B0FAF9
:1005300080F700FA07F6C7F120071EBF20FA07FC74
:1005400046EA0C062037B6FBF4FCA7EB0507103F84
:1005500007F01F0BCBF120060CFA0BFB2CFA06F66A
:1005600044BFB3460026202FA4BF5E464FF0000BC9
:100570005BEA060C08BF4FF0010B19EB0B09ABFB54
:10058000027C48EB0608C01B06FB02CC0BFB03CC2D
:1005900071EB0C01C1E70B46024641464846BDE8F7
:1005A000F08B13B54FF000004FF00001AFF3008067
:1005B000BDE81C40704700001CB50C46064B7B4450
:1005C00069460090204600F0DEF9044600206946A6
:1005D00000F0ECF920461CBDEB03000010B5203AFA
:1005E000C0F00B80B1E81850203AA0E81850B1E8EC
:1005F0001850A0E81850BFF4F5AF5FEA027C24BFA2
:10060000B1E81850A0E8185044BF18C918C0BDE898
:1006100010405FEA827C24BF51F8043B40F8043B61
:1006200008BF7047D20728BF31F8023B48BF11F816
:10063000012B28BF20F8023B48BF00F8012B704770
:100640004FF000020429C0F0128010F0030C00F0FB
:100650001B80CCF1040CBCF1020F18BF00F8012B79
:10066000A8BF20F8022BA1EB0C0100F00DB85FEA47
:10067000C17C24BF00F8012B00F8012B48BF00F813
:10068000012B70474FF0000200B513469446964682
:10069000203922BFA0E80C50A0E80C50B1F1200195
:1006A000BFF4F7AF090728BFA0E80C5048BF0CC043
:1006B0005DF804EB890028BF40F8042B08BF7047A1
:1006C00048BF20F8022B11F0804F18BF00F8012B13
:1006D000704700004FF0013C50F8042B51F8043BE8
:1006E0009A4221D1A2EB0C03934313EACC1317D106
:1006F00050F8042B51F8043B9A4215D1A2EB0C039D
:10070000934313EACC130BD150F8042B51F8043B5C
:100710009A4209D1A2EB0C03934313EACC13DBD02A
:100720004FF00000704700BFD01A01BAB1FA81F152
:1007300001F0180122FA01F0CB40C1F12001DBB237
:10074000C0B2C01A2CFA01F3D11A914311EAC311B5
:10075000E6D1704770477047704700000048704707
:10076000006D0020704770477047704738B50446E9
:100770000A4600206946AFF30080002808BF38BD54
:1007800002460099204600F001FB012038BD0120FF
:1007900000F08CBFF8B5AFF30080054600200C4692
:1007A000102000BF0646A819A0420DD9324669465E
:1007B0000020AFF30080070008BF00F077FF00982B
:1007C000A04218BF0546C419FFF7C8FF05600746D9
:1007D000F01D20F007004619284600F00AF8B44240
:1007E00008BFF8BDA21B31463868BDE8F84000F0EC
:1007F000CDBA00210160C0E9011070471020704798
:1008000010B500F0BFFA006810BD10B5044600F046
:10081000B9FA046010BD70B5044685690068C10668
:1008200001D5302600E02026C00707D070BDD4E9EE
:10083000012130469047206A401C20626D1EF6D58B
:1008400070BD70B5044685690078C00707D170BDDA
:10085000D4E9012120209047206A401C20626D1EAF
:10086000F6D570BD09684A0501D540B27047C90583
:10087000FCD500B2704709684A0501D5C0B270477F
:10088000C905FCD580B2704770B50C460546012AF3
:1008900005D02878800600D5EA69002302E001230C
:1008A00005E05B1C934202D2E05C0028F9D1A86904
:1008B000E618C01AA861286A184428622846FFF77B
:1008C000AAFF04E0D5E9012114F8010B9047B442D6
:1008D000F8D32846FFF7B5FF70BD00002DE9F041C1
:1008E0000646002410687529314616A510D0FFF77A
:1008F000B9FF002802DA404213A507E031688A07F1
:1009000001D512A502E0490704D511A5012401E093
:10091000FFF7B1FF00210A2206F1240709E0B0FB2E
:10092000F2FCB0FBF2F302FB1C00303078541846A6
:10093000491C0028F3D123462A463046BDE8F04141
:1009400000F083BA000000002D0000002B00000022
:100950002000000011680268006A530501D5087084
:100960000AE0D30501D5088006E0130603D5C217B7
:10097000C1E9000200E008600120704701694A1CDB
:1009800002610878704700B58FB0CDE901310021D0
:10099000059105497944CDE903101146684600F0F8
:1009A00029F90FB000BD0000E5FFFFFF0A6802F85B
:1009B000010B0A60704700002DE9FF5F15468A466B
:1009C0000446DFF8AC80F8440027D8E900103E4622
:1009D000CDE9001010E03AF816106A4602A800F0BF
:1009E00045FE411C07D02178890603D5E2693918F4
:1009F00091420DD80744761C2078800602D5E06924
:100A0000B84205DDAE42E6DB3AF816000028E2D136
:100A1000A069C01BA0612046FFF7FDFED8E90010C9
:100A2000CDE90010002017E03AF818106A4602A835
:100A300000F01CFEB0F1FF3F81460BD000250DF108
:100A4000080B05E0D4E901211BF8050090476D1C57
:100A50004D45F7D308F10100B0428046E4DB206A3F
:100A6000384420622046FFF7ECFEBDE8FF9F0000FF
:100A7000F6A900002DE9F0418046D21D22F00702C0
:100A80000025D2E90002F52915A614D0011E72F145
:100A9000000106DA0023D0EB030063EB020211A68B
:100AA00008E0D8F800108B0701D50FA602E049072F
:100AB00001D50EA601251146002408F1240704E003
:100AC00000F07EF930323A55641C50EA0102F7D149
:100AD0002B46324621464046BDE8F04100F0B5B90C
:100AE000000000002D0000002B000000200000008E
:100AF00030B4002100F1240408E002F00705D20818
:100B0000303542EA4372DB086554491C52EA03055A
:100B1000F3D10468002310A2250708D504F02004AF
:100B20000C4304D0C46901230CA2641EC46130BC10
:100B300000F08BB910B5044621461068FFF79BFE04
:100B400002462046BDE810400023D1E7D21D22F026
:100B50000701D1E90023CBE70000000030000000CE
:100B6000F0B40D460188090502D5214C7C4402E011
:100B70001F4C7C440E34002100F1240608E002F0F2
:100B80000F071209E75D42EA03721B097754491CFB
:100B900052EA0307F3D102780023120704D5702D1F
:100BA00006D009B1022311342246F0BC00F04DB941
:100BB00001231034F8E770B504460D46214610684D
:100BC000FFF759FE024629462046BDE87040002343
:100BD000C6E7D21D22F00703D3E90023C0E703686C
:100BE000126843F0200303600823C3610023B7E7C2
:100BF00058A800002DE9F05F894604464FF0000A2E
:100C0000DFF874B1FB44C0F820A02046E1688847B3
:100C1000002874D0252806D0D4E901219047206A05
:100C2000401C2062F1E700265F462046E1688847C5
:100C30002028054607DB312D05D2781910F8200C45
:100C400008B10643F1E7B00701D526F00406C4F861
:100C50001CA00027C4F818A02A2D09D0284605F0AA
:100C60009BFE38B304EB8708303DC8F8185019E0F4
:100C700059F8041B204604EB87029161E16888471C
:100C8000012F054618D1E069002820DA26F0200659
:100C90001DE0D8F8180000EB800005EB400030386C
:100CA000C8F818002046E1688847054605F074FE3C
:100CB0000028EED1012F0AD02E2D08D12046E16860
:100CC00088477F1C0546022F46F02006C4DBA0693A
:100CD000002803DA404246F00106A061F00701D087
:100CE00026F010066C2D0BD0682D09D04C2D39D074
:100CF0006A2D35D0742D35D07A2D33D016E038E0FA
:100D0000E1682F4620468847B842054609D16C2F36
:100D100026D04FF48060E1680643204688470546A8
:100D200004E06C2F1AD04FF4807006430DB3A5F188
:100D30004100192802D8203546F400664A46294663
:100D4000204626604E46FFF779FA80B101280BD085
:100D5000F61D26F0070000F1080956E74020E4E7F9
:100D60008020D8E70020D6E706F104094DE72846A1
:100D700052E7206ABDE8F09FE8A7000000487047EE
:100D8000F86C002000487047F86C0020034640686B
:100D90008C46002818BF88423CBF03464068F8D301
:100DA00018681844884207D00CF1030020F00700AF
:100DB000001D411A521A0146081D0A60FFF75DBB6B
:100DC00030B5B0F10A024FEA900E71F100034EEA1D
:100DD000817EB0EB0E0061EB91014FEA101E4EEAEE
:100DE000017E10EB0E0041EB11114FEA102E4EEA7E
:100DF000016E10EB0E0041EB11214FEA104E4EEA4E
:100E0000014E10EB0E0041EB1141401841F1000181
:100E10004FEAD00040EA41704FEAD10110EB800563
:100E20004FEA810444EA907444EB01046D1944EBE9
:100E30000404521BA3414FF0000348BF0A3200D5FF
:100E400030BD401C41F1000130BD2DE9F0470D4699
:100E500099469246044600F124080168880604D5A4
:100E6000E06921F01001216000E00120A84201DDCD
:100E7000471B00E00027A1697A1902EB0900081A54
:100E8000A0612078C00602D42046FFF7C4FC0026EB
:100E900008E0D4E901211AF806009047206A401CB6
:100EA000761C20624E45F4DB2078C0060AD5204629
:100EB000FFF7B1FC06E0D4E9012130209047206A19
:100EC000401C2062381EA7F10107F4DC07E0D4E9DA
:100ED000012118F805009047206A401C2062281E56
:100EE000A5F10105F3DC2046FFF7ABFC20780006F6
:100EF00002D50220BDE8F0870120FBE770472DE90D
:100F0000FF4F0C461E464FF0FF378BB0D2E9000171
:100F1000DDF860800A908A46C1F30A5505B93D465E
:100F2000002108464FF00000BAF1000F00F4400025
:100F300005DA00EB80004FF4400101EA50004FEA6F
:100F40009059B9F1010F00DDB9460A9850EA4A00FC
:100F50000ED044F61050A5F2FF3545432F14B8F1DA
:100F6000000F1ED07542291E1EDDC9F100021CE0D3
:100F7000B8F1010F4FF0000001D0302103E0F2433F
:100F800005E02154401CB042FBDB3046002200212A
:100F900021540B99C1F80880C1E900200FB0BDE8C9
:100FA000F08FBD1B6D1CDEE74A4600DA694206A8D9
:100FB00000F0F6FB06AB93E8070003AB83E80700FD
:100FC00050460A9900F0B4FC8DE80700A0F50050E7
:100FD0001F3800900398002D09DD42F21F014A4698
:100FE000084403A90390684600F013FF08E0A0F549
:100FF00000504A461F3803A90390684600F01DFFC1
:101000008DE807000004000C03D04FF0FF304108CA
:1010100000E01046B8F1000F03D000220092154600
:101020001EE0751E05D4FFF7CBFE303262556D1EF3
:10103000F9D5B3460122084302D000227F1C04E008
:101040002078302801D100227F1E002A099786D0FF
:101050001DE0112D07DAFFF7B3FE303262556D1C2B
:1010600050EA0102F5D1084302D00098C8B10EE061
:101070000021681E05E0235C625C63542254401E1C
:10108000491C8142F7DBAB46A81B401E099000209B
:1010900004F80B000B98099AC0F80880C0E9002BEF
:1010A0007CE711264FF0000859E72DE9F04F8846FC
:1010B0000446D21D22F0070191B0D1E90001CDE92B
:1010C0000A0104F0B9FE02460B98C00F01D02D2092
:1010D00007E02068810701D52B2002E0202101EAEA
:1010E000C000032A099001D0072A05DB03464146C8
:1010F000204600F015FB0BE12078800601D5E06961
:1011000000E00620B8F1650F814606D0B8F1660F01
:1011100018D0B8F1670F70D131E00020B9F1110F8C
:10112000009001DB112301E009F101030AAA01A9E2
:101130000CA8FFF7E4FEDDE90C70002609F10105BB
:10114000834647E001204B4600904FF000470AAA33
:1011500001A90CA8FFF7D3FEDDE90DB00C995D469F
:10116000002610B909F101000D18B9EB050003D4F0
:10117000C0F1FF3609F10105A5EB09002BE0B9F13B
:10118000010F01DA4FF001090020B9F1110F0090B1
:10119000484601DD112300E003460AAA01A90CA874
:1011A000FFF7ADFEDDE90C704D4600268346207842
:1011B00000070AD4AB4500DA5D4601A8012D04DD25
:1011C000411911F8011C302907D04F4502DA17F1F7
:1011D000040F04DA012082460FE06D1EEEE7002FB7
:1011E00002DCED1B3E4403E0781CA84200DD7D1CC0
:1011F000B81B00F1010A4FF000472078000703D424
:10120000AA4501DB4FF0FF3A0021B7F1004F0DF185
:1012100043088DF8431024D002202B23002F01DA3D
:101220007F422D230A21021EA0F1010000DC5FB1E4
:1012300097FBF1FC97FBF1F201FB1C7C17460CF1CC
:10124000300C08F801CDEEE7A8F101000370218809
:10125000090501D5452100E06521A0F1010800F84C
:10126000011C09980FA9A1EB0807FF1D00B101207F
:10127000411901EBEA70A1693844081A401EA061C7
:101280002078C00602D42046FFF7C5FA099828B195
:10129000D4E901219047206A401C20622078C006D2
:1012A00022D52046FFF7B7FA1EE0002E04DBB34537
:1012B00002DD01A8805D00E03020D4E901219047E3
:1012C000206A401C2062761CAAF101005FEA000A35
:1012D0000AD100F021FAC0680168405CD4E901211C
:1012E0009047206A401C2062281EA5F10105DCDC25
:1012F00007E0D4E9012118F8010B9047206A401C4F
:101300002062381EA7F10107F3DC2046FFF799FAA7
:10131000032011B043E600002DE9F04F04460D46CE
:10132000D21D22F0070089B0D0E900924846174646
:10133000394604F081FD0246F80F01D02D2307E065
:101340002068810701D52B2302E0202101EAC00398
:101350008DF820300BB1012000E00020032A8246E6
:1013600001D0072A04DB2946204600F0D9F93DE1E7
:101370002078800601D40D2500E0E569C7F30A5600
:101380000D2D49DA00214FEA175B08464FF00000A7
:10139000002F00F4400007DA00EB80004FF440011A
:1013A00000EBD07001EA60008115012901DD4FF0EA
:1013B000FF3100224FEA850CBCF1180F06D313460B
:1013C000ACF118004FF08052C24003E04FF480139C
:1013D00023FA0CF30CF10C0CBCF1200F04D3ACF18C
:1013E000200C09FA0CF001E007FA0CF000294FF08C
:1013F000004801DD18B90FE00ED140450CD319EBC0
:1014000002095F4121B9404502D19F4329EA0209FF
:10141000BBEB175F00D0761C2088000502D57B4807
:10142000784402E079487844193808AA302302F851
:101430000A30037C0AF10101002E0AF1020A53541A
:101440006A4602DC4FF0300101E04FF031014FF00D
:1014500001088DF8001002D0A6F2FF3603E059EA29
:10146000470100D06A4E002D02DC2178090704D51F
:101470004FF002082E218DF80110C44600210BE028
:10148000C7F303433F01C35C491C6D1E02F80830DB
:10149000052908F1010801DA002DF1DC00210CE03A
:1014A00000EB1973491C1B786D1E082902F80830DF
:1014B0004FEA091908F1010801DA002DF0DC217862
:1014C000890602D514E0A8F10108E04505DD02EB2C
:1014D000080111F8011C3029F5D0B8F1000F07DD23
:1014E00002EB080111F8011C2E2901D1A8F1010815
:1014F000002D05DD3E2102F808106D1E08F10108DF
:10150000407C002E02F8080008F1010804DA2D20C2
:10151000764202F8080002E02B2002F808000A21B7
:101520004FF47A70864208F101080BDB96FBF0F36A
:10153000303302F8083096FBF0F308F1010800FBA5
:10154000136601E0642E0CDB642096FBF0F330336D
:1015500002F8083096FBF0F308F1010800FB13666F
:1015600001E00A2E06DB96FBF1F0303002F80800AD
:1015700008F1010896FBF1F001FB1060303002F831
:101580000800A16908F1010808EB050202EB0A0056
:10159000081AA0612078C00602D42046FFF73BF964
:1015A000216A08AE01EB0A00206204E0D4E90121BF
:1015B00016F8010B9047BAF1010AF7D22078C0065D
:1015C00002D52046FFF727F96E4609E016F8010B11
:1015D0003E280FD0D4E901219047206A401C2062A8
:1015E000B8F10108F2D22046FFF72BF909B0032029
:1015F000BDE8F08F206A2844206203E0D4E901218D
:10160000302090476D1EEBD3F8E7000017A10000D3
:1016100002FCFFFF10B5436913B1AFF3008001E096
:10162000FFF732F9012010BD127800F124010A7091
:1016300000224A700122EDE711684FF0FF32E9E71E
:1016400010B5436913B1AFF3008001E0FFF7B4F9BF
:10165000012010BD128800F1240182840022C2847E
:101660000122EDE711684FF0FF32E9E770B5164649
:101670000C46054600F048F8036893F8010101287C
:1016800006D0FF2C0FD8185D68B101202C7070BDFA
:10169000D3F807013246214603F2071303442846D4
:1016A000BDE8704018474FF0FF3070BD10B500F036
:1016B000F1F8BDE8104000F0E7B870477546FFF755
:1016C0005DFBAE4605006946534620F0070085469F
:1016D00018B020B5FEF790FEBDE820404FF00006A0
:1016E0004FF000074FF000084FF0000B21F007010A
:1016F000AC46ACE8C009ACE8C009ACE8C009ACE84D
:10170000C0098D467047000010B500F005F8001DB7
:1017100010BD00BF2185000000487047186D0020F3
:101720002DE9F0411F46044603260168072A01F40B
:10173000006004DB08B116A505E016A503E008B1BA
:1017400015A500E015A521F010002060A069C01EBD
:10175000A0610FB1401EA0612046FFF75CF84FB1B9
:10176000D4E9012138469047206A401C2062C01C01
:10177000206206E0206AFAE7D4E9012115F8010B9E
:101780009047761EF8D22046FFF75BF8BDE8F0815F
:101790004E414E006E616E00494E4600696E660015
:1017A0002DE9F047814616468AB0334878440DC883
:1017B0008DE80D0030487844801C03AC0DC884E8E7
:1017C0000D0041F69B300844372190FBF1F290FB6D
:1017D000F1F5A5F1800501FB12041B3C02D5644222
:1017E000012000E00020DFF890A080460027FA44A6
:1017F000AAF1BE0A0DE0E00709D03246684607EBC1
:1018000047010AEB810100F018FB8DE80700641026
:101810007F1C002CEFD1184F7F44AC3F18E0E80745
:1018200014D007EB04100DF1180A90E80E008AE8B6
:101830000E00C068F04201D198190890324606A9FE
:1018400003A800F0FAFA03AB83E807006D10641CEC
:10185000002DE4D132466946B8F1000F03A802D04A
:1018600000F0D7FA01E000F0E8FAC9E90001C9F890
:1018700008200AB0BDE8F0871C9E00000446AFF3C4
:1018800000802046FEF743FD002801D000F02AB872
:101890007047000010B5012805D0002103A000F01A
:1018A00027F8012010BD09A1F8E70000534947526D
:1018B000544D454D3A204F7574206F662068656120
:1018C00070206D656D6F7279000000003A204865E8
:1018D0006170206D656D6F727920636F72727570C3
:1018E0007465640001491820ABBEFEE726000200C3
:1018F00070B505460C460A2000E06D1C00F011F89A
:1019000035B128780028F8D102E0641C00F009F80D
:1019100014B120780028F8D1BDE870400A20AFF358
:10192000008008B569468DF800000320ABBE08BDF5
:101930005FEA400C08BF91F0000F4FEA8C234FEA9A
:10194000C12243EA51514FEA1C5018BF00F5F04044
:101950004FEA300018BF41F000415FEA6C5C00F0D4
:101960002980BCF1FF3F08BF40F080407047130C56
:1019700006BF12044FF0100C4FF0000C130E04BF02
:1019800012020CF1080C130F04BF12010CF1040C2D
:10199000930F04BF92000CF1020CD30F04BF52004E
:1019A0000CF1010C11464FF00002A0F11F00A0EB5A
:1019B0000C00704711F0004F08BF704731F0004134
:1019C0003FF4D5AF0B0C06BF09044FF0100C4FF0DD
:1019D000000C0B0E04BF09020CF1080C0B0F04BF26
:1019E00009010CF1040C8B0F04BF89000CF1020CEF
:1019F000CB0F04BF49000CF1010CCCF12003A0EB8C
:101A00000C0022FA03F302FA0CF241EA030100F19E
:101A10000100704720F07F4C80EA030023F07F47ED
:101A2000ACEB070303F57C5300F0004003F1FF0328
:101A30002DE980494FEA154B09B44FEA144325EAD2
:101A40000B4E24EA03480FF2042606EB132749083D
:101A50003E785FEA320203FB0667C7F5000707FB23
:101A600006F64FEA54374FEAD64606F1020607FB60
:101A7000066CCCF1005C4FEA1C472CEA074C07FBD4
:101A800006F40CFB06F504EB15464FEA961634BF38
:101A900000204FF000404FEAD13706FB07FC4FEA29
:101AA0001C4C0CFB0BF7D21B03FB0CF761EB070183
:101AB0000CFB0EF7B0EB074072EB17420CFB08F77C
:101AC00034BFA2EB0742B2EB074261EB17414FEA8A
:101AD0000C444FEA910706FB07FC4FEA1C4C0CFB39
:101AE0000BF7B0EBC74072EB573203FB0CF734BF78
:101AF000A2EBC742B2EBC74261EB57310CFB0EF7CA
:101B0000B0EBC70072EB57720CFB08F734BFA2EBC7
:101B1000C702B2EBC70261EB5771039F4FEA8161C5
:101B200041EA921104EBCC044FEAD1374FEA8262CA
:101B300006FB07FC42EA90124FEA80604FEA1C4C19
:101B40000CFB0BF7D21B03FB0CF761EB07010CFB43
:101B50000EF7B0EB074072EB17420CFB08F734BFEF
:101B6000A2EB0742B2EB074261EB17414FEA8C55FB
:101B70004FEA910704EB9C2406FB07FC4FEA1C4C40
:101B80000CFB0BF7B0EBC74072EB573203FB0CF7C3
:101B900034BFA2EBC742B2EBC74261EB57310CFB3B
:101BA0000EF7B0EBC70072EB57720CFB08F734BFAF
:101BB000A2EBC702B2EBC70261EB577115EB4C25E4
:101BC0004FEA816141EA92114FEA82624FEAD137CE
:101BD00042EA901206FB07FC44F100044FEA8060E1
:101BE0004FEA1C4C0CFB0BF7D21B03FB0CF761EB11
:101BF00007010CFB0EF7B0EB074072EB17420CFB32
:101C000008F734BFA2EB0742B2EB074261EB174182
:101C100015EB1C154FEA813141EA92414FEA8232BD
:101C200042EA90424FEA80304FEA0C7644F10004D9
:101C300048EA03434EEA0B484FF0000EB2EB080CA3
:101C400071EB030724BF624639464EEB0E0E4FF090
:101C5000000B0018524149414BEB0B0BB2EB080C47
:101C600071EB03077BF1000B24BF624639464EEB54
:101C70000E0E4FF0000B0018524149414BEB0B0B7D
:101C8000B2EB080C71EB03077BF1000B24BF62463B
:101C900039464EEB0E0E51EA020718BF46F0010618
:101CA00016EB0E7655F1000254F1000103D5BDE8A4
:101CB0008901BDE80088BDE88901BDE80048B61982
:101CC000524141EB0101A3F10103704780807F7E07
:101CD0007D7C7B7A797877767675747372717170A2
:101CE0006F6E6E6D6C6C6B6A6A6968686766666554
:101CF0006464636362616160605F5F5E5E5D5D5CE2
:101D00005C5B5B5A5A595958585757565655555552
:101D10005454535352525251515050504F4F4F4EB2
:101D20004E4D4D4D4C4C4C4B4B4B4A4A4A49494900
:101D30004848484747474746464645454544444442
:101D4000444343434342424242414141002B26D453
:101D5000770021D01CB54FEA370703B44FF01000CD
:101D60004FF010014FF000000FBCBDE810400BF128
:101D7000010BBBF1010F08BF5FEA170722BF12F189
:101D8000010211F101014FF0004143F1000300F0A5
:101D9000004043EA00007047F9D35708DAE746EA03
:101DA000064613F1400F4FEA16461FDD13F1200FD0
:101DB000DFBF16430A46002120335B42C8D0C3F17F
:101DC000200746EA064602FA07F74FEA164646EAB1
:101DD0000706C3F1200722FA03F201FA07F721FAF6
:101DE00003F14FF0000342EA0702B1E746EA0206B8
:101DF00046EA06464FEA164646EA0106BCBF46EAF0
:101E00000646360C4FF000034FF000024FF0000181
:101E10009EE72DE9C048934630B491E8380007C8E2
:101E200031EA400C48BF34EA430C03D5FFF7F2FD1A
:101E3000FFF78CFFF0BCBDE800882DE9C048934651
:101E400030B491E8380007C810F0804F08BF13F095
:101E5000804F03D100F005F8FFF778FFF0BCBDE834
:101E6000008820F07F4780EA030023F07F4C07EBD7
:101E70000C03A3F57C5300F00040A3F1FE0392F0A5
:101E8000000F00F0B38095F0000F00F077802DE98F
:101E900001494FEA11404FEA144621EA004800FB8D
:101EA00006FC24EA064708FB06F607FB08F800FBD9
:101EB00007F718EB06484CEB164C4FEA124B18EBA1
:101EC00007484FEA15464CEB174022EA0B4E0BFB36
:101ED00006FC25EA06470EFB06F607FB0EFE0BFB8B
:101EE00007F71EEB064E4CEB164C4FF000061EEBB0
:101EF000074E4CEB174B18EB0B0840F1000018EBAA
:101F00000E0B58EB000840F100008F1A4FF0000153
:101F10003CBFC943661B14BFB5EB040C00213CBF9A
:101F2000C943F61B4FEA17444EEA8E0E27EA0445D2
:101F30004FEA1C4704FB07622CEA074C05FB07F736
:101F40000CFB05F604FB0CFC16EB074642EB1742B4
:101F500016EB0C4642EB1C421BEB060658EB02024A
:101F6000414146EA9E0601D5BDE80189B6195241B4
:101F700041EB0101A3F10103BDE801894FEA1445DA
:101F80004FEA114724EA054621EA074C05FB07F40E
:101F900006FB07F70CFB06F105FB0CFC11EB0741F8
:101FA00044EB17444FEA124711EB0C4144EB1C443D
:101FB00022EA074C05FB07F206FB07F70CFB06F6C7
:101FC00005FB0CFC16EB074642EB174216EB0C46E2
:101FD00042EB1C456A1854F1000148BF7047B6191E
:101FE000524141EB0101A3F10103704795F0000F4D
:101FF00037D04FEA11424FEA144721EA024624EA59
:10200000074C02FB07F106FB07F70CFB06F402FB8B
:102010000CFC14EB074441EB17414FEA154714EB56
:102020000C4441EB1C4125EA074C02FB07F506FB7B
:1020300007F70CFB06F602FB0CFC16EB074645EB1C
:10204000174516EB0C4645EB1C42121951F10001E5
:1020500048BF7047B619524141EB0101A3F101039A
:1020600070474FEA14454FEA114724EA054621EA32
:10207000074C05FB07F106FB07F70CFB06F24FF0D8
:10208000000605FB0CFC12EB074241EB174112EB7B
:102090000C4251EB1C4148BF7047921841EB0101C3
:1020A000A3F1010370470000464910B54A6822F4C5
:1020B00040324A604A6843681A434A6001684A6885
:1020C00022F480724A6001684A68036942EA032286
:1020D0004A6001684A6822F040724A6001684A68B2
:1020E00083681A434A6001688A6822F400628A6041
:1020F00001688A68C3681A438A60816A6FF07062F7
:10210000D14201688A6822F070628A6001688A6838
:102110000CD0836A1A438A6001688A6822F04052B0
:102120008A6001688A68C36A1A4301E022F040525B
:102130008A6001688A6822F002028A6001688A68FF
:10214000037E42EA43028A6090F820100029016869
:102150004A680FD042F400624A6001684A6822F47B
:1021600060424A6001684A68174C436A04EB433393
:102170001A4301E022F400624A600168CA6A22F44C
:102180007002CA620168CA6A838B104C04EB035365
:102190001A43CA6201688A6822F400728A60016880
:1021A0008A6890F8303042EA43228A6001688A687F
:1021B00022F480628A6001688A68406942EA80206D
:1021C000886010BD0023014000E0FFFF0000F0FF29
:1021D000FEE7000010B50A4C0A484FF480712269EE
:1021E000521C22610F2A01DA012200E0002200F0D5
:1021F00084FB20691E2801DD0020206110BD000045
:1022000000000020000002407047000070B50D4D36
:10221000002401220221284600F06FFB322005F045
:1022200095FF00220221284600F067FB322005F0CE
:102230008DFF641C052CECDBBDE870404FF49670FC
:1022400005F084BF00080240264F274D274EDFF8D7
:10225000A0800024387908B107283FD104F062FE3D
:10226000D5E90A0104F0CCFB68B3012030700020EE
:1022700004F080FE002201231146104604F0B2FE55
:1022800000231A461946184604F0ACFE0021084601
:1022900005F016F90021084604F0F4FD15488460A5
:1022A000C460446004614461846106F0E5FD4FF45C
:1022B0007A7005F0E5F9C5E90A0142F2107005F0FF
:1022C000DFF9C5E90C01307840B198F80000032827
:1022D00004D306F0D1FD88F800403470052005F0E5
:1022E00035FFB7E7F0070020A00000204D000020D8
:1022F0004E000020BC020020012005F027FFFBE774
:102300004FF4FA6005F022FF03F0D2F90120F9E75B
:1023100072B6FEE778B50024009490F83C20012ABC
:1023200019D0012280F83C200A6807230568092A91
:1023300013D9EE680A3A02EB420293409E43EE60E4
:102340000B788A680A3B03EB43039A400368DD6815
:102350002A43DA6010E0022078BD2E6902EB4202C7
:1023600093409E432E610B788A6803EB43039A40A7
:1023700003681D692A431A614A681F23072A13D27A
:1023800005686E6B521E02EB820293409E436E63A1
:102390000B790A885B1E92B203EB83039A400368B1
:1023A0005D6B2A435A6327E005680D2A12D22E6B13
:1023B000D21F02EB820293409E432E630B790A8860
:1023C000DB1F92B203EB83039A4003681D6B2A4321
:1023D0001A6311E0EE6A0D3A02EB820293409E43CB
:1023E000EE620B790A880D3B92B203EB83039A40AD
:1023F0000368DD6A2A43DA62164B0568144A9D4277
:1024000006D10D68122D03D1556845F4800555603D
:1024100005689D4218D10B68102B01D0112B13D1E8
:10242000536843F400035360096810290CD10A492A
:102430000A4A0968B1FBF2F101EB8101490000E0B1
:10244000491E00910029FBD180F83C40002078BD56
:1024500000230140002001408800002040420F007E
:102460000068C06C704770B504004FF0000503D0E1
:10247000206C002610B107E0012070BD204600F05E
:102480001DF8666484F83C60206CC00610D4206C93
:1024900020F4885040F0020020642046FFF704FE3C
:1024A0006664206C20F0020040F00100206400E02F
:1024B000012584F83C60284670BD000010B586B048
:1024C000044614216846FEF7DDF811492068884269
:1024D0001BD110480021026842F48072026000683B
:1024E00000F4807005900B481438026842F0020234
:1024F0000260006800F00200059003200090CDE922
:1025000001016946044800F0FBF806B010BD000068
:102510000020014044380240000402402DE9F0410F
:10252000044600680D4681684FF0000749050BD549
:102530008068C00508D5206C40F02000206484F835
:102540003C700120BDE8F08100F0DCF9064613E0A4
:10255000681C11D025B100F0D5F9801BA8420BD919
:1025600020680068800707D4206C40F004002064D5
:1025700084F83C700320E5E7206800688007E7D511
:1025800021686FF012000860206C40F40070206435
:102590002068816811F0405F13D1217E89B9C16A3A
:1025A00011F4700F02D0806840050AD4206C20F42A
:1025B00080702064206CC00403D4206C40F00100C3
:1025C00020640020BEE7000018B50021009190F8BB
:1025D0003C20012A07D0012280F83C200268936841
:1025E000DB0702D011E0022018BD936843F001031D
:1025F00093602E4A2E4B1268B2FBF3F202EB4202BA
:1026000000E0521E0092002AFBD102689368DB07AB
:1026100042D0036C40F20164A34343F4807303642B
:1026200053685B0505D5036C23F4005343F48053D2
:102630000364036CDB0404D5436C23F0060343649A
:1026400000E0416480F83C101A496FF022031360E7
:1026500049680068CA06184906D0884224D18168B2
:1026600011F0405F13D01FE08842F8D0134A904227
:1026700003D1D1F80423D206F1D0114A904213D1EC
:10268000D1F8041301F01F011029E8D30CE0816890
:1026900041F08041816007E0016C41F0100101646C
:1026A000416C41F001014164002018BD8800002008
:1026B00040420F0000230140002001400021014062
:1026C0000022014090F83C1001290CD0012180F833
:1026D0003C1001688A6822F001028A6001688968FA
:1026E000C90702D007E002207047016C21F488512D
:1026F00041F001010164002180F83C100846704758
:102700002DE9F84FDFF8BCA10022012503264FF088
:102710000F090AF1040BAAF1040E00BF0B6805FAB9
:1027200002F42340A34270D10F7907F00307012F71
:1027300001D0022F16D187684FEA420806FA08FC3A
:1027400027EA0C07D1F80CC00CFA08FC4CEA070C7D
:10275000C0F808C04768A7430C79C4F3001494403C
:102760003C4344600C79E443A4070AD0C4684FEAB0
:10277000420C06FA0CF7BC438F6807FA0CF72743A4
:10278000C7600C7904F00304022C12D1D40800EBCA
:10279000840CDCF820405707FF0E09FA07F824EAFA
:1027A0000804D1F8108008FA07F848EA0408CCF8C1
:1027B000208004684FEA420C06FA0CF7BC430F79FC
:1027C00007F0030707FA0CF7274307604C6814F477
:1027D000403F70D03C4C276847F48047276024680E
:1027E00022F0030704F480440094384C07EB040CF7
:1027F000DCF8084897074FEA177809FA08F7BC434E
:10280000334FB84202D1002724E054E0314FB842A0
:1028100001D101271EE0304FB84201D1022719E053
:102820002E4FB84201D1032714E02D4FB84201D1F9
:1028300004270FE02B4FB84201D105270AE02A4FA9
:10284000B84201D1062705E0284FB84201D1072739
:1028500000E0082707FA08F72743CCF80878DAF8E9
:1028600000405746D1F804C09C435FEACC2C00D509
:102870001C433C60DBF800405F46D1F804C09C4339
:102880005FEA8C2C00D51C433C60DEF800407746A4
:10289000D1F804C09C435FEA8C3C00D51C433C60EB
:1028A000084F083F3C68D1F804C09C435FEACC3C29
:1028B00000D51C433C60521C102AFFF42FAFBDE82A
:1028C000F88F0000083C01404438024000300140CD
:1028D000000002400004024000080240000C0240D8
:1028E000001002400014024000180240001C024088
:1028F0000069084000D0012070470AB1816170472B
:102900000904FBE70148806870470000E8000020E8
:1029100070B5040025D094F83D00002520B984F856
:102920003C50204600F04EF9242084F83D002068F9
:10293000016821F0010101602068016841F4004153
:1029400001602068016821F40041016000F0FEFA96
:102950004D4A6168914201D84C4900E04C49884297
:1029600001D2012070BD4B492368B0FBF1F15E68D4
:1029700026F03F060E435E606368934206D94FF42B
:10298000967359434FF47A73B1FBF3F12368491CF2
:102990001E6A26F03F06314319626168914210D8E1
:1029A0004900401EB0FBF1F2521CC2F30B02042A94
:1029B00001D2042022E0B0FBF1F0401CC0F30B0078
:1029C0001CE0A268F2B301EBC10303EB0116431E46
:1029D000B3FBF6F35B1C43F480431B0549D092B371
:1029E00001EBC10202EB0111401EB0FBF1F0401CF3
:1029F000C0F30B0040F4804040F400402168CA69F5
:102A00004CF6FF739A431043C861D4E907100143A1
:102A10002068026822F0C00211430160D4E903017A
:102A200001432068826848F2FF339A431143816072
:102A3000D4E9050108432168CA6822F0FF02104367
:102A4000C86001E00EE016E02068016841F0010175
:102A500001602564202084F83D00256384F83E5001
:102A6000002070BD01EB4106431EB3FBF6F35B1C77
:102A7000B3E70120C2E701EB4101401EB0FBF1F0DA
:102A8000401CC0F30B00B7E7A086010080841E0045
:102A900000093D0040420F002DE9F84F1F469046C7
:102AA0008A460446DDF82890FFF72CFF054694F887
:102AB0003D0020287FD1192301224049204600955E
:102AC00001F078FC002876D194F83C00012872D0FF
:102AD000012084F83C0020680168C90703D101681F
:102AE00041F0010101602068016821F4006101608A
:102AF000212084F83D00102084F83E000026266442
:102B0000C4F824806785608D20852D48E0622B46BF
:102B10004A465146204601F0D3FB90B920684169EE
:102B20008069009036E02A464946204601F0E8FCDC
:102B300050B1206C042804D12068016841F4007170
:102B400001600120BDE8F88F606A216800780861A3
:102B5000606A401C6062618D491E6185218D491E3D
:102B600089B2218522685369DB435B070BD451B1DD
:102B700000781061606A401C6062608D401E608554
:102B8000208D401E20852A464946204601F0E6FB5E
:102B90000028CED1208D0028C5D154F83D0B016806
:102BA00041F400710160202004F81E09E677667781
:102BB0000020C7E7FFE70220C4E700000200100082
:102BC0000000FFFF10B586B0044614216846FDF7EB
:102BD00059FD1949206888422CD118480021026803
:102BE00042F0020202600068154C00F002000590FD
:102BF0004FF4406000901220CDE9010103200390C2
:102C00000420049069462046FFF77AFD0B491031F5
:102C1000086840F4800008600868012200F4800021
:102C2000059009152046FFF768FE0122D1022046D3
:102C3000FFF763FE06B010BD005800403038024078
:102C400000040240024881680278114481607047A4
:102C5000E80000200B4810B5016841F400710160E4
:102C6000016841F480610160016841F48071016094
:102C7000032000F09FF8052000F006F800F050F85F
:102C8000002010BD003C024030B505461F4887B00B
:102C90000024016841F480710160006806A900F415
:102CA0008070009001A800F031F90498A8B100F0FC
:102CB0004DF940001649174AB0FBF1F11648491E7C
:102CC000026040F2E732C0E90324C0E901148461E4
:102CD00000F044FD040003D015E000F037F9E9E707
:102CE0000D4800F0BFFD04000DD12D2000F034F898
:102CF000102D07D2002229462D2000F03BF807486E
:102D0000056000E0012407B0204630BD4038024095
:102D100040420F0000200040C02F0020EC000020A7
:102D20000C4882B0016841F480410160006800F401
:102D3000804000900748001F016841F08051016009
:102D40000068002200F0805000900F21901E02B019
:102D500000F010B844380240002809DB00F01F02E0
:102D6000012191404009800000F1E020C0F80011ED
:102D700070470000F0B40E4B1B680C46C3F30223EF
:102D8000C3F10705042D00D90425191D072901D217
:102D9000002300E0DB1E012606FA05F1491E214052
:102DA00099409E40761E16403143F0BC03F05CB85B
:102DB0000CED00E0064900F0070208684FF6FF033B
:102DC000184040EA0220034A1043086070470000A0
:102DD0000CED00E00000FA052DE9F0470E46050075
:102DE00065D0DFF81481D8F80000F7B200F00700D2
:102DF000B04207D288F80070D8F8000000F0070051
:102E0000B04254D128683D4C810712D5400703D504
:102E1000206840F4E05020602878000703D520683F
:102E200040F4604020602068A96820F0F00008436A
:102E300020602878C0072DD03049686808390128FB
:102E400012D0022813D0032811D00968890700295D
:102E50002DDA216821F0030101432160FFF752FDC3
:102E6000814641F2883A0EE009688903EFE7096874
:102E70008901ECE7FFF746FDA0EB0901514502D9B6
:102E80000320BDE8F0872068696800F00C00B0EB13
:102E9000810FEFD1D8F80010404601F00701B14290
:102EA00007D90770006800F00700B04201D0012088
:102EB000E7E72878400705D52068E96820F4E05066
:102EC000084320602878000706D52068296920F487
:102ED000604040EAC100206000F058F82168084ACC
:102EE000C1F30311515CC8400649086006480068F8
:102EF000FFF7CAFE0020C4E7003C02400838024049
:102F0000F0A7000888000020EC0000200F220260DB
:102F10000C4A136803F003034360136803F0F003E3
:102F20008360136803F4E053C36012684FF4E05306
:102F300003EAD20202610448006800F0070008605A
:102F40007047000008380240003C02400448054930
:102F500000680968044AC1F38221515CC840704787
:102F6000880000200838024000A8000804480549ED
:102F700000680968044AC1F34231515CC840704797
:102F8000880000200838024000A80008154810B545
:102F9000006810F00C02144813D01449042A0FD012
:102FA000082A0ED10F4C241F2268236802F03F022A
:102FB0005B0207D52068C0F38810A0FB010106E082
:102FC000084610BD2168C1F38811A1FB0001002350
:102FD000FDF77AFA2168C1F30141491C4900B0FBB1
:102FE000F1F010BD083802400024F40040787D0163
:102FF0002DE9F84F04006ED02078DFF84C93C0071D
:10300000A9F104054AD009F104000168C1F3810166
:10301000012908D00068C0F3810002280AD1D9F83C
:103020000000400206D52868800337D56068002874
:10303000E1D033E06068B0F5803F10D0B0F5A02F4C
:10304000286810D020F480302860286820F4802080
:1030500028606068A8B1FFF755FC06460DE02868B7
:1030600040F48030F4E740F480202860F7E700BFA8
:10307000FFF748FC801B642873D828688003F7D5C5
:103080000CE0FFF73FFC064605E000BFFFF73AFC07
:10309000801B6428F0D828688003F7D42078DFF8F4
:1030A000AC8280074FF0000A3ED5A748001D01689A
:1030B00011F00C0F08D00068C0F3810002280BD17A
:1030C000D9F80000400207D42868800716D5E068C8
:1030D000012800D112E033E1E068B8B10120C8F85E
:1030E0000000FFF70FFC064605E000BFFFF70AFCF3
:1030F000801B0228C0D828688007F7D52868216976
:1031000020F0F80040EAC10028600DE0C8F800A0F7
:10311000FFF7F8FB064604E0FFF7F4FB801B0228EC
:103120001FD828688007F7D42078000722D5864F5B
:1031300087486169703771B101210160FFF7E2FBD7
:10314000064604E0FFF7DEFB801B022809D838683A
:103150008007F7D50EE0C0F800A0FFF7D3FB0646C6
:1031600005E082E0FFF7CEFB801B02287DD838689F
:103170008007F7D42078400768D5DFF8CCB1002766
:103180000BF13C0BDBF80000C0000BD4DBF80010A7
:1031900041F08051CBF80010DBF80000012700F06F
:1031A000805000906B4E3068C00510D4306840F4F9
:1031B00080703060FFF7A6FB009005E0FFF7A2FBF0
:1031C0000099401A022850D83068C005F6D55E4EE6
:1031D000A0686C3601280FD00528306810D020F088
:1031E00001003060306820F004003060A068B8B1A1
:1031F000FFF788FB00900FE0306840F00100F4E733
:1032000040F004003060F7E7FFF77CFB0099411ABB
:1032100041F28830814266D830688007F4D50EE0EC
:10322000FFF770FB009007E0FFF76CFB0099411A75
:1032300041F28830814256D830688007F4D42FB1EB
:10324000DBF8001021F08051CBF80010A069C8B362
:103250003D49091D0968C1F3810102294AD00228AC
:10326000504607D0C8F8600000E03CE0FFF74AFB9A
:1032700004463BE04746C8F86000FFF743FB0646BC
:1032800005E000BFFFF73EFB801B02282BD8286813
:103290008001F7D4D4E907010843A16A2E4A4908FE
:1032A00002EB0141626A41EA8211084394F82C1052
:1032B00040EA0161C9F8001001203866FFF722FBDF
:1032C000044606E03EE000BFFFF71CFB001B02289F
:1032D00009D828688001F7D534E000BFFFF712FB5A
:1032E000001B022802D90320BDE8F88F286880015E
:1032F000F4D427E00128F7D0D9F80000E26900F4FF
:10330000800191421CD1226A00F03F01914217D105
:1033100047F6C071626A0140B1EB821F10D1A26A08
:103320004FF0FF3300F4403103EB5202B1EB024F98
:1033300006D194F82C1000F07060B0EB016F01D052
:103340000120D1E70020CFE70438024000004742C7
:10335000800E4742007000400000FFFF70B504007F
:1033600009D0606A002540B125616561A56294F8C5
:10337000510040B10CE0012070BD6068B0F5827F63
:10338000F4D0E561F2E784F85050204600F044F8AC
:10339000022084F851002068016821F0400101609A
:1033A000A088218900F4827001F404410843A189B6
:1033B00001F400610843217C01F002010843217DF2
:1033C00001F001010843218B01F400710843217FC2
:1033D00001F03801084394F8201001F080010843FF
:1033E000218D01F40051084321680860A06904217F
:1033F00001EA104094F8241001F0100108432168FC
:1034000048602068C16921F40061C16165650120DF
:1034100084F85100002070BD10B586B00446142118
:103420006846FDF72FF914492068884221D11348D6
:103430000021026842F400420260006800F400408B
:1034400005900E481038026842F0040202600068DD
:1034500000F0040005904FF4E05000900220CDE908
:103460000101032003900620049069460448FFF7F9
:1034700047F906B010BD0000003C00404038024053
:10348000000802402DE9FF4F81B01D4693460446D7
:103490004FF001090E9EFFF735FA074694F85100E8
:1034A0006168012806D0B1F5827F3CD1A168C9BB13
:1034B000042838D10298002871D0BBF1000FFBD04E
:1034C000002DF9D094F8500001282CD04FF0010ABB
:1034D00084F850A094F85100042802D0052084F804
:1034E00051004FF00008C4F85480C4F838B0E587A4
:1034F000A58702992163E586A586C4F84080C4F8B3
:10350000448020680168490603D4016841F0400105
:103510000160E068B0F5006F606808D0F0B3012D7D
:1035200049D081E0FFE7022005B0BDE8F08F08B187
:10353000012D39D1206B21680088C860206B801C68
:103540002063E08E401EE0862EE0206881688907B7
:103550000FD5E18E69B1B9F1010F0AD1216B09884C
:10356000C160206B801C2063E08E401EE0864FF01F
:10357000000920688168C9070CD0E18F51B1C0688B
:10358000A16B0880A06B801CA063E08F401EE087C9
:103590004FF00109FFF7B6F9C01B01E00BE067E04F
:1035A000B04201D3701C50D1E08E0028CDD1E08F05
:1035B0000028CAD13EE0206B216800780873206B98
:1035C000401C2063E08E401EE0862DE0206881686C
:1035D00089070FD5E18E69B1B9F1010F0AD1216BCD
:1035E00009780173206B401C2063E08E401EE0864A
:1035F0004FF0000920688168C9070CD0E18F51B1F4
:10360000C068A16B0870A06B401CA063E08F401ED7
:10361000E0874FF00109FFF775F9C01BB04202D3F4
:10362000701C01D011E086B1E08E0028CED1E08F71
:103630000028CBD13A463146204602F0C1F850B1BD
:103640002020606584F8508012E084F851A084F84E
:103650005080032068E7A06818B92068C1688068B6
:10366000009084F851A084F85080606D0028F1D05B
:10367000012059E77047704710B590F83C20012AA7
:1036800022D0012280F83C20CA688C6822F4407263
:1036900022434C6822F4806222430C6822F40062C8
:1036A00022430C6922F4805222434C6922F40052D6
:1036B0002243C969002322F480420A4301684A6414
:1036C00080F83C30002010BD022010BD70B590F88D
:1036D0003C20012A32D0012480F83C40022280F8AC
:1036E0003D2003685A689D6822F070060A683243DC
:1036F0005A60134B02689A4214D0B2F1804F11D035
:10370000104B9A420ED0104B9A420BD00F4B9A425C
:1037100008D00F4B9A4205D00E4B9A4202D00E4B66
:103720009A4204D1496825F080031943916080F8DA
:103730003D40002180F83C10084670BD022070BD5D
:10374000000001400004004000080040000C004060
:1037500000040140004001400018004010B5040082
:1037600003D094F83D0010B107E0012010BD002007
:1037700084F83C00204600F01FF8022084F83D0049
:10378000211D206802F042F9012084F8460084F8E7
:103790003E0084F83F0084F8400084F8410084F83B
:1037A000420084F8430084F8440084F8450084F81B
:1037B0003D00002010BD000008B5026822482349E2
:1037C000824207D1086840F010000860086800F0E5
:1037D000100009E01E48824208D1086840F020002D
:1037E0000860086800F02000009008BD1748194BD9
:1037F000001D9A4207D1016841F4803101600068E0
:1038000000F48030F0E7144B9A4207D1016841F48C
:1038100000310160006800F40030E5E70F4B9A4288
:1038200007D1016841F480210160006800F4802024
:10383000DAE70B488242D8D1086840F040000860BF
:10384000086800F04000CFE7001000404038024018
:103850000014004000400140004401400048014085
:103860000018004090F83D10012901D00120704758
:10387000022180F83D100168CA6842F00102CA6066
:1038800000681149884214D0B0F1804F11D00F491F
:1038900088420ED00E4988420BD00E49884208D08B
:1038A0000D49884205D00D49884202D00C49884212
:1038B00004D1816801F00701062903D0016841F0B5
:1038C0000101016000207047000001400004004039
:1038D00000080040000C004000040140004001408E
:1038E0000018004070B5044690F83C0000250128FF
:1038F00017D0012684F83C60022084F83D0020683F
:10390000826822F0770222F47F42826008685028A1
:1039100038D00DDC20284FD005DC90B3102811D111
:103920004AE0022070BD302846D040280AD13BE052
:1039300060282FD070280DD0B0F5805F03D0B0F58F
:10394000005F12D0012584F83D60002084F83C001F
:10395000284670BDCB68D1E90121206802F0CBF880
:103960002068816841F0770109E0CB68D1E9012145
:10397000206802F0C0F82068816841F480418160CD
:10398000E1E719E0CA684968206802F089F9502126
:10399000206806E0CA684968206802F092F9602150
:1039A000206802F0B2F8CEE7CA684968206802F0E1
:1039B00077F940212068F4E7226801461046F0E7D5
:1039C0002DE9F0410D46040003D094F83D0018B1F4
:1039D00008E00120BDE8F081002084F83C0020468A
:1039E00000F040F8022084F83D002068816844F22D
:1039F000070291438160211D206802F007F82268C8
:103A000090689169166A2B68AF69034340F20330EE
:103A1000814341EA0721A868EF6908434FF6FC415A
:103A20008843E96840EA0720014328692F6A0001BA
:103A300040EA0730084369686D6926F0AA0646EA3D
:103A40000515294393602268906154F8460B016282
:103A5000012004F81F09E0752076E0762077A07534
:103A60000020B7E7F0B587B0044614216846FCF79C
:103A700009FE484923680024464810390225464A71
:103A8000464EB3F1804F1FD0DFF814C1C027634505
:103A900047D1036843F002030360006800F00200AE
:103AA0000590086840F00100086008680097CDE9BB
:103AB000015400F00100CDE904506946039410461A
:103AC000FEF71EFE07B0F0BD036843F0010303607C
:103AD000006800F001000590086840F001000860EF
:103AE000086800F001000590086840F002000860D6
:103AF0000868012700F0020005904FF40040009094
:103B0000CDE90154CDE9034769461046FEF7F8FDBB
:103B100008200090CDE90154CDE9034769463046BD
:103B2000CEE7DFF880C0634517D1026842F0040297
:103B30000260006800F004000590086840F0020090
:103B4000086008680097CDE9015400F00200CDE953
:103B50000450694603943046B2E7134EB342B1D1E4
:103B6000036843F008030360006800F00800059054
:103B7000086840F0010008600868694600F001002C
:103B8000059003200090CDE901541046CDE903458E
:103B900096E7000040380240000002400004024066
:103BA0000004004000080040000C004070B590F890
:103BB0003E60044690F83F5090F8423090F8432021
:103BC000022021B104290ED0012E1BD114E0012EB8
:103BD00018D1012B16D184F83E0084F8420001224E
:103BE0000021206820E0012D0CD1012A0AD184F89F
:103BF0003F0084F8430014E0012D03D1012B01D1D3
:103C0000012A01D0012070BD84F83E0084F83F00F5
:103C100084F8420084F8430001220021206801F06A
:103C20005DFF01220421206801F058FF206801682F
:103C300041F001010160002070BD70472DE9F041A5
:103C400004460068C66805694FF00007A90713D548
:103C5000B10711D5F91E0161012020772068806924
:103C60008007204602D0FFF7E8FF04E000F0E8F804
:103C7000204600F0B9F92777680716D5700714D5E4
:103C800021686FF0040008610220207720688069B5
:103C900010F4407F204602D0FFF7CFFF04E000F091
:103CA000CFF8204600F0A0F92777280715D5300770
:103CB00013D521686FF00800086104202077206880
:103CC000C0698007204602D0FFF7B7FF04E000F08C
:103CD000B7F8204600F088F92777E80616D5F006F1
:103CE00014D521686FF01000086108202077206843
:103CF000C06910F4407F204602D0FFF79EFF04E029
:103D000000F09EF8204600F06FF92777E80708D00A
:103D1000F00706D021686FF001000861204600F02E
:103D200007FA280608D5300606D521686FF080000E
:103D300008612046FFF79EFC680608D5700606D588
:103D400021686FF040000861204600F037FAA806AD
:103D50000AD5B00608D521686FF02000086120461A
:103D6000BDE8F041FFF787BCBDE8F08170B586B0D3
:103D7000044614216846FCF785FC24682848002284
:103D800028490223844212D1086840F010000860DC
:103D90000868694600F0100005904FF4D440009088
:103DA000CDE901320120CDE903201F4812E01F4870
:103DB0000325844212D1086840F0010008600868B9
:103DC000694600F0010005900C200090CDE9013219
:103DD000174821E0FEF794FC06B070BD154E16485A
:103DE000B44209D10C6844F002040C60096801F087
:103DF0000201059181150BE0104EB442ECD10C6824
:103E000044F002040C60096801F00201059171158B
:103E10000091CDE901326946CDE90325DAE70000DA
:103E200000000140303802400010024000400140D4
:103E300000000240004401400004024000480140EC
:103E4000704770B50D46040003D094F83D0010B1E2
:103E500007E0012070BD002084F83C00204600F0FF
:103E60001BF8022084F83D00211D206801F0CEFDE2
:103E70002068016821F00801016054F8460B0168D0
:103E800029430160012004F81F09E0752076E076DF
:103E90002077A075002070BD704770B5044690F87B
:103EA0003C0000260D4601280FD0012084F83C007C
:103EB0006AB1042A1DD0082A2FD00C2A3FD001262F
:103EC000002084F83C00304670BD022070BD2068A0
:103ED00001F024FE2068816941F0080181612068B9
:103EE000816921F004018161206881692A69114397
:103EF00011E0206801F042FE2068816941F4006110
:103F000081612068816921F4806181612068816913
:103F10002A6941EA02218161D2E7206801F064FE4A
:103F20002068C16941F00801C1612068C16921F0C0
:103F30000401C1612068C1692A69114311E0206848
:103F400001F086FE2068C16941F40061C16120680A
:103F5000C16921F48061C1612068C1692A6941EAAF
:103F60000221C161ACE710B5040003D094F83D0014
:103F700010B107E0012010BD002084F83C0020466D
:103F800000F01EF8022084F83D00211D206801F099
:103F90003DFD012084F8460084F83E0084F83F008F
:103FA00084F8400084F8410084F8420084F843001B
:103FB00084F8440084F8450084F83D00002010BDDA
:103FC00008B500680649884208D10648016841F0F2
:103FD00001010160006800F00100009008BD0000D0
:103FE00000000140443802407047000010B504460C
:103FF000022249B104290ED0082913D094F84100B7
:10400000012816D0012010BD94F83E000128F9D1F6
:1040100084F83E200FE094F83F000128F2D184F8A4
:104020003F2008E094F840000128EBD184F84020BC
:1040300001E084F841200122206801F04FFD16497B
:104040002068164A884201D0904203D1436C43F461
:10405000004343642068884213D0B0F1804F10D0F1
:104060000F4988420DD00F4988420AD00E49884234
:1040700007D0904205D00D49884202D00C498842B1
:1040800004D1816801F00701062903D0016841F0DD
:1040900001010160002010BD00000140000401404A
:1040A0000004004000080040000C004000400140B7
:1040B0000018004030B504460D460068002201F0AB
:1040C0000DFD194B41F2111120688A10984202D05F
:1040D000164B984209D1036A0B4206D1036A134278
:1040E00003D1436C23F4004343642068036A0B420A
:1040F00006D1016A114203D1016821F0010101607A
:1041000001203DB1042D08D0082D09D084F84100CC
:10411000002030BD84F83E00FAE784F83F00F7E75E
:1041200084F84000F4E70000000001400004014072
:1041300070B5044600681A49884201D1FEF782FD35
:1041400018492068884229D101211748FEF7D0FB81
:104150001649002501281DD081F89051144C206883
:10416000401C206002280FD31248211D006805F072
:1041700059FA606838B110494FF080500860BFF3B9
:104180004F8FBFF36F8F256003F070FCBDE8704068
:1041900004F034BF012081F89001DFE770BD00001A
:1041A000002000400018004000080240F0070020F6
:1041B00098000020A000002004ED00E0704770B5DA
:1041C000040004D094F84100002510B106E001205D
:1041D00070BD84F84050204600F024F8242084F874
:1041E00041002068C16821F40051C160204601F0FF
:1041F0007BFD2068016921F49041016120684169DB
:1042000021F02A0141612068C16841F40051C16078
:104210006564202084F8410084F842006563002032
:1042200070BD000010B586B0044614216846FCF746
:1042300029FA14492068884221D1134800210268D4
:1042400042F010020260006800F0100005900E4875
:104250001438026842F001020260006800F00100B8
:1042600005904FF4C06000900220CDE901010320C9
:1042700003900720049069460448FEF741FA06B00F
:1042800010BD000000100140443802400000024010
:10429000FEE701684A69D24352050FD46FF4806289
:1042A0004A61002140F8301F202242738173026965
:1042B00042F0040202610173012070470020704740
:1042C000F8B50446C06A1E460D461746082807D0B2
:1042D000012805D010F5803F02D0206B122804D1B0
:1042E0002068016841F480710160134600224FF09C
:1042F00001112046009600F05DF840B1206800688A
:10430000C00502D54FF4007020640320F8BD206979
:10431000B0F5804F0ED00620216800EAD51040F09D
:10432000F000086133463A460B49204600F08AF80F
:1043300078B902E005F0FE0000E0E8B2216808610B
:10434000054933463A46891F204600F07BF800288D
:10435000DCD00120F8BD00000800010070B5164651
:104360000D4604461EE02046FFF793FF08B10120EA
:1043700070BD681C16D0FEF7C5FA801BA84200D895
:1043800085B920684069C04340070BD5002044F838
:10439000300F20216173A073216941F02001216158
:1043A0002073E4E720684069C0434007DBD4002065
:1043B00070BD00002DE9F047984617460D460446AB
:1043C000C1F30746DDF820902AE000BFB8F1FF3FB7
:1043D00026D0FEF797FAA0EB0901414502D8B8F1C3
:1043E000000F1DD12068012E16D0806925EA00003B
:1043F0000004000C12D00020B84211D1002044F873
:10440000300F20216173A073216941F020012161E7
:1044100020730120BDE8F0874069E7E70120EBE762
:104420002068012E0AD0806925EA00000004000CF3
:1044300006D00020B842C9D00020EBE74069F3E77E
:104440000120F7E72DE9F047984616460D46044649
:104450004FF000094FF0200AC1F3074723E020681E
:104460004069C043400515D42068016841F40071DB
:10447000016021686FF480604861C4F8309084F86E
:104480003DA084F83E90216C41F00401216484F841
:104490003C9021E0701C06D0FEF734FAA0EB080037
:1044A000B04203D816B1012F1FD021E02068012FA0
:1044B00015D0806925EA00000004000C18D000BF68
:1044C00044F8309F84F80DA084F80E90216941F0E3
:1044D0002001216184F80C900120BDE8F08740693B
:1044E00025EA00000004000CEAD12068406901E0E0
:1044F0002068806925EA00000004000CAFD1ECE7D9
:1045000070B516460D4604461EE02046FFF7C1FE74
:1045100008B1012070BD681C16D0FEF7F3F9801BAE
:10452000A84200D885B920684069C04300060BD571
:10453000002044F8300F20216173A073216941F0FD
:10454000200121612073E4E720684069C043000630
:10455000DBD4002070BD000070B500F0700400F0E6
:1045600087F80B4D0646002202212846FEF7C5F9C2
:10457000272003F0BBFD44EA060003F0B7FD01224B
:1045800002212846FEF7B9F9BDE8704000F070B886
:10459000000C024010B5084C002202212046FEF714
:1045A000ACF9E22003F0A2FD20460122BDE8104054
:1045B0000221FEF7A2B90000000C024010B5084C21
:1045C000002202212046FEF798F9E12003F08EFD3B
:1045D00020460122BDE810400221FEF78EB90000FE
:1045E000000C02402DE9F041064600F055F8054662
:1045F000202804D9FFF7CEFF2120BDE8F08155B176
:104600000E4F002202213846FEF777F9612003F0B1
:104610006DFD002407E00020EFE7FF2003F066FDBA
:104620003055641CE4B2AC42F7D301220221384673
:10463000FEF763F9FFF7AEFF2846DEE7000C024005
:1046400070B50A4D0446002202212846FEF755F9AE
:10465000204603F04BFDFF2003F048FD04460122F5
:1046600002212846FEF749F9204670BD000C0240A1
:1046700070B5084D002202212846FEF73EF90720BA
:1046800003F034FD0446012202212846FEF735F9E5
:10469000204670BD000C024070B50A4D0022022178
:1046A0002846FEF72AF9602003F020FDFF2003F0E2
:1046B0001DFD0446012202212846FEF71EF9204670
:1046C00070BD0000000C0240052A00D90522052813
:1046D00000D905200A30C0B200F01CB810B504465D
:1046E0000020FFF7ADFF014614B1012C03D004E018
:1046F00020F0010101E040F00101BDE81040002080
:1047000000F02AB8052900D905210A4601461020E3
:10471000AFF300802DE9F0410E4F15460E460446DA
:10472000002202213846FEF7E8F844F0200003F0AA
:10473000DDFC002404E0305D03F0D8FC641CE4B22E
:10474000AC42F8D33846BDE8F04101220221FEF721
:10475000D4B80000000C024070B50B4D0E46044664
:10476000002202212846FEF7C8F844F0200003F09A
:10477000BDFC304603F0BAFC2846BDE8704001227B
:104780000221FEF7BAB80000000C024070B50C46DA
:104790000546202918D8002C16D00C4E00220221E4
:1047A0003046FEF7AAF8B02002E000BF15F8010B72
:1047B00003F09CFC641EE4B2F8D23046BDE87040C1
:1047C00001220221FEF799B870BD0000000C0240E2
:1047D0001FB51748FDF776FF00211548009101919C
:1047E0000291144A039102604FF48032C0E9012122
:1047F0000161017680F820100F4AC0E90A210124E6
:10480000C461C16080F830104161FDF72CFE08B131
:10481000FDF77EFD0820CDE90004022002906946E4
:104820000348FDF777FD002801D0FDF771FD1FBD9E
:104830006C2B0020002001400100000F10B5A4B037
:104840001C221C496846FBF7C9FE0021684603F09C
:1048500089FC194C17491C2260601C3107A8FBF722
:10486000BDFE002107A803F07DFC1249A0601C22B8
:1048700038310EA8FBF7B2FE00210EA803F072FC3F
:104880000C49E0601C22543115A8FBF7A7FE00215B
:1048900015A803F067FC074920611C2270311CA891
:1048A000FBF79CFE00211CA803F05CFC606124B0B7
:1048B00010BD000034B30008A00000202DE9F04F27
:1048C00087B014216846FBF7DDFE504800240168DC
:1048D00041F010010160016801F0100105910168CB
:1048E00041F004010160016801F0040105910168D3
:1048F00041F080010160016801F0800105910168CB
:1049000041F001010160016801F0010105910168B8
:1049100041F002010160016801F0020105910168A6
:1049200041F0080101600068DFF8E4A000F0080031
:1049300040F2FF550590002229465046FDF7DDFF65
:10494000DFF8D0B04FF4C977002239465846FDF75A
:10495000D4FF4FF49078002241462F48FDF7CDFF59
:1049600040F20649002249462C48FDF7C6FF0022C6
:1049700020212B48FDF7C1FF009502260125039653
:10498000CDE9015469465046FDF7BAFE4FF4624046
:10499000CDE90004694658460294FDF7B1FE4FF494
:1049A00044100095CDE9010469465846FDF7A8FE7C
:1049B00000970396CDE9015469465846FDF7A0FEDD
:1049C000CDF800800396CDE9015469461248FDF701
:1049D00097FECDF800900396CDE9015469460F4843
:1049E000FDF78EFECDE9005469460C480294FDF7B0
:1049F00087FE2020CDE90005CDE90246694608483A
:104A0000FDF77EFE07B0BDE8F08F000030380240B1
:104A1000001002400008024000000240000C02406A
:104A2000000402400D4810B50B4901600C4941607B
:104A300000214FF480428160C0E90312416181612D
:104A4000C1610162FDF764FF002803D0BDE810409A
:104A5000FDF75EBC10BD000000580040B42B0020E4
:104A6000801A0600104810B50E4901604FF482719B
:104A7000416000218160C1604FF400720161C0E9B2
:104A800005121022C0E90721416281620A21C16238
:104A9000FEF764FC002803D0BDE81040FDF738BCE9
:104AA00010BD0000003C0040082C002030B587B04D
:104AB0001C216846FBF7E6FD1D4C1C480025C4E997
:104AC000000541F24410C4E9025025612046A56169
:104AD000FEF744FE08B1FDF71BFC1548FFF743FA4B
:104AE00008B1FDF715FC602000904FF45D70CDE932
:104AF0000105002269460E480495FFF7CEF908B17A
:104B0000FDF706FC2068016A41F21112114207D13B
:104B1000016A9210114203D1016821F00101016084
:104B20000348FFF723F907B030BD000000440140FF
:104B3000A02E002030B587B01C216846FBF7A2FDEF
:104B40001B4D1A480024C5E9000441F63F20C5E981
:104B500002402C612846AC61FEF700FE08B1FDF76B
:104B6000D7FB1348FFF7FFF908B1FDF7D1FB602031
:104B7000CDE90004022002900022694604940C480A
:104B8000FFF78BF908B1FDF7C3FB2868816921F0B5
:104B9000080181610648FEF765FE00210448FFF721
:104BA00025FA0348FFF7E2F807B030BD004801409E
:104BB000E82E00201FB500211148009101910291BB
:104BC0000E4A039102605322C0E901214FF47A7228
:104BD000C0E9032180218161FEF7C0FD08B1FDF726
:104BE00097FB4FF48050009069460548FEF77AFE27
:104BF000002801D0FDF78CFB1FBD0000001800400D
:104C0000302F002010B592B000240F941C2168466C
:104C10001094FBF737FD202107A8FBF733FD2D4843
:104C20002B49C0E9001441F63F21C0E9024180212F
:104C30000461C0E90541FFF796F908B1FDF768FB8B
:104C40000F940FA923481094FEF740FD08B1FDF71B
:104C50005FFB6020CDE900040220CDE9020404944A
:104C60000594002269461B480694FFF716F908B11F
:104C7000FDF74EFB042269461648FFF70EF908B10E
:104C8000FDF746FB082269461248FFF706F908B10E
:104C9000FDF73EFB0C2269460E48FFF7FEF808B10F
:104CA000FDF736FB0794089409944FF400500A94DA
:104CB000CDE90B4007A907480E94FEF7DDFC08B1CB
:104CC000FDF726FB0348FFF751F812B010BD0000B6
:104CD00000000140602C002010B58CB024216846F3
:104CE000FBF7D0FC00241A4809944FF080410A9445
:104CF000C0E900144FF6FF71C0E902418021046150
:104D0000816103200090022001900120CDE902047E
:104D10000494CDE90540079469460D480894FEF7D0
:104D20004FFE08B1FDF7F4FA099409A908480A945E
:104D3000FEF7CCFC08B1FDF7EBFA00210448FEF7C2
:104D400035FF04210248FEF731FF0CB010BD000012
:104D5000A82C002010B58CB024216846FBF792FCEB
:104D600000241A48099418490A94C0E900144FF61F
:104D7000FF71C0E90241802104618161032000903C
:104D8000022001900120CDE902040494CDE9054000
:104D9000079469460D480894FEF712FE08B1FDF726
:104DA000B7FA099409A909480A94FEF78FFC08B1DB
:104DB000FDF7AEFA00210548FEF7F8FE042103488E
:104DC000FEF7F4FE0CB010BD00040040F02C0020F3
:104DD00010B58CB024216846FBF754FC00241A4817
:104DE000099418490A94C0E900144FF6FF71C0E90C
:104DF0000241802104618161032000900220019022
:104E00000120CDE902040494CDE9054007946946E8
:104E10000D480894FEF7D4FD08B1FDF779FA09941E
:104E200009A909480A94FEF751FC08B1FDF770FA88
:104E300000210548FEF7BAFE04210348FEF7B6FE3E
:104E40000CB010BD00080040382D002010B58CB00B
:104E500024216846FBF716FC00241A4809941849D7
:104E60000A94C0E900144FF6FF71C0E902418021A5
:104E70000461816103200090022001900120CDE9AE
:104E800002040494CDE90540079469460D4808944E
:104E9000FEF796FD08B1FDF73BFA099409A9094808
:104EA0000A94FEF713FC08B1FDF732FA0021054819
:104EB000FEF77CFE04210348FEF778FE0CB010BD1F
:104EC000000C0040802D00207CB500241348009485
:104ED000114D0194C0E900544FF6FF71C0E9024141
:104EE0008461FEF73BFC08B1FDF712FA08210B487C
:104EF000FEF7A7FF08B1FDF70BFA009469460748D3
:104F00000194FEF7E3FB08B1FDF702FA01206861A6
:104F10006C622C617CBD000000100040C82D002098
:104F20001CB5002417480094154901940160142110
:104F3000C0E901144FF6FF718461C160FEF70EFCF9
:104F400008B1FDF7E5F908210E48FEF77AFF08B130
:104F5000FDF7DEF9009469460A480194FEF7B6FBB6
:104F600008B1FDF7D5F906480C300460044901206A
:104F700014310860024824300460081F04601CBD1E
:104F800000140040102E002030B58BB00024079490
:104F9000089409941C2168460A94FBF773FB2D4D75
:104FA0002B48286040F61F50C5E9010440F27B20E1
:104FB000C5E903042846AC61FEF7D0FB08B1FDF754
:104FC000A7F94FF48050079007A92248FEF78AFC02
:104FD00008B1FDF79DF91F48FEF7C5FF08B1FDF7C1
:104FE00097F908211B48FEF72CFF08B1FDF790F94F
:104FF000702000900120019002200290002269465A
:1050000004941448FEF749FF08B1FDF781F92868B8
:10501000816921F008018161042269460D480294EA
:10502000FEF73BFF08B1FDF773F92868816921F4A9
:105030000061816100210748FFF73CF80421054821
:10504000FFF738F80348FEF791FE0BB030BD0000C3
:1050500000400140582E00200C4810B50A4901605C
:105060004FF4E1314160002181600C22C160C0E950
:1050700004128161C161FFF7A2F8002803D0BDE8E6
:105080001040FDF745B910BD00100140782F0020F9
:10509000FEE7C0EB00108000C11700EB11500013B9
:1050A0007047FEE710B50021074C0A46002004EBCC
:1050B000C1131A54401CC0B28028FAD3491CC9B28B
:1050C0000829F3D310BD0000F0030020F0B57F28BD
:1050D0002AD83F2928D88418802C02D9C0F1800210
:1050E000D2B2CC18402C02D9C1F14003DBB2012668
:1050F000DFF838E087180B4414E001F0070206FAE5
:1051000002F5CA0804460EEBC21207E012F804C00A
:105110002CEA050C02F804C0641CE4B2A742F5D8DE
:10512000491CC9B28B42E8D8F0BD0000F003002052
:1051300038B500F000F9244800902B238022042188
:10514000002000F091F933237F221946002000F05F
:105150005DF806231DA23721002000F000FA1D4C47
:1051600006250095A27901233721182000F0D4F9F3
:10517000062319A23721272000F0F1F900952268B3
:10518000022337213920521E00F0C6F9207940B1A0
:10519000022813D0032807D007282B4611D00FA2CE
:1051A00004E006230FA201E0062310A237214E20BF
:1051B00000F0D5F9BDE8384000F0E8B906230EA2AA
:1051C000F4E710A2F2E7000032B000084672712E38
:1051D00000000000F00700204E6F2E00496E76613F
:1051E0006C6964004E6F726D616C000053656C6693
:1051F00054657374000000005465737444726962EE
:105200000000000043726179000000002DE9F04FBA
:105210001E464FF0000904460D461746C846B142E7
:105220000ED1BC4208DD2746144605E02946E0B20F
:1052300000F05EF8641C24B2BC42F7DDBDE8F08FDC
:10524000BC420DD1B54208DD1D460E4605E0E9B26F
:10525000204600F04DF86D1C2DB2B542F7DDEDE7AC
:1052600003DD274614461D460E46B54203DD6D425A
:1052700076424FF00109701B391B884207DD20463A
:105280002C4605463846374606464FF00108701B47
:10529000391B421A4FEA400B4FEA420AC1EB400663
:1052A0001AE06042C1B203E06842C1B203E0E1B279
:1052B000E8B201E0E9B2E0B200F01AF8BC42BDDAAF
:1052C000641C24B2002E02DA06EB0B0003E06D1C16
:1052D0002DB206EB0A0006B2B9F1000F03D0B8F107
:1052E000000FE1D0DDE7B8F1000FE3D0DFE7000009
:1052F00010B57F280CD83F290AD8064ACB0802EB04
:10530000C31301F007041A5C0121A1400A431A5497
:1053100010BD0000F003002070B500244FF47A7631
:105320000025012004F086F86D1C642DF9D3641C5F
:10533000B442F5D370BD10B5FFF7EEFFAE2000F01C
:1053400039F9D52000F036F9802000F033F9A82093
:1053500000F030F93F2000F02DF9D32000F02AF9B9
:10536000002000F027F9402000F024F9A02000F0F0
:1053700021F9C02000F01EF9DA2000F01BF91220FC
:1053800000F018F9812000F015F9CF2000F012F993
:10539000D92000F00FF9F12000F00CF9DB2000F02B
:1053A00009F9302000F006F9A42000F003F9A62046
:1053B00000F000F98D2000F0FDF8142000F0FAF85C
:1053C000AF2000F0F7F8FFF76DFEBDE8104000F0E9
:1053D000DDB80246012000E05043491EFCD2704770
:1053E0000FB470B588B014460D46064610AA68463C
:1053F0000F99FBF7E1F823466A462946304600F04C
:10540000AEF808B070BC5DF814FB10B50C4640F067
:10541000B00000F0CFF8102040EA141000F0CAF8F5
:1054200004F00F00BDE8104000F0C4B808B5082B28
:105430000DD0062B0AD10A4B02EB420203EB4202CB
:10544000C03A00920823062200F00EF808BD054B72
:1054500003EB0212A2F50072102300920822F3E778
:10546000F8AD000808A800082DE9FC4F1F461546B6
:105470000C4606467F284BD83F2C49D8FFF726FE1E
:10548000791ECA17002001EB52710122DFF884B0A7
:1054900004F0070902EBE10238E0002332E0F118E2
:1054A0007F2931D800EBD40ABAF1070F30D80BEBC3
:1054B000CA1E1EF8017010FB05FCCDF804C0DDF813
:1054C0002C809844CDF800801CF808C00CFA09FC28
:1054D00047EA0C070EF801700AF10107072F0FD8F1
:1054E0000EEB0108DDE900C198F8807011F80CC0DE
:1054F000C9F108012CFA01FC47EA0C0788F8807012
:105500005B1CDBB2AB42CAD3401CC0B28242C4DCDB
:10551000BDE8FC8FF00300202DE9F04700241D4674
:1055200090468A4681460A27089E14E0291B0A20D5
:10553000491EFFF74EFFB8FBF0F0B0FBF7F107FB99
:10554000110204FB0690C0B2334651463032FFF7D9
:105550006DFF641CE4B2AC42E8D3BDE8F0872DE9EE
:10556000F0411E46154688460746002408E014FB15
:105570000670C0B233464146FFF758FF641CE4B2E0
:105580002A5D002AF3D1BDE8F081000070B5084D16
:10559000002400212046FFF738FF05EBC4108021CE
:1055A00000F01AF8641CE4B2082CF2D370BD0000BD
:1055B000F00300201CB5002101918DF805004FF487
:1055C000FA700090022301AA78210248FDF764FADC
:1055D0001CBD0000B42B0020F8B506460C46481C44
:1055E000FAF71CFF054640202870002004E0315CDB
:1055F0002A18401C5170C0B2A042F8D34FF4FA7080
:105600000090631C2A4678210348FDF745FA284696
:10561000BDE8F840FAF731BFB42B00202048214DF7
:105620000479641C10E0012202212846FDF765F987
:10563000642002F08BFD002202212846FDF75DF96F
:10564000642002F083FD641E002CECD14FF47A75C7
:10565000284602F015F8144CC4E90601284602F069
:105660000FF8C4E90801284602F00AF8C4E90A0163
:10567000012002F005F8C4E90E0142F2107001F0B9
:10568000FFFFC4E90C0101F071FD03F0C1FB074805
:10569000FEF7E8F801F0A0FD012002F057FDF9E760
:1056A000F007002000080240A0000020302F00205A
:1056B0007CB50021332380220846FFF707FD2B4DE0
:1056C000287928B1022837D0032801D0072849D1EA
:1056D00095ED6B0A10EE100A04F0FAFFCDE9000117
:1056E000002123A306220846FFF77AFE95ED6A0AF9
:1056F00010EE100A04F0ECFFCDE900011FA3062212
:1057000000214220FFF76CFE00240B26C4EBC400EE
:1057100000EB041005EB8000C06D009004EB8400EA
:1057200006EB4000C1B218A306220020FFF758FE86
:10573000641C042CEADB15E01748006810B101284E
:1057400007D00FE015A306221C211320FFF748FE07
:1057500008E0164816A30622006800901C210D20C0
:10576000FFF73EFEBDE87C40FFF710BFF0070020CA
:105770004241543A252E3166560000004341503ACA
:10578000252E3166560000004C65667446726F6EB9
:10579000743A25640000000058000020476574201A
:1057A0006D6520612062616C6C2100005400002056
:1057B000526F746174652073706565643A25640086
:1057C000F8B515460E460B4600920446012202210A
:1057D00000F02CF8A0B9134813490068B0FBF1F0B1
:1057E0004FF47A71484300906068B0F5827F0DD124
:1057F0003346002280212046009500F017F870B152
:10580000606D40F0200060650320F8BD009830B165
:10581000401E009020688068C0430006F6D5002036
:10582000F8BD00008800002000366E012DE9F84325
:105830001E46914688460446089DFDF763F8401BC6
:10584000351AFDF75FF8074626480068C0F3CB30ED
:1058500068430AE0701C09D0FDF754F8C01BA84249
:105860000FD275B10098B8B3401E009020688168CF
:1058700038EA010033D000214945EBD10020BDE8D2
:10588000F8832068416821F0E00141606068B0F56C
:10589000827F0BD1A068B0F5004F02D0B0F5806FC9
:1058A00004D12068016821F040010160A06AB0F5D0
:1058B000005F09D12068016821F40051016020686F
:1058C000016841F400510160012084F8510000207A
:1058D00084F850000320D2E7FFE70025C6E7012146
:1058E000CAE700008800002010B502F02BF902F092
:1058F00067F902F00FF902F07DF902F0C1F80749EB
:105900000020401C8842FCDB61B602F08BF9FFF7F7
:105910000FFCBDE8104002F0BBB8000080F0FA02B6
:1059200010B5502080F31188BFF34F8FBFF36F8FF6
:1059300004F022F818B104494FF0805008600020AC
:1059400080F3118810BD000004ED00E030B593B085
:1059500030216846FAF796FE14210CA8FAF792FE59
:105960001E480025016841F080510160006800F088
:10597000805011901A48016841F48041016000682C
:10598000022400F480401190012000900004019056
:105990008001CDE90640192008904FF4A870CDE9A8
:1059A000090404200B906846FDF722FB08B172B68B
:1059B000FEE70CA90F2081E831004FF4A0500F90B2
:1059C0004FF48050109005210CA8FDF705FA00282F
:1059D00001D072B6FEE713B030BD0000403802407F
:1059E000007000400248016841F470010160704796
:1059F00088ED00E00148FEF721B90000302F0020BB
:105A00000148FEF71BB90000C02F0020F0B5026866
:105A1000274B284D284E294F294C4FF0804C984257
:105A200009D0604507D0A84205D0B04203D0B842A3
:105A300001D0A04204D122F0700E4A6842EA0E0260
:105A400098421BD0604519D0A84217D0B04215D05B
:105A5000B84213D0A04211D01A4DA8420ED01A4D10
:105A6000A8420BD0194DA84208D0194DA84205D024
:105A7000184DA84202D0184DA84203D122F4407517
:105A8000CA682A434D6922F080022A438D68C562A4
:105A90000D688562984201D0A04201D10969016375
:105AA000016841F004010160012141610260F0BD23
:105AB000000001400004004000080040000C0040CD
:105AC0000004014000400140004401400048014002
:105AD00000180040001C00400020004010B501F0FC
