:020000040800F2
:10000000F86C0020E9020008C32F0008F52400085E
:10001000B12F0008C9060008C9360008000000001A
:10002000000000000000000000000000290200089D
:10003000CB0600080000000085020008CD31000852
:100040000303000803030008030300080303000878
:10005000030300080303000819070008030300084E
:100060000303000803030008030300080303000858
:100070000303000803030008030300080303000848
:100080000303000803030008030300080303000838
:100090000303000803030008030300080303000828
:1000A0000303000803030008030300080303000818
:1000B0000303000803030008030300080303000808
:1000C00003030008030300080303000803030008F8
:1000D00003030008030300080303000803030008E8
:1000E000030300080303000803030008A13200080B
:1000F00003030008AD3200080303000803030008EF
:100100000303000803030008030300085530000838
:1001100003030008030300080303000803030008A7
:100120000303000803030008030300080303000897
:100130000303000803030008030300080303000887
:100140000303000803030008030300080303000877
:100150000303000803030008030300080303000867
:100160000303000803030008030300080303000857
:100170000303000803030008030300080000000055
:10018000030300080303000800F002F800F03CF845
:100190000AA090E8000C82448344AAF10107DA45E2
:1001A00001D100F031F8AFF2090EBAE80F0013F0F8
:1001B000010F18BFFB1A43F00103184760770000D6
:1001C00080770000103A24BF78C878C1FAD8520767
:1001D00024BF30C830C144BF04680C6070470000C1
:1001E0000023002400250026103A28BF78C1FBD840
:1001F000520728BF30C148BF0B6070471FB507F0DA
:1002000084FA1FBD10B510BD00F096F91146FFF736
:10021000F5FF04F0F8FF00F0B4F903B4FFF7F2FFC4
:1002200003BC00F0B5F900002C4B19680868B0E871
:10023000F04F80F30988BFF36F8F4FF0000080F319
:10024000118870470000000008480068006880F3CB
:1002500008884FF0000080F3148862B661B6BFF3DF
:100260004F8FBFF36F8F00DF00BF00BF08ED00E0CE
:10027000DFF80C00016841F470010160704700BFB5
:1002800088ED00E0EFF30980BFF36F8F134B1A681E
:100290001EF0100F08BF20ED108A20E9F04F10600B
:1002A00009B44FF0500080F31188BFF34F8FBFF3B4
:1002B0006F8F06F053F84FF0000080F3118809BCEF
:1002C00019680868B0E8F04F1EF0100F08BFB0ECD6
:1002D000108A80F30988BFF36F8F7047B400002045
:1002E000EFF3058070470000094880470948004740
:1002F000FEE7FEE7FEE7FEE7FEE7FEE7FEE7FEE7D6
:10030000FEE7FEE704480549054A064B7047000032
:100310009132000889010008F8660020F86C00207E
:10032000F8680020F868002053EA020C00F06980A9
:100330002DE9F04B4FF00006002B1FBFB3FA83F5F9
:1003400003FA05F424FA05F65E4012BF1643B2FA2A
:1003500082F502FA05F4C5F120051EBF22FA05FC5C
:1003600044EA0C04203556EA044C4FEA144418BF02
:10037000641C4FF000084FF00009904271EB030C31
:1003800039D3002919BFB1FA81F701FA07F6B0FA9B
:1003900080F700FA07F6C7F120071EBF20FA07FC16
:1003A00046EA0C062037B6FBF4FCA7EB0507103F26
:1003B00007F01F0BCBF120060CFA0BFB2CFA06F60C
:1003C00044BFB3460026202FA4BF5E464FF0000B6B
:1003D0005BEA060C08BF4FF0010B19EB0B09ABFBF6
:1003E000027C48EB0608C01B06FB02CC0BFB03CCCF
:1003F00071EB0C01C1E70B46024641464846BDE899
:10040000F08B13B54FF000004FF00001AFF3008008
:10041000BDE81C40704710B5203AC0F00B80B1E831
:100420001850203AA0E81850B1E81850A0E8185029
:10043000BFF4F5AF5FEA027C24BFB1E81850A0E832
:10044000185044BF18C918C0BDE810405FEA827C4C
:1004500024BF51F8043B40F8043B08BF7047D20763
:1004600028BF31F8023B48BF11F8012B28BF20F804
:10047000023B48BF00F8012B70474FF000020429EF
:10048000C0F0128010F0030C00F01B80CCF1040CC3
:10049000BCF1020F18BF00F8012BA8BF20F8022BF7
:1004A000A1EB0C0100F00DB85FEAC17C24BF00F89D
:1004B000012B00F8012B48BF00F8012B70474FF0CB
:1004C000000200B5134694469646203922BFA0E8A4
:1004D0000C50A0E80C50B1F12001BFF4F7AF0907B0
:1004E00028BFA0E80C5048BF0CC05DF804EB8900A1
:1004F00028BF40F8042B08BF704748BF20F8022BE4
:1005000011F0804F18BF00F8012B704770477047FB
:10051000704710B500F008F8006810BD10B504462B
:1005200000F002F8046010BD004870479466002097
:1005300000487047946600207546FFF7F9FFAE4605
:1005400005006946534620F00700854618B020B5DF
:10055000FFF7D8FEBDE820404FF000064FF000073F
:100560004FF000084FF0000B21F00701AC46ACE85B
:10057000C009ACE8C009ACE8C009ACE8C0098D46C8
:1005800070470446AFF300802046FFF746FE0000A8
:1005900001491820ABBEFEE72600020070470000AC
:1005A000464910B54A6822F440324A604A684368B6
:1005B0001A434A6001684A6822F480724A600168FE
:1005C0004A68036942EA03224A6001684A6822F0E5
:1005D00040724A6001684A6883681A434A60016849
:1005E0008A6822F400628A6001688A68C3681A43D4
:1005F0008A60816A6FF07062D14201688A6822F075
:1006000070628A6001688A680CD0836A1A438A60C3
:1006100001688A6822F040528A6001688A68C36A69
:100620001A4301E022F040528A6001688A6822F091
:1006300002028A6001688A68037E42EA43028A6095
:1006400090F82010002901684A680FD042F4006237
:100650004A6001684A6822F460424A6001684A6858
:10066000174C436A04EB43331A4301E022F400625F
:100670004A600168CA6A22F47002CA620168CA6AE2
:10068000838B104C04EB03531A43CA6201688A68D7
:1006900022F400728A6001688A6890F8303042EA79
:1006A00043228A6001688A6822F480628A60016855
:1006B0008A68406942EA8020886010BD00230140BA
:1006C00000E0FFFF0000F0FFFEE7704770B50D4D42
:1006D000002401220221284600F057FB322004F0BA
:1006E00033FE00220221284600F04FFB322004F0A6
:1006F0002BFE641C052CECDBBDE870404FF49670BB
:1007000004F022BE00080240012004F01DFEFBE7B9
:10071000012004F019FEFBE7012000F02DBA72B6AB
:10072000FEE7000078B50024009490F83C20012AF0
:1007300019D0012280F83C200A6807230568092A9D
:1007400013D9EE680A3A02EB420293409E43EE60F0
:100750000B788A680A3B03EB43039A400368DD6821
:100760002A43DA6010E0022078BD2E6902EB4202D3
:1007700093409E432E610B788A6803EB43039A40B3
:1007800003681D692A431A614A681F23072A13D286
:1007900005686E6B521E02EB820293409E436E63AD
:1007A0000B790A885B1E92B203EB83039A400368BD
:1007B0005D6B2A435A6327E005680D2A12D22E6B1F
:1007C000D21F02EB820293409E432E630B790A886C
:1007D000DB1F92B203EB83039A4003681D6B2A432D
:1007E0001A6311E0EE6A0D3A02EB820293409E43D7
:1007F000EE620B790A880D3B92B203EB83039A40B9
:100800000368DD6A2A43DA62164B0568144A9D4282
:1008100006D10D68122D03D1556845F48005556049
:1008200005689D4218D10B68102B01D0112B13D1F4
:10083000536843F400035360096810290CD10A4936
:100840000A4A0968B1FBF2F101EB8101490000E0BD
:10085000491E00910029FBD180F83C40002078BD62
:1008600000230140002001404800002040420F00CA
:100870000068C06C704770B504004FF0000503D0ED
:10088000206C002610B107E0012070BD204600F06A
:100890001DF8666484F83C60206CC00610D4206C9F
:1008A00020F4885040F0020020642046FFF778FED4
:1008B0006664206C20F0020040F00100206400E03B
:1008C000012584F83C60284670BD000010B586B054
:1008D000044614216846FFF7F2FD1149206888425A
:1008E0001BD110480021026842F480720260006847
:1008F00000F4807005900B481438026842F0020240
:100900000260006800F00200059003200090CDE92D
:1009100001016946044800F03BF906B010BD000033
:100920000020014044380240000402402DE9F0411B
:10093000044600680D4681684FF0000749050BD555
:100940008068C00508D5206C40F02000206484F841
:100950003C700120BDE8F08100F01CFA064613E06F
:10096000681C11D025B100F015FA801BA8420BD9E4
:1009700020680068800707D4206C40F004002064E1
:1009800084F83C700320E5E7206800688007E7D51D
:1009900021686FF012000860206C40F40070206441
:1009A0002068816811F0405F13D1217E89B9C16A46
:1009B00011F4700F02D0806840050AD4206C20F436
:1009C00080702064206CC00403D4206C40F00100CF
:1009D00020640020BEE7000018B50021009190F8C7
:1009E0003C20012A07D0012280F83C20026893684D
:1009F000DB0702D011E0022018BD936843F0010329
:100A000093602E4A2E4B1268B2FBF3F202EB4202C5
:100A100000E0521E0092002AFBD102689368DB07B7
:100A200042D0036C40F20164A34343F48073036437
:100A300053685B0505D5036C23F4005343F48053DE
:100A40000364036CDB0404D5436C23F006034364A6
:100A500000E0416480F83C101A496FF022031360F3
:100A600049680068CA06184906D0884224D18168BE
:100A700011F0405F13D01FE08842F8D0134A904233
:100A800003D1D1F80423D206F1D0114A904213D1F8
:100A9000D1F8041301F01F011029E8D30CE081689C
:100AA00041F08041816007E0016C41F01001016478
:100AB000416C41F001014164002018BD4800002054
:100AC00040420F000023014000200140002101406E
:100AD0000022014090F83C1001290CD0012180F83F
:100AE0003C1001688A6822F001028A600168896806
:100AF000C90702D007E002207047016C21F4885139
:100B000041F001010164002180F83C100846704763
:100B100090F83510022903D08021416501207047EB
:100B2000052180F835100068016821F0010101609D
:100B30000020704770B5054600F02CF90B4E0446B6
:100B40003068201A14280ED9012D0BD10121084834
:100B500000F016F901460748012905D05FF00101B0
:100B600080F81811346070BD0021F9E750000020B2
:100B70000008024058020020044910B50A680242E9
:100B800002D00860FFF7D6FF10BD0000143C014002
:100B90002DE9F84FDFF8BCA10022012503264FF014
:100BA0000F090AF1040BAAF1040E00BF0B6805FA45
:100BB00002F42340A34270D10F7907F00307012FFD
:100BC00001D0022F16D187684FEA420806FA08FCC6
:100BD00027EA0C07D1F80CC00CFA08FC4CEA070C09
:100BE000C0F808C04768A7430C79C4F300149440C8
:100BF0003C4344600C79E443A4070AD0C4684FEA3C
:100C0000420C06FA0CF7BC438F6807FA0CF727432F
:100C1000C7600C7904F00304022C12D1D40800EB55
:100C2000840CDCF820405707FF0E09FA07F824EA85
:100C30000804D1F8108008FA07F848EA0408CCF84C
:100C4000208004684FEA420C06FA0CF7BC430F7987
:100C500007F0030707FA0CF7274307604C6814F402
:100C6000403F70D03C4C276847F480472760246899
:100C700022F0030704F480440094384C07EB040C82
:100C8000DCF8084897074FEA177809FA08F7BC43D9
:100C9000334FB84202D1002724E054E0314FB8422C
:100CA00001D101271EE0304FB84201D1022719E0DF
:100CB0002E4FB84201D1032714E02D4FB84201D185
:100CC00004270FE02B4FB84201D105270AE02A4F35
:100CD000B84201D1062705E0284FB84201D10727C5
:100CE00000E0082707FA08F72743CCF80878DAF875
:100CF00000405746D1F804C09C435FEACC2C00D595
:100D00001C433C60DBF800405F46D1F804C09C43C4
:100D10005FEA8C2C00D51C433C60DEF8004077462F
:100D2000D1F804C09C435FEA8C3C00D51C433C6076
:100D3000084F083F3C68D1F804C09C435FEACC3CB4
:100D400000D51C433C60521C102AFFF42FAFBDE8B5
:100D5000F88F0000083C0140443802400030014058
:100D6000000002400004024000080240000C024063
:100D7000001002400014024000180240001C024013
:100D80000069084000D0012070470AB181617047B6
:100D90000904FBE70148806870470000A8000020B4
:100DA0000B4810B5016841F400710160016841F41D
:100DB00080610160016841F480710160032000F0EE
:100DC0009FF8052000F006F800F050F8002010BD54
:100DD000003C024030B505461F4887B0002401683A
:100DE00041F480710160006806A900F480700090F1
:100DF00001A800F031F90498A8B100F04DF94000C5
:100E00001649174AB0FBF1F11648491E026040F23C
:100E1000E732C0E90324C0E90114846100F030FE28
:100E2000040003D015E000F037F9E9E70D4800F0C1
:100E3000ABFE04000DD12D2000F034F8102D07D2A8
:100E4000002229462D2000F03BF80748056000E00D
:100E5000012407B0204630BD4038024040420F0018
:100E6000002000405C290020AC0000200C4882B02B
:100E7000016841F480410160006800F48040009006
:100E80000748001F016841F080510160006800229E
:100E900000F0805000900F21901E02B000F010B8BA
:100EA00044380240002809DB00F01F020121914074
:100EB0004009800000F1E020C0F8001170470000F8
:100EC000F0B40E4B1B680C46C3F30223C3F10705B5
:100ED000042D00D90425191D072901D2002300E0A3
:100EE000DB1E012606FA05F1491E214099409E406D
:100EF000761E16403143F0BC02F00CBC0CED00E055
:100F0000064900F0070208684FF6FF03184040EA60
:100F10000220034A10430860704700000CED00E017
:100F20000000FA052DE9F0470E46050065D0DFF810
:100F30001481D8F80000F7B200F00700B04207D2E1
:100F400088F80070D8F8000000F00700B04254D1D3
:100F500028683D4C810712D5400703D5206840F42E
:100F6000E05020602878000703D5206840F46040F6
:100F700020602068A96820F0F000084320602878ED
:100F8000C0072DD0304968680839012812D00228DE
:100F900013D0032811D00968890700292DDA2168A8
:100FA00021F0030101432160FFF7F4FE814641F285
:100FB000883A0EE009688903EFE709688901ECE7E0
:100FC000FFF7E8FEA0EB0901514502D90320BDE877
:100FD000F0872068696800F00C00B0EB810FEFD15A
:100FE000D8F80010404601F00701B14207D9077058
:100FF000006800F00700B04201D00120E7E7287840
:10100000400705D52068E96820F4E05008432060D7
:101010002878000706D52068296920F4604040EA56
:10102000C100206000F058F82168084AC1F303119C
:10103000515CC8400649086006480068FFF7CAFED0
:101040000020C4E7003C0240083802404077000816
:1010500048000020AC0000200F2202600C4A1368F8
:1010600003F003034360136803F0F0038360136825
:1010700003F4E053C36012684FF4E05303EAD20272
:1010800002610448006800F0070008607047000033
:1010900008380240003C02400448054900680968DD
:1010A000044AC1F38221515CC840704748000020C7
:1010B000083802405077000804480549006809686C
:1010C000044AC1F34231515CC840704748000020D7
:1010D0000838024050770008154810B5006810F035
:1010E0000C02144813D01449042A0FD0082A0ED138
:1010F0000F4C241F2268236802F03F025B0207D5D1
:101100002068C0F38810A0FB010106E0084610BD6E
:101110002168C1F38811A1FB00010023FFF704F946
:101120002168C1F30141491C4900B0FBF1F010BD39
:10113000083802400024F40040787D012DE9F84F82
:1011400004006ED02078DFF84C93C007A9F10405A5
:101150004AD009F104000168C1F38101012908D0D6
:101160000068C0F3810002280AD1D9F800004002CB
:1011700006D52868800337D560680028E1D033E0C1
:101180006068B0F5803F10D0B0F5A02F286810D06F
:1011900020F480302860286820F48020286060686F
:1011A000A8B1FFF7F7FD06460DE0286840F480304F
:1011B000F4E740F480202860F7E700BFFFF7EAFD7E
:1011C000801B642873D828688003F7D50CE0FFF7EC
:1011D000E1FD064605E000BFFFF7DCFD801B64284B
:1011E000F0D828688003F7D42078DFF8AC82800735
:1011F0004FF0000A3ED5A748001D016811F00C0F02
:1012000008D00068C0F3810002280BD1D9F8000093
:10121000400207D42868800716D5E068012800D16D
:1012200012E033E1E068B8B10120C8F80000FFF730
:10123000B1FD064605E000BFFFF7ACFD801B0228AC
:10124000C0D828688007F7D52868216920F0F80001
:1012500040EAC10028600DE0C8F800A0FFF79AFD41
:10126000064604E0FFF796FD801B02281FD8286879
:101270008007F7D42078000722D5864F8748616918
:10128000703771B101210160FFF784FD064604E06B
:10129000FFF780FD801B022809D838688007F7D542
:1012A0000EE0C0F800A0FFF775FD064605E082E0FD
:1012B000FFF770FD801B02287DD838688007F7D4BF
:1012C0002078400768D5DFF8CCB100270BF13C0B44
:1012D000DBF80000C0000BD4DBF8001041F08051B7
:1012E000CBF80010DBF80000012700F080500090E0
:1012F0006B4E3068C00510D4306840F480703060A8
:10130000FFF748FD009005E0FFF744FD0099401A03
:10131000022850D83068C005F6D55E4EA0686C36FD
:1013200001280FD00528306810D020F0010030606F
:10133000306820F004003060A068B8B1FFF72AFDE3
:1013400000900FE0306840F00100F4E740F0040046
:101350003060F7E7FFF71EFD0099411A41F288302F
:10136000814266D830688007F4D50EE0FFF712FDA1
:10137000009007E0FFF70EFD0099411A41F2883016
:10138000814256D830688007F4D42FB1DBF80010C2
:1013900021F08051CBF80010A069C8B33D49091D68
:1013A0000968C1F3810102294AD00228504607D0BA
:1013B000C8F8600000E03CE0FFF7ECFC04463BE0CE
:1013C0004746C8F86000FFF7E5FC064605E000BFA9
:1013D000FFF7E0FC801B02282BD828688001F7D497
:1013E000D4E907010843A16A2E4A490802EB0141EA
:1013F000626A41EA8211084394F82C1040EA0161C4
:10140000C9F8001001203866FFF7C4FC044606E066
:101410003EE000BFFFF7BEFC001B022809D8286889
:101420008001F7D534E000BFFFF7B4FC001B0228B1
:1014300002D90320BDE8F88F28688001F4D427E0A2
:101440000128F7D0D9F80000E26900F48001914248
:101450001CD1226A00F03F01914217D147F6C071BA
:10146000626A0140B1EB821F10D1A26A4FF0FF33D4
:1014700000F4403103EB5202B1EB024F06D194F875
:101480002C1000F07060B0EB016F01D00120D1E7AB
:101490000020CFE70438024000004742800E474258
:1014A000007000400000FFFF7047000038B5016881
:1014B00004464A688868C043430606D5C30704D17A
:1014C000D3435B0601D4216C05E0830708D4D343E2
:1014D0001B0605D4616C01B02046BDE830400847CA
:1014E000830603D5430601D5C30551D4D3439B06D8
:1014F0004ED443060AD494F85130032B49D0636D7F
:1015000043F004036365CB688B680093830609D4BA
:10151000636D43F0010363658B6800930B6823F0F0
:1015200040030B60C00506D4606D40F008006065A4
:10153000206880680090606D002829D0206841688C
:1015400021F0E0014160012084F85100900701D4AE
:10155000D00722D02068416821F003014160114D7D
:10156000E06C40B10565E06CFFF7D2FA18B1606D30
:1015700040F040006065A06C002809D00565A06CB3
:10158000FFF7C6FA002803D0606D40F040006065A8
:1015900038BDC8688868009038BD2046FFF784FFD2
:1015A00038BD00006130000870B5040008D0606AE2
:1015B000002538B12561656194F8510040B10CE017
:1015C000012070BD6068B0F5827FF5D0E561F3E77A
:1015D00084F85050204600F04DF8022084F8510065
:1015E0002068016821F040010160A088218900F491
:1015F000827001F404410843A18901F400610843A9
:10160000217C01F002010843217D01F00101084322
:10161000218B01F400710843217F01F03801084358
:1016200094F8201001F080010843218D01F400514D
:10163000084321680860A069042101EA104094F879
:10164000241001F01001084321684860A06AB0F539
:10165000005F03D1A08D216880B208612068C16954
:1016600021F40061C1616565012084F8510000200A
:1016700070BD000010B586B0044614216846FEF720
:101680001EFF18492068884229D1174800210268A6
:1016900042F400420260006800F4004005901248E5
:1016A0001038026842F004020260006800F0040092
:1016B00005904FF4E05000900220CDE90101032095
:1016C00003900620049069460848FFF761FA00225B
:1016D00005213320FFF7F4FB3320FFF7E3FB06B0CF
:1016E00010BD0000003C00404038024000080240AD
:1016F0002DE9FF4F81B04FF000091D46904604468A
:101700000E9E4FF0010BCDF80090FFF743FB07460C
:1017100094F851006168012806D0B1F5827F4AD162
:10172000A168E9BB042846D1029800287ED0B8F110
:10173000000FFBD0002DF9D094F8500001283AD0CA
:101740004FF0010A84F850A094F85100042802D008
:10175000052084F85100C4F85490C4F83880E58717
:10176000A58702992163E586A586C4F84090C4F850
:101770004490A06A4FF40058404509D120680168A0
:1017800021F4005101602068016841F400510160BA
:1017900020680168490605D4016841F0400100E075
:1017A00009E00160E068B0F5006F606807D0F0B351
:1017B000012D5DD0ABE0022005B0BDE8F08F08B18F
:1017C000012D4ED1206B21680088C860206B801CE1
:1017D0002063E08E401EE086E08E48BBA06A404554
:1017E0003FD12068016841F48051016039E02068F0
:1017F0008168890719D5E18EB9B1BBF1010F14D108
:10180000216B0988C160206B801C2063E08E401E24
:10181000E086E08E4FF0000B38B9A06A404504D155
:101820002068016841F48051016002E0B1E01FE0EE
:1018300017E020688168C9070CD0E18F51B1C068FA
:10184000A16B0880A06B801CA063E08F401EE08726
:101850004FF0010BFFF79EFAC01BB04201D3701C82
:101860006AD1E08E0028C2D1E08F0028BFD154E0B9
:10187000206B216800780873206B401C2063E08E89
:10188000401EE086E08EE8BBA06A40453FD120685C
:10189000016841F48051016039E02068816889075E
:1018A00019D5E18EB9B1BBF1010F14D1216B0978C3
:1018B0000173206B401C2063E08E401EE086E08EAA
:1018C0004FF0000B38B9A06A404504D12068016888
:1018D00041F48051016020688168C9070CD0E18F14
:1018E00051B1C068A16B0870A06B401CA063E08F71
:1018F000401EE0874FF0010BFFF74CFAC01BB042CF
:1019000004D300E003E0701C01D015E0A6B1E08E26
:101910000028C2D1E08F0028BFD1A06A404514D171
:101920000122334611462046009701F0D7FB48B10B
:10193000606D40F00200606584F851A084F850901A
:10194000032039E72068C068009020688168C906D4
:1019500007D5616D41F0020161654FF6EF7181605D
:1019600007E03A463146204601F082FB20B12020B4
:10197000606584F850900CE0A06818B92068C168D0
:101980008068009084F851A084F85090606D002821
:10199000D7D0012010E77047704710B590F83C2071
:1019A000012A22D0012280F83C20CA688C6822F4E7
:1019B000407222434C6822F4806222430C6822F475
:1019C000006222430C6922F4805222434C6922F4C3
:1019D00000522243C969002322F480420A4301686D
:1019E0004A6480F83C30002010BD022010BD000089
:1019F00070B590F83C20012A32D0012480F83C4098
:101A0000022280F83D2003685A689D6822F0700623
:101A10000A6832435A60134B02689A4214D0B2F1FA
:101A2000804F11D0104B9A420ED0104B9A420BD0DF
:101A30000F4B9A4208D00F4B9A4205D00E4B9A4258
:101A400002D00E4B9A4204D1496825F08003194315
:101A5000916080F83D40002180F83C10084670BD40
:101A6000022070BD0000014000040040000800405A
:101A7000000C0040000401400040014000180040FC
:101A800010B5040003D094F83D0010B107E0012028
:101A900010BD002084F83C00204600F01FF8022012
:101AA00084F83D00211D206801F006FC012084F827
:101AB000460084F83E0084F83F0084F8400084F833
:101AC000410084F8420084F8430084F8440084F81C
:101AD000450084F83D00002010BD000008B50268F4
:101AE00022482349824207D1086840F0100008606C
:101AF000086800F0100009E01E48824208D108681A
:101B000040F020000860086800F02000009008BD48
:101B10001748194B001D9A4207D1016841F48031E2
:101B20000160006800F48030F0E7144B9A4207D15E
:101B3000016841F400310160006800F40030E5E71D
:101B40000F4B9A4207D1016841F48021016000687F
:101B500000F48020DAE70B488242D8D1086840F0D0
:101B600040000860086800F04000CFE70010004027
:101B70004038024000140040004001400044014051
:101B8000004801400018004090F83D10012901D0A4
:101B900001207047022180F83D100168CA6842F0B8
:101BA0000102CA6000681149884214D0B0F1804F28
:101BB00011D00F4988420ED00E4988420BD00E49F1
:101BC000884208D00D49884205D00D49884202D08C
:101BD0000C49884204D1816801F00701062903D02D
:101BE000016841F0010101600020704700000140E0
:101BF0000004004000080040000C004000040140C8
:101C0000004001400018004070B5044690F83C00C8
:101C10000025012817D0012684F83C60022084F8B2
:101C20003D002068826822F0770222F47F428260C1
:101C30000868502838D00DDC20284FD005DC90B340
:101C4000102811D14AE0022070BD302846D040282B
:101C50000AD13BE060282FD070280DD0B0F5805F0E
:101C600003D0B0F5005F12D0012584F83D6000205C
:101C700084F83C00284670BDCB68D1E9012120687A
:101C800001F08FFB2068816841F0770109E0CB68A3
:101C9000D1E90121206801F084FB2068816841F4CA
:101CA00080418160E1E719E0CA684968206801F075
:101CB0004DFC5021206806E0CA684968206801F0A0
:101CC00056FC6021206801F076FBCEE7CA684968BF
:101CD000206801F03BFC40212068F4E722680146BF
:101CE0001046F0E72DE9F0410D46040003D094F8CA
:101CF0003D0018B108E00120BDE8F081002084F823
:101D00003C00204600F040F8022084F83D002068A6
:101D1000816844F2070291438160211D206801F02F
:101D2000CBFA226890689169166A2B68AF69034301
:101D300040F20330814341EA0721A868EF69084374
:101D40004FF6FC418843E96840EA072001432869CF
:101D50002F6A000140EA0730084369686D6926F080
:101D6000AA0646EA0515294393602268906154F853
:101D7000460B0162012004F81F09E0752076E07629
:101D80002077A0750020B7E7F0B587B0044614218E
:101D90006846FEF794FB48492368002446481039FA
:101DA0000225464A464EB3F1804F1FD0DFF814C1DA
:101DB000C027634547D1036843F00203036000680E
:101DC00000F002000590086840F001000860086813
:101DD0000097CDE9015400F00100CDE904506946B7
:101DE00003941046FEF7D4FE07B0F0BD036843F03D
:101DF00001030360006800F001000590086840F0EE
:101E000001000860086800F001000590086840F0D3
:101E1000020008600868012700F0020005904FF4F6
:101E200000400090CDE90154CDE9034769461046D2
:101E3000FEF7AEFE08200090CDE90154CDE903473E
:101E400069463046CEE7DFF880C0634517D10268A7
:101E500042F004020260006800F004000590086887
:101E600040F00200086008680097CDE9015400F0D6
:101E70000200CDE90450694603943046B2E7134EA0
:101E8000B342B1D1036843F008030360006800F077
:101E900008000590086840F001000860086869467D
:101EA00000F00100059003200090CDE90154104698
:101EB000CDE9034596E700004038024000000240AB
:101EC000000402400004004000080040000C0040F4
:101ED00070472DE9F04104460068C66805694FF077
:101EE0000007A90713D5B10711D5F91E016101201B
:101EF0002077206880698007204602D0FFF7E8FF3E
:101F000004E000F0E9F8204600F0BAF92777680706
:101F100016D5700714D521686FF0040008610220FF
:101F200020772068806910F4407F204602D0FFF7B8
:101F3000CFFF04E000F0D0F8204600F0A1F92777A9
:101F4000280715D5300713D521686FF00800086100
:101F5000042020772068C0698007204602D0FFF760
:101F6000B7FF04E000F0B8F8204600F089F92777C1
:101F7000E80616D5F00614D521686FF01000086148
:101F8000082020772068C06910F4407F204602D0E6
:101F9000FFF79EFF04E000F09FF8204600F070F984
:101FA0002777E80708D0F00706D021686FF0010016
:101FB0000861204600F008FA280608D5300606D544
:101FC00021686FF0800008612046FFF7E4FC680696
:101FD00008D5700606D521686FF0400008612046DC
:101FE00000F01EFAA8060AD5B00608D521686FF0E1
:101FF000200008612046BDE8F041FFF7CDBCBDE8F8
:10200000F081000070B586B0044614216846FEF7E2
:1020100056FA24682848002228490223844212D113
:10202000086840F0100008600868694600F0100079
:1020300005904FF4D4400090CDE901320120CDE964
:1020400003201F4812E01F480325844212D108686C
:1020500040F0010008600868694600F00100059042
:102060000C200090CDE90132174821E0FEF790FDE9
:1020700006B070BD154E1648B44209D10C6844F044
:1020800002040C60096801F00201059181150BE062
:10209000104EB442ECD10C6844F002040C600968A4
:1020A00001F00201059171150091CDE901326946F7
:1020B000CDE90325DAE70000000001403038024096
:1020C0000010024000400140000002400044014076
:1020D0000004024000480140704770B50D460400FE
:1020E00003D094F83D0010B107E0012070BD00203E
:1020F00084F83C00204600F01BF8022084F83D00E4
:10210000211D206801F0D8F82068016821F008013D
:10211000016054F8460B016829430160012004F86E
:102120001F09E0752076E0762077A075002070BD4D
:10213000704770B5044690F83C0000260D46012813
:102140000FD0012084F83C006AB1042A1DD0082A6F
:102150002FD00C2A3FD00126002084F83C003046C6
:1021600070BD022070BD206801F02EF920688169E1
:1021700041F0080181612068816921F004018161D9
:10218000206881692A69114311E0206801F04CF947
:102190002068816941F4006181612068816921F4CE
:1021A00080618161206881692A6941EA0221816137
:1021B000D2E7206801F06EF92068C16941F008019A
:1021C000C1612068C16921F00401C1612068C16951
:1021D0002A69114311E0206801F090F92068C16973
:1021E00041F40061C1612068C16921F48061C1616D
:1021F0002068C1692A6941EA0221C161ACE710B5D2
:10220000040003D094F83D0010B107E0012010BD98
:10221000002084F83C00204600F01EF8022084F8DC
:102220003D00211D206801F047F8012084F8460098
:1022300084F83E0084F83F0084F8400084F84100B0
:1022400084F8420084F8430084F8440084F8450090
:1022500084F83D00002010BD08B50068064988429A
:1022600008D10648016841F001010160006800F0F2
:102270000100009008BD0000000001404438024009
:102280007047000010B50446022249B104290ED05F
:10229000082913D094F84100012816D0012010BD60
:1022A00094F83E000128F9D184F83E200FE094F81C
:1022B0003F000128F2D184F83F2008E094F8400064
:1022C0000128EBD184F8402001E084F8412001226C
:1022D000206801F059F816492068164A884201D052
:1022E000904203D1436C43F4004343642068884226
:1022F00013D0B0F1804F10D00F4988420DD00F4954
:1023000088420AD00E49884207D0904205D00D4934
:10231000884202D00C49884204D1816801F007014B
:10232000062903D0016841F001010160002010BDC1
:10233000000001400004014000040040000800408B
:10234000000C0040004001400018004030B5044639
:102350000D460068002201F017F8194B41F21111E7
:1023600020688A10984202D0164B984209D1036A1D
:102370000B4206D1036A134203D1436C23F400439A
:1023800043642068036A0B4206D1016A114203D1FB
:10239000016821F00101016001203DB1042D08D048
:1023A000082D09D084F84100002030BD84F83E009B
:1023B000FAE784F83F00F7E784F84000F4E700000C
:1023C000000001400004014010B500681049884237
:1023D00018D1104C6068401C6060B0F57A7F11D352
:1023E0000D4804F10801006804F0F4F8A06838B161
:1023F0000A494FF080500860BFF34F8FBFF36F8FD3
:102400000020606002F05EFCBDE8104003F0CEBD2D
:1024100000180040500000206000002004ED00E0A3
:10242000704770B5040004D094F84100002510B145
:1024300006E0012070BD84F84050204600F024F8EA
:10244000242084F841002068C16821F40051C16053
:10245000204601F09FF82068016921F49041016154
:102460002068416921F02A0141612068C16841F476
:102470000051C1606564202084F8410084F8420066
:102480006563002070BD000010B586B004461421BD
:102490006846FEF714F814492068884221D1134891
:1024A0000021026842F010020260006800F0100093
:1024B00005900E481438026842F00102026000687C
:1024C00000F0010005904FF4C06000900220CDE9BB
:1024D0000101032003900720049069460448FEF799
:1024E00057FB06B010BD0000001001404438024008
:1024F00000000240FEE7000070B500F0700400F03C
:1025000087F80B4D0646002202212846FEF73DFCC7
:10251000272002F007FF44EA060002F003FF012231
:1025200002212846FEF731FCBDE8704000F070B88B
:10253000000C024010B5084C002202212046FEF794
:1025400024FCE22002F0EEFE20460122BDE810400D
:102550000221FEF71ABC0000000C024010B5084C26
:10256000002202212046FEF710FCE12002F0DAFEF4
:1025700020460122BDE810400221FEF706BC000003
:10258000000C02402DE9F041064600F055F80546E2
:10259000202804D9FFF7CEFF2120BDE8F08155B1F6
:1025A0000E4F002202213846FEF7EFFB612002F0B9
:1025B000B9FE002407E00020EFE7FF2002F0B2FEA2
:1025C0003055641CE4B2AC42F7D3012202213846F4
:1025D000FEF7DBFBFFF7AEFF2846DEE7000C02400C
:1025E00070B50A4D0446002202212846FEF7CDFBB5
:1025F000204602F097FEFF2002F094FE04460122DE
:1026000002212846FEF7C1FB204670BD000C0240A7
:1026100070B5084D002202212846FEF7B6FB0720C0
:1026200002F080FE0446012202212846FEF7ADFB9F
:10263000204670BD000C024070B50A4D00220221F8
:102640002846FEF7A2FB602002F06CFEFF2002F09D
:1026500069FE0446012202212846FEF796FB204629
:1026600070BD0000000C0240052A00D90522052893
:1026700000D905200A30C0B200F01CB810B50446DD
:102680000020FFF7ADFF014614B1012C03D004E098
:1026900020F0010101E040F00101BDE81040002000
:1026A00000F02AB8052900D905210A460146102064
:1026B000AFF300802DE9F0410E4F15460E4604465B
:1026C000002202213846FEF760FB44F0200002F0B1
:1026D00029FE002404E0305D02F024FE641CE4B214
:1026E000AC42F8D33846BDE8F04101220221FEF7A2
:1026F0004CBB0000000C024070B50B4D0E4604466A
:10270000002202212846FEF740FB44F0200002F0A0
:1027100009FE304602F006FE2846BDE87040012260
:102720000221FEF732BB0000000C024070B50C46DF
:102730000546202918D8002C16D00C4E0022022164
:102740003046FEF722FBB02002E000BF15F8010B77
:1027500002F0E8FD641EE4B2F8D23046BDE87040F5
:1027600001220221FEF711BB70BD0000000C0240E7
:102770001FB51748FEF7AEF90021154800910191E9
:102780000291144A039102604FF48032C0E90121A2
:102790000161017680F820100F4AC0E90A21012466
:1027A000C461C16080F830104161FEF764F808B17F
:1027B000FDF7B5FF0820CDE900040220029069462C
:1027C0000348FDF7AFFF002801D0FDF7A8FF1FBDAC
:1027D0005C250020002001400100000F10B59CB0D6
:1027E0001C2216496846FDF716FE0021684602F0D5
:1027F000B7FD134C11491C2260601C3107A8FDF77E
:102800000AFE002107A802F0ABFD0C49A0601C22C3
:1028100038310EA8FDF7FFFD00210EA802F0A0FD43
:102820000649E0601C22543115A8FDF7F4FD002193
:1028300015A802F095FD20611CB010BD5877000866
:10284000600000202DE9F04F87B014216846FDF7A5
:1028500036FE5A480024016841F010010160016809
:1028600001F010010591016841F004010160016867
:1028700001F004010591016841F0800101600168E7
:1028800001F080010591016841F0010101600168DA
:1028900001F001010591016841F002010160016848
:1028A00001F002010591016841F008010160006832
:1028B000DFF80CA100F0080040F2FF55059000225F
:1028C00029465046FEF761FADFF8F8B04FF4C977B1
:1028D000002239465846FEF758FA4FF49078002205
:1028E00041463948FEF751FA00224FF44261374819
:1028F000FEF74BFA40F20649002249463448FEF7FB
:1029000044FA0095022601250396CDE90154694653
:102910005046FEF73DF94FF46240CDE900046946A8
:1029200058460294FEF734F94FF444100095CDE96F
:10293000010469465846FEF72BF900970396CDE946
:10294000015469465846FEF723F9CDF800800396F6
:10295000CDE9015469461C48FEF71AF94FF440606E
:10296000009001AA112082E8510069461748FEF73D
:102970000FF9CDF800900396CDE90154694614484B
:10298000FEF706F9CDE90054694611480295FEF7B5
:10299000FFF82020CDE90005CDE9024669460B4845
:1029A000FEF7F6F8002205210620FEF789FA062038
:1029B000FEF778FA07B0BDE8F08F0000303802402B
:1029C00000100240000802400000024000040240E3
:1029D000000C0240104810B50E4901604FF482719E
:1029E000416000218160C1604FF400720161C0E963
:1029F00005121022C0E907214162510281620721BC
:102A0000C162FEF7D1FD002803D0BDE81040FDF7FC
:102A100086BE10BD003C0040A425002030B587B024
:102A20001C216846FDF74BFD1D4C1C480025C4E9E0
:102A3000000541F24410C4E9025025612046A56119
:102A4000FFF71EF808B1FDF76AFE1548FFF7D7FB40
:102A500008B1FDF764FE602000904FF45D70CDE991
:102A60000105002269460E480495FFF762FB08B194
:102A7000FDF755FE2068016A41F21112114207D19B
:102A8000016A9210114203D1016821F00101016035
:102A90000348FFF7B7FA07B030BD0000004401401B
:102AA0003C28002030B587B01C216846FDF707FDA3
:102AB0001B4D1A480024C5E9000441F63F20C5E932
:102AC00002402C612846AC61FEF7DAFF08B1FDF741
:102AD00026FE1348FFF793FB08B1FDF720FE6020A8
:102AE000CDE90004022002900022694604940C48BB
:102AF000FFF71FFB08B1FDF712FE2868816921F07E
:102B0000080181610648FFF73FF800210448FFF7FC
:102B1000B9FB0348FFF776FA07B030BD0048014023
:102B2000842800201FB500211148009101910291D5
:102B30000E4A039102605322C0E901214FF47A72D8
:102B4000C0E9032180218161FEF79AFF08B1FDF7FA
:102B5000E6FD4FF48050009069460548FFF754F8B1
:102B6000002801D0FDF7DBFD1FBD0000001800406C
:102B7000CC28002010B592B000240F941C21684688
:102B80001094FDF79CFC202107A8FDF798FC2D4828
:102B90002B49C0E9001441F63F21C0E902418021E0
:102BA0000461C0E90541FFF72AFB08B1FDF7B7FD55
:102BB0000F940FA923481094FEF71AFF08B1FDF7F0
:102BC000AEFD6020CDE900040220CDE902040494AA
:102BD0000594002269461B480694FFF7AAFA08B13B
:102BE000FDF79DFD042269461648FFF7A2FA08B1D9
:102BF000FDF795FD082269461248FFF79AFA08B1D9
:102C0000FDF78DFD0C2269460E48FFF792FA08B1D8
:102C1000FDF785FD0794089409944FF400500A9439
:102C2000CDE90B4007A907480E94FEF7B6FE08B1A0
:102C3000FDF775FD0348FFF7E5F912B010BD000080
:102C400000000140FC25002010B58CB0242168460E
:102C5000FDF735FC0024164809944FF080410A9492
:102C6000C0E900144FF6FF71C0E902418021046100
:102C7000816103200090022001900120CDE902042F
:102C80000494CDE905400794694609480894FFF784
:102C900029F808B1FDF743FD099409A904480A94ED
:102CA000FEF7A6FE002801D0FDF739FD0CB010BDDF
:102CB0004426002010B58CB024216846FDF7FFFBA8
:102CC00000241748099415490A94C0E900144FF6E6
:102CD000FF71C0E9024180210461816103200090FD
:102CE000022001900120CDE902040494CDE90540C1
:102CF000079469460A480894FEF7F4FF08B1FDF707
:102D00000EFD099409A906480A94FEF771FE0028F1
:102D100001D0FDF704FD0CB010BD00000004004020
:102D20008C26002010B58CB024216846FDF7C7FB27
:102D300000241748099415490A94C0E900144FF675
:102D4000FF71C0E90241802104618161032000908C
:102D5000022001900120CDE902040494CDE9054050
:102D6000079469460A480894FEF7BCFF08B1FDF7CE
:102D7000D6FC099409A906480A94FEF739FE0028F2
:102D800001D0FDF7CCFC0CB010BD000000080040E5
:102D9000D426002010B58CB024216846FDF78FFBA7
:102DA00000241748099415490A94C0E900144FF605
:102DB000FF71C0E90241802104618161032000901C
:102DC000022001900120CDE902040494CDE90540E0
:102DD000079469460A480894FEF784FF08B1FDF796
:102DE0009EFC099409A906480A94FEF701FE0028F2
:102DF00001D0FDF794FC0CB010BD0000000C0040A9
:102E00001C2700207CB5002413480094114D019428
:102E1000C0E900544FF6FF71C0E902418461FEF73A
:102E20002FFE08B1FDF77BFC08210B48FFF755F991
:102E300008B1FDF774FC0094694607480194FEF759
:102E4000D7FD08B1FDF76BFC012068616C622C6155
:102E50007CBD000000100040642700201CB5002449
:102E6000164800941449019401601421C0E901142A
:102E70004FF6FF718461C160FEF702FE08B1FDF7F5
:102E80004EFC08210D48FFF728F908B1FDF747FC73
:102E90000094694609480194FEF7AAFD08B1FDF7C0
:102EA0003EFC0549012014310860034824300460C9
:102EB000081F04601CBD000000140040AC27002067
:102EC00010B58CB000240794089409941C2168461E
:102ED0000A94FDF7F4FA27482549016040F61F518E
:102EE000C0E9011440F27B21C0E903148461FEF7BC
:102EF000C7FD08B1FDF713FC4FF48050079007A9F8
:102F00001C48FEF781FE08B1FDF709FC1948FFF7E0
:102F100076F908B1FDF703FC08211648FFF7DDF844
:102F200008B1FDF7FCFB7020009001200190022009
:102F300002900022694604940E48FFF7FAF808B19F
:102F4000FDF7EDFB042269460A480294FFF7F1F809
:102F500008B1FDF7E4FB00210648FFF7F7F904216B
:102F60000448FFF7F3F90348FFF74CF80CB010BD25
:102F700000400140F42700200C4810B50A490160C8
:102F80004FF4E1314160002181600C22C160C0E951
:102F900004128161C161FFF744FA002803D0BDE843
:102FA0001040FDF7BCBB10BD0010014014290020EB
:102FB000FEE7C0EB00108000C11700EB11500013BA
:102FC0007047FEE71F48204D0479641C10E0012281
:102FD00002212846FDF7D9FE642002F0B5F900224F
:102FE00002212846FDF7D1FE642002F0ADF9641EEF
:102FF000002CECD14FF47A75284601F08BFC134C71
:10300000C4E90601284601F085FCC4E908016810FE
:1030100001F080FCC4E90A01012001F07BFCC4E955
:103020000E0142F2107001F075FCC4E90C0102F0CF
:10303000DDFE0748FEF7A8FD01F0A8FA012002F026
:1030400083F9F9E7580200200008024060000020E0
:10305000CC2800200148FEF729BA0000A425002052
:1030600010B5806B0021C187C186FEF71DFA10BD27
:10307000F8B515460E460B46009204460122022181
:1030800000F02CF8A0B9134813490068B0FBF1F028
:103090004FF47A71484300906068B0F5827F0DD19B
:1030A0003346002280212046009500F017F870B1C9
:1030B000606D40F0200060650320F8BD009830B1DD
:1030C000401E009020688068C0430006F6D50020AE
:1030D000F8BD00004800002000366E012DE9F843DD
:1030E0001E46914688460446089DFDF753FE401B48
:1030F000351AFDF74FFE074626480068C0F3CB306F
:1031000068430AE0701C09D0FDF744FEC01BA842CA
:103110000FD275B10098B8B3401E00902068816846
:1031200038EA010033D000214945EBD10020BDE849
:10313000F8832068416821F0E00141606068B0F5E3
:10314000827F0BD1A068B0F5004F02D0B0F5806F40
:1031500004D12068016821F040010160A06AB0F547
:10316000005F09D12068016821F4005101602068E6
:10317000016841F400510160012084F851000020F1
:1031800084F850000320D2E7FFE70025C6E70121BD
:10319000CAE700004800002010B501F0F7FD01F07B
:1031A00035FE01F0DBFD01F02FFE01F049FE06497E
:1031B0000020401C8842FCDB61B601F059FEBDE8EE
:1031C000104001F089BD000080F0FA0210B55020D7
:1031D00080F31188BFF34F8FBFF36F8F03F0A4FB11
:1031E00018B104494FF080500860002080F3118826
:1031F00010BD000004ED00E030B593B0302168460A
:10320000FDF75DF914210CA8FDF759F91E480025BA
:10321000016841F080510160006800F08050119019
:103220001A48016841F4804101600068022400F4FA
:103230008040119001200090000401908001CDE9B0
:103240000640192008904FF4A870CDE90904042025
:103250000B906846FDF772FF08B172B6FEE70CA945
:103260000F2081E831004FF4A0500F904FF48050B0
:10327000109005210CA8FDF755FE002801D072B66C
:10328000FEE713B030BD000040380240007000403F
:103290000248016841F470010160704788ED00E068
:1032A0000148FEF716BE0000CC2800200148FEF7BA
:1032B00010BE00005C290020F0B50268274B284DA5
:1032C000284E294F294C4FF0804C984209D0604538
:1032D00007D0A84205D0B04203D0B84201D0A042E6
:1032E00004D122F0700E4A6842EA0E0298421BD0C6
:1032F000604519D0A84217D0B04215D0B84213D0BB
:10330000A04211D01A4DA8420ED01A4DA8420BD09F
:10331000194DA84208D0194DA84205D0184DA84211
:1033200002D0184DA84203D122F44075CA682A433E
:103330004D6922F080022A438D68C5620D6885625E
:10334000984201D0A04201D109690163016841F0AE
:1033500004010160012141610260F0BD00000140F3
:103360000004004000080040000C00400004014040
:103370000040014000440140004801400018004066
:10338000001C00400020004010B501F01F03012187
:10339000046A99408C430462016A9A4011430162B5
:1033A00010BD10B5846842EA032224F47F440A4326
:1033B0002243826010BD826822F070020A4342F00C
:1033C0000701816070470000F0B5036A026A22F0CD
:1033D0000102026242688469124E24F073050C688F
:1033E0002C4323F002058B682B430D4DA84201D0DE
:1033F000B04205D123F00807CB683B4323F0040318
:10340000A84201D0B04205D14D6922F44072154363
:103410008A692A4342608461496841630362F0BD5E
:103420000000014000040140F0B5026A036A23F085
:1034300010030362436884690D6824F4E64444EA97
:1034400005248D6822F0200242EA05120F4D104E2D
:10345000A84201D0B04206D1CF6822F0800242EAF1
:10346000071222F04002A84201D0B04207D14D69B4
:1034700023F4406343EA85038D6943EA850343608F
:103480008461496881630262F0BD00000000014070
:1034900000040140F0B5026A036A23F480730362FA
:1034A0004368C46922F4007224F073050C68124E5C
:1034B0002C438D6842EA05220E4DA84201D0B0424D
:1034C00006D1CF6822F4006242EA072222F4806229
:1034D000A84201D0B04207D14D6923F4405343EADA
:1034E00005138D6943EA05134360C4614968C163EC
:1034F0000262F0BD000001400004014030B5046AE2
:10350000026A22F4805202624268C3690D6823F4A1
:10351000E64343EA05238D6824F4005444EA053465
:10352000084DA84202D0084DA84204D14D6922F4AA
:10353000804242EA85124260C361496801640462C4
:1035400030BD0000000001400004014010B5036AD6
:10355000046A24F001040462846924F0F00444EA5B
:10356000021423F00A020A438461026210BD10B5FE
:10357000036A046A24F010040462846923F0A0033F
:1035800024F4704444EA023243EA01118261016288
:1035900010BD000070B5044600680169E26821F4BE
:1035A0004051114301612169A068E26908436169E2
:1035B000114308432168CA6849F20C639A430243E5
:1035C000CA6020684169A26921F4407111434161D8
:1035D00031492068884202D03049884202D1FDF743
:1035E0006BFD01E0FDF758FDE26900231921642518
:1035F0003226B2F5004F626828D0A0FB0101930F7C
:103600009200FCF791FE0146B0FBF5F06FF0180256
:10361000504301EB800006EB0010B0FBF5F000F02A
:10362000F002B1FBF5F002EB0012B1FBF5F06FF028
:103630001803584301EB800006EB0010B0FBF5F0D7
:1036400000F00F0021681044886070BDA0FB0101EC
:1036500092185B41FCF768FE0146B0FBF5F00201F1
:10366000B1FBF5F06FF01803584301EB800006EB57
:10367000C000B0FBF5F000F0F80002EB4002B1FB37
:10368000F5F0584301EB800006EBC000B0FBF5F00D
:1036900000F00700D6E700000010014000140140D0
:1036A00003220021012002F02FFF064C4FF4FA659F
:1036B00020602946206802F0DBFF0128F9D101F0E3
:1036C00079F8F6E760000020FEE700000448D0ED3E
:1036D000430A20EE800ABDEEC00A10EE100A7047C1
:1036E0005802002003B401984100009850EAC1201C
:1036F00018BF04204A0D18BF40F0010040F2FF72CD
:10370000B2EB515F08BF40F00200012808BF05205E
:1037100002B070470907090E002804DB00F1E02021
:1037200080F80014704700F00F0000F1E02080F8EE
:10373000141D7047000000002DE9F0412DED020B33
:103740009FED3D0B2DED028B9FED3D8BDDE902548E
:10375000C4F30A50A0F2FF36142E37DA002E18DA1E
:1037600053EC102B9DED020B51EC100B03F062FAA1
:1037700053EC182B03F02CFE57D2002CBCBF4FF09B
:103780000044002551DB54EA050018BF2E4C1BD124
:103790004BE02E4820FA06F704EA070028431FD022
:1037A00053EC102B9DED020B51EC100B03F042FA81
:1037B00053EC182B03F00CFE37D2002C03DD4FF432
:1037C0008010F0400444BC4300252EE0332E07DC7B
:1037D000A6F114004FF0FF3121FA00F73D4206D167
:1037E0009DED020BBDEC028B02B0BDE8F08153EC05
:1037F000102B9DED020B51EC100B03F01FFE53EC50
:10380000182B03F0E5FD10D2002C0DDD142E08BF9F
:10381000641C09D0C6F13400012101FA00F02844EB
:10382000A84238BF641C0546BD43CDE902549DED56
:10383000020BD7E7000000009C7500883CE4377E4F
:1038400000000000000000000000F03FFFFF0F003C
:1038500010B52F499FED2C1B2DED020B84B0059860
:1038600020F000408842D8BF9DED040B2DDD294992
:10387000884209D1049840B94FF00100FCF74EFE90
:1038800000F0C2FC06B010BD05DB9DED040B00F09E
:10389000AFFC06B010BD68469DED040B00F0C0F80B
:1038A00010F0030004BF9DED021B9DED000B0CD03A
:1038B00001280ED09DED021B9DED000B022817D0B4
:1038C000012000F0FDFB06B010BD00F0C5FA06B007
:1038D00010BD9DED021B9DED000B012000F0F0FBE3
:1038E00051EC100B03F068F906B041EC100B10BD61
:1038F00000F0B2FA51EC100B03F05EF906B041ECA7
:10390000100B10BD000000000000000000000000CF
:10391000FB21E93F0000F07F10B52F499FED2C1BE4
:103920002DED020B84B0059820F000408842DCBFEA
:1039300000209DED040B32DD2849884209D104980E
:1039400040B94FF00100FCF7E9FD00F05DFC06B066
:1039500010BD05DB9DED040B00F04AFC06B010BD68
:1039600068469DED040B00F05BF810F0030011D0E9
:10397000012818D09DED021B9DED000B02281AD0E6
:1039800000F06AFA51EC100B03F016F906B041ECA6
:10399000100B10BD9DED021B9DED000B012000F0F2
:1039A0008FFB06B010BD9DED021B9DED000B00F0DE
:1039B00053FA06B010BD012000F082FB51EC100B51
:1039C00003F0FAF806B041EC100B10BD0000000047
:1039D0000000000000000000FB21E93F0000F07F34
:1039E00010B52DED028BB1EEC08A18EE100A20F052
:1039F0000040C0F1FF40C00F0AD010EE100A20F0C6
:103A00000040C0F1FF40C00F04BF0120FCF786FD5D
:103A1000B0EE480ABDEC028B10BD000000000000B3
:103A20002DE9F14F04462DED020B2DED088B8AB0E8
:103A30009FEDE70B80ED020B139EE74826F0004553
:103A400085420ADC9DED120B002084ED000B0AB0CC
:103A5000BDEC088B03B0BDE8F08FE0489FEDE0AB14
:103A60009FEDE1BBA84247DDE14F9FEDE39B9FED5A
:103A7000E48B9DED120B53EC1A2B51EC100B002E26
:103A80001CDD03F0E7FC41EC100BBD4208D053EC09
:103A90001B2B51EC100B03F0DDFCC4E900010BE023
:103AA00053EC192B51EC100B03F0D4FC53EC182BF6
:103AB00003F0D0FCC4E900010120C8E703F0BAF824
:103AC00041EC100BBD4208D053EC1B2B51EC100BFA
:103AD00003F0B0F8C4E900010BE053EC192B51ECF2
:103AE000100B03F0A7F853EC182B03F0A3F8C4E96C
:103AF00000014FF0FF30AAE7C348A84279DB9DEDF3
:103B0000120B51EC100B00F099FE41EC180B9FEDDD
:103B1000C00B53EC102B03F05DFB9FEDBF1B53EC70
:103B2000112B03F087F803F091FA074603F0EBFA44
:103B300041EC190B53EC1A2B03F04CFB53EC182BF4
:103B400003F07CFC41EC180B53EC1B2B51EC190BD4
:103B500003F040FBDFF8C8A241EC100B4FEA155808
:103B60000125FA4453EC102B51EC180B03F072FCB6
:103B7000032DC4E900013DD0C1F30A5005EB451106
:103B8000A8EB00001139814234DA0AEB051BB0EED4
:103B900048AA9BED000BF0EE68AA53EC102B51ECF9
:103BA000190B03F017FB41EC1B0B51EC1A0B53ECF8
:103BB0001B2B03F04FFC41EC180B51EC1A0B53EC90
:103BC000182B03F047FC53EC1B2B03F043FC9BED3D
:103BD000020B41EC1A0B53EC102B51EC190B03F0B8
:103BE000F9FA53EC1A2B03F035FC41EC100B6D1C69
:103BF000B8E70EE0002EA8BF3846BFF628AF94ED18
:103C0000000B51EC100B02F0D7FFC4E90001784221
:103C10001DE7C6F3130040F4801EC6F30A50A0F25D
:103C2000F530471100F01F05C5F12000DDF848B060
:103C300008900020069007900520EC467949002D59
:103C400007EB0002794408BF51F8221009D051F85F
:103C5000223001EB8201AB404A68089922FA01F157
:103C60001943A1FB0E26A1FB0B131A449A4234BF41
:103C70000123002303EB06080CEB8003D3E901A624
:103C80000E448E4234BF0121002192448A4411B176
:103C9000924502D903E0924501D2012100E00021C2
:103CA000C3E901A641444CF82010011EA0F1010017
:103CB000C4DC029800F10050850F0298DDE903672B
:103CC0008000DDF8148003F01EFA41EC1A0B304638
:103CD00003F030FA9FED541B53EC112B03F07AFAEA
:103CE00041EC1B0B384603F025FA9FED511B53ECBA
:103CF000112B03F06FFA41EC180B404603F01AFA4F
:103D00009FED4D1B53EC112B03F064FA41EC190BA2
:103D100051EC180B53EC192B02F08CFF53EC1B2BBE
:103D200002F088FF53EC1A2B02F084FFCDE9080162
:103D3000002008909DED080B53EC1A2B51EC100B52
:103D400003F088FB53EC1B2B03F084FB53EC182B84
:103D500003F080FB53EC192B03F070FB9FED381B35
:103D600053EC112B03F036FA9FED370B41EC180B97
:103D700053EC102B9DED080B51EC100B03F02AFABD
:103D800053EC182B02F056FF9FED310B41EC180B52
:103D900053EC102B9DED080B51EC100B03F01AFAAD
:103DA00053EC182B02F046FF41EC100B139810F067
:103DB000004F06D06D4251EC100B02F0FDFE41ECBD
:103DC000100B284684ED000B41E6000000000000C7
:103DD0000000000000000000FB21E93F7CD9024008
:103DE00000004054FB21F93F3163621A61B4D03DB9
:103DF000FB21F93F000000000000601A61B4D03DD3
:103E00007370032E8A19A33BFB2139410000000087
:103E100083C8C96D305FE43F000000000000E03F50
:103E2000923C0000E03B0000000000000000103E5B
:103E3000000000000000103C000000000000103AEC
:103E4000182D4454FB21F93D3326A611460B113C95
:103E500000000054FB21F93D10B52DED040B2DEDB4
:103E6000088B82B0B0EE419AF0EE619A0B9820F088
:103E700000449FED4BABB4F1795F11DA9DED0A0B75
:103E800051EC100B03F0E2F8002801BFB0EE4A0A33
:103E9000F0EE6A0A02B0BDEC088B04BF04B010BD9E
:103EA0009DED0A0B53EC102B51EC100B03F092F923
:103EB00041EC180B3C480621B0EE480AF0EE680AC7
:103EC000784400F081F853EC182B51EC100B03F000
:103ED00081F99DED0A0B41EC1B0B53EC192B51ECB6
:103EE000100B03F077F941EC190B53EC1B2B51EC41
:103EF000180B03F06FF953EC192B03F0ABFA9FED9D
:103F00002C0B41EC190B53EC102B51EC180B03F05C
:103F100061F941EC100B2848844210DA53EC192B5C
:103F200051EC100B03F096FA53EC1A2B03F086FABF
:103F300041EC100B02B0BDEC088B04B010BD1F4863
:103F4000A042BCBF9FED1E1B8DED001B06DBA4F540
:103F500000100190002000909DED001B51EC100B13
:103F600053EC112B03F076FA9DED000B41EC180B8E
:103F700053EC102B51EC1A0B03F06CFA41EC1A0BBA
:103F800053EC192B51EC180B03F064FA53EC1A2B79
:103F900003F054FA41EC100BCCE7000000000000E5
:103FA000000000000000F03F0439000000000000A5
:103FB000000000000000E03F3333D33F0000E93F42
:103FC000000000000000D23F70B504462DED028BCA
:103FD0004D1E00EBC500B0EE408AF0EE608A90ED19
:103FE000000B35F0060017D053EC182B51EC100BDA
:103FF00003F0F0F841EC100B6D1E04EBC50090EDE2
:10400000001B51EC100B53EC112B02F013FE41EC92
:10401000100B35F00600E7D1022D36D0042D1CD050
:10402000062D1CBFBDEC028B70BD53EC182B51EC60
:10403000100B03F0CFF894ED0A1B53EC112B02F098
:10404000F9FD53EC182B03F0C5F894ED081B53EC65
:10405000112B02F0EFFD41EC100B53EC182B51EC3F
:10406000100B03F0B7F894ED061B53EC112B02F084
:10407000E1FD53EC182B03F0ADF894ED040B53EC79
:10408000102B02F0D7FD41EC100B53EC182B51EC28
:10409000100B03F09FF894ED021B53EC112B02F070
:1040A000C9FD53EC182B03F095F894ED001B53EC6D
:1040B000112B02F0BFFDBDEC028B41EC100B70BD6B
:1040C00031B504462DED040B2DED0A8BB0EE41BA4F
:1040D000F0EE61BA0B989DED0A0B20F00040B0F1B4
:1040E000795F0DDA51EC100BFFF7FCFA042808BFDA
:1040F00000F09AF89DED0A0BBDEC0A8B05B030BDBF
:1041000053EC102B51EC100B03F064F841EC180B3E
:104110009DED0A0B53EC182B51EC100B03F05AF8E1
:1041200041EC190B2C48B0EE480AF0EE680A052164
:104130007844FFF749FF9FED2ACBB0EE40AAF0EE9E
:1041400060AA9CB353EC1C2B51EC190B03F042F802
:1041500041EC1C0B53EC1A2B51EC190B03F03AF801
:104160009FED210B41EC190B53EC102B51EC1B0B69
:1041700003F030F853EC192B03F06CF953EC182BC7
:1041800003F028F853EC1B2B03F064F953EC1C2BC1
:1041900003F060F99DED0A1B53EC112B03F04EF96F
:1041A000BDEC0A8B05B041EC100B30BDFFE753ECC2
:1041B0001A2B51EC180B03F00DF853EC1C2B02F0EA
:1041C00039FD53EC192B03F005F89DED0A1B53EC58
:1041D000112B02F02FFDE3E78C37000000000000F8
:1041E000495555555555C5BF000000000000E03F3A
:1041F00010B553EC102B51EC100B02F01BFD41ECF1
:10420000100B10BD000000009FED050B10B553EC26
:10421000102B51EC100B02F0C1FD41EC100B10BD46
:1042200000000000000000009FED050B10B553ECEE
:10423000102B51EC100B02F0CDFF41EC100B10BD18
:10424000000000000000001001EE100A9FED102A8F
:104250001248F8EEC11A46F2A811006881EE821ADF
:104260009FED0C2AB0FBF1F0C0EE021A9FED0A0A96
:1042700001EE801A00EE100AB8EE400A20EE010AA4
:1042800080EE201ABDEEC10A10EE100A7047000041
:104290000000BB430000CC419A99993F48000020A0
:1042A00000B502460B4600F04BFB801A994101D342
:1042B000012000BD002000BD10B504210948FEF713
:1042C00045F808480068016A41F21112114207D10D
:1042D000016A9210114203D1016821F001010160CD
:1042E00010BD0000F427002010B57F2802D8D0F1BF
:1042F0007F0400D1012404210748FDF7C3FF0021FA
:104300000548FEF723F8044801688C6300680168DB
:1043100041F00101016010BDF42700202DE9F041BA
:10432000064600EE106A314C0D462DED028BB8EEBC
:10433000C00AD4ED010A174670EE608A00EE105AEA
:10434000D4ED020AB8EEC00A30EE608A28EEA80A60
:1043500008EE080AFFF744FBDFED250A254930EE99
:10436000200A10EE100AC8EE800A884288EE001A71
:1043700027DDB3EE040A60EE200A20EE018A94EDF8
:10438000010A30EE200A10EE100A03F04DF941EC5C
:10439000100BFFF7D1F951EC100B02F057FE94ED22
:1043A000020A064630EE080A10EE100A03F03CF945
:1043B00041EC100BFFF7C0F951EC100B02F046FE78
:1043C00005463A462946304600F05CF800EE106A91
:1043D000B8EEC00A84ED010A00EE105AB8EEC00A29
:1043E00084ED020ABDEC028BBDE8F08110000020D4
:1043F0006F12833A0000A04105480029C0F814114B
:1044000005D090F81801012801D101F01BBC7047BC
:104410005802002070B500252DED028B002801DA2E
:1044200040420125134C002358B113499FED138BD3
:1044300046F2A812096801280FD002280DD00328DF
:104440000BD0A4F8083100BFB4F808012946BDEC30
:10445000028BBDE8704001F04FBBB1FBF2F002F0FF
:1044600069FE53EC182B02F0B5FE02F01FFEA4F813
:104470000801E9E758020020480000200000000081
:104480000000E03F00EE100A70B5F8EEC00A9FEDA4
:10449000200A224C00252DED048B80EE809A00EE40
:1044A000901AF8EEE00AC0EE808A00EE102ADFEDE6
:1044B000190AB8EEC00A20EE200ADFED170A20EE36
:1044C000208A00BF04EB850004EB851690ED4E0AB0
:1044D000D0ED520A20EE090A00EEA80A30EE080AD2
:1044E00086ED0F0A96ED0F0AFFF7F0F830646D1CA9
:1044F000042DE7DB71B6002004EB80110A6C4A63DF
:10450000401C0428F8DB61B6BDEC048B70BD0000D4
:104510000000C842CDCCCC3C0AD7A33D58020020B5
:1045200010B500F0B9F971B600EE100ADFED130A0C
:104530001349B8EE400A20EE200A81ED4C0A81F8BA
:104540002C0161B600F0CAFD0E4910F0FF040BD03B
:104550000A78052A02D2521C0A700CE00520087065
:10456000FCF7B4F8204610BD002008700246022176
:104570000548FCF70AFC002010BD0000335315402D
:10458000580200201C000020000802402DE9F041E4
:10459000794ED6E90001FFF783FE784C4FF47A7527
:1045A00068B1284600F0B6F9C6E90001FFF7B8FF88
:1045B000022818D06068002801DD401E6060704E3F
:1045C000D6E90001FFF76CFE30B100F0C1F92846D2
:1045D00000F0A0F9C6E900016A4E307900287DD0CC
:1045E00003287BD145E0616841F28830491C616055
:1045F0008142E4DB0020FFF70DFF00221146104648
:10460000FFF740FF0021084600F0C4F800210846EB
:10461000FFF7F2FE5C4C002202212046FCF7B5FBBE
:10462000012202212046FCF7B0FB00221F23114685
:10463000642001F075FA00221F231146642001F066
:104640006FFA642000F080FE002202212046FCF771
:104650009CFB00231A461946184601F061FA002314
:104660001A461946184601F05BFA284600F06CFE1F
:10467000D6E7A0680122401CDFF810811702A06075
:1046800039464046FCF781FB4FF4FA65284600F0B6
:104690005BFE002239464046FCF777FB01F002FB47
:1046A0000120FFF7B7FE284600F04EFE0020FFF77E
:1046B000B1FE0021142000F06DF8284600F044FE01
:1046C00014210020FFF798FE284600F03DFEA06868
:1046D0006FF06307012804D0022800E03BE01BD004
:1046E00036E0002164220846FFF718FE284600F055
:1046F0002BFE002211461046FFF710FE00213A461D
:104700000846FFF70BFE284600F01EFE0022114669
:104710001046FFF703FE1BE000213A460846FFF76C
:10472000FDFD284600F010FE002211461046FFF75E
:10473000F5FD002164220846FFF7F0FD284600F051
:1047400003FE002211461046FFF7E8FD0020A0609E
:10475000307903280DD00E4CD4E90001FFF7A0FDFD
:10476000002806D001F00EFC012000F0D3F8C4E9C7
:104770000001BDE8F0810000780000201C0000204E
:104780008000002058020020000802400000024083
:104790009800002006490028C1F8100107D091F8C0
:1047A0001811012903D10146002001F04BBA7047CE
:1047B000580200202DE9F0411E4888B000780028FA
:1047C00034D003A801F064FBDFF86C80002403AD53
:1047D0006E4601AF08EB841055F824104164B3EE27
:1047E000000A083000F018FE002803DA01213155D4
:1047F000404201E00021315527F81400641CE4B266
:10480000042CE7D39DF803309DF802209DF8011099
:104810009DF8000001F0DAF9BDF80A30BDF8082073
:10482000BDF80610BDF8040001F0F8F908B0BDE8C5
:10483000F0810000340000205802002082B0CDE951
:10484000000121F0004001909DED000B02B051EC01
:10485000100B70471FB50020039009200090012025
:1048600001900220029069460A48FBF75BFF094865
:10487000FCF7B2F864210748FCF758F80548FBF745
:10488000F7FF04460348FCF725F904B0C4F307100A
:1048900010BD00005C2500201FB5002003900820FB
:1048A0000090012001900220029069460A48FBF71F
:1048B00039FF0948FCF790F864210748FCF736F8FF
:1048C0000548FBF7D5FF04460348FCF703F904B09D
:1048D000C4F3071010BD00005C25002010B504468D
:1048E000002020610A480068C00701D0002010BDE8
:1048F00004F11400FDF746FE202807D9D4F814016E
:10490000401CC4F814014FF0FF3010BD206110BDF1
:10491000100C024000B5024600F012F8801841F178
:10492000000100BD00210A46435C491C1A44C9B27B
:10493000D2B22029F8D390F820001044C0B27047BA
:1049400071B602490868496861B67047A000002046
:1049500070B50122124D940221462846FCF715FA43
:104960001048007950B1032811D007280BD02146F8
:104970002846BDE870400022FCF707BA1F236422D6
:104980001146104607E01F230022642102E01F2386
:10499000642200210020BDE8704001F0C1B8000091
:1049A000000C0240580200202DE9F041144F154E32
:1049B00005460024002220213046FCF7E6F92806AF
:1049C00001D5012200E0002220213846FCF7DDF964
:1049D000012001F007FD012220213046FCF7D5F926
:1049E000012001F0FFFC6806641C050EE4B2082CEF
:1049F000E0D33046BDE8F04101222021FCF7C5B9E3
:104A000000040240000002402DE9F04116460F4626
:104A10000446002571B600F00DF9A02000F0D6F88C
:104A2000380A00F0D3F8F8B200F0D0F800F002F93C
:104A3000A12000F0CBF8761E08E000BF00F084F85B
:104A40002070002000F05CF8641C6D1CB542F5D3AA
:104A500000F07AF82070012000F052F800F012F90E
:104A600061B6BDE8F0812DE9F04716000D46074616
:104A700043D071B605F01F00C0F12004B44200D944
:104A8000F4B24FF000092AE0387800F09FF87F1C5C
:104A9000641EE4B2F8D200F0F5F800240A2001F018
:104AA00096FC641CE4B200F0C5F8A02000F08EF87B
:104AB000804600F0E7F8B8F1000F01D10A2CEDD3E1
:104AC0000A2C19D0D14405EB0A0085B2B14513D2A6
:104AD000A6EB0900202801D9202400E0C4B2A24698
:104AE00000F0A8F8A02000F071F8280A00F06EF895
:104AF000E8B200F06BF8CBE761B6BDE8F0870000E4
:104B000070B5104C4FF40061C8B101222046FCF78B
:104B10003CF90A2001F066FC012295022946204654
:104B2000FCF733F90A2001F05DFC002229462046FB
:104B3000FCF72BF9BDE870400A2001F053BC0022BD
:104B4000E4E70000000402402DE9F04108250024BC
:104B500071B601221C4ED1023046FCF716F9DFF87F
:104B60006880371508F110081EE00A2001F03AFCB1
:104B7000002239463046FCF708F90A2001F032FCE1
:104B8000012239463046FCF700F90A2001F02AFCE0
:104B90006006040ED8F8000010F4006F01D044F055
:104BA00001040A2001F01EFC6D1EEDB2DDD20022D0
:104BB00039463046FCF7E9F80A2001F013FC61B6EB
:104BC0002046BDE8F0810000000402402DE9F041DC
:104BD000054671B60024164F4FF400685FEA275669
:104BE00005FA04F0000601D5012200E0002241464A
:104BF0003846FCF7CAF80A2001F0F4FB01223146DE
:104C00003846FCF7C2F80A2001F0ECFB00223146DE
:104C10003846FCF7BAF8641CE4B2082CE0D30A204A
:104C200001F0E0FB00F030FA61B6BDE8F081000071
:104C30000004024070B50122114DD40221462846DD
:104C4000FCF7A3F80A2001F0CDFB012296023146C1
:104C50002846FCF79AF80A2001F0C4FB00222146FE
:104C60002846FCF792F80A2001F0BCFB00223146EE
:104C70002846FCF78AF8BDE870400A2001F0B2BB74
:104C80000004024070B50E4D4FF40064002221462E
:104C90002846FCF77AF80A2001F0A4FB01229102D1
:104CA0002846FCF772F80A2001F09CFB01222146FD
:104CB0002846FCF76AF8BDE870400A2001F092BB74
:104CC0000004024003484178002902D08178491C41
:104CD000817070471C0000200B4810B54FF48071A4
:104CE000C1600A4A426000210161094A8260094AA2
:104CF0000260C0F8141100F0BFFA01F0A7F800F04C
:104D00009BFF002010BD000040010020DD4800088E
:104D1000A95A00087952000810B504462221FBF771
:104D2000ACFB002020706070A070E070207160719A
:104D3000A071E07120726072A072E0720321217391
:104D4000122161737F21A173E0735A2084F820003F
:104D50002046FFF7E7FD84F8210010BD10B5094C8F
:104D6000012211022046FCF710F8002221152046EE
:104D7000FCF70BF804480068016841F0010101608C
:104D800010BD0000001002408428002070B51A4EAB
:104D90004FF48074002221463046FBF7F6FF174D92
:104DA0000022A1002846FBF7F0FF01222021304617
:104DB000FBF7EBFF002220211148FBF7E6FF114E25
:104DC000002202213046FBF7E0FF00222146304658
:104DD000FBF7DBFF002280213046FBF7D6FF0022E5
:104DE00004212846FBF7D1FF2846BDE87040012288
:104DF0000421FBF7CABF000000000240000C024083
:104E00000004024000080240FFF73CBF012310B538
:104E10001A461946184600F0B1FE00231A461946F4
:104E2000184600F0D3FE00231A461946184600F033
:104E3000F5FE02490020087010BD0000340000207B
:104E400010B5094C002204212046FBF79EFF0122E9
:104E500002212046FBF799FF04480068016841F0F1
:104E60004001016010BD0000000C0240A42500209C
:104E7000F0B578482DED048B97B01EC88DE81E0064
:104E80000FC805AC84E80F000CA800F09DF972482B
:104E90009DF83C10C1609DF83D1001619DF83E10E9
:104EA0007F2900D97F21416104AA0BA90AA800F03B
:104EB00083FD42F2B0016948FBF701FB674C9DF8A6
:104EC0002C0020609DF8280060719DF8100000F013
:104ED000070020718DF810009FED618AB0EE481A2E
:104EE000DFED608AF0EE680A9FED5F9A04F108003A
:104EF000B0EE490A00F05EFAB0EE481AF0EE680A29
:104F0000B0EE490A04F1480000F054FAB0EE481A35
:104F1000F0EE680AB0EE490A04F1880000F04AFA9F
:104F2000B0EE481AF0EE680AB0EE490A04F1C80083
:104F300000F040FA0020A4F808019FED4C0A054655
:104F400084ED430A6E469FED4A8ADFED4A8A00BF30
:104F500006EB8500D0ED000A80EE880A20EE289A44
:104F600019EE100A02F060FB41EC100BFEF7D4FCC6
:104F700051EC100B01F02CFE04EB8507C7F838014B
:104F800019EE100A02F050FB41EC100BFEF760FC2A
:104F900051EC100B01F01CFE6D1CEDB2C7F848017E
:104FA000022DD5D35FF0020506EB8500D0ED000A97
:104FB00080EE880A20EE289A19EE100A02F034FBDF
:104FC00041EC100BFEF7A8FC51EC100B01F000FEB9
:104FD00004EB8507C7F8380119EE100A02F024FB2C
:104FE00041EC100BFEF734FC51EC100B01F0F0FD1E
:104FF0006D1CEDB2C7F84801042DD5D3002505AED0
:1050000006EB8500D0ED000A80EE880A20EE280A23
:1050100010EE100A02F008FB41EC100BFEF718FC32
:1050200051EC100B01F0D4FD04EB85016D1CEDB2C9
:10503000C1F85801042DE3D30F484FF40071A0F8D4
:10504000A81000F01BF800F0C7FE17B0BDEC048BF1
:10505000F0BD0000207700081C000020580200204E
:10506000000000006F12033AEC51B83D809A90475F
:1050700000003443DB0F49405822002010B500F0F7
:1050800053FE002010BD000070B5134C0122D10268
:105090002046FBF77AFE0A2001F0A4F901229502CE
:1050A00029462046FBF771FE0A2001F09BF90A48C9
:1050B0001030006810F4006F03D0FFF7E3FD00200C
:1050C00070BD002229462046FBF75FFE0A2001F052
:1050D00089F9012070BD0000000402402DE9F04173
:1050E0000024FFF7B7FB354B334A596842F82100DB
:1050F000491C5960052903D100215960012119700B
:10510000002619783546B9B35FF0010152F82670D0
:1051100052F82100B84200DD0E4652F82570B84220
:1051200000DA0D46491C0529F0DB52F82670D3E958
:10513000020100EB010C674501DD42F8260052F840
:105140002560411A8E4201DA42F8250010680121DB
:10515000C3F8080052F82150491C28440529F9DBFE
:10516000052190FBF1F1C8B299608B2911DA012475
:1051700085290EDC02240CE0FFE7D2E90015294462
:10518000D2E902522A441144CA1701EB92718910E4
:10519000996071B60A4981F82D0100EE100ADFED21
:1051A000090AB8EE400A20EE200A81ED4D0A61B6E8
:1051B0002046BDE8F08100001C0100200000002016
:1051C000580200206666CA3D10B504462221FBF74E
:1051D00054F9222200212046FFF716FC2046FFF753
:1051E000A1FB94F820105A2903D194F82110814290
:1051F00007D02046FFF790FD222200212046FFF72E
:1052000032FC002010BDFBF7CBFDFDF7F5FF71B6BA
:10521000FDF718FBFDF7ACFAFDF7DCFBFDF7AAFC88
:10522000FDF712FDFDF746FDFDF77CFDFDF7B2FD34
:10523000FDF714FEFDF744FEFDF7F0FBFDF732FC31
:10524000FDF79AFEFDF7DEFDFDF76CFC002205215F
:105250002B20FBF735FE2B20FBF724FEFDF79CFFF0
:10526000FDF7BCFA00F077F8FEE70146002084293C
:1052700000D0C81C704700001CB525A10022D1E950
:105280000001CDE9000124494FF0FF3008600421FE
:105290002248FBF77AFD7020FDF72EF93F21002010
:1052A000FDF72AFA322001F087F819211120FDF7C5
:1052B00023FA00210120FDF71FFA01210220FDF74A
:1052C0001BFA03210846FDF717FA00210420FDF719
:1052D00013FA1348407900F07F010520FDF70CFA1E
:1052E00026210620FDF708FA052269460020FDF771
:1052F000BBF9002069460A5C11320A54401CC0B256
:105300000528F8D305216846FDF7CCF91CBD00003F
:1053100000984571100000004C000020000C024075
:10532000580200200EB501238DF804004FF0FF3025
:10533000009002AA01A90348FCF7DAF99DF80800D9
:105340000EBD0000A425002010B500B9012000F01A
:105350002BFF002010BD10B500F0C2FF002010BDD3
:105360007FB50D4604464169B0F9080081B1A169D5
:1053700071B1FFF77AFFD4E905128DE80700D4E98F
:1053800000102B46226901F096FA039004B070BD1C
:10539000FFF76BFF03A9CDE90001208A2B4682B2FB
:1053A000D4E9001001F05AFA012801D00020EDE7FD
:1053B0000398EBE780EC030A70EE200A002170EE00
:1053C000810AC0ED030AF0EE000A01EE200A80ED2A
:1053D000040A80ED051AC162064946F2A8129FED43
:1053E000060A0968B1FBF2F1816180ED070A00F05D
:1053F00005B800004800002000002F439FED050A7B
:10540000002180ED080A80ED090A80ED0A0AC162D8
:10541000704700000000000010B504462DED028B1F
:10542000B0EE408A90ED090A80ED0A0A90ED081A64
:1054300080ED091AC06A401A01EE900AF8EEE11AEE
:10544000C4ED081AD4ED030A226B60EEA11AD4ED64
:10545000040A40EEC11AD4ED050A40EE801ABDEEF2
:10546000E10A10EE100A10442063226BA069824208
:1054700003DC226B4042824200DA20630846FDF7DB
:1054800098FD002800DA404294ED070AF0EE480A41
:10549000FEF7DAFE216B814203DC216B4042814240
:1054A00000DA2063206BBDEC028B10BD2DE9F041CA
:1054B000184C0F460546E6682068001D00F082FD86
:1054C00038B9206890F82C10012088402169814368
:1054D0002161681C07D137B12168BDE8F0410E4851
:1054E000091D00F0B3BD20683544B5424560216810
:1054F00005D2A06BBDE8F041091D00F08FBD606BC7
:10550000091D00F08BFDA06A854200D2A562BDE8AE
:10551000F0810000B4000020802A00202DE9F04135
:10552000054600F09FFD2E4CA068401CA06020683E
:105530002C4F10B1606940B32DE02560A0680128B0
:1055400029D1002606EB860007EB800000F058FD0D
:10555000761C072EF6D323488C3000F051FD2148ED
:10556000A03000F04DFD1F48B43000F049FD1D484B
:10557000C83000F045FD1B48DC3000F041FD194803
:105580008C3060631430A06305E02068E96AC06A6B
:10559000884200D82560606A401C6062E96A012088
:1055A000226988401043206101EB810007EB8000F5
:1055B000291D00F04BFD00F075FD606900280CD03E
:1055C0002068E96AC06A884207D207494FF08050D4
:1055D0000860BFF34F8FBFF36F8FBDE8F08100000D
:1055E000B4000020A429002004ED00E010B504461A
:1055F00090F8510058B101280CD002280FD050204B
:1056000080F31188BFF34F8FBFF36F8FFEE7206BDE
:1056100000F05CFD2046BDE8104000F057BD10BD15
:1056200010484FF47051420706D0C01D0D4920F0BC
:105630000700411AC1F570510B4A00230144C2E929
:1056400000030839183A21F0070111604B600B6024
:105650000B1AC0E9001393604FF000405360506193
:1056600070470000942A002008010020144E154CB9
:10567000A6F1C8074FF08058DFF84C9012E000BF49
:1056800000F0F0FCF068C568281D00F09BFCA068E5
:10569000401EA0606068401E606000F003FD284668
:1056A000FFF7A4FF60680028EAD138680128F9D91B
:1056B000C9F80080BFF34F8FBFF36F8FF2E7000090
:1056C0006C2A0020B400002004ED00E0034600989E
:1056D00029B10260C0E90F31012100F037BF00603D
:1056E000F8E72DE9F0479A46DDE9098481466FF035
:1056F0000303206B03EB82021044089E20F007078F
:10570000780707D0502080F31188BFF34F8FBFF385
:105710006F8FFEE7002561B1002023180A5C83F833
:1057200034200A5C12B1401C1028F6D384F8435090
:1057300001E084F83450072E00D30626E662C4E95F
:105740001165201D00F067FC04F1180000F063FCF7
:105750002461C6F107006462A061E56484F85050DA
:1057600052464946384600F011F92060B8F1000F62
:1057700001D0C8F80040BDE8F087000030B51149FD
:1057800000E011460A688242FBD34B685C188442F1
:1057900003D1406818444860084643681C18944286
:1057A00009D1084C183C2468A24209D052681A4416
:1057B00042600A6812680260814200D0086030BD11
:1057C0000460F9E70801002010B5044600F04AFC27
:1057D000A06B28B15FF0000400F064FC204610BD0F
:1057E0000124F9E70648416B096829B1416BC96892
:1057F000C9684968816270474FF0FF31FAE70000DD
:10580000B400002008484068401C4FF0500080F36E
:10581000118804D0BFF34F8FBFF36F8FFEE7BFF344
:105820004F8FBFF36F8FFEE7100100202DE9F0418D
:10583000044600F017FC94F9455004F1240609E0F1
:10584000606A48B1304601F01BF908B100F0DAFC9B
:105850006D1E6DB2002DF3DC4FF0FF3684F845600D
:1058600000F020FC00F0FEFB94F9445004F1100716
:1058700009E0206948B1384601F002F908B100F0AA
:10588000C1FC6D1E6DB2002DF3DC84F84460BDE8F0
:10589000F04100F007BC00002DE9F041054600276B
:1058A00000F054FD324E306808B9FFF7B9FE706958
:1058B00005424ED1C5B3083568070ED005F0070084
:1058C000C0F108000544680707D0502080F3118814
:1058D000BFF34F8FBFF36F8FFEE72DB37068854224
:1058E00037D82348183001460C6801E020460C46A2
:1058F0006168A94202D221680029F7D131688C423F
:1059000027D007682168016060680837411B1029AB
:105910000FD96019420708D0502080F31188BFF3D7
:105920004F8FBFF36F8FFEE713E041606560FFF7B5
:1059300025FF61687068401A7060B268904200D2BA
:10594000B060706901430020C4E90001F068401CA8
:10595000F06001F0CFF8780707D0502080F311886D
:10596000BFF34F8FBFF36F8FFEE73846BDE8F0817E
:10597000F00000200449086818B10868826C521CC5
:105980008264086870470000B400002010B5031F4F
:105990004FF080741C601B1F21F001011960191F5A
:1059A000044B0B6014390A60091F6FF0020244387F
:1059B0000A6010BD055800082DE9F05F92468B463D
:1059C0000446002571B62A46364F80213846FBF73B
:1059D000DCF9052000F006FD4FF4807800224146F6
:1059E0003846FBF7D2F9012280213846FBF7CDF982
:1059F000DFF8B090002609F110096D08D9F8000011
:105A0000800501D545F40045012241463846FBF7A3
:105A1000BCF9012000F0E6FC002241463846FBF7C5
:105A2000B4F9012000F0DEFC761CF6B2102EE4D3AF
:105A300061B6690B8AF80010C5F30310207005F0F9
:105A40000F00401C8BF8000021785D20102926D221
:105A5000DFE801F0080A0C0E10121416181A251CA3
:105A60001E2022245F201AE0492018E04B2016E077
:105A70004D2014E04F2012E0512010E055200EE0A0
:105A800059200CE065200AE0672008E0692006E064
:105A90006D2004E0712002E0752000E07920207084
:105AA000BDE8F09F0008024070B5114D0446002289
:105AB00004212846FBF769F90020FCF7DFFDFCF71D
:105AC0004DFD217C04F11400FCF730FE012204217D
:105AD0002846FBF75AF9142000F084FC0022042128
